:10100000003500209942000041AF00006D42000011
:101010006D4200006D4200006D42000000000000C3
:10102000000000000000000000000000693B00001C
:101030006D42000000000000153B00006D42000002
:10104000193C0000193C0000193C0000193C00004C
:10105000193C0000193C0000193C0000193C00003C
:10106000193C0000193C0000193C0000193C00002C
:10107000193C0000193C0000193C0000193C00001C
:10108000193C0000193C0000193C0000193C00000C
:10109000193C0000193C0000193C0000193C0000FC
:1010A000193C0000193C0000193C0000193C0000EC
:1010B000193C0000193C0000193C0000193C0000DC
:1010C000193C0000193C0000193C0000193C0000CC
:1010D000193C0000193C0000193C0000193C0000BC
:1010E000193C0000193C0000193C0000193C0000AC
:1010F000193C0000193C0000193C0000193C00009C
:1011000053B94AB9002908BF00281CBF4FF0FF316E
:101110004FF0FF3000F00CB8ADF1080C6DE904CED3
:1011200000F008F8DDF804E0DDE9022304B07047C0
:10113000704700BF2DE9F04786468C460846089E5A
:10114000154674461946002B40F0C2808542B2FA1B
:1011500082F245D94AB1C2F1200300FA02FC2EFA0C
:1011600003F3954043EA0C0C94404FEA154EA8B2A5
:10117000BCFBFEF8230C0EFB18CC08FB00F943EA7D
:101180000C43994528D9EB1808F1FF3704D299454B
:1011900002D9A8F102072B44A3EB0903A4B2B3FBC5
:1011A000FEFC0EFB1C330CFB00F044EA0344A0429F
:1011B00014D92C190CF1FF3304D2A04202D9ACF19E
:1011C00002032C44241A43EA07401EB1D4400023F2
:1011D00034607360BDE8F0874746DDE76346F1E7BA
:1011E00092BB431B01214FEA154EAFB2B3FBFEFC8D
:1011F000200C0EFB1C330CFB07F840EA0343984518
:1012000062D9EB180CF1FF3004D2984502D9ACF149
:1012100002002B44A3EB0803A4B2B3FBFEFC0EFBBD
:101220001C330CFB07F744EA0344A7424ED92C19A0
:101230000CF1FF3304D2A74202D9ACF102032C44D3
:10124000E41B43EA0040C0E7C2F1200320FA03F1A7
:10125000954090402EFA03F303434FEA154EAFB288
:10126000B1FBFEFC0EFB1C10190C0CFB07F841EA4D
:101270000041884504FA02F422D969180CF1FF30C4
:1012800004D2884502D9ACF102002944A1EB08013F
:101290009BB2B1FBFEFC0EFB1C110CFB07F743EAF3
:1012A00001439F420ED9EB180CF1FF3104D29F424B
:1012B00002D9ACF102012B44DB1B41EA004192E769
:1012C0006046E3E76146F7E76046A3E76346B7E7B2
:1012D000834206D916B9002108467BE7C6E900E03B
:1012E000F9E7B3FA83F78FB9834201D3724508D87F
:1012F000BEEB020460EB030301209C461EB90021F3
:1013000068E73846FAE7C6E9004CF8E7C7F1200C71
:10131000BB4022FA0CF41C432EFA0CF120FA0CF319
:10132000B84001434FEA14490EFA07F5B3FBF9F848
:101330001FFA84FE09FB18300B0C08FB0EFA43EA77
:1013400000439A4502FA07F240D9E31808F1FF304A
:1013500004D29A4502D9A8F102002344A3EB0A0360
:1013600089B2B3FBF9F809FB183308FB0EFE41EA1A
:1013700003418E452CD9611808F1FF3304D28E4504
:1013800002D9A8F10203214443EA0040A0FB0298DD
:10139000A1EB0E014145CE46434602D306D14D4551
:1013A00004D2B9EB020E68EB04030138002EA6D07C
:1013B000B5EB0E0261EB030101FA0CFC22FA07F314
:1013C0004CEA0303F940C6E9003198E74046C5E717
:1013D0004346D9E710B51848184C07F0A1FA014662
:1013E000206010B3164808F082FF164B164920689B
:1013F0003F2203F0F1FABFF35B8F144B53E8001F59
:1014000041F0010143E80012002AF7D1BFF35B8FDE
:101410000021206809F0FDFD10B10D4808F067FFBC
:101420002068BDE8104009F0F9BD0A4808F05FFFE8
:101430006FF0120010BD00BF0CC40000140A0020A1
:101440002CC4000038C10000F6C40000100A0020BF
:101450003FC4000012C40000094BBFF35B8F53E888
:10146000002F22F0010143E800100028F7D1BFF35C
:101470005B8FD30702D4034808F039BF704700BF21
:10148000100A00205BC40000032810B5014607D0F5
:101490000A2804D001280ED1094B00221A7010BD71
:1014A000074C2378002BFAD1064B1868FFF7D4FFBE
:1014B00001232370F3E7BDE81040034808F017BF8D
:1014C000721F0020140A00208FC4000007B5154ABF
:1014D000BFF35B8F52E8003F43F0010142E8001088
:1014E0000028F7D1BFF35B8F13F0010313D10E492E
:1014F000086849686A4603C20C48082200686946C1
:1015000003F080FA28B10A4808F0F1FE03B05DF854
:1015100004FB0848F8E7084803B05DF804EB08F05E
:10152000E6BE00BF100A002020C10000140A0020FF
:10153000A3C40000BBC40000CCC4000007B5164A19
:10154000BFF35B8F52E8003F43F0010142E8001017
:101550000028F7D1BFF35B8F13F0010316D10F49B9
:10156000086849686A4603C20D481D228DF80720A5
:1015700000680822694603F045FA28B1094808F0D6
:10158000B6FE03B05DF804FB0748F8E7074803B070
:101590005DF804EB08F0ABBE100A002020C100008B
:1015A000140A0020A3C40000BBC40000CCC4000087
:1015B00038B5124801F0AEFDD0B911491148114DAE
:1015C000114C0AF0A3F911490F480AF09FF90021C4
:1015D0004FF4004008F096F9284607F093FE0021EA
:1015E0004FF4004008F08EF9204607F08BFEEEE73E
:1015F000074808F07CFE002038BD00BF89140000B9
:101600003D150000280A0020180A0020CD14000013
:10161000E1C400002DE9F04F91B08407009302F07F
:1016200004030293C2F3C20303F10103DDF86880EF
:10163000039205460E46059340F0BE81041D30B16D
:10164000072909D86FF01B0011B0BDE8F08F01F039
:101650000706341DC6F10806009B4FF00009591E0D
:101660004FF0040A4FF0FF330193CDF810904F462E
:10167000CB4653460DB1009A22600598002800F32E
:10168000EB809A48009A824203D399488242C0F084
:10169000E380039AA4EB050E92074FEA9E0000F147
:1016A00006810F2F00F2B480002D00F0088107F1B1
:1016B00040020DEB020C019A0CF8200C0CF8102CD7
:1016C000049801300490EAE07A2860D84B280ED8BC
:1016D00047285CD829282FD8252855D057D8202826
:1016E0007DD02338D0F1000B4BEB000B77E0A0F15D
:1016F0004C0CBCF12E0F4AD8DFE80CF07149494977
:1017000049494949494949494C4949494949494946
:10171000495A494C4C5A5A5A714C6E497149184CA5
:1017200018494983804C49494C49800000204FF0BA
:10173000000B4FF0040A39E0A0F12A0C5FFA8CFC90
:10174000012202FA0CFC1CEA0E0F48D11CF0625078
:101750002ED11CEA020B42D0013C5444CAF1000CC9
:1017600004EA0C04002D61D0A3EB050CA444B4459D
:101770003FF668AF002868D1042B47D158F8043BE6
:101780002360043404232AE0019A013A01924FF0C5
:10179000000B24E011F8010C6C2834D111F8023C44
:1017A00000206C2B8346C4D14FF0080A5346D3E780
:1017B00008F1070828F007080734F8E802AB24F01E
:1017C000070435B106982044B0423FF63BAFC4E968
:1017D00000AB08344FF0000B4FF0080A534611F8E5
:1017E000010F002878D0BBF1000F7FF46DAF2528E2
:1017F000F5D1019B013301934FF0010B4FF0040A27
:10180000ECE7584693E700208346A5E7082B02D073
:101810006FF0150018E708F1070828F00708F8E846
:101820000223C4E9002308340823D8E768B9042B4D
:1018300002D108F10408A4E7082BE9D108F1070850
:1018400028F0070808F10808EDE7059A013A059223
:1018500058F8042B00920DE7039A900720D5A4EBCB
:10186000050E4FEA9E004FF0010CBEF5007FCFD26F
:101870000F2FCDD8F5B107F140020DEB020EC0B22B
:10188000019A0EF8200C0EF8102CBCF1000F3FF45A
:1018900017AF60F07F000EF8200C09F10109013745
:1018A000C5F10802043406924FF6DA7E97E74FF04E
:1018B000000CDAE7BCF1000F01D00136EFE7029827
:1018C00002360028EBD10098CDE9063109F042FB41
:1018D000DDE906310644E2E7631BB3F5806F97D27A
:1018E00045B9A6F10804E018AEE600BF88BD0000C7
:1018F0002CD40000029A28609B082B709DF81030B1
:10190000C2B1EB7085F80290B9F1000F05D008A8BC
:101910000022C5F1010C97420ED1C5F101030DF172
:1019200020084FF0000A01930DF1300B574512D1FA
:10193000601B89E66B70E5E710F8013B190608D5D6
:1019400004EB0C0EB64503F07F033FF67BAE04F8C4
:10195000013B0132DFE7B9F1000F03D098F9002015
:10196000002A17DB029BD3B11AF80B2004F8012BD5
:101970000022019B98182044B0423FF663AE98F8CD
:10198000000004F8010B00990392204609F0F5FAD3
:10199000039A14440AF1010A08F10108C6E798F80D
:1019A000002055F822300093029B45F82230009821
:1019B00009F0D0FA421CDCE76FF00D0044E600BFEE
:1019C0002DE9F04F95B000AF0446D7F878B0BB6171
:1019D000CBF3C0037A623B61396251B90378467830
:1019E000807800EB830020443B6A9E421AD8031B98
:1019F0003B6294F802A0E3787B615646BAF1000F8F
:101A000002D01BF0010F17D17B695BBB7B6A1BB156
:101A1000BA69396A204698473D6A28465437BD4618
:101A2000BDE8F08F451C284609F094FA3B6A013066
:101A3000013328443B62D7E794F800806368FB6178
:101A40007B6A4FEA8802FA6004EB8808002B40F0BA
:101A500001813D6AC1460AEB080300264B454ED181
:101A6000D04413E01BF0020FD0D094F800804FEA6E
:101A70008803FB606368FB617B6A04EB8808002BCA
:101A800078D13D6ABAF1000F4ED156461BF0050FD2
:101A90000CBF022301237B627B6908EB430A0BF036
:101AA00002033B62D045B8D018F8021B18F8013C7D
:101AB00054F82390AC4B994502D3AC4B994539D39C
:101AC0003B69002B43D0F86908F0ECFB00283ED0BE
:101AD000E9468AB06A46A64B5361FB69C2E9063102
:101AE0004FF400731384A34B42F8103FA248002325
:101AF0004FF4125100F0D8FC023DCD46D2E719F860
:101B0000012B7B6254F8220009F024FAFA6F7B6AF9
:101B100001303AB1D7F8802096423EBFFA6F22F8E2
:101B200016000136054499E71BF004061CBF7E6AC7
:101B3000D044ABE73B6923B1F86908F0B3FB002858
:101B4000C6D11BF0010F05D17B6AED1AAAE73B6AEB
:101B5000002BA7D0484609F0FDF9FB6F43B1D7F839
:101B600080309E423FBFFA6F431C22F81630013688
:101B7000054497E7BAF1000F71D01BF0040671D04D
:101B8000D146002607F140005246414609F0F5F9DA
:101B90007B695B00BB607B69D04408EB43037B61DE
:101BA0000BF002037B607B6998455DD12378FB6174
:101BB00063781BF0020F06EB03020CBF4FEA5901DA
:101BC00000211BF0010FD2B240F09D801BF0040FEA
:101BD00014BF4846002094F802B094F803803B619B
:101BE0006270A070E170BA69F9687B6A2046984714
:101BF000051EFFF612AFFB6923703B69637084F822
:101C00000380BA697B6A84F802B0494607F1400054
:101C10009847B0F10008C0F2A3803B6ABA697869BE
:101C2000A3EB0A01FB68C91ABB68C91A7B6A98470B
:101C30000028C0F29780A84408EB00054FF0000B85
:101C400007F1300AB34560D30021BA697B6A0846C0
:101C50009847E2E64FF0000907F1300094E7564656
:101C6000D14695E7B14693E718F8021B3E4A18F8AB
:101C7000015C54F82530934202D33C4A93421CD372
:101C80003B6923B1F86908F00DFB00288BD17B6814
:101C9000F3B909F1280207F12800024409F1010310
:101CA00002F8101C07F1500252FA83F309F10209FD
:101CB0005FFA89F903F8105C75E73B692BB1F869A5
:101CC00008F0F0FA00287FF46EAF1BF0010F09D086
:101CD00006F1280207F12801731C561806F8205C4B
:101CE000DEB260E71BF0040F3FF45DAF09F128029C
:101CF00007F1280109F1010302EB010909F8105C61
:101D00005FFA83F94FE7002065E71BF80A3087F890
:101D10002F3054F82390FB6FFBB133F81B80BA6966
:101D20007B6A012107F12F00984700281ADB054440
:101D3000B8F1000F06D1484609F00CF900F101088E
:101D40001FFA88F8BA697B6A4146484698470028D6
:101D500008DB05440BF1010B74E7D7F87C80DEE764
:101D600045465AE6054658E688BD00002CD40000DA
:101D700035C500000400000198C000002DE9F047BF
:101D8000058B04462807904611D4022905F0070563
:101D900040F0CD80204608F0A1FC78B10138218BBD
:101DA000042811D8DFE800F0C3106D8595000129E3
:101DB0000CBF45F0100545F02005258388F31188F8
:101DC000BFF36F8FBDE8F08701F0070AAA4500F066
:101DD000A6800027B9463E46A368002B00F0BD80D0
:101DE00041F00801218388F31188BFF36F8FA16848
:101DF000002900F0BB800D68002900F0B780D1F801
:101E00000480334652462046C047002D76D02B68CA
:101E100029461D46F0E701F007035A1F012A1BD887
:101E2000002221F00701062B276889B2C4E90022AD
:101E300009D13B4603E0628B013262831B68002BB1
:101E4000F9D141F002012183204608F047FC002827
:101E50007BD041F0200177E0042B0AD121F007016B
:101E600089B22183204608F039FC10B141F02001ED
:101E70002183218B01F0070AAA4550D00027B946DB
:101E8000AAE7236921F0070141F00601062DD3F8E6
:101E9000009021832DD1B9F1000F40D041F008010D
:101EA000218388F31188BFF36F8F3A492046C847D2
:101EB00029E021F00701236941F0040189B2042DD2
:101EC000D3F804902183E6D000273E464FF0040A61
:101ED00082E721F00701236941F0050189B2052D50
:101EE000D3F808902183D6D000273E464FF0050A4C
:101EF00072E700273E464FF0060A6DE72B4687E75C
:101F0000B9F1000FD1D14FF02003EFF3118883F323
:101F10001288BFF36F8F238B23F008032383258B55
:101F2000EA062ED525F01003238305F00705666920
:101F3000218B002EBFF66FAF00232768C4E9003362
:101F400021F0070141F001012183218B01F0070AF3
:101F5000AA454FF000097FF43FAF002F9BD041F01E
:101F60000801218388F31188BFF36F8F002FC7D03A
:101F70003D68394633465246204608F0DBFB2F4683
:101F8000F4E7AB067FF51AAF25F02003238305F0B5
:101F90000705FFE661A7000008B504464FF02002E0
:101FA000EFF3118382F31288BFF36F8F04F0DEFB2F
:101FB000204602F0F7FA034808F099F901F0A8FC6E
:101FC000FCE700BFE9C5000004F018BC2DE9F047AC
:101FD000DFF85880044607464FF0010914B9384627
:101FE000BDE8F08794FAA4F5B5FA85F509FA05F38A
:101FF0002E0108EB05156FEA030A24EA03042B7B84
:10200000002BEBD058F806301B694BB9464404222C
:1020100073682846196807EA0A0700F031FADDE715
:10202000284698470028D9D1F0E700BF20C100001A
:1020300030B51049104889B0002209F0FDFD0F4D60
:102040000F4900220023CDE9062300240E23CDE909
:102050000334CDE901440B4B00944FF44072284601
:1020600006F06AFE0849284609F09CFB204609B0A4
:1020700030BD00BF8D20000058070020D002002096
:10208000C01F00204923000012C60000014806F0CE
:10209000E1BF00BF080200202DE9F04780461F483D
:1020A0000F4608F09EFE0646002830D00025284640
:1020B000BDE8F087237B73B12368DB680BB1204652
:1020C000984723681B69D3B96368042219682046BE
:1020D00000F0D6F9013610344C45EBD3B8F1000FBF
:1020E000E5D0002DE2D02846FFF770FF0546002F0F
:1020F000F7D000214FF4A47007F004FCF1E720466C
:1021000098470028E0D00AFA06F31D43E2E7044CA2
:10211000DFF8109005464FF0010ADDE7480A00207D
:1021200020C1000020C1000010B5044C237813B971
:10213000034806F08FFF0123237010BD731F00209A
:102140000802002010B50446084808F04AFE5CB1B9
:10215000BFF35B8F064B53E8001F013943E80012C1
:10216000002AF8D1BFF35B8F10BD00BF400A0020EA
:10217000440A00200020064BBFF35B8F014653E862
:10218000000F43E80012002AF9D1BFF35B8F7047BC
:10219000400A002070B5FFF7EDFF084C084E0546D9
:1021A000B44200D370BD63685B792BB123685B6870
:1021B00013B12946204698471034F1E720C10000AA
:1021C00020C1000010B5044C0449204608F09AFCD8
:1021D000034B1C6010BD00BF4C0100204CC100002F
:1021E000380A0020054A00231370054A1360054A87
:1021F0001360054B054A1A60FFF7E4BF741F002007
:10220000400A0020440A002000000020DFAD00004A
:10221000014600220148002308F095BC4C01002033
:10222000014808F02EBD00BF4C010020024B0146C2
:10223000186808F078BD00BF380A0020014808F08F
:10224000AEBD00BF4C01002070B5284B18780028A7
:102250004BD0FFF7E5FF054690B1BFF35B8F244BF2
:1022600053E8001F013943E80012002AF8D1BFF3F8
:102270005B8F204C204EB4422DD32846FFF7D6FF6B
:102280001E4B1F4C1B68002B19DD09F0ADFC4FF4F1
:102290007A72A0FB020302FB0131C30BD4E90020D8
:1022A00043EA41439B1A4FEAD13140F2E93261EBF4
:1022B0000001934271F1000101D3FFF76BFFD4E9F4
:1022C000003213F57A7342F10002C4E90032BDE82E
:1022D0007040FFF7B3BF63685B7923B12368294679
:1022E0001B68204698471034C5E770BD731F002057
:1022F000440A002020C1000020C10000400A002044
:102300005007002070B50D4D297861B90120FFF705
:10231000C3FE0B4C0B4EB44206D3FFF795FF0028CB
:10232000FBD101232B7070BD63685B791BB12368FF
:1023300020469B6898471034EDE700BF741F0020CB
:1023400020C1000020C1000000212DE9F04708460F
:10235000FFF7A2FE044648B340F267684FF0000959
:1023600007F004FB1A4B186030B11A4B1B68092B9D
:1023700002DD194806F06EFE184FDFF85CA000255C
:1023800044B12046FFF722FE044618B94FF0FF384B
:102390004FF0FF39FFF758FF064628B9B5B9424656
:1023A0004B46504606F076FE3546E9E74FF0FF38DB
:1023B0004FF0FF39D4E72B689B691BB1002211460F
:1023C000284698471035BD42F5D3E8E7044DFAE7B3
:1023D0003C0A0020440A00200802002020C100001E
:1023E00020C1000013B5184808F0FBFC174B1B7800
:1023F0007BB14FF02003EFF3118483F31288BFF316
:102400006F8FFFF721FF84F31188BFF36F8F02B046
:1024100010BD0F4B1B68002BF9D050B900220023D0
:10242000CDE900230B484FF40042002307F0E2FC03
:10243000EDE70A28EBD1074809F00AFC064802B08C
:10244000BDE8104006F006BE440A0020741F0020BC
:102450003C0A0020580700200802002010B5064B57
:102460001B68044698472146A060044808F0E9FB31
:10247000BDE81040FFF7B6BF000000204C0100206F
:10248000084BC31A10B41B1144680133237143680D
:102490009A7143681960436801225A7110BCFFF7B2
:1024A00043BE00BF20C100002DE9F04F8FB004AF44
:1024B000C1F34A28B8600D4691467B600C0DB8F117
:1024C000000F63D0002607F114034FF0040B4FF008
:1024D0000A0AC7F80C80C7E907667E620193CDF847
:1024E00008B0CDF800A007F11C03F9683246484651
:1024F000FFF766FAB0F5006F03461CD36C468AB04E
:10250000D9F8041004AB2648C3E9050140F2FF7175
:10251000D9611A464FF400711984224B42F8103FDA
:10252000214833464FF41251FFF7BEFFA5462C3722
:10253000BD46BDE8F08FC0F30A0804F11700184447
:1025400020F0070080083B60FFF762FE68F3532528
:10255000044690B13B68154AC7E9083600F11001FE
:1025600007F11403F961CDE900A3CDF808B0F968CB
:1025700007F11C034846FFF723FA68F353257B68ED
:10258000B9682A46204608F060FCD0E704F117003D
:1025900020F007008008FFF73BFE0446EDE700BF90
:1025A00027C6000004000001C0C000001FAE0000EC
:1025B0002DE9F04F87B0DDE91269DDE9105A0446D4
:1025C0000F4693469846A6B31021CDF800903346A7
:1025D00052460020CDF81490FFF71CF8014605F193
:1025E00017000844144B039104F007040BF0070B89
:1025F000E40020F0070003EA412344EA8B1480083A
:102600001C43FFF705FE44EA0554054640B13EB1C0
:102610000399CDF80090334652461030FEF7FAFF8A
:10262000434622463946284607B0BDE8F04F08F039
:102630000CBC3146D3E700BF00FE0F002DE9F84384
:1026400005464FF02003EFF3118683F31288BFF3A2
:102650006F8F0E4B0E4F1C68DFF838804FF00C095F
:102660002CB986F31188BFF36F8FBDE8F883D4E9E6
:102670000123002D18BF13462BB198F8102009FB39
:1026800002F2B85C98472468EAE700BF640A0020B9
:10269000580A00205C1D002070B5194B1C7CBFF34C
:1026A0005B8F04F01F0301229A40164B610903EB74
:1026B0008103D04353E8001F01EA000543E80056B8
:1026C000002EF7D1BFF35B8F0A4213D00E4B0F4D94
:1026D0008BB10C236343EA18E85C517808F06DFC79
:1026E0000020FFF7ABFF0C235C432A1900232B517A
:1026F000C2E9013370BD83F31188BFF36F8FEFE739
:102700005C1D00206C0A0020BBAF0000580A0020AE
:102710002DE9F041354B07461D7C4FF02003EFF3C8
:10272000118883F31288BFF36F8F0C24304B314E26
:102730006C431A19195D00294CD007CA06EB040C2A
:102740008CE8070000221A5588F31188BFF36F8FB9
:102750000C236B43F218F05C002839D07B1C10D09E
:10276000D2F808C0244C254A4FF400400021ECFB6D
:10277000004100232046FEF7C3FC0121381A03F074
:10278000B9FF07F005F80120FFF758FFBFF35B8F93
:102790001B4B6A0903EB820305F01F0101228A40EB
:1027A00053E8000F104343E800010029F8D1BFF3BC
:1027B0005B8F144B3BB10C2303FB05F03318305CEB
:1027C000597808F0EEFBFFF767FF06F0F5FF0120F0
:1027D000BDE8F0810146284600F016F80028B3D085
:1027E00007C8344484E80700AEE700BF5C1D002042
:1027F0004C0A0020580A00203F420F0040420F00C0
:102800006C0A0020A3AF00002DE9F04F85B00E4602
:1028100003A900F043F81E4B039DD3F800A0DFF896
:102820007480431E1BB203EB4303044605EB830590
:102830004FF400474FF0000B24B9A146484605B0BD
:10284000BDE8F08F6868144AC4465946E0FB07C1EA
:1028500000236046FEF754FC0190A8680E4AC44667
:102860005946E0FB07C100236046FEF749FCBAF178
:10287000FF3FA94601D0824505D9731CDED0019BDC
:102880001844B042DAD9013CA4B20C3DD4E700BFF1
:10289000040000203F420F0040420F0008B9024BE5
:1028A0000B600020704700BF60C10000F0B40C4B0B
:1028B0000C4E5F6A0C4BB34203D36FF08500F0BC43
:1028C00070475D68BD4209D31C693CB195F802C0F0
:1028D0000579AC4502D12346F0BC18472433EAE71A
:1028E000700A0020D0020020AC0200202DE9F04741
:1028F000134CDFF85080DFF8509005460E4617461F
:10290000444503D36FF08500BDE8F0876268D9F8CD
:1029100024309A4212D3A36983B1907829798842EE
:1029200005D13A4631462846BDE8F0471847527966
:10293000012A03D13A463146284698472434DFE736
:10294000AC020020D0020020700A00202DE9F041E6
:102950000B4CDFF8308005460E461746444502D33F
:102960006FF0850009E063690BB92434F6E73A4655
:102970003146284698470028F7D1BDE8F08100BFCE
:10298000AC020020D002002002480822002108F0FA
:10299000FFBA00BF2B0B002070B50B4B0B4CA342B2
:1029A00001D3002070BD196A1E7F00220439D5B200
:1029B000AE4201D82433F2E7013211F83250854299
:1029C000F5D10120EEE700BFAC020020D0020020CC
:1029D00008B509480378C3F341130A3350F823308C
:1029E0003BB100F1080200F110019847C043C00F4D
:1029F00008BD1846FCE700BF700A00207FB5084BF1
:102A00000593022304930748002304AA4FF482513C
:102A1000FFF74AFD4FF0FF3007B05DF804FB00BF41
:102A200069C6000000C1000073B5C4B263060D465C
:102A30008DF8074007D02046FFF7AEFF78B10D4B69
:102A400093F8BA0058B10B4E204655B102F0E4FCA1
:102A5000F3691BB10DF1070108209847012002B06E
:102A600070BD02F013FDF369002BF7D00DF10701E3
:102A70000920F2E7700A002080B500AF88B06A46EE
:102A8000074BC2E90530032342F8103F05480023F5
:102A90004FF4C251FFF708FD0020BD4680BD00BFC6
:102AA0008EC6000000C1000004282DE9F74FDFF8B2
:102AB0009C9004460F4615D001282FD1DFF8908056
:102AC00098F8B93053B300F0F3FD224D4D4522D2B2
:102AD0002A6A4FF0000A2B7F5FFA8AF6B34204D8C5
:102AE0002435F3E7FFF750FFE8E702EBC606019253
:102AF000307908F0B7FA8346307908F0BFF9D8F892
:102B0000C430019A23EA0003BBF1000FC8F8C430B7
:102B10000AF1010ADFDA002388F8B9300D4D4D457E
:102B200008D30B4B1B6A6BB13946204603B0BDE896
:102B3000F04F1847EB681BB13A46214628469847A4
:102B40002435ECE703B0BDE8F08F00BFD0020020D1
:102B5000700A0020AC020020F8B500AF054608F06E
:102B600081FA10F1780F044613D090B16E4688B008
:102B70006A460E4BC2E90535032342F8103F0C4864
:102B800000234FF4C251FFF78FFCB5462046BD46E7
:102B9000F8BD284608F072F9064AD2F8C43023EA94
:102BA0000003C2F8C4300024F0E700BFA9C600004B
:102BB00000C10000700A0020F0B583B000AF0446E9
:102BC0008078387023796279274D43EA02237B802D
:102BD000E37803F003033B7108F050F9D5F8C430F3
:102BE000184206460CD0A478204600F043FD20464B
:102BF000FFF7B2FF08F0D0FD10B9962006F09CFE5A
:102C0000384602F0D5FB10F1780F0346387814D01F
:102C10009BB16C4688B06A46144BC2E90530032369
:102C200042F8103F124800234FF4C251FFF73CFC1A
:102C30000020A5460C37BD46F0BD02F063FC10F144
:102C4000780F08D038B16C4688B03B786A4609499D
:102C5000C2E90513E3E7D5F8C4300120334385F812
:102C6000B900C5F8C430E5E7700A0020CBC6000003
:102C700000C10000EFC600002DE9F047A34EB36984
:102C800004460F461546FBB9237803F01F03012BBA
:102C900000F09D80022B00F0048133BB94F900000A
:102CA0002A686178002834DA062912D008292BD046
:102CB000D9B901231370517096F8C3305B0043F00B
:102CC0000103137002232AE198470028DCD1002079
:102CD0000DE06288100A011F0129844605D90728E2
:102CE00003D8716AD2B20C781CB96FF01500BDE838
:102CF000F0874E78664503D19A4200F00B8101338C
:102D00002144F0E70B780AE196F8BA3013700123FA
:102D100005E101390829E8D801A353F821F000BFE3
:102D2000B92D0000EB2C0000C72D0000EB2C00009B
:102D3000452D0000EB2C0000EB2C0000EB2C0000DC
:102D4000512D0000A07802F0F7FA0028BFD0CCE7A0
:102D50006388756A63BBFFF717FE638886F8BA302D
:102D6000F369002BB3D06A4903209847AFE76B782B
:102D7000042B10D0052B11D0022B04D16F7963885E
:102D8000BB4208BF01202B781D442B78002BEED1CD
:102D90000028AAD0DFE795F80380F4E76388BB42F8
:102DA000F1D1B8F1000FEED12846FFF705FFEAE7B1
:102DB000FF270020B846E8E76388012B95D1002360
:102DC00086F8C33083E76388012B8ED1F8E796F845
:102DD000BA30D5F800C0002B87D0756AA38894F864
:102DE00004E02A46107800283FF47FAF517802298A
:102DF00004D192F80480F04500F293800244F1E798
:102E00008CF800208CF80120396060E7154494E0CC
:102E10000B2A7FF46AAF00274FF0FF08C146BA467D
:102E200006E06B78042B0FD0052B21D02B781D44A6
:102E30002B78002BF5D1F36913B151460720984741
:102E4000002F7FF444AF50E795F80280A38895F8EF
:102E500003909845EAD163889945E7D1B8F1070F07
:102E60001CD806EB0803AA4683F8BB900127DDE7D0
:102E7000A3884345DAD1A3784B450AD0AF783846CA
:102E800000F0F8FB3846FFF767FEB0FA80F77F09DD
:102E9000CCE72846FFF790FE0746C7E7AA4600277B
:102EA000C4E794F900206378002A18DA002B7FF435
:102EB0001CAF24792D6863060AD02046FFF76CFD0D
:102EC00000283FF412AF96F8BA30002B3FF40DAF54
:102ED0002946204602F0FAFA00236B70F2E6012B35
:102EE00008D0032B7FF401AF6388002B7FF4FDAE85
:102EF000012103E0618800297FF4F7AEA088FFF785
:102F000093FD00287FF4E3AEEFE600BF700A0020D7
:102F10002A0B0020022829607FF4F4AE4B883B6026
:102F2000D5E694F9000062780028BFF671AF002A58
:102F30003FF466AF0A2A7FF4D8AE2A78002A3FF41D
:102F4000D4AE697804297FF461AFA9788B427FF40D
:102F50005DAF072B96BF9B19002393F8BB308CF80D
:102F60000030D4E613B5134C237DCBB9E268A168D9
:102F7000019201AB802007F08FFF019AA3681344F0
:102F8000A360E3689B1AE36043B93AB12369E2881E
:102F90009A4203DD9B0601D10123237502B010BDC7
:102FA00000231A4619468020237502B0BDE8104060
:102FB00002F0D2BA700A002070B58AB000230D4624
:102FC00001930646002868D1002940D108220B460B
:102FD0000DEB020108F05FF8002804DA802002F00F
:102FE0001BFA0AB070BD324C029A2260039A6260EA
:102FF00004F13802A2609DF90820BDF80E30257555
:10300000002AC4E9035515DB802B0FD9294B0993FE
:103010000223089328482B4608AA4FF48251FFF751
:1030200043FA802002F0F8F92846D8E713B1C4E942
:103030000333D6E7FFF7CCFC0028CFD0E288236922
:103040009A42D4BFE260E360FFF78CFFC9E7184CF7
:10305000D4E90212002A01AB05DC024608F01BF895
:103060000028BEDABAE708F016F8002804DA802053
:1030700002F0D2F93046B2E7019AA3681344A36084
:10308000E3689B1AE360002BABD104F13803A36023
:10309000FFF79EFC0028D7D1A0E78028A1D1044BE0
:1030A000DA68002AD0D11B7D002BCDD199E700BF73
:1030B000700A002010C7000000C10000054B064A3E
:1030C0009A62064ADA62064A1A63064A58629A61A6
:1030D00000207047700A0020792C0000AD28000005
:1030E0004D290000ED28000010B5094B93F8B840B9
:1030F00054B900F0D9F818B9BDE81040FFF77EBC0C
:10310000FFF7DCFF204610BD6FF07700FBE700BF44
:10311000700A00202DE9F34104463B4D3B484FF037
:10312000FF324FF0FF3305F0ABFE95F8B860002E8C
:1031300067D137482C62E86102F082FB02F0CAF8DE
:10314000041E42DB00F0D8FA041E3EDB4023684632
:10315000ADF802308DF804608DF8006002F028F9B7
:10316000041E32DB802768468DF8007002F020F9DB
:10317000041E2ADB2749304602F04EFB041E24DBE6
:103180002449384602F048FB041E1EDB224CDFF8BF
:103190008C80444520D3002002F0B4F9041E14DBD7
:1031A000D5F8C430802043F00103C5F8C43002F0E4
:1031B000A9F9041E09DBD5F8C43043F48033C5F8FF
:1031C000C430012385F8B8300024104805F0D2FE41
:1031D000204602B0BDE8F081276A0026227FF3B2C4
:1031E0009A4201D82434D4E707EBC30257F83310CE
:1031F000107902F011FB01360028EFD04FF0FF34B8
:10320000E3E76FF07704E0E7700A0020F4010020A4
:10321000A92A0000B92F0000AC020020D002002033
:1032200030B51F4B8BB005AA03F11005186859681B
:10323000144603C40833AB422246F7D11B782370EF
:103240001022002101A807F0A3FE12220021154838
:1032500007F09EFE102101A808F010F800281BDDE1
:103260000828B8BF0820093801AB0E491A180020F9
:1032700012F8013F0AAC04EB131403F00F032833D8
:103280006B44013014F8144C13F8143C0C700828EB
:103290004B7001F10201EBD102480BB030BD00BF11
:1032A00034C70000751F00202DE9F04F834C8BB010
:1032B00000AF00264FF0011BB2463546B0462378DA
:1032C00043B97F4B02349C42F3D17C482C37BD4636
:1032D000BDE8F08F6378052B05D8DFE803F0A6047E
:1032E00003A6073FA04623781C44E8E7E378002BB9
:1032F000F9D1A37843B30AF1010A5FFA8AFAF2E737
:103300006A68944223D024359D42F9D36D4688B033
:103310006A466C4BC2E90534032342F8103F6A4801
:1033200000234FF4C251FFF7BFF8AD46674B7B62F5
:1033300002233B626448002307F120024FF48251CC
:10334000FFF7B2F80020C1E7614D624BDCE7AB68E4
:10335000002BD0D0514620469847CCE7002D62D1B3
:103360005D4B7B6202233B625748002307F120023A
:103370004FF48251FFF798F8D8E7296AA07801EB5B
:10338000C2010B79984205D001322B7F9A42F4D3C7
:10339000524BE6E74FF00109E07800F00300387582
:1033A000207994F805C040EA0C20788294F9020054
:1033B00000285FFA89F328DA09F110004FF0010CB8
:1033C0000CFA00F010EA0B0F27D143F0800038749C
:1033D00007F11000C7E90131FA6001F0BFFFD7E93A
:1033E00002127B68C8B93A7CA27012F0800F18BF35
:1033F00010330A7118BFDBB24FF0010214BF9A40BC
:1034000002FA09F24BEA020B6DE7012000FA09F01B
:1034100010EA0B0F01D11846D9E709F10109B9F1FA
:10342000100FB9D1B0E70022AFE7032E2AD1FFF782
:10343000F7FE8146A8B107F08DFDF86088B12848F5
:1034400007F088FDFA68824217D0264B7B62022380
:103450003B621D48002307F120024FF48251FFF721
:1034600023F823786FF00201E218091B04EB5303E1
:10347000D1420ED50136F6B235E74946A01C07F019
:103480007CFDEEE7002EECD1B8F1000F0AD1164B0F
:1034900067E74FF0000002F8010C13F8010902F889
:1034A000020DE5E7A4EB080388F80230C3F3072315
:1034B00088F8033088F804A0DCE700BF2802002069
:1034C000AC02002045C70000F8C000002BC8000077
:1034D000AC020020D002002065C70000A6C7000093
:1034E00034C70000C3C700000EC8000010B5094B68
:1034F00000211A461C78844204D15C6814B102EBA6
:10350000811010BD0131042903F14003F2D10020E4
:10351000F7E700BF380B00202DE9F04383B050F8E7
:10352000283C10F82C5C103300AF044611D103691D
:1035300050F8202C13F002064ED00ABB13F00403FF
:1035400004D11A461946284607F0A6FC002344F881
:10355000283C54F8283C10330ED054F8186C5EB157
:1035600054F81C8C54F8149C08F016F900286FD0FD
:103570003D48214608F0E7F90C37BD46BDE8F08329
:1035800050F8241C3B1D284607F086FC98B16E4677
:1035900088B06A46354BD561C2E90530042342F84C
:1035A000103F334800234FF40151FEF77DFFB5462D
:1035B0006FF01503CBE77A6854F8243C134444F8C1
:1035C000243C54F8203C9B1A44F8203C54F81C3C02
:1035D000134444F81C3CBCE750F8241C3B1D28460F
:1035E00002F05CF888B1E84688B06A461F4BD561A6
:1035F000C2E90530042342F8103F1D4833464FF41A
:103600000151FEF751FFC546D2E77E6854F8243CCD
:10361000334444F8243C54F8203C9B1B44F8203CA1
:1036200054F81C3C334444F81C3C002E8ED02846F1
:1036300002F00CF9B6FBF0F303FB1066002E85D107
:1036400054F8203C002B81D0284602F08DF880E70A
:1036500044F8180CA4F1100005F0FCFC4A46414661
:103660002846B04788E700BF5009002059C800002D
:1036700018C1000010B54FF02003EFF3118483F35D
:103680001288BFF36F8FFFF731FF50B143681033DB
:1036900007D16FF08B03436000F12C01034808F061
:1036A00052F984F31188BFF36F8F10BD50090020C9
:1036B00070B50F4C04254FF02003EFF3118683F310
:1036C0001288BFF36F8F6368103307D16FF08B03DD
:1036D0000848636004F12C0108F035F986F311887D
:1036E000BFF36F8F013D04F14004E4D170BD00BF12
:1036F000380B00205009002070B50A4C0A4E0025F6
:103700003146204608F002F90122A4F110001146CA
:10371000013508F0DDF8042D04F14004F0D100205B
:1037200070BD00BF640B002019350000014806F091
:1037300011BC00BF60C1000038B5044618B90F4B7A
:103740000F485B6898476168B1F5683F0FD0B1F5E5
:10375000680F0CD00B4DA94209D011F4686107D055
:103760000948214607F0EFFF00232360656038BD5C
:103770002068142207F00CFCF8E700BFDC000020F2
:1037800083C800002C5F5CA93811002008B520B365
:103790004368B3F5683F10D101220368BFF35B8F24
:1037A00053E8001F002903D143E800200028F7D187
:1037B000BFF35B8F0DD1002008BD094A93420AD0A8
:1037C00000684FF0FF324FF0FF3305F059FB00283F
:1037D000F1D00448F0E70448EEE76FF4E040EBE78F
:1037E0002C5F5CA9E98FFFFFEA8FFFFF08B5D8B116
:1037F0004368B3F5683F10D100220368BFF35B8FC5
:1038000053E8001F012903D143E800200028F7D125
:10381000BFF35B8F0BD1002008BD074A934208D04D
:10382000006805F0A7FBF6E76FF4E040F4E7034813
:10383000F2E70348F0E700BF2C5F5CA9E98FFFFFC8
:10384000EA8FFFFF10B5044618B91D4B1D485B6891
:1038500098476368B3F5683F2FD0B3F5680F2CD055
:10386000194A934219D1236803BB18484FF0FF321D
:103870004FF0FF33214605F0FFF908B923681BB963
:103880000F4B13485B68984720681422002107F00B
:103890007FFB4FF46863636008E0B3F5683F0DD8C1
:1038A0003A2B03D040F6BA629342DED1206807F08B
:1038B0008FFF636843F03A03636010BD054AF3E786
:1038C000DC00002083C800002C5F5CA938110020B8
:1038D000A9C800003A00003A08B506490648402346
:1038E000142207F022FFBDE808400449044806F00E
:1038F000A3BB00BF380C00203811002068C10000B5
:103900007CC10000014910220A60704710ED00E000
:1039100072B6404080F31188BFF36F8FBFF34F8FB3
:1039200030BF62B6BFF36F8F704700BF72B64940B9
:1039300081F31188BFF34F8F20BF80F3118862B6E7
:10394000704700BF2DE9F047814600AF0C460029C3
:103950004CD06E468AB0D1E90012A3686D46274864
:10396000A8464FF0050AC5E90501C5E9072348F84F
:1039700010AF2348424600234FF42151FEF794FD37
:10398000B546D4E903126369AD461E48C5F810A0D8
:10399000C5E90501C5E907231948002342464FF44C
:1039A0002151FEF781FDB54688B0E3696D46164AA0
:1039B000A8464FF0030AC5E9052348F810AF1048A0
:1039C000002342464FF4C251FEF76EFDB546A3698F
:1039D000AD460E4AC5F810A0C5E9052308480023E6
:1039E00042464FF4C251FEF75FFDB54621464846B8
:1039F00004F0C0FFBD46BDE8F08700BFD6C8000098
:103A0000D8C0000005C9000034C9000043C9000047
:103A100040B2002807DB044A4109012300F01F00DF
:103A2000834042F82130704700E100E040B20028B6
:103A30000CDB4309064900F01F00203301228240BD
:103A400041F82320BFF34F8FBFF36F8F704700BF44
:103A500000E100E0054B420900F01F0053F822206E
:103A6000012303FA00F01040704700BF00E100E0BE
:103A700040B20028A8BF00F1604001F10101B8BFC9
:103A8000064B4FEA4111ACBF00F5614000F00F005A
:103A9000C9B2B4BF195480F80013704714ED00E0A8
:103AA00030BFFFF7FDBF00BF0B4A08B50B4B22F03C
:103AB0007F029A60BFF34F8FBFF36F8FD3F88820D8
:103AC00022F47002C3F8882005F010F805F0C6FF54
:103AD00000F0D6FB05F04EF80010000000ED00E00D
:103AE000094A0A49936809689967094958674B6800
:103AF00043F080534B60002383F31188BFF36F8F33
:103B00009368986F704700BF5C1D002030C30000B1
:103B100000ED00E012498A684FF030001044EFF3E6
:103B2000098C80E8F01F202080F31288BFF36F8F8C
:103B30000C4F4FF000668A698A603E60506F002328
:103B4000536780F3118804B5104600F035FCBDE8DA
:103B5000044002F1300090E8F01F8CF309887047B0
:103B60005C1D002004ED00E01EF0040F0CBFEFF31D
:103B70000880EFF30980816911F8021C0229FFD047
:103B800001B507F0D5F901BD42F8203C009B42F891
:103B90001C3C0A49019B42F8183C029B42F8143C29
:103BA00021F001014FF0807342F8043C42F8081CF8
:103BB0000023203A02654367704700BF09A3000055
:103BC000094A0346906870B113F1160F406E05D094
:103BD000A0F140029A4205D8834203D2814228BF15
:103BE00000207047002070475C1D002008B5094B7D
:103BF0000D461446986000F0DFFB204685F30988E7
:103C0000002163B681F31188BFF36F8F0022002378
:103C100006F07AFB5C1D002001B572B60B4A5069B4
:103C200000281EBF0021516107F0C3FD62B6EFF30B
:103C30000580A0F110004FEAC0000549014409C900
:103C40009847BDE801400349084700005C1D00207B
:103C5000C0BE0000593C0000044B99689869884236
:103C600003D003494FF080520A6070475C1D00206A
:103C700004ED00E02DE9F04186B0064600AF0D46A8
:103C8000474B7B6102244FF4825146483C6107F167
:103C9000100207F05CF9444B9B6AD9046DD5434B85
:103CA0004048C7E9044307F110024FF4825107F07E
:103CB0004EF917203C4B9B6A1A050BD53C4B7B6198
:103CC000022338483B6107F110024FF4825107F09C
:103CD0003EF91820344CA36A9B0523D5E846354BA2
:103CE0007B6102232F483B6107F110024FF48251A0
:103CF00007F02DF9A36BA26A100412D588B06A46AA
:103D00002D492848C2E90513032342F8103F4FF418
:103D1000C25107F01CF9C5461EB1A36A23F4004343
:103D2000A3621920204B9B6A59050BD5234B7B615D
:103D300002231C483B6107F110024FF4825107F047
:103D400006F91A20184B9A6AD20518D51C4B7B61CC
:103D5000022314483B6107F110024FF4825107F02F
:103D6000F6F81B20104A936A43F47F439362183796
:103D700000232B70BD46BDE8F08116209AE79B6AB0
:103D80009B04EFD50F4B7B61022306483B6107F193
:103D900010024FF4825107F0DAF81C20E2E700BF6E
:103DA00071C90000D8C0000000ED00E087C9000024
:103DB00098C90000ABC90000C4C90000D9C90000FF
:103DC000F4C900000CCA000010B586B0364B374865
:103DD000059304AA02244FF48251049407F0B7F823
:103DE000334B9B6A9A015DD5324B304804AA4FF49D
:103DF0008251CDE9044307F0AAF81E202C4B9B6AA0
:103E0000DB010AD52C4B2948059304AA02234FF461
:103E10008251049307F09BF81F20254B9B6A1C03DB
:103E20000AD5264B2148059304AA02234FF4825158
:103E3000049307F08CF821201D4B9B6A59030AD587
:103E40001F4B1A48059304AA02234FF4825104938E
:103E500007F07DF82220164B9B6A9A030AD5194B6E
:103E60001248059304AA02234FF48251049307F0E9
:103E70006EF823200E4B9B6ADB030AD5124B0B48CE
:103E8000059304AA02234FF48251049307F05FF8CC
:103E90002420074A936A6FEA03436FEA134393624D
:103EA00006B010BD1D20A9E73BCA0000D8C0000025
:103EB00000ED00E053CA000066CA000080CA00009E
:103EC0009ECA0000C3CA0000DDCA00002DE9F04709
:103ED00086B0814600AF8A469046514B7B610224F2
:103EE00050483C6107F110024FF4825107F02FF85F
:103EF0004D4B9B6ADE0645D54C4B4A48C7E9044307
:103F000007F110024FF48251112407F020F8464BBC
:103F10009B6A1D070BD5464B7B61022341483B61E1
:103F200007F110024FF48251122407F010F83E4DB1
:103F3000AB6A980728D56C463E4B7B6102233B61F8
:103F40004FF48251374807F1100207F000F86E6B0A
:103F5000AB6A190660D588B06A46374B3148C2E96A
:103F60000536032342F8103F4FF4C25106F0EFFF2D
:103F7000A546BAF1000F03D0AB6A23F08003AB6211
:103F8000132403E01024C2E76FF01506264B9B6A4A
:103F9000DA070BD5294B7B61022322483B6107F1ED
:103FA00010024FF48251142406F0D1FF1E4B9B6A7D
:103FB0009B060BD5224B7B6102231A483B6107F11C
:103FC00010024FF48251152406F0C1FF164B9A6A75
:103FD000D50602D49A6A90070AD55B68190507D5F9
:103FE00049463046FFF7ECFD10B180F30988022402
:103FF0000D4B9A6A920642BF5A6A22F400525A62E4
:104000009A6A42F0FF029A6220460023183788F825
:104010000030BD46BDE8F0876FF01506B0E700BF81
:1040200008CB0000D8C0000000ED00E01ECB00006F
:1040300098C9000051CB000069CB00007FCB000085
:104040000CCA00002DE9F043774B8BB0D3F8048005
:1040500000AF0546C8F30804002686F31188BFF3B5
:104060006F8F02F07F43B3F17F4F0ED102F00C034C
:10407000082B19D16D4BFB6102236D48BB6107F121
:1040800018024FF4825106F062FF002635460023E5
:10409000FB71E31E092B00F2A680DFE803F00A990A
:1040A0009C95A4A4A4A4A49F10074CBF0D46012670
:1040B000EDE7E9465F4BFB614FF0020807F118029C
:1040C0005B48C7F818804FF4825106F040FF002388
:1040D000554CFB71E36A9A070BD5574BC7E906832A
:1040E000534807F118024FF4825106F030FF0024C4
:1040F00041E0E36A002B01DA504BEFE7E36A5B0033
:10410000F5D54F4B4A48C7E9068307F118024FF42B
:10411000825106F01CFF6369AA6943F480736361EE
:10412000BFF34F8FBFF36F8F636932F8022C23F414
:1041300080736361BFF34F8FBFF36F8F4DF60273D0
:104140009A4208D0A36ADBB28BB3FA1D012128463C
:10415000FFF7BCFE3AE088B02B686A46394934481C
:10416000C2E90513032342F8103F4FF4C25106F091
:10417000EEFE2C68CD46FB79ABB92022294607F12B
:10418000080006F0FAFE7B6A002E47D0C3F308024F
:1041900022B96FEA53236FEA43237B6207F10801D8
:1041A0002046FFF7CFFB2C37BD46BDE8F083A36A5E
:1041B00013F47F4F04D0F91D0120FFF75BFD05E0EC
:1041C000A36AB3F5803F92D3FFF7FEFD0446D2E722
:1041D000FA1D0021BBE7F91D0020EEE71A4BFB6139
:1041E0000223BB617CE7194A194B18F4F87FE846B3
:1041F0008AB018BF13466A4616490D48C2E905132E
:104200004FF400731384103C134BD4614FF41151DD
:1042100042F8103F06F09BFEC54668E723F4FF73A3
:1042200023F00103B9E700BF00ED00E0CCCB0000B4
:10423000D8C00000F7CB00000ECC00002FCC00004F
:104240003DCC00005CCC000078CC0000B3CB00007B
:104250009ECB00009CCC000004000001024A536980
:1042600043F010035361704700ED00E0EFF3088066
:10427000EFF3098101B57246FFF7E4FE01BD00BF0F
:10428000044800232021C2180133302B82F8001388
:10429000F9D1704700E100E0002080F31488BFF3FB
:1042A0006F8FFDF791FE00200D490860BFF34F8F1F
:1042B0000C4880F3088800F02BF8202080F3118848
:1042C00009484FF40461401880F30988EFF3148023
:1042D0000221084380F31488BFF36F8FFFF7E4FBDC
:1042E00094ED00E000350020402700200749D1F878
:1042F00090200023C2F307221846934200DB704748
:10430000C1F89830C1F8A0000133F6E700ED00E0F5
:1043100008B572B6002383F31388FFF7E7FF144B49
:104320004FF0FF32C3F88020C3F88420C3F8882000
:10433000C3F88C20C3F89020C3F89420C3F89820C9
:10434000C3F89C20C3F88021C3F88421C3F88821D6
:10435000C3F88C21C3F89021C3F89421C3F89821A5
:10436000C3F89C2162B6BFF34F8FBFF36F8F08BDB8
:1043700000E100E0084B9B6883420BD1EFF305831B
:1043800043B1064B5A6842F080525A605A6A22F48E
:1043900000425A6205F0F0BA5C1D002000ED00E01A
:1043A000024B034A0348012100F092B800000420A8
:1043B000000000208CC10000426E054B403A1A609C
:1043C000044A4021C3E901121846012100F08AB8CD
:1043D0005411002000000B152DE9F041DFF8B4E086
:1043E0009C4600AF154600238B421ADA4468002C25
:1043F0004DD0BCF1000F1DD0661E344215D06C4666
:1044000088B06A462449C2E90513032342F8103FE5
:10441000224800234FF4C251FEF746F86FF015050D
:10442000A5462846BD46BDE8F0811F2CE7D90268A5
:104430001642E4D1202C026886685FFA85F814D908
:10444000B4F1004F13D8013CB4FA84F4C4F11F0452
:104450006400B8F1070F46EA04060AD96C4688B032
:104460006A460F4BC2E90535CFE70824F1E73E2441
:10447000EFE722F01F022A4342F0100246F0010645
:10448000CEF89850CEF89C200135CEF8A0600133CC
:104490000C30A9E700ED00E0B3CC0000D0C0000074
:1044A000D6CC0000044B0522C3F89420BFF34F8FF5
:1044B000BFF36F8F704700BF00ED00E0BFF35F8F69
:1044C000024B0022C3F89420704700BF00ED00E0CB
:1044D00010B5034C01232278FFF77EFF207010BD3A
:1044E000871F002008B5094A00231278FFF774FFE0
:1044F00010F1160F03D0064B0022072800DD08BD7F
:10450000C3F89800C3F8A0200130F6E7871F002009
:1045100000ED00E014490868082810B521D8FFF71D
:10452000CDFF124C49680022904201F10C0105D1E7
:104530000F4B1870FFF7B6FF002010BDC4F898208D
:1045400051F80C3C23F01F03134343F01003C4F84D
:104550009C3051F8043C43F00103C4F8A030013210
:10456000E2E74FF0FF30E8E798C1000000ED00E01F
:10457000871F00204FF02003EFF3118283F312888E
:10458000BFF36F8F06490123C1F840354FF08041DA
:10459000C1F8783582F31188BFF36F8F0020704720
:1045A00000E001404FF08043C0B2C3F81C05BFF3E8
:1045B0004F8F0549054BCA6802F4E0621343CB6094
:1045C000BFF34F8F00BFFDE700ED00E00400FA05E8
:1045D00020B1034B800143F001031847704700BF2F
:1045E00030C1000080B500AF88B06A46064BC2E912
:1045F0000530032342F8103F04484FF4C45106F03D
:10460000E6FCBD4680BD00BF0FCD000008C1000024
:104610002DE9F84390F90030002B00AF04460D4619
:10462000164604DB6FF01500BD46BDE8F88303882D
:1046300023F0E0039BB240F201629342F2D190F882
:104640000490B0F802801B4849464FEA182806F04B
:1046500047FC78B96C4688B06A46174B1748C2E9E0
:104660000539032342F8103F4FF4C45106F0AFFC64
:10467000A546D7E7B8F1210F05D0B8F1220F0FD02A
:104680006FF08500D0E70368E1885B685B6813F82A
:10469000092F914294BF29602A6033600020C3E74C
:1046A000E38850F8142C9A4294BF2A602B6050F88B
:1046B000183CF2E78011002030CD000008C1000056
:1046C00080B500AF88B06A46064BC2E905300323C7
:1046D00042F8103F04484FF4C45106F078FCBD4640
:1046E00080BD00BF57CD000008C1000070B5044672
:1046F0000D4601460A4806F001FC20B92046BDE8F7
:104700007040FFF7DDBF022D08D150F8103C2BB1EF
:104710001B691BB1BDE870400068184770BD00BF41
:10472000801100202DE9F04387B0054600AF884690
:1047300001794E48914606F0D3FB0446A8B96C4671
:1047400088B0AB886A464A494A48C2E90513032340
:1047500042F8103F4FF4C45106F039FC6FF01200DC
:10476000A5461C37BD46BDE8F08395F900300068CA
:104770006E78002B3CDA022E0DD0032E28D0012EAD
:104780006DD154F8103CC3B11C68B4B14B464246DD
:104790002946A047E5E7AB78012B11D96C4688B0D4
:1047A0006A463549C2E90513032342F8103F3148F0
:1047B0004FF4C25106F00BFCA5466FF08500D0E720
:1047C000073C0123C9F80040C8F800300020C8E7C2
:1047D0006B885BB1294B7B612648022307F11002ED
:1047E0004FF482513B6106F0F2FBE6E7063CE8E756
:1047F0000A2E09D00B2E18D0092E30D154F8103CB7
:10480000002BDAD05C68C0E76B881A0ADBB2012B98
:10481000C4D8002304F8072C44F80C3C6B88003BF8
:1048200018BF012304F8083CD0E76988012906D99C
:104830006C4688B06A46124BC2E90531B4E714F8F9
:10484000063C8B42C2D054F8103CC9B204F8061C96
:10485000002BBBD09B68002BB8D09847B6E76C46BE
:1048600088B06A46074BC2E905369DE780110020F3
:1048700030CD000008C100007DCD000098CD0000C3
:10488000C4CD0000ABCD000070B5064686B00D4625
:104890000146464806F018FB044628B9304606B0E3
:1048A000BDE87040FFF79EBEA0F118060A2D7AD829
:1048B000DFE805F00611292B3A4A567979796F001D
:1048C0003B4B05933B48022304AA4FF486510493C3
:1048D00006F07DFB26E0384B05933648022304AAF8
:1048E0004FF48651049306F072FB002304F8053C54
:1048F00004F8043C3046012304F8063C06B0BDE849
:10490000704006F067BB2D4BDBE72D4B0593294824
:10491000022304AA4FF48651049306F058FB0123A6
:1049200004F8053C06B070BD264B059321480223D0
:1049300004AA4FF48651049306F049FB002304F8BF
:10494000053C04F8043CEDE71F4B0593194802238E
:1049500004AA4FF48651049306F039FB0123F0E7D3
:104960001A4B14480593022504AA4FF48651049566
:1049700006F02DFB14F8043C002BD3D0144B0D484B
:1049800004AA4FF48651CDE9045306F020FB00231E
:10499000D7E710F8083C002BC4D0304606B0BDE87D
:1049A000704006F01BBB0B4B8BE700BF8011002053
:1049B000DDCD000008C10000EACD000000CE0000FF
:1049C00011CE000023CE000037CE000048CE0000FC
:1049D00057CE000064CE000010B50469C4E900128F
:1049E000A3600023E361064BA061596804F11C0237
:1049F00011B9C3E9002210BD0A605A60FBE700BF8D
:104A00008011002030B544680069C57C87B045B18D
:104A1000007D30B9206A007907B0BDE8304006F06B
:104A20003BBA074B05930748022304AA4FF484516D
:104A3000049306F0CCFA6FF00A0007B030BD00BF57
:104A400072CE000008C10000020600F07F0312D5FC
:104A5000082B05D1010700F00F0306D50E4870475B
:104A600010F0780F12D100F00F034C2000EB431030
:104A70000A4B18447047082B05D1020700F00F03BA
:104A800006D50748704710F0780FF6D00020704721
:104A9000044800EB43107047D41200208811002016
:104AA000F4130020F41200200149024806F04BBF25
:104AB000B0110020900700200146014806F0FDBE1D
:104AC0001802002002480022002304F08FBA00BF21
:104AD0001802002010B5054CFFF7F4FF20B1011DAE
:104AE000204606F030FEF7E710BD00BF8801002029
:104AF00010B588B018480022002301A904F0BCF8C2
:104B000030B3164B1648079306AA4FF4825102247D
:104B1000069406F0A0FAFFF7DDFF0F4800220023FD
:104B200001A904F0A9F850B10E4B0D4806AA4FF4A4
:104B30008251CDE9064306F08EFA00200AE0019882
:104B4000042340600374FFF7B7FFFFF7ADFFF4E7FE
:104B50000198406008B010BD8801002093CE00008D
:104B600010C10000B1CE000098B5022800AF11D8E6
:104B7000104B1C5CFFF7BCFF50B1002202740472A2
:104B8000FFF79AFF0C4B93F824300BB1FFF78CFF23
:104B9000BD4698BD6C4688B06A46084BC2E90530F0
:104BA000032342F8103F06484FF4C25106F053FA6F
:104BB000A546EDE78DD0000088110020CDCE000085
:104BC00010C100002DE9F04190F80280064600AFC8
:104BD0004046FFF739FF18F0800FF478054625D0DE
:104BE0009CB1032C1FD06D4688B06A462A4BC2F890
:104BF0001C80C2E90534042342F8103F27484FF4D3
:104C0000015106F028FAAD460DE0FFF771FF0346AB
:104C100048B10122AC770274032202739D60FFF752
:104C20004BFFFFF741FFBD46BDE8F08154B1012CB9
:104C3000D9D1FFF75DFF03460028F4D06C770474E8
:104C40000473EBE7FFF754FF0028ECD0B278144B65
:104C500012F0800F02F0080111D041B1D3F8A8364C
:104C6000EB6001230374022303738560D7E702F02E
:104C70000F02142101FB0233D3F80836F0E711B11B
:104C8000D3F8A837ECE702F00F02142101FB02333E
:104C9000D3F80837E4E700BFE8CE000010C10000F9
:104CA0000070024013B5124803F048F9114B9842C6
:104CB0001AD1114802F0E2FA0024104802F024FB55
:104CC0000F49104800944FF0FF334FF4806204F016
:104CD0001FFB0D490B4806F065FD0C480C4906F01A
:104CE00015FE204602B010BD6FF00400FAE700BFC9
:104CF000554D00000000AD0B90D00000BCC100007D
:104D0000002300209007002014CF0000B0110020E5
:104D1000314F000010B50E49BFF35B8F002351E8FF
:104D2000002F012A03D141E800300028F7D1BFF35A
:104D30005B8F0CD151F8044C1439204605F0AEFDC0
:104D4000783004D12046BDE8104005F082BD10BD8A
:104D5000A81100202DE9F04188B0064600AF1422CA
:104D6000002107F10C0006F013F93378062B24D844
:104D7000DFE803F09E041216169018000224FFF7D5
:104D8000B7FE0346C8B1047400F10802D7E9050173
:104D900082E80300184638E003233B750024EEE761
:104DA0000423FAE796F802804046FFF74DFE837A27
:104DB000054633B1013B022B68D92037BD46BDE81B
:104DC000F08118F0800FF47824D09CB1032CF4D03B
:104DD0006D4688B06A46374BC2F81C80C2E905347C
:104DE000042342F8103F34484FF4015106F033F9E0
:104DF000AD46E2E7FFF77CFE03460028DDD0012246
:104E0000AC770274032202739D60FFF755FEFFF733
:104E10004BFED2E754B1012CDAD1FFF769FE03460D
:104E20000028CAD06C7704740473EDE7FFF760FEC6
:104E300004460028C1D00123037402230373856054
:104E4000B07805F10C0106F00FFC70B16E4688B029
:104E50006A461A4BC2E90530032342F8103F164850
:104E60004FF4C25106F0F7F8B546154AE968B2F8B2
:104E70008C328B4206D95B1AA2F88C3203F09AFA74
:104E80002046C2E70023A2F88C32F9E73046FFF74C
:104E900099FE92E7381D03F067FA7B79052B03D161
:104EA0003B7913F0600F88D0064B7B61012466E7E5
:104EB000032464E7E8CE000010C100001FCF00000B
:104EC00088110020F412002038B5002464F07F001F
:104ED000C0B2FFF7B9FD013406F0AAF8082CF5D1ED
:104EE0000E4D0024E0B2FFF7AFFD036903B9056181
:104EF000013406F09DF8082C05F14005F2D1084870
:104F000006F096F8074BD3F87C2212B9064AC3F88C
:104F10007C22064806F08CF8002038BD18180020C6
:104F2000D41200208811002018140020F41300204F
:104F30002DE9F047A34CDFF890A286B0804600AF81
:104F4000FFF7C0FD064618B91837BD46BDE8F08723
:104F500094F82520337C06F104093AB9002B00F0BF
:104F6000AF809948494606F0EEFBE9E7042B00F2D2
:104F70009581DFE813F0A50005003B0151017801A0
:104F800018F8043C83B9B3686D4688B05B7A6A460A
:104F90008E498F48C2E90513032342F8103F4FF4AE
:104FA000C25106F058F8AD46337BB568032B39D8AB
:104FB000DFE803F0023F6E736E690822002130467D
:104FC00005F0E6FF834B8448D3F880243270D3F891
:104FD00084247270D3F88824D3F88C1442EA012216
:104FE0007280D3F89024D3F8941442EA0122B2805C
:104FF000D3F89824D3F89C3442EA03230822F380A0
:105000003146EA6005F0B9FF2B68687A00219847BD
:1050100096F90030002B08DBF38833B1A4F88C320A
:1050200003F0C8F9494650469DE70023A4F88C32A6
:10503000F8E76B7F002BF5D02B7F002BF2D00026FA
:1050400066486E774FF0FF324FF0FF332E7706F051
:1050500005F86B693B606B68C7E901363946687AC9
:1050600002F0AEFF5E4B98420ED06D4688B06A46A5
:105070005C4BC2E90530032342F8103F54484FF41B
:10508000C25105F0E8FFAD46544805F0E9FFC9E715
:105090002B680121687A9847C4E7AB7A6BB9EB7F3C
:1050A0005BB94E484FF0FF324FF0FF3305F0D6FFAB
:1050B00003F0B0F9494805F0D3FF2B680221E9E776
:1050C000337A042BAED8DFE803F05903236773006B
:1050D00002F0FEFE05460028A4D102F035FEBFF323
:1050E0005B8F4149012351E8002F002A03D141E899
:1050F00000300028F7D1BFF35B8F93D141F8085CF3
:1051000041F8105CE0696361143905F04AFB89E7F6
:10511000002565F07F00C0B2FFF796FC037A13B15B
:10512000407A03F027FB0135082DF2D194F8543171
:105130001BB194F8550103F01DFB0025E8B2FFF701
:1051400083FC037A13B1407A03F014FB0135082D78
:10515000F4D194F874321BB194F8750203F00AFB91
:10516000012002F097FE012384F825302368002BEC
:105170003FF458AF00210220984753E7002584F8F8
:10518000255003F0B3FAFFF7C5FD2368002B3FF469
:1051900049AF29460420EFE7002A3FF443AF02F06D
:1051A000A1FE2368002B3FF43DAF00210520E3E77B
:1051B0002368002B3FF436AF002A3FF433AF0021C1
:1051C0000620D9E788110020880100203FCF000089
:1051D00010C10000007002408C110020C01100209E
:1051E0000000AD0B65CF0000A811002008F11005EC
:1051F0004FF0FF334FF0FF32284605F02FFFFFF747
:1052000063FE284605F02CFF58F8283C002B3FF49D
:1052100009AF00210120AFE794F8743293B1012562
:1052200084F8895284F88852FFF762FC90B9234BC6
:105230007B61022322483B6107F110024FF4825147
:1052400005F009FF58F8283C002B3FF4EBAE002195
:105250000A2091E71B4A057405738260FFF72CFC56
:10526000FFF722FCEEE7184B7B6102233B6107F15D
:1052700010024FF48251124805F0EDFE06F03BF9A2
:1052800003F034FA02F056FDFFF724FCFFF71CFE92
:1052900006F02AF90D4802F051FEC3E66D4688B0CB
:1052A0006A460B490648C2E90513032342F8103F3A
:1052B0004FF4C25105F0CFFEAD46B3E68BCF0000F0
:1052C00010C10000F41300209FCF0000554D0000D6
:1052D000B6CF000038B5164D95F824402CBB05F12B
:1052E000380006F075FA204600F0B6FB2246012190
:1052F000E8612720FEF7BCFB06F0F6F8FFF7E4FDB7
:10530000044610B9012385F824300A4B1B680BB101
:10531000FFF7CAFB4FF08043D3F83834DB0702D5E0
:105320000020FFF721FC204638BD0024FBE700BF2A
:105330008811002018020020074B93F824203AB16E
:1053400093F82530002B14BF00206FF01200704737
:105350006FF01200704700BF881100207FB5024631
:105360000378127903F00F007AB958B10D4B0E484B
:10537000059304AA02234FF48251049305F06BFEB7
:105380004FF0FF3007B05DF804FB082801D9074B48
:10539000EDE7012A06BF83F0080343F3C0000020B5
:1053A000F0E700BFCDCF000010C10000ECCF00003F
:1053B00030B5164B93F8243087B004461BB30578FC
:1053C0002846FFF741FBB0B14572237983726388A9
:1053D00043602078618810F0080F10D14B1E0B42FB
:1053E0000DD00B4B05930B48022304AA4FF48251B6
:1053F000049305F030FE6FF0150007B030BD06F0E5
:105400002EF90020F9E76FF01200F6E7881100206E
:105410000BD0000010C1000030B5194B93F82420C8
:1054200087B0054642B393F825302BB3FFF70CFB4A
:10543000044618B96FF0150007B030BD837A012B10
:105440000FD007D9023B012B07D96369A361002064
:10545000E060F1E702F0E6FFF7E7284602F056FFCA
:10546000F3E7084B05930848022304AA4FF482513E
:10547000049305F0F0FDDDE76FF01200DCE700BFFC
:105480008811002033D0000010C1000038B50E4B49
:1054900093F82420054682B193F825306BB1FFF7CD
:1054A000D3FA68B115F008040AD1284602F050FF7B
:1054B000284603F0B3F9204638BD6FF01200FBE731
:1054C0006FF01500F8E700BF8811002038B50C4BCD
:1054D00093F8242005460C4662B193F825304BB171
:1054E000FFF7B2FA48B144B1284602F017FF207026
:1054F000002038BD6FF01200FBE76FF01500F8E7F1
:105500008811002070B5134E96F824300446C3B1BC
:10551000FFF79AFA0546B8B1230705D4204602F0F2
:1055200017FF204603F07AF92B7A83B901232B72F7
:1055300096F825300BB9002070BD204603F01AF90B
:10554000F9E76FF01200F7E76FF01500F4E76FF07E
:105550007700F1E7881100202DE9F047DFF824916A
:1055600084B01E4699F8243000AF80468A4615461E
:10557000002B00F0838099F82530002B7ED010F0AE
:10558000800F14D0FFF760FA044680B1037AABB9FC
:105590006C4688B06A463C4B3C48C2E90538032358
:1055A00042F8103F4FF4C25105F055FDA5466FF08B
:1055B000150420461037BD46BDE8F0874FF0FF3395
:1055C0004FF0FF3209F1380005F048FDA37F33B1F9
:1055D00009F1380005F044FD6FF00A04E9E7A37A09
:1055E00055B3002B38D00123A3774FF00009391DA4
:1055F0004046C7E901A5C7F80C9002F0E1FC244B36
:10560000984237D084F81E900EB1C6F800906C46D0
:1056100088B06A461F4BC2E90530032342F8103FA9
:105620001A484FF4C25105F016FDA5466FF0040468
:10563000194805F015FDBCE7E27F02B1E577002BC4
:10564000D1D102F0F7FE8045CDD002F0E3FE124842
:1056500005F006FD0024ACE7B9F80A309D42F0D20F
:105660006268B5FBF2F302FB1353002BE9D101236F
:10567000E377E6E706B135600024D9E76FF012045E
:1056800097E700BF8811002055D0000010C100002E
:105690000000AD0B74D00000C01100202DE9F843CC
:1056A0001D462D4B904693F8242000AF81460E46B0
:1056B000002A4DD093F82530002B49D010F0800FF0
:1056C00019D111B9B8F1000F15D14846FFF7BCF94F
:1056D000044680B1037A8BB96C4688B06A461F4B8A
:1056E0001F48C2E90539032342F8103F4FF4C25165
:1056F00005F0B1FCA5466FF0150015E04FF0FF3343
:1057000018484FF0FF3205F0A9FCE3689845C14600
:1057100028BF99465EB9B8F1000F08D105B12B60DA
:10572000104805F09DFC0020BD46BDE8F883A16946
:105730004A46304605F021FCA3694B44A361E36867
:10574000A3EB0903E360002DEAD0C5F80090E7E77A
:105750006FF01200E8E700BF8811002055D000006C
:1057600010C10000C0110020F8B5274D95F8243075
:1057700000AF0646002B44D095F82530002B40D0D2
:10578000030614D4FFF760F9044680B1037A93B995
:105790006C4688B06A461D4B1D48C2E90536032396
:1057A00042F8103F4FF4C25105F055FCA5466FF08A
:1057B0001500BD46F8BD4FF0FF334FF0FF3205F145
:1057C000380005F04BFCE368B3B90126636926771E
:1057D000A361637F83B1FFF78BF930B905F138001E
:1057E00005F03EFC6FF00B00E3E70674846006737F
:1057F000FFF762F9FFF758F9064805F031FC002081
:10580000D7E76FF01200D4E78811002055D00000D0
:1058100010C10000C011002010B5084B93F82430CF
:105820000C462BB1FFF710F928B10460002010BD21
:105830006FF01200FBE76FF01500F8E78811002009
:10584000014B1860704700BF8811002008B5074B56
:1058500093F8243023B1FFF7F7F820B1406808BD72
:105860006FF01200FBE76FF01500F8E788110020D9
:10587000084B70B5C31A0D4607499B10044659439F
:105880000648402205F032FC2B4601462046BDE882
:10589000704018472C1A0020B76DDBB618BE000008
:1058A00073B50C4C0C4A4023041B00930D460B4669
:1058B0000A49A41061430646094805F043FC011E4D
:1058C00005DA30462B4602B0BDE87040184702B0FA
:1058D00070BD00BF2C1A0020AFB10000B76DDBB661
:1058E00018BE0000002270B5012104461046FEF7E4
:1058F000BFF80F4801F004F90E4B984215D101F0A2
:105900000FF926690C49304604F038FF00280BDBFC
:10591000012535642469084904F11C0004F02EFFB8
:10592000002801DBE564002070BD6FF00400FBE798
:10593000715900000000AD0BC0C1000070B50146F8
:105940000C2309484B43C418D4E90E5640330022B7
:105950001844A26305F0B7FB2DB132462B4603482D
:10596000BDE87040184770BD2C1A002018BE00001A
:1059700010B1012804D07047034B1B6C5B0701D1A9
:10598000FFF7DCBF704700BF2C1A002008B54FF0AE
:105990002003EFF3118183F31288BFF36F8F124A54
:1059A000136843F002001060DA0708D481F311880D
:1059B000BFF36F8F0120BDE8084005F0F3BC4FF046
:1059C0008043D3F80C24D3F80C34D307EED5074822
:1059D00005F079FB81F31188BFF36F8F0020BDE8DC
:1059E0000840FFF7ABBF00BF7C1A00206C1A0020F4
:1059F0001FB500220123CDE90223094ACDF800D0CA
:105A00006B46CDF804D005F0CBFB002805DB4FF446
:105A100080420023684603F03DFB05B05DF804FBBF
:105A2000CDB1000010B54FF02003EFF3118483F3E4
:105A30001288BFF36F8F074A136823F00201DB0758
:105A4000116002D4012005F0E9FC84F31188BFF352
:105A50006F8F10BD7C1A0020024AC3B21C2003FBCA
:105A6000002070472C1A00202DE9F0413849BFF37F
:105A70005B8F0746012251E8003F41E800200028E3
:105A8000F9D1BFF35B8F33B9324933484B60CB60F8
:105A90008A6004F086FE7B1E012B2BD8012F07D1D4
:105AA0004FF08043D3F81C3403F00303012B21D0C3
:105AB00005F072FE0546F8B9284B1B78E3B14FF0AC
:105AC00080430222C3F808230646DFF894804FF093
:105AD0008044D4F81834D4F81824D20316D503F02F
:105AE0000303012B01D0012F10D15DB386F3118880
:105AF000BFF36F8FBDE8F0814FF02003EFF3118605
:105B000083F31288BFF36F8F0125DEE7ADB1304616
:105B1000FDF70CFFD4F81835002BDAD1D4F80421A6
:105B2000002AD6D0C4F80431D4F804310123C4F8D3
:105B30001835C8F88031A360CBE70021212003F09D
:105B4000E1FEE7E74FF080430222C3F80423D1E7E8
:105B5000281A0020181A0020481A00209E1F002032
:105B600000E100E030B54068057B01F01F04B2F5AC
:105B7000001F85B044EA451405D1204601F054FACF
:105B8000002005B030BD0025B2F5800FCDE90255EB
:105B900014D1B3F1007F0CBF042305238DF8083026
:105BA0000023194602AA204601F07CF81F4B9842B8
:105BB00039D10121204601F0EFF9E1E7B3F1C06FDF
:105BC00026D0B3F1007F14BF012302238DF80830E3
:105BD0008368CB40D907E3D4B2F1A07FE0D162095A
:105BE000012A04F01F03124A03F5E07318BF4FF0B7
:105BF000A04252F82330DB07D2D40DF10705294625
:105C0000204601F075F90B4B984203D00395C7E786
:105C10000323DBE7284601F0B9F9044B9842F5D09D
:105C20006FF00B00ADE76FF01500AAE70000AD0BB9
:105C3000000300500400AD0B10B501F097F90446C5
:105C400068B901F06BF9084B98420AD10748214620
:105C500001F048F9224605210620FDF709FF002042
:105C600010BD6FF00400FBE70000AD0B715C00009D
:105C7000420970B5034602D0012A17D070BD0D4EFF
:105C8000326951680029F9D003F01F0301250C681F
:105C90009D400029F2D08A682A4002D04B683046E5
:105CA00098472CB1236821461C46F2E7024EE7E7ED
:105CB0002346F8E748BE000030BE00002DE9FF4152
:105CC00047683B7B01F01F0545EA43150E46284611
:105CD0000DF10301144601F00BF914F4403F804626
:105CE0000BD1284601F0C8F93D4B984503D19DF8EA
:105CF000030001F045F900200CE00023194602AA38
:105D00002846CDE9023300F0CDFF354B984204D050
:105D10006FF0150004B0BDE8F081804503D19DF817
:105D2000030001F02DF9A3034BD540F206332340C5
:105D3000B3F5837F19D00CD8062B17D004D8ABB19C
:105D4000022BE5D1042311E0B3F5807FE0D10123DC
:105D50000CE040F20222934227D0B3F5407F26D0D8
:105D6000B3F5007FD4D1022300E007238DF804307F
:105D700084F48033C3F30043E0068DF8053054BF4C
:105D8000C4F34013032321038DF8063011D57A683C
:105D90000123B340C2F80835002201A9284601F0CA
:105DA0002FF80F4B9842A6D0B2E70523DEE7032376
:105DB000DCE7620341BF01237A68B340C2F80C35C7
:105DC000EAE7E3064FF0000354BFC4F34014032492
:105DD0001A4601A928468DF8044000F063FFE0E769
:105DE0000000AD0BF8B544680669E36900AF0546ED
:105DF0009847206A05F05BFA00281FDB3346134AF8
:105E000004F10801204601F0D9FA114B984217D04D
:105E10006C4688B02B686A460E49C2E905134FF4F8
:105E2000007393830C4B42F8103F0C4800234FF44F
:105E3000E251FCF739FB6FF00400A546BD46F8BD02
:105E4000204601F01DFB0020F8E700BF9D5E00002A
:105E50000000AD0BE3D0000003000001B8C000005B
:105E600070B544682368D3F80855D3F80C6520460C
:105E700001F016FB3146284602F0EEFC0546206A8A
:105E800005F015FA204601F0FBFA034B9D4214BFC2
:105E90006FF00F00002070BD0000AD0B0378012BE8
:105EA00008D0022B08D04BB9054B0B6201F1100052
:105EB00003F0D0B8034BF8E7034BF6E7034BF4E7E6
:105EC0000000AD0B0100AE0B0200AE0B0100AD0BEC
:105ED0007FB511F0010342680FD1C1F342010129DE
:105EE0000ED0022915D00D4A0592022204920C48C8
:105EF00004AA4FF48251FCF7D7FA6FF0150005E0C1
:105F000013684FF0CC72C3F82425002007B05DF869
:105F100004FB13684FF0C862F5E700BF03D100002F
:105F2000B8C000002DE9F04F8DB0D0F804B0D0F823
:105F3000109000AF1D463A61BBF81830D9F824A084
:105F40007B6106460C461422002107F11C0005F077
:105F50001FF87D774FF0FF324FF0FF33484603F0D4
:105F600099F809F11003FB600022002309F11000E9
:105F700003F090F84FF0000845463B69984501D37F
:105F8000002438E0207A020700F1EB803A6908F13A
:105F900001039342BB600AD2830708D4237D80EAC1
:105FA000030202F0010203F004031A432BD0002D78
:105FB0003FD000236268D7F814C0A918614524D9DE
:105FC0006C468CB031686B46DA617A696648C3E921
:105FD000082140F203521A851A46C3E90505634BAE
:105FE00042F8103F624800234FF45151FCF75CFA2D
:105FF000A5466FF01B04484603F02CF820463437C2
:10600000BD46BDE8F08F0123D4E7C10706D421685F
:106010007B600AEB050004F0B0FF7B6862682A44ED
:1060200095B2002B40F085803DB1C7F828A02B46E3
:1060300007E0C007D4E900121BD52368BB62636880
:106040000025227A3B6202F0010382F00202C2F3D1
:106050004002520107F11C0158463B7701F03EFA1D
:10606000444B98422CD00B33984244D16FF00F042C
:10607000C1E701F06043B3F1005FDED0BBF81A3036
:10608000934218D26C468AB031686B463A48D9615F
:10609000C3E9050240F201321A841A46374B42F82E
:1060A000103F33482B464FF41151FCF7FDF9A5463C
:1060B0006FF015049FE7504604F05FFFA588B3E733
:1060C0000023F8684FF4804202F0E4FF0346A8B1D1
:1060D0006C4688B06A462A4BC2E90538032342F869
:1060E000103F234800234FF4C251FCF7DDF930463E
:1060F000A546FFF7B5FE6FF004047CE7D9F8201041
:106100001C4A914211D06C4688B06A461D48C2F8BC
:106110001C80C2E90501042142F8101F14484FF405
:106120000151FCF7C1F9A546E5E7237ADB0704D462
:106130000025D7F808800C341FE7BB6A9A45F7D1D1
:10614000A04607E0A91A8DB2D8F80C001AFA81F11E
:1061500004F013FFD8F804209542A8F10C08F1D2FE
:10616000E6E76FF0850446E715D100000600000160
:10617000B8C000000000AD0BA5D100000400000174
:106180000BD2000035D20000F0B51C4E00EB8101AF
:10619000814201D1002010E0036803F07F047F2CCE
:1061A000C3F343254FEA134308BF4FF0FF340B2BD3
:1061B00004D00C2B1FD06FF08500F0BDC2F808454D
:1061C00005B9062550F8043B04F01F07C3F3403E11
:1061D0006409C3F3C113012C4FEA83030CBFB44617
:1061E0004FF0A04C43EA4E0307F5E07443EA052361
:1061F0004CF82430CCE7C2F80C45E1E7000300502E
:1062000098B50369002400AF1C8088B003686A4613
:106210000849C2E905134FF400739383064B42F813
:10622000103F064823464FF4E651FCF73DF920465F
:10623000BD4698BD75D200000300000190C000006B
:10624000014B01221A60704700C000400C2903690D
:106250000BD15B6A064907484B4393FBF0F100FB07
:10626000113311605360002070476FF08500704754
:1062700090D0030040420F00044B00690022C3F895
:106280000021D3F8003102F0E5BE00BF00C000409D
:106290007FB50569AB6A63B3392901D00C292BD1CD
:1062A00005F110064FF0FF324FF0FF33304602F099
:1062B000E7FD134B0193A86A032300246946039466
:1062C000029304F06EFA4FF0FF324FF0FF3328468E
:1062D00002F0E0FEA86A04F0BCFA0A4BD3F80825E5
:1062E0006A6201225A60304602F044FE204604B041
:1062F00070BD6FF00A00FAE76FF08500F7E700BFA6
:106300004162000000C0004010B504690020FFF7A2
:10631000A3FBA0624FF0FF320021204605F0D8FA1F
:1063200004F1100005F054FA002201210C20FDF7C1
:106330009FFB0C20FDF76CFB024B0122C3F80423EA
:10634000002010BD00C0004070B5012383400E4AFC
:10635000BFF35B8FDC4352E8001F01EA040542E80B
:106360000056002EF7D1BFF35B8F4FF4803282408E
:106370000648C0F80823BFF35F8FBFF36F8F0B424F
:1063800014BF0120002070BDC81A00200010014079
:1063900070B40E49D1E90034D01AC31844F1000496
:1063A00022F07F46C1E90034A6F50013B3F5400F93
:1063B00009D2074B1B681A0A1B069C19054B42F1B0
:1063C0000005C3E9004570BC03F01EBC4008002076
:1063D000CC1A00204808002011B3BFF35B8F0123C3
:1063E000104A834052E800CF4CEA030C42E800C157
:1063F0000029F7D1BFF35B8F0B4A4FF48033834002
:10640000C2F80433094BBFF35B8F1B68BFF35B8F8C
:10641000C340DB0742BF064B4FF40032C3F80021F4
:10642000704700BFC81A002000100140C41A0020A5
:1064300000E100E00D4B1868010A0006BFF35F8F12
:106440000B4BD3F80435181841F10001B3F5801F48
:106450000AD2084BD3E90023904271EB030303D225
:1064600010F1807041F10001704700BFCC1A00208C
:1064700000100140480800202DE9F74F16461F463E
:106480000446FFF761FF0090FFF7D4FFB04271EBC5
:10649000070351D23A4B301A67EB0101984271F170
:1064A00000016AD2374B03EB0413D3E902239F4266
:1064B00008BF96424ED034494FF4803904F150055C
:1064C00009FA04F9AD00C1F848932046ADB204F0D2
:1064D0004BFF26F07F4B05F1804504F5A8732B4A4E
:1064E000019305F58835DC464FF0030A019B2CF03B
:1064F0007F4041F82300C1F84493D1F804856FF040
:106500000200A0EB0800604420F07F40904221D9B7
:10651000286860B1D1F80485A8EB0B0020F07F401B
:10652000B0F5000F16D9204604F01EFF174A0AEBFB
:10653000080C0AF1010AD9E70123154ABFF35B8F62
:10654000A34052E8000F184342E800010029F8D1A7
:10655000BFF35B8F0B490C98230101EB0412C2E9D6
:106560000267C8500D9B5360002520460099FFF735
:1065700033FF284603B0BDE8F08F6FF01505F4E750
:10658000010080003008002000100140FDFF7F0066
:10659000C41A002073B51B4C1B4BC4F80833C4F855
:1065A00048331A4B00254FF0FF304FF0FF31C4F84D
:1065B0000855C3E902014FF48033C4F80433144B87
:1065C00002264FF400320121C4F804631120C3F8FD
:1065D00080212A46FDF74CFA1120FDF719FA0D4AE1
:1065E0000123A360236013600B4B0C4A00930195B9
:1065F00000232846FFF740FF3046FFF735FA2846CC
:1066000002B070BD0010014003000F0030080020F0
:1066100000E100E0C81A002091630000FFFF7F0046
:106620002DE9F7432F4CD4F8043399070BD5D4F850
:10663000043143B12C4A0023C4F80431D4F80431A6
:10664000136801331360D4F80433DA032AD5BFF397
:106650005B8F264B53E8002F22F0010143E8001026
:106660000028F7D1BFF35B8FD30702D4D4F84031B1
:10667000C3B10025C4F84051D4F84031FFF7DAFE29
:106680004FF02003EFF3118283F31288BFF36F8F73
:10669000174BD3E90267B042B94106D282F31188A1
:1066A000BFF36F8F03B0BDE8F0834FF0FF384FF0BA
:1066B000FF39C3E90289D3E900101D604FF480332C
:1066C000C4F84833C4F84051D4F8403182F31188FB
:1066D000BFF36F8F0029E5D0009032463B46284635
:1066E0008847DFE700100140CC1A0020C41A0020C0
:1066F00030080020431C13B522D0012822DD124AA5
:10670000124B9042D4BF04461C46FFF793FE104B39
:106710000E49D3E90023801AB0F5000F28BF0024EA
:1067200004448C4228BF0C46A2180A4900914FF03D
:106730000000019043F10003FFF79EFE02B010BD80
:10674000024CE2E70124E0E7FEFF7F00FFFF7F004D
:10675000400800209163000008B5FFF76BFE024B74
:106760001B68C01A08BD00BF4008002010B5084CC7
:10677000012363601120FDF759F9064BC4F8083373
:10678000C4F84833044B4FF40032C3F8802110BDE5
:106790000010014003000F0000E100E07FB5FBF7AF
:1067A000B1FD074B0593022304930648002304AA76
:1067B0004FF48251FBF778FE0020FDF7F3FE00BF97
:1067C000B8D20000A8C000004FF08053D3F83021A9
:1067D000082A06D1D3F83431052B02D8024AD05CFE
:1067E00070470020704700BFDBD20000024AD2F899
:1067F0000034002BFBD0704700E0014010B54FF093
:106800008053D3F83021082A4ED14FF08042002126
:10681000C2F80C11C2F81011C2F8381502F5404246
:10682000D3F80414C2F82015D3F80814C2F82415BC
:10683000D3F80C14C2F82815D3F81014C2F82C158C
:10684000D3F81414C2F83015D3F81814C2F834155C
:10685000D3F81C14C2F84015D3F82014C2F844151C
:10686000D3F82414C2F84815D3F82814C2F84C15EC
:10687000D3F82C14C2F85015D3F83014C2F85415BC
:10688000D3F83414C2F86015D3F83814C2F864157C
:10689000D3F83C14C2F86815D3F84014C2F86C154C
:1068A000D3F84434C2F87035FFF78EFF18B13A4B75
:1068B0003A4AC3F88C26FFF787FF18B1384BFB2202
:1068C000C3F81825FFF780FF70B14FF080414FF0FB
:1068D0008053D1F8E42ED3F8583222F00F0203F09F
:1068E0000F031343C1F8E43EFFF76EFF20B12D4BB9
:1068F0004FF40072C3F840264FF08053D3F8303184
:10690000082B1AD14FF08043D3F80024D20744BF9C
:106910006FF00102C3F800244FF08053D3F83431F4
:10692000052B02D8204AD35C3BB14FF01023D3F89B
:1069300008224FF08043C3F858254FF01023D3F8B6
:106940000022002A03DBD3F80432002B22DA174995
:1069500001234FF01020C1F804351224FFF746FF41
:10696000C0F80042FFF742FFC0F80442FFF73EFFC5
:106970000023C1F80435FFF739FFBFF34F8F0C49EF
:106980000C4BCA6802F4E0621343CB60BFF34F8F35
:1069900000BFFDE710BD00BF00500040488103006C
:1069A00000F0004000900240D5D2000000E001401D
:1069B00000ED00E00400FA0570B501250268BFF3A0
:1069C0005B8FB2FA82F3C3F11F03DBB205FA03F463
:1069D00022EA040450E8006F964204D140E8004CDB
:1069E000BCF1000FF6D1BFF35B8FE7D101480B700C
:1069F00070BD00BF0000AD0B10B50368CB40DB07D6
:106A000014D401238B400268BFF35B8F43EA020179
:106A100050E8004F944204D140E8001CBCF1000F44
:106A2000F6D1BFF35B8FEED1014810BD0148FCE702
:106A30000000AD0B0400AD0BF7B5044618B10128FA
:106A400022D003B0F0BD4FF080430222C3F80823E8
:106A5000C3F80401D3F804210122DA6007460123B8
:106A60008DF8073042F210754FF08046CCB1012C02
:106A7000E7D1C7B3D6F80C3403F001033B70D6F866
:106A80000C34DA0321D516E04FF080430022C3F81E
:106A90000803C3F80021D3F8002158600DF107075F
:106AA000DDE7B7B1D6F8183403F003033B60D6F83E
:106AB0001834D803C5D59DF80700012803D104F088
:106AC0006FFC013DD2D1012CBBD10C4B00225A717D
:106AD000B7E7D6F81834D903B3D5012004F060FC29
