:10100000C0340020B53A0000A5980000893A0000DD
:10101000893A0000893A0000893A00000000000087
:10102000000000000000000000000000F136000099
:10103000893A0000000000009D360000893A000057
:10104000A1370000A1370000A1370000A137000040
:10105000A1370000A1370000A1370000A137000030
:10106000A1370000A1370000A1370000A137000020
:10107000A1370000A1370000A1370000A137000010
:10108000A1370000A1370000A1370000A137000000
:10109000A1370000A1370000A1370000A1370000F0
:1010A000A1370000A1370000A1370000A1370000E0
:1010B000A1370000A1370000A1370000A1370000D0
:1010C000A1370000A1370000A1370000A1370000C0
:1010D000A1370000A1370000A1370000A1370000B0
:1010E000A1370000A1370000A1370000A1370000A0
:1010F000A1370000A1370000A1370000A137000090
:1011000053B94AB9002908BF00281CBF4FF0FF316E
:101110004FF0FF3000F00CB8ADF1080C6DE904CED3
:1011200000F008F8DDF804E0DDE9022304B07047C0
:10113000704700BF2DE9F04786468C460846089E5A
:10114000154674461946002B40F0C2808542B2FA1B
:1011500082F245D94AB1C2F1200300FA02FC2EFA0C
:1011600003F3954043EA0C0C94404FEA154EA8B2A5
:10117000BCFBFEF8230C0EFB18CC08FB00F943EA7D
:101180000C43994528D9EB1808F1FF3704D299454B
:1011900002D9A8F102072B44A3EB0903A4B2B3FBC5
:1011A000FEFC0EFB1C330CFB00F044EA0344A0429F
:1011B00014D92C190CF1FF3304D2A04202D9ACF19E
:1011C00002032C44241A43EA07401EB1D4400023F2
:1011D00034607360BDE8F0874746DDE76346F1E7BA
:1011E00092BB431B01214FEA154EAFB2B3FBFEFC8D
:1011F000200C0EFB1C330CFB07F840EA0343984518
:1012000062D9EB180CF1FF3004D2984502D9ACF149
:1012100002002B44A3EB0803A4B2B3FBFEFC0EFBBD
:101220001C330CFB07F744EA0344A7424ED92C19A0
:101230000CF1FF3304D2A74202D9ACF102032C44D3
:10124000E41B43EA0040C0E7C2F1200320FA03F1A7
:10125000954090402EFA03F303434FEA154EAFB288
:10126000B1FBFEFC0EFB1C10190C0CFB07F841EA4D
:101270000041884504FA02F422D969180CF1FF30C4
:1012800004D2884502D9ACF102002944A1EB08013F
:101290009BB2B1FBFEFC0EFB1C110CFB07F743EAF3
:1012A00001439F420ED9EB180CF1FF3104D29F424B
:1012B00002D9ACF102012B44DB1B41EA004192E769
:1012C0006046E3E76146F7E76046A3E76346B7E7B2
:1012D000834206D916B9002108467BE7C6E900E03B
:1012E000F9E7B3FA83F78FB9834201D3724508D87F
:1012F000BEEB020460EB030301209C461EB90021F3
:1013000068E73846FAE7C6E9004CF8E7C7F1200C71
:10131000BB4022FA0CF41C432EFA0CF120FA0CF319
:10132000B84001434FEA14490EFA07F5B3FBF9F848
:101330001FFA84FE09FB18300B0C08FB0EFA43EA77
:1013400000439A4502FA07F240D9E31808F1FF304A
:1013500004D29A4502D9A8F102002344A3EB0A0360
:1013600089B2B3FBF9F809FB183308FB0EFE41EA1A
:1013700003418E452CD9611808F1FF3304D28E4504
:1013800002D9A8F10203214443EA0040A0FB0298DD
:10139000A1EB0E014145CE46434602D306D14D4551
:1013A00004D2B9EB020E68EB04030138002EA6D07C
:1013B000B5EB0E0261EB030101FA0CFC22FA07F314
:1013C0004CEA0303F940C6E9003198E74046C5E717
:1013D0004346D9E708B5044807F0D0FC0348BDE808
:1013E000084006F0FBBD00BF2CAD0000200200202D
:1013F00010B50D480D4C06F0C9FA0146206068B1E1
:101400000B4807F0BBFC20680A4B0B493F2202F057
:1014100009FD2068BDE8104008F094BA074807F0BD
:10142000ADFC6FF0120010BD37AD00008807002042
:1014300057AD0000D8AA00008CAE00003DAD000002
:10144000F7B51948194E1A4F1A4D07F097FC40F29C
:1014500067620023304606F0E5FD04460028F6D119
:10146000384607F08BFC286869686B4603C34FF069
:10147000FF324FF0FF33104806F0D4FD0F482346EB
:1014800000680822694608F067FA044638B10C483B
:1014900007F074FC0B48214607F070FCD7E70A48B8
:1014A00007F06CFCD3E700BF6AAD0000100200201B
:1014B00085AD0000C0AA000020020020880700209F
:1014C00092AD0000AAAD0000ADAD000013B504461A
:1014D00083682221DB689847014610B1054807F070
:1014E0004DFCA3686A461B69222120469847009854
:1014F00002B010BDBEAD00002DE9F341294C2046DD
:1015000008F0F5FD28B9284802B0BDE8F04107F021
:1015100035BC22682548264FDFF89880214607F021
:101520002DFC2046FFF7D2FF07F017FC05462046AA
:10153000FFF7CCFF0146204807F020FC1F48294652
:1015400007F01CFC1E4807F019FC2046FFF7BEFF01
:1015500007F003FCA8420646F7D0386879686B4666
:1015600003C31D238DF807304FF0FF324FF0FF33D8
:10157000404606F057FD13480023082269460068DC
:1015800008F0EAF9104807F0F9FB2046FFF79EFF44
:1015900001460E4807F0F2FB0D4806F01FFD3546E8
:1015A000D3E700BF78A80000E5AD000007AE00005B
:1015B000C0AA00002002002021AE00002DAE0000D5
:1015C0003DAE00008807002058AE000029AE0000A4
:1015D00010020020F0B500248BB02046099401F0E1
:1015E0006BFA00284CD1284C099B002B3BD04FF0C4
:1015F000FF364FF0FF3700240725CDE90667CDE918
:101600000354CDE90144214B214900944FF48062F9
:10161000204806F055FB20491E4808F0E3FD1D4810
:1016200008F0E3FD1D4B1E490094CDE90667CDE9A6
:101630000354CDE901444FF480621A4806F040FBA0
:101640001949184808F0CEFD1648184D184C08F0F6
:10165000CCFD2946204607F091FB00214FF40040C5
:1016600007F022F9F5E7A3681B6D1BB109AA042155
:1016700020469847002140F6CD4007F015F9B3E722
:1016800020460BB0F0BD00BF3CA80000F9140000DC
:10169000401A0020E803002065AE0000411400005D
:1016A00000160020680300206EAE000077AE000038
:1016B0007BAE0000014B1B68184700BFB80000203C
:1016C000014B1860704700BFB800002007B50B46FB
:1016D000002102460091034800F014F903B05DF8C0
:1016E00004FB00BFB51600002DE9F047058B04464A
:1016F0002807904611D4022905F0070540F0CD8057
:10170000204607F032FD78B10138218B042811D82A
:10171000DFE800F0C3106D85950001290CBF45F08E
:10172000100545F02005258388F31188BFF36F8FDE
:10173000BDE8F08701F0070AAA4500F0A68000275F
:10174000B9463E46A368002B00F0BD8041F0080179
:10175000218388F31188BFF36F8FA168002900F0FF
:10176000BB800D68002900F0B780D1F804803346B3
:1017700052462046C047002D76D02B6829461D468C
:10178000F0E701F007035A1F012A1BD8002221F0BD
:101790000701062B276889B2C4E9002209D13B461C
:1017A00003E0628B013262831B68002BF9D141F0A8
:1017B00002012183204607F0D8FC00287BD041F0AD
:1017C000200177E0042B0AD121F0070189B221839F
:1017D000204607F0CAFC10B141F020012183218B83
:1017E00001F0070AAA4550D00027B946AAE72369A5
:1017F00021F0070141F00601062DD3F80090218366
:101800002DD1B9F1000F40D041F00801218388F3B8
:101810001188BFF36F8F3A492046C84729E021F06D
:101820000701236941F0040189B2042DD3F8049023
:101830002183E6D000273E464FF0040A82E721F0DC
:101840000701236941F0050189B2052DD3F80890FD
:101850002183D6D000273E464FF0050A72E70027C5
:101860003E464FF0060A6DE72B4687E7B9F1000FB9
:10187000D1D14FF02003EFF3118883F31288BFF327
:101880006F8F238B23F008032383258BEA062ED545
:1018900025F01003238305F007056669218B002ED0
:1018A000BFF66FAF00232768C4E9003321F00701BA
:1018B00041F001012183218B01F0070AAA454FF075
:1018C00000097FF43FAF002F9BD041F00801218336
:1018D00088F31188BFF36F8F002FC7D03D6839465A
:1018E00033465246204607F06CFC2F46F4E7AB0621
:1018F0007FF51AAF25F02003238305F00705FFE6E7
:10190000EF9100002DE9F04F814695B08B461746C8
:101910001C460025387808B9284658E37B1C252842
:10192000039306D05946C8470028C0F250830135BA
:10193000FBE1182200210EA807F0D9FF7B78252BA8
:101940007DD00023781C98469E469C461E46014644
:1019500010F8012B2B2A00F0A18000F29880202A99
:1019600000F09F80232A00F09F802BB19DF840302B
:1019700043F040038DF84030B8F1000F05D09DF8DA
:10198000403043F020038DF84030BEF1000F05D009
:101990009DF8403043F010038DF84030BCF1000F4B
:1019A00005D09DF8403043F008038DF840302EB14B
:1019B0009DF8403043F004038DF840309DF84030EE
:1019C00003F04400442803D16FF386138DF84030B0
:1019D0009DF840302A2A43F080038DF840307FD1B3
:1019E0009DF8412042F001024B1C8DF841201A78ED
:1019F0002E2A9DF841200CBF0121002161F34102F4
:101A00008DF8412078D15A782A2A6ED001330022ED
:101A10004FF00A0C194611F8010BA0F13006092EFF
:101A200040F295809DF840101292C1F3400040EAC8
:101A3000D2700A4660F341028DF840205CE0BA1C87
:101A400003928DF843309DF84130DA0740F12E8142
:101A500054F8048BB8F1000F07DA9DF8402042F0EB
:101A600004028DF84020C8F100085E0740F127818C
:101A700054F804ABBAF1000F80F226819DF8413092
:101A80006FF341038DF841304FF0FF3A1CE12D2AEE
:101A90000DD0302A7FF469AF012358E74FF0010CD5
:101AA00055E74FF0010E52E74FF001084FE70126CE
:101AB0004DE70EFB0262303A0346184610F8016B00
:101AC000A6F1300CBCF1090FF3D999428FD09DF8E3
:101AD00040101192D20F62F341018DF8401086E759
:101AE0000B4600224FF00A0EE7E79DF8412042F036
:101AF00004028DF8412002331A786C2A47D02BD883
:101B0000682A31D06A2A4BD04C2A51D01A4612F892
:101B1000013B0392782B9DF841208DF8433000F271
:101B2000BE806D2B51D8692B00F2B980572B67D836
:101B3000412B03D0453B022B00F2B1809DF842308F
:101B4000042262F302038DF84230012373E00CFBA0
:101B50000202303A0B465DE7742A25D07A2AD5D1A5
:101B60009DF8412006210CE05A78682A9DF8412012
:101B700006D1012161F3C6028DF841200233C5E789
:101B8000022161F3C6028DF841200133BEE75A7885
:101B90006C2A9DF8412001D10421EBE70321F0E7F5
:101BA0009DF841200521ECE79DF841200721E8E759
:101BB000BDF8402022F4F04222F0020242F48042BA
:101BC00042F00202ADF84020DFE76E3BD9B20123BC
:101BD0008B4040F282410B4237D113F0240F51D198
:101BE000D8075CD59DF84230032161F302038DF8DC
:101BF000423002F07803A3F140014B424B411AE01E
:101C0000A3F15801C9B2012000FA01F111F4624FA9
:101C100094D140F6010631421DD111F4043F3ED06B
:101C20009DF8423060F3020302F07802402A8DF8FA
:101C3000423034D000239DF84020C2F340010B43D2
:101C400063F341028DF84020FDE69DF84230022109
:101C500061F30203E8E79DF84210022002F07802E7
:101C600060F30201402A8DF8421002BF9DF8401037
:101C700041F001018DF84010632BDBD1131E18BF1A
:101C80000123D8E79DF84230032161F3020312F0EB
:101C9000780F8DF8423014BF01230023CBE79DF865
:101CA000403043F001038DF84030C3E79DF94020F8
:101CB000002AB4BFDDF844804FF0FF38D5E698071E
:101CC0007FF5E2AEDDF848A09DF841100023CDE994
:101CD00011339DF8423003F00703012BC1F3C30118
:101CE00033D1CB1E042B04D8DFE803F02146462174
:101CF0002100236801294FEAE372CDE90E321CD19D
:101D00009DF93830DA17CDE90E3204349DF84030B1
:101D100013F0030650D0039B3A465946484607F055
:101D200084FB0028C0F253810544039FF2E554F878
:101D3000043BDA17CDE90E32E8E70229E5D11AB201
:101D400043F3C033CDE90E23DFE7022B24D1CB1EB2
:101D5000042B04D8DFE803F018101018180001292C
:101D600054F8043B4FF0000214D00229CDE90E32A2
:101D7000CCD19BB20E93C9E7073424F00704F4E8F2
:101D80000223CDE90E23C1E754F8043B0E93002350
:101D90000F93BBE7DBB2CDE7042B08D1073424F067
:101DA0000704D4E900230834CDE90E23AEE7032B62
:101DB000ACD154F8043BDDE79DF843007828B4D853
:101DC00062281CD825283FF4ADAD5828ADD10DF1BF
:101DD00036030093DDE90E0108AB10AA07F0DFFA25
:101DE000BAF1000F074680F29A80002F9DD00DF1C6
:101DF0003603D81B002E00F0C1800130BEE06338EE
:101E0000152892D801A252F820F000BFE11E000070
:101E1000F31E00002B1D00002B1D00002B1D0000D9
:101E20002B1D0000F31E00002B1D00002B1D0000C9
:101E30002B1D00002B1D0000811F0000191F00003A
:101E40003F1F00002B1D00002B1D0000651E000021
:101E50002B1D0000191F00002B1D00002B1D000072
:101E6000191F0000BAF1000F0E9F35DB51463846AE
:101E700007F049FD07EB000A002F3FF456AF00269C
:101E80009DF8423013F01002059200F0938002306A
:101E90005B06119A48BF129B0492104448BFC018B9
:101EA000B8F1000F40F3A0809DF84020A8EB000897
:101EB000C2F380035007069300F19680510640F16B
:101EC00089803EB159463046C84700287FDB069BD3
:101ED00001351E4630227EE0384607F0EAFCC9E7AD
:101EE0000E9B8DF82030002608AF0DF1210A01204D
:101EF000C6E719075CBFC3F300135E01DDE90E23DB
:101F000048BF2B26002BBFF662AF524263EB430360
:101F1000CDE90E232D265AE7002658E700269DF826
:101F200040200DF13603DB1B6FF386129A458DF8C6
:101F300040207FF65AAFAAEB0303119355E70E98A2
:101F400090B30DF13603009310AA08AB002107F0FF
:101F500026FABDF8423003F0EF0343F4F04343F0B8
:101F60001003BAF1000F0746ADF84230D6DA002868
:101F70003FF4DBAE0DF13603181A00269A467FE7D0
:101F80000E9B07293FF6D1AEDFE801F00C04060CEA
:101F900008080C0C1D70C8E61D80C6E6EA17C3E9E8
:101FA0000052C2E61D60C0E62E4F064607F1050A44
:101FB000052065E71A0748BF013069E70793104617
:101FC00006925946C8470028DDE9062304DA15B011
:101FD000BDE8F08F202243461946002903F1FF3364
:101FE000ECDC45446D1A98462EB159463046C84738
:101FF0000028ECDB01359DF84230DA0601D41B07DE
:1020000005D559463020C8470028E0DB0135059B3F
:1020100033B19DF843005946C8470028D7DB013546
:10202000049E2E4405E059463020C8470028CEDBE8
:102030000135731B002BF6DC53463A465946484699
:1020400007F0F3F90028C2DB0544A844A8EB050318
:10205000002B7FF76AAE59462020C8470028B6DB20
:102060000135F3E7DCAE000003F0B0BB2DE9F84327
:1020700005464FF02003EFF3118683F31288BFF378
:102080006F8F0E4B0E4F1C68DFF838804FF00C0935
:102090002CB986F31188BFF36F8FBDE8F883D4E9BC
:1020A0000123002D18BF13462BB198F8102009FB0F
:1020B00002F2B85C98472468EAE700BFA407002052
:1020C000980700207C15002070B5194B1C7CBFF3CD
:1020D0005B8F04F01F0301229A40164B610903EB4A
:1020E0008103D04353E8001F01EA000543E800568E
:1020F000002EF7D1BFF35B8F0A4213D00E4B0F4D6A
:102100008BB10C236343EA18E85C517807F010FCAC
:102110000020FFF7ABFF0C235C432A1900232B514F
:10212000C2E9013370BD83F31188BFF36F8FEFE70E
:102130007C150020AC070020319900009807002092
:102140002DE9F041354B07461D7C4FF02003EFF39E
:10215000118883F31288BFF36F8F0C24304B314EFC
:102160006C431A19195D00294CD007CA06EB040C00
:102170008CE8070000221A5588F31188BFF36F8F8F
:102180000C236B43F218F05C002839D07B1C10D074
:10219000D2F808C0244C254A4FF400400021ECFB43
:1021A000004100232046FEF7ABFF0121381A03F05F
:1021B000B5FA06F0BFFA0120FFF758FFBFF35B8FB7
:1021C0001B4B6A0903EB820305F01F0101228A40C1
:1021D00053E8000F104343E800010029F8D1BFF392
:1021E0005B8F144B3BB10C2303FB05F03318305CC1
:1021F000597807F091FBFFF767FF06F0AFFA01206F
:10220000BDE8F0810146284600F016F80028B3D05A
:1022100007C8344484E80700AEE700BF7C150020FF
:102220008C070020980700203F420F0040420F001B
:10223000AC070020199900002DE9F04F384C85B00B
:102240004B1C0F4603A90CBF4FF0FF384FF000089E
:1022500000F06EF86368002B054612DB07F066FDA0
:10226000D4E900321C1A62F1000698424FF00003D4
:10227000934102DB013C46F10006012C76F100039C
:1022800002DA3C46464609E0B8F1FF3F08BFB7F125
:10229000FF3F03D0A74278EB0603F2DB214B039FFD
:1022A0001B6800936B1E1BB203EB4303DFF87890AF
:1022B00007EB83074FF400484FF0000B25B9AA46FF
:1022C000504605B0BDE8F08F7868184ACC465946AC
:1022D000E0FB08C100236046FEF712FF0190B868DA
:1022E000124ACC465946E0FB08C100236046FEF77F
:1022F00007FF009B002BBA4601DB83420BD9B6F1E6
:10230000FF3F08BFB4F1FF3FDAD0019B184484427D
:1023100076F10003D4DA013DADB20C3FCEE700BF49
:1023200000000020BC0000203F420F0040420F0090
:1023300008B9024B0B600020704700BFECAA0000F8
:10234000F0B40C4B0C4E5F6A0C4BB34203D36FF0EE
:102350008500F0BC70475D68BD4209D31C693CB183
:1023600095F802C00579AC4502D12346F0BC184768
:102370002433EAE7B0070020640300201C03002098
:102380002DE9F047134CDFF85080DFF850900546F8
:102390000E461746444503D36FF08500BDE8F0872D
:1023A0006268D9F824309A4212D3A36983B1907835
:1023B0002979884205D13A4631462846BDE8F0479A
:1023C00018475279012A03D13A46314628469847A0
:1023D0002434DFE71C03002064030020B007002042
:1023E0002DE9F0410B4CDFF8308005460E461746CC
:1023F000444502D36FF0850009E063690BB92434CA
:10240000F6E73A463146284698470028F7D1BDE816
:10241000F08100BF1C0300206403002010B50446B7
:1024200007F0D9FA10F1780F00D050B9054A2046CC
:1024300007F0BBF8D2F8C43023EA0003C2F8C43076
:10244000002010BDB007002002480822002107F03C
:102450004EBA00BF6B08002070B50B4B0B4CA3426B
:1024600001D3002070BD196A1E7F00220439D5B245
:10247000AE4201D82433F2E7013211F832508542DE
:10248000F5D10120EEE700BF1C030020640300200B
:1024900008B509480378C3F341130A3350F82330D1
:1024A0003BB100F1080200F110019847C043C00F92
:1024B00008BD1846FCE700BFB007002004282DE93E
:1024C000F14FDFF8989004460F4616D001282DD121
:1024D000DFF88C8098F8B93043B300F009FE214D45
:1024E0004D4520D2D5F820B04FF0000A2B7F5FFA7F
:1024F0008AF6B34204D82435F2E7FFF7A5FFE7E7F1
:102500000BEBC6060AF1010A307907F064FA0246BD
:10251000307907F04AF8D8F8C430002A23EA0003DB
:10252000C8F8C430E2DA002388F8B9300D4D4D45C3
:1025300008D30B4B1B6A6BB13946204601B0BDE88E
:10254000F04F1847EB681BB13A462146284698479A
:102550002435ECE701B0BDE8F08F00BF6403002034
:10256000B00700201C03002073B5C4B263060D46FB
:102570008DF8074007D02046FFF76EFF78B10D4B6E
:1025800093F8BA0058B10B4E204655B102F038F816
:10259000F3691BB10DF1070108209847012002B033
:1025A00070BD02F055F8F369002BF7D00DF107016B
:1025B0000920F2E7B007002073B586788DF8006037
:1025C000037942791C4C43EA0223ADF80230C37808
:1025D000304603F003038DF8043006F0E6FFD4F82C
:1025E000C430184205460BD0304600F063FD30463B
:1025F000FFF714FF07F0F0FD10B9962006F06EF912
:10260000684601F0D9FF10F1780F03D010B1002017
:1026100002B070BD9DF8000002F056F810F1780F7E
:1026200001D00028F3D1D4F8C43001202B4384F822
:10263000B900C4F8C430EBE7B00700202DE9F0473B
:10264000A34EB36904460F461546FBB9237803F041
:102650001F03012B00F09D80022B00F0048133BB8F
:1026600094F900002A686178002834DA062912D02B
:1026700008292BD0D9B901231370517096F8C330B3
:102680005B0043F00103137002232AE198470028FE
:10269000DCD100200DE06288100A011F0129844668
:1026A00005D9072803D8716AD2B20C781CB96FF02B
:1026B0001500BDE8F0874E78664503D19A4200F0D8
:1026C0000B8101332144F0E70B780AE196F8BA3028
:1026D0001370012305E101390829E8D801A353F853
:1026E00021F000BF7D270000AF2600008B270000EF
:1026F000AF26000009270000AF260000AF2600002B
:10270000AF26000015270000A07801F043FF002845
:10271000BFD0CCE76388756A63BBFFF795FE63881B
:1027200086F8BA30F369002BB3D06A490320984782
:10273000AFE76B78042B10D0052B11D0022B04D1FE
:102740006F796388BB4208BF01202B781D442B782A
:10275000002BEED10028AAD0DFE795F80380F4E73C
:102760006388BB42F1D1B8F1000FEED12846FFF7E4
:1027700023FFEAE7FF270020B846E8E76388012B3C
:1027800095D1002386F8C33083E76388012B8ED16F
:10279000F8E796F8BA30D5F800C0002B87D0756AF4
:1027A000A38894F804E02A46107800283FF47FAF0D
:1027B0005178022904D192F80480F04500F2938008
:1027C0000244F1E78CF800208CF80120396060E7C2
:1027D000154494E00B2A7FF46AAF00274FF0FF08FE
:1027E000C146BA4606E06B78042B0FD0052B21D0EA
:1027F0002B781D442B78002BF5D1F36913B151468A
:1028000007209847002F7FF444AF50E795F80280E7
:10281000A38895F803909845EAD163889945E7D154
:10282000B8F1070F1CD806EB0803AA4683F8BB9043
:102830000127DDE7A3884345DAD1A3784B450AD0C9
:10284000AF78384600F036FC3846FFF7E7FDB0FABF
:1028500080F77F09CCE72846FFF7AEFE0746C7E7BB
:10286000AA460027C4E794F900206378002A18DA02
:10287000002B7FF41CAF24792D6863060AD0204614
:10288000FFF7EAFD00283FF412AF96F8BA30002BAC
:102890003FF40DAF2946204601F0FAFE00236B708D
:1028A000F2E6012B08D0032B7FF401AF6388002BE5
:1028B0007FF4FDAE012103E0618800297FF4F7AECB
:1028C000A088FFF751FE00287FF4E3AEEFE600BFDB
:1028D000B00700206A080020022829607FF4F4AEC7
:1028E0004B883B60D5E694F9000062780028BFF67B
:1028F00071AF002A3FF466AF0A2A7FF4D8AE2A7877
:10290000002A3FF4D4AE697804297FF461AFA97836
:102910008B427FF45DAF072B96BF9B19002393F882
:10292000BB308CF80030D4E613B5164C237DF3B9D8
:10293000E268A168019201AB802006F044FE019A92
:10294000A3681344A360E3689B1AE3606BB962B1A8
:102950002369E2889A4208DD94F8C82093FBF2F1DB
:1029600002FB11330BB90123237502B010BD002304
:102970001A4619468020237502B0BDE8104001F0C8
:10298000CDBE00BFB007002030B585B000230246A1
:102990000D460193002858D1002935D108220B4655
:1029A0000DEB020107F030F8002804DA802001F076
:1029B00027FE05B030BD2A4C029A2260039A62605D
:1029C00004F13802A2609DF90820BDF80E3025758B
:1029D000002AC4E903550ADB802B04D9802001F0CA
:1029E0000FFE0020E3E713B1C4E90333E1E7FFF78B
:1029F0004FFD0028DAD0E28823699A42D4BFE26012
:102A0000E360FFF791FFD4E7154CD4E90215002DE0
:102A100001AB04DC06F0F8FF0028CADAC6E72A4654
:102A200006F0F2FF0028D9DB019AA3681344A360E3
:102A3000E3689B1AE360002BBBD104F13803A36069
:102A4000FFF726FD0028DCD1B0E78028B1D1044B88
:102A5000DA68002AD5D11B7D002BD2D1A9E700BFAF
:102A6000B0070020054B064A9A62064ADA62064A17
:102A70001A63064A58629A6100207047B007002026
:102A80003D26000041230000E123000081230000D7
:102A900010B5084B93F8B84034B900F0E3F830B102
:102AA000FFF7E0FF204610BD6FF07700FBE74FF027
:102AB000FF30F8E7B00700202DE9F341414D04460F
:102AC0006F6A41484FF0FF324FF0FF3305F09CF939
:102AD00095F8B860002E6ED13C482C62E86101F098
:102AE00037FF01F025FD041E49DB00F025FB041E25
:102AF00045DB7B78012B61D1FB79002B5ED06846EA
:102B000085F8C830ADF802308DF804608DF80060AB
:102B100001F052FD041E32DB802768468DF80070FC
:102B200001F04AFD041E2ADB2949304601F0FCFE73
:102B3000041E24DB2649384601F0F6FE041E1EDB87
:102B4000244CDFF89480444520D3002001F0BCFDE4
:102B5000041E14DBD5F8C430802043F00103C5F80F
:102B6000C43001F0B1FD041E09DBD5F8C43043F4D4
:102B70008033C5F8C430012385F8B83000241248EA
:102B800005F0BCF9204602B0BDE8F081276A0026B6
:102B9000227FF3B29A4201D82434D4E707EBC30270
:102BA00057F83310107901F0BFFE01360028EFD03E
:102BB0004FF0FF34E3E76FF07704E0E76FF01504C0
:102BC000DDE700BFB0070020FC010020BD240000AD
:102BD000892900001C0300206403002030B51F4B2E
:102BE0008BB005AA03F1100518685968144603C490
:102BF0000833AB422246F7D11B7823701022002104
:102C000001A806F074FE12220021154806F06FFE9E
:102C1000102101A806F0EDFF00281BDD0828B8BF31
:102C20000820093801AB0E491A18002012F8013F9C
:102C30000AAC04EB131403F00F0328336B44013088
:102C400014F8144C13F8143C0C7008284B7001F164
:102C50000201EBD102480BB030BD00BFF0AE000066
:102C6000BA1500202DE9F04F704C87B04FF0000BE3
:102C700000264FF0011AB0463546B14623782BB9ED
:102C80006B4B02349C42F3D1684832E06378052BE9
:102C90001BD8DFE803F09003C8901D3B402304A835
:102CA0008DF810B0ADF812308DF814B006F07BFE40
:102CB00040B1082304A8ADF8123006F074FE08B144
:102CC000ADF812B0BDF81230E37123781C44D5E79B
:102CD000E378002BF9D1A37873B108F101085FFA0A
:102CE00088F8F2E76A68944209D024359D42F9D306
:102CF000002007B0BDE8F08F4E4D4F4BF6E7AB68B4
:102D0000002BEAD0414620469847E6E7002DEFD059
:102D100000222B7F9A42EBD2296AA07801EBC201F4
:102D20000B79984201D00132F3E70127E07800F0F7
:102D300003008DF81400207994F805C040EA0C20B7
:102D4000ADF8120094F902000028FBB228DA07F16E
:102D500010004FF0010C0CFA00F010EA0A0F26D117
:102D600043F080008DF8100004A8CDE90213019211
:102D700006F019FEDDE90121039BC0B99DF8102082
:102D8000A27012F0800F18BF10330A7118BFDBB2A7
:102D90004FF0010214BF9A40BA404AEA020A94E78F
:102DA0000120B84010EA0A0F01D11846DAE70137CE
:102DB000102FBBD1B7E7032E1DD1FFF70FFF07463A
:102DC00068B106F076FD019048B11C4806F071FD2F
:102DD000019A824203D13946A01C06F07DFD23787A
:102DE0006FF00201E218091B04EB5303D14213D523
:102DF0000136F6B269E7002EF1D1B9F1000F3FF4C8
:102E000077AFA4EB090389F80230C3F3072389F8ED
:102E1000033089F80480EBE702F801BC13F80109DC
:102E200002F8020DE2E7A1464FE700BF4002002092
:102E30001A0300201C03002064030020F0AE0000F1
:102E400010B5094B00211A461C78844204D15C68F5
:102E500014B102EB811010BD0131042903F14003CC
:102E6000F2D10020F7E700BF7C0800202DE9F341F4
:102E700050F8283C10F82C6C1033044610D103692C
:102E800050F8202C99073CD502BB13F0040304D161
:102E90001A461946304606F096FB002344F8283CB3
:102EA00054F8283C10330ED054F8185C5DB154F837
:102EB0001C7C54F8148C07F08FF900284CD02C4857
:102EC000214607F07DFA02B0BDE8F08150F8241CDD
:102ED00001AB304606F077FB10B16FF01503DDE76C
:102EE000019A54F8243C134444F8243C54F8203C00
:102EF0009B1A44F8203C54F81C3C134444F81C3CF6
:102F0000CEE750F8241C01AB304601F083FC0028CA
:102F1000E3D1019D54F8243C2B4444F8243C54F85C
:102F2000203C5B1B44F8203C54F81C3C2B4444F8E8
:102F30001C3C002DB1D0304601F010FDB5FBF0F384
:102F400003FB1055002DA8D154F8203C002BA4D031
:102F5000304601F0A7FCA3E744F8180CA4F11000D8
:102F600005F03CF8424639463046A847ABE700BF7B
:102F7000680400204B1E012B73B506460D460FD882
:102F8000FFF75EFF044668B9012D09D101AB0122AC
:102F90000DF10301304601F03DFC019B002BF5D102
:102FA00002B070BD07F018F904F12C0108B1012D31
:102FB00005D1084602B0BDE87040FFF757BF03488F
:102FC00002B0BDE8704007F0FBB900BF6804002004
:102FD0002DE9F74F064601911546984606F03BFB52
:102FE000044600285CD14FF02003EFF3118A83F3ED
:102FF0001288BFF36F8FDFF8B0B00022002358466D
:1030000005F010F870B9DFF8A490A70109EB84145B
:10301000636813F1100F14D10193584604F0DEFFDA
:10302000019B06E00134042C0BF1400BE5D16FF05D
:103030000B038AF31188BFF36F8F184603B0BDE806
:10304000F08F019B2061C4E902350C9B63610D9BED
:10305000A36130466FF00F0309F80760C4F83C80A5
:10306000636001F07BFC58B1304601F077FCB5FBA2
:10307000F0F303FB10551DB1E36B43F00403E3636E
:1030800018F0020F07D007F12C010948494407F056
:1030900097F90023CDE7304601F004FC0346C8E76A
:1030A0006FF00F03C9E700BF980800207C080020DC
:1030B0006804002010B54FF02003EFF3118483F370
:1030C0001288BFF36F8FFFF7BBFE50B14368103318
:1030D00007D16FF08B03436000F12C01034807F028
:1030E0006FF984F31188BFF36F8F10BD680400205F
:1030F00070B50F4C04254FF02003EFF3118683F3D6
:103100001288BFF36F8F6368103307D16FF08B03A2
:103110000848636004F12C0107F052F986F3118826
:10312000BFF36F8F013D04F14004E4D170BD00BFD7
:103130007C0800206804002070B50A4C0A4E002567
:103140003146204607F01FF90122A4F11000114674
:10315000013507F0DBF8042D04F14004F0D1002024
:1031600070BD00BFA80800206D2E000070B5044699
:103170000E4601791248154606F049FAE8B194F96D
:1031800000206378002A11DB202B04D0222B09D0E9
:103190006FF0850005E029680722103806F09CFBD7
:1031A000002070BD638800F8093CF9E7212BEFD1BE
:1031B0001038072328603360F2E76FF01200F0E761
:1031C0007C09002008B50146034806F02EFA10B12C
:1031D000012300F8073C08BD7C0900200169012398
:1031E00081F84B300B6833B191F849301BB102487C
:1031F000083107F0E5B87047680400200169012331
:1032000081F84A300B6833B191F848301BB102485D
:10321000083107F0D5B87047680400200D4A03460E
:103220000021A0F848101068C3F8940090889279A3
:10323000A3F8980083F89A2083F89C1083F89B10D9
:10324000A3F89E1083F8A010402203F14C0006F072
:103250004EBB00BFC8AA000038B5056995F89E00AE
:1032600088B195F89F307BB985F84830D5F8900043
:1032700006F026F9002204460023044805F118014F
:1032800005F026F8204638BD0020FCE76804002041
:1032900013B504698DF8071094F89E30A3B194F823
:1032A0009F308BB90DF10701D4F8900084F84830B5
:1032B000012206F005F9014640B10D482122002304
:1032C00004F1180105F004F802B010BDD4F8900024
:1032D000012206F049F90028F6D0D4F89000012226
:1032E0000DF1070106F0ECF80028E6D1ECE700BF8D
:1032F00068040020F0B5D0F88C305B681B6A1F7D35
:1033000085B00546384606F0A6F90646E0B9A86F2E
:103310004FF4806203A906F0F2F80446A0B18306D8
:10332000A5F1180308BF00F1FF3485F83060019360
:10333000064B03990093224602233846FFF748FEC6
:10334000A86F214606F0FBF805B0F0BD5133000030
:1033500010B5012382F84830136814463BB192F847
:103360004A3023B10A4802F1080107F029F8D4F8DD
:1033700090309A681B699A4208D004F118010448F9
:10338000BDE810400022002304F0A2BF10BD00BF22
:103390006804002010B504690023C4F8A8300C4B61
:1033A000C4F8A400596804F1A80269B9C3E900226D
:1033B00004F10800074906F0E6FF04F11800064989
:1033C00007F00FF8002010BD0A605A60F0E700BF58
:1033D0007C09002081960000F532000030B54FF4E2
:1033E0000033426805690D4C85B042F2A100CDE979
:1033F0000103002385F89D30106AADF80C100079A8
:103400000A2201A906F0DFF895F89D3023B90120C2
:1034100007F00AF9013CF7D105B030BDA1860100E3
:1034200073B5144602F14C060A1E05461FDDD4F89A
:103430008C00314606F044F8012384F849302368B3
:103440003BB194F84B3023B10E4804F1080106F06B
:10345000B7FFD4F88C104B684A699A1ACB699B1A4B
:103460003F2B04D8012384F8A03002B070BD064B76
:10347000009301940123402231462846FFF7A8FD1E
:10348000F3E700BF680400202134000038B50D4682
:1034900001461E4806F0AFF8044680B30246691E96
:1034A00052F8A4395B68052929D8DFE801F0202803
:1034B0000320252914F8061C31B91B6A187BFFF775
:1034C000AFFF012304F8063C14F85C3CBBB90123B0
:1034D00004F85C3C54F8A43C8BB114F85A3C73B12A
:1034E000A4F19C010A48BDE8384006F069BFBDE878
:1034F00038401046FFF792BE012304F8053C38BD62
:1035000014F8053C002BFAD00023F6E77C090020D4
:103510006804002037B5094D0949002400944FF094
:10352000FF334FF48062284604F09AFE054928468E
:1035300006F058FE204603B030BD00BF68040020EE
:10354000801E002037AF0000014910220A6070473A
:1035500010ED00E072B6404080F31188BFF36F8F2A
:10356000BFF34F8F30BF62B6BFF36F8F704700BF9E
:1035700072B6494081F31188BFF34F8F20BF80F3AB
:10358000118862B6704700BF40B2002807DB044ACA
:103590004109012300F01F00834042F821307047A9
:1035A00000E100E040B200280CDB4309064900F0CE
:1035B0001F0020330122824041F82320BFF34F8FA8
:1035C000BFF36F8F704700BF00E100E0054B420979
:1035D00000F01F0053F82220012303FA00F01040EE
:1035E000704700BF00E100E040B20028A8BF00F132
:1035F000604001F10101B8BF064B4FEA4111ACBF79
:1036000000F5614000F00F00C9B2B4BF195480F852
:103610000013704714ED00E030BFFFF7FDBF00BF9F
:103620000F4A08B50F4B22F07F029A60BFF34F8F0D
:10363000BFF36F8FD3F8882022F47002C3F888207C
:10364000EFF3148323F0040383F31488BFF36F8F25
:1036500004F004FA05F0D4F900F020FA04F050FA6E
:103660000010000000ED00E0094A0A49936809686B
:103670009967094958674B6843F080534B600023B2
:1036800083F31188BFF36F8F9368986F704700BF03
:103690007C150020ECAC000000ED00E012498A68C7
:1036A0004FF030001044EFF3098C80E8F01F202029
:1036B00080F31288BFF36F8F0C4F4FF000668A695A
:1036C0008A603E60506F0023536780F3118804B511
:1036D000104600F029FABDE8044002F1300090E8FD
:1036E000F01F8CF3098870477C15002004ED00E082
:1036F0001EF0040F0CBFEFF30880EFF3098081691F
:1037000011F8021C0229FFD001B506F0C3F801BD73
:1037100042F8203C009B42F81C3C0A49019B42F8BD
:10372000183C029B42F8143C21F001014FF08073D9
:1037300042F8043C42F8081C0023203A0265436723
:10374000704700BF978D0000094A0346906870B12A
:1037500013F1160F406E05D0A0F140029A4205D831
:10376000834203D2814228BF002070470020704767
:103770007C15002008B5094B0D461446986000F0F2
:10378000D3F9204685F30988002163B681F31188B7
:10379000BFF36F8F0022002305F0FDFA7C15002097
:1037A00001B572B60B4A506900281EBF0021516155
:1037B00006F01DFD62B6EFF30580A0F110004FEAA0
:1037C000C0000549014409C99847BDE801400349C3
:1037D000084700007C150020A0A80000E137000089
:1037E000044B99689869884203D003494FF080528E
:1037F0000A6070477C15002004ED00E070B5264B90
:1038000015469A6A12F0100F9A6A14BF11241024F8
:1038100012F0080F9A6A18BF1224920706460AD5BA
:10382000586B9A6A140634D519B19A6A22F080024C
:103830009A62132401E06FF01500174B9A6A12F098
:10384000010F9A6A18BF142412F0200F9A6A18BF49
:103850001524D20602D49B6A9B070AD50E4B5B68DF
:10386000190506D53146FFF76FFF10B180F30988BF
:103870000224094B9A6A920642BF5A6A22F4005205
:103880005A629A6A42F0FF029A6200232B70204625
:1038900070BD6FF01500CCE700ED00E0134B9A6AA5
:1038A00012F0007F9A6A14BF1E201D2012F0807F44
:1038B0009A6A18BF1F2012F4002F9A6A18BF21209D
:1038C00012F4802F9A6A18BF222012F4003F9A6ADD
:1038D00018BF232012F4803F9A6A6FEA02426FEA0F
:1038E00012429A6218BF2420704700BF00ED00E02A
:1038F00010B5194B0246986A9C6A10F4805F14BF99
:103900001720162014F4006F9C6A18BF1820A40515
:1039100009D5986B986A000404D51AB19A6A22F402
:1039200000429A6219200C4B9A6A12F4806F9A6ACC
:1039300018BF1A20D2050CD49B6A13F4005F18BF7D
:103940001C20054A936A43F47F43936200230B7063
:1039500010BD1B20F5E700BF00ED00E070B5454B42
:103960005B688AB00546C3F30803002686F3118816
:10397000BFF36F8F02F07F40B0F17F4F11D102F0A3
:103980000C0008280DD010074CBF0D460126002260
:10399000033B8DF80720032B05D8DFE803F01E5DFD
:1039A000615A3546F3E700249DF807309BB9202281
:1039B000294602A805F090FF099B002E54D0C3F3BE
:1039C000080222B96FEA53236FEA4323099302A93D
:1039D000204605F05DFF0AB070BD264BDA6A9107FC
:1039E000E1D4DA6A002ADEDBDA6A5200DBD55A69F2
:1039F000A96942F480725A61BFF34F8FBFF36F8F92
:103A00005A6931F8021C22F480725A61BFF34F8F59
:103A1000BFF36F8F4DF6027291420AD09A6AD2B20A
:103A20004AB10DF1070201212846FFF7E7FE0446DF
:103A3000BAE72C68B8E79A6A12F47F4F05D00DF107
:103A400007010120FFF754FFF1E79B6AB3F5803FC0
:103A5000A9D3FFF723FFEAE70DF107020021E3E70F
:103A60000DF107010020EDE723F4FF7323F00103BC
:103A7000ACE700BF00ED00E0024A536943F01003D9
:103A80005361704700ED00E0EFF30880EFF3098128
:103A900001B57246FFF762FF01BD00BF0448002375
:103AA0002021C2180133302B82F80013F9D170475E
:103AB00000E100E0FEF7D8FA202080F311880848E2
:103AC0004FF40461401880F30988EFF31480022159
:103AD000084380F31488BFF36F8FFFF7A1FD000048
:103AE00000270020084B9B6883420BD1EFF305832E
:103AF00043B1064B5A6842F080525A605A6A22F427
:103B000000425A6204F00ABF7C15002000ED00E07C
:103B1000024B034A0348012100F070B80000042062
:103B20000000002040AB0000426E054B403A1A6096
:103B3000044A4021C3E901121846012100F068B887
:103B40008409002000000B15F0B5204E00258D42A1
:103B500039DA446874B353B104F1FF3C14EA0C0F32
:103B60002FD11F2C2DD907681CEA070F29D1202C33
:103B70000768D0F808C05FFA82FE1ED9B4F1004F82
:103B80001DD8013CB4FA84F4C4F11F046400BEF1F2
:103B9000070F4CEA040C14D827F01F04144344F018
:103BA0001004C6F89820C6F89C404CF00104C6F8F2
:103BB000A040013201350C30C9E70824E7E73E2474
:103BC000E5E76FF015021046F0BD00BF00ED00E024
:103BD000044B0522C3F89420BFF34F8FBFF36F8FC0
:103BE000704700BF00ED00E0BFF35F8F024B002283
:103BF000C3F89420704700BF00ED00E010B5034CFF
:103C000001232278FFF7A0FF207010BDCC15002003
:103C100008B5094A00231278FFF796FF10F1160F36
:103C200002D0064A072800DD08BDC2F89800C2F895
:103C3000A0300130F6E700BFCC15002000ED00E019
:103C400014490868082810B521D8FFF7CDFF124C99
:103C500049680022904201F10C0105D10F4B187008
:103C6000FFF7B6FF002010BDC4F8982051F80C3CB7
:103C700023F01F03134343F01003C4F89C3051F8A2
:103C8000043C43F00103C4F8A0300132E2E74FF0F6
:103C9000FF30E8E74CAB000000ED00E0CC15002061
:103CA000014B1860704700BF18010020044A01232F
:103CB000C2F840354FF080420020C2F87835704796
:103CC00000E0014020B1034B800143F0010318479D
:103CD000704700BFD0AA000010B50C460146084846
:103CE00005F0A3FC50B1022C08D150F8083C2BB1D0
:103CF0001B691BB1BDE810400068184710BD00BF2C
:103D0000A8090020F8B590F90030002B04460D46B4
:103D1000174602DB6FF01500F8BD038823F0E003BF
:103D20009BB240F201629342F4D146880179124875
:103D3000360A05F06CFC0028ECD0212E04D0222E8F
:103D40000FD06FF08500E7E70368E1885B685B6888
:103D500013F8092F914294BF29602A603B6000202C
:103D6000DAE7E38850F80C2C9A4294BF2A602B6063
:103D700050F8103CF2E700BFA80900202DE9F041FF
:103D800004460E4601791448174605F040FC0546E6
:103D9000D0B194F9002000686378002A0DDA012B75
:103DA00016D155F8083C9BB11D688DB13B46324693
:103DB0002146AC46BDE8F0416047092B08D155F8D3
:103DC000083C2BB15D68F0E76FF01200BDE8F081B0
:103DD0006FF08500FAE700BFA809002010B50C4677
:103DE00001460F4805F007FC50B1611E052907D8B0
:103DF000DFE801F0070603070D0F012300F8043C7C
:103E000010BD002300F8043C00F8033CF8E7012350
:103E1000FAE710F8033C002BF2D00023F4E700BFD0
:103E2000A809002010B50469C4E90012A3600023AA
:103E30006361064B2061596804F1140211B9C3E9AA
:103E4000002210BD0A605A60FBE700BFA8090020ED
:103E5000020600F07F0312D5082B05D1010700F000
:103E60000F0306D50E48704710F0780F12D100F0FE
:103E70000F034C2000EB43100A4B18447047082BEB
:103E800005D1020700F00F0306D50748704710F070
:103E9000780FF6D000207047044800EB43107047BD
:103EA000FC0A0020B00900201C0C00201C0B002084
:103EB0000149024806F084BAD8090020080500200C
:103EC0000146014806F017BA3002002002480022DD
:103ED000002304F04FB800BF3002002010B5054C9D
:103EE000FFF7F4FF20B1011D204606F04CF9F7E77B
:103EF00010BD00BFE001002007B500230E480022DE
:103F000001A903F07DFE90B1FFF7E8FF0A48002207
:103F1000002301A903F074FE38B90198042340601E
:103F20000374FFF7CDFFFFF7C3FF002001E0019806
:103F3000406003B05DF804FBE0010020022810B5EA
:103F400011D8094B1C5CFFF7D7FF60B10022027447
:103F50000472FFF7B5FF054B93F824301BB1BDE8A1
:103F60001040FFF7A5BF10BD6AAF0000B0090020E8
:103F7000F8B5877806463846FFF76AFF3B06F578BE
:103F8000044612D5002D43D1FFF7B6FF03460028A3
:103F90003ED00122A5770274032202739C60FFF7D2
:103FA0008FFFBDE8F840FFF783BF4DB1012D2FD142
:103FB000FFF7A2FF034658B3657705740573EDE775
:103FC000FFF79AFF20B3B278124B12F0800F02F085
:103FD000080111D041B1D3F8A836E360012303747E
:103FE000022303738460DAE702F00F02142101FB5D
:103FF0000233D3F80836F0E711B1D3F8A837ECE76D
:1040000002F00F02142101FB0233D3F80837E4E772
:10401000F8BD00BF0070024013B5124802F0B8FFAF
:10402000114B98421AD1114802F00EF900241048A1
:1040300002F050F90F49104800944FF0FF334FF44D
:10404000806204F00DF90D490B4806F0CBF80C48DE
:104050000C4906F098F9204602B010BD6FF004003C
:10406000FAE700BFC94000000000AD0B6DAF0000D3
:1040700070AB0000C0220020080500205FAF0000E8
:10408000D80900204D42000010B50E49BFF35B8FE8
:10409000002351E8002F012A03D141E80030002815
:1040A000F7D1BFF35B8F0CD151F8044C1439204683
:1040B00005F03BF9783004D12046BDE8104005F00A
:1040C0000FB910BDD0090020F0B5064689B0142202
:1040D000002103A805F00BFC3378013B052B21D808
:1040E000DFE803F07A0314146A1603238DF8143002
:1040F0000024FFF701FF0346A0B1047400F1080299
:10410000DDE9050182E8030018461DE00423EDE720
:10411000B7783846FFF79CFE837A044623B1013B0B
:10412000022B43D909B0F0BD3B06F57813D5002D1D
:10413000F8D1FFF7E1FE03460028F3D00122A5776E
:104140000274032202739C60FFF7BAFE09B0BDE857
:10415000F040FFF7ADBE55B1012DE3D1FFF7CCFE26
:1041600003460028DED0657705740573EBE7FFF79B
:10417000C3FE07460028D5D001230374022303732E
:10418000846004F10C01B07805F075FF134AE16812
:10419000B2F88C328B4206D95B1AA2F88C3203F04B
:1041A00033F93846D0E7A2F88C52FAE7304609B026
:1041B000BDE8F040FFF7DCBE01A803F0FFF89DF872
:1041C0000530052B04D19DF8043013F0600FA9D001
:1041D000034B059301248CE702248AE7B0090020F1
:1041E0001C0B002038B5002464F07F00C0B2FFF73C
:1041F0002FFE013405F0C0FB082CF5D10E4D002434
:10420000E0B2FFF725FE036903B90561013405F04B
:10421000B3FB082C05F14005F2D1084805F0ACFBD2
:10422000074BD3F87C2212B9064AC3F87C22064811
:1042300005F0A2FB002038BD40100020FC0A002041
:10424000B0090020400C00201C0C00202DE9F04398
:10425000A74CDFF8A08285B00746FFF737FE10B9FC
:1042600005B0BDE8F08394F82530027C00F1040924
:104270003BB9002A00F088809E48494605F083FF3C
:10428000EBE7042A44D8DFE812F07F0005000201C2
:1042900018014101037B8568032B39D8DFE803F05F
:1042A000023F5C616E6908220021304605F01FFB69
:1042B000914B9248D3F880243270D3F884247270E2
:1042C000D3F88824D3F88C1442EA01227280D3F800
:1042D0009024D3F8941442EA0122B280D3F89824AF
:1042E000D3F89C3442EA03230822F3803146EA6083
:1042F00005F0F2FA2B68687A0021984796F90030A9
:10430000002B08DBF38833B1A4F88C3203F07CF87F
:1043100049464046B2E70023A4F88C32F8E76B7FA9
:10432000002BF5D02B7F002BF2D000266E774FF0BC
:10433000FF3273482E774FF0FF3305F030FB6B6987
:1043400001936B68CDE9023601A9687A02F062FE3A
:104350006B4805F026FBDBE72B680121687A98475C
:10436000D6E7AB7A6BB9EB7F5BB965484FF0FF32AC
:104370004FF0FF3305F013FB03F076F8604805F0CB
:1043800010FB2B680221E9E7027A042AC0D8DFE893
:1043900002F059032367730002F0C4FD05460028AC
:1043A000B6D102F0FBFCBFF35B8F5649012351E805
:1043B000002F002A03D141E800300028F7D1BFF3D5
:1043C0005B8FA5D141F8085C41F8105CE06963613E
:1043D000143904F02DFF9BE7002565F07F00C0B283
:1043E000FFF736FD037A13B1407A03F0EDF901359A
:1043F000082DF2D194F854311BB194F8550103F013
:10440000E3F90025E8B2FFF723FD037A13B1407A00
:1044100003F0DAF90135082DF4D194F874321BB1A8
:1044200094F8750203F0D0F9002002F05DFD01233D
:1044300084F825302368002B3FF46AAF0021022066
:10444000984765E7002584F8255003F079F9FFF7D0
:104450001BFE2368002B3FF45BAF29460420EFE7E7
:10446000002B3FF455AF02F067FD2368002B3FF4AB
:104470004FAF00210520E3E72268002A3FF448AF50
:10448000002B3FF445AF00210620904740E707F19D
:1044900010054FF0FF334FF0FF32284605F07FFA4A
:1044A000FFF7A0FE284605F07CFA57F8283C002BC1
:1044B0003FF42EAF00210120C2E794F874327BB1A3
:1044C000012584F8895284F88852FFF715FD38B128
:1044D0000D4A057405738260FFF7F2FCFFF7E8FCF4
:1044E00057F8283C002B3FF413AF00210A20A7E720
:1044F000B0090020E001002000700240B409002053
:10450000E8090020D00900201C0C002005F0BEFCAA
:1045100003F016F902F038FCFFF7E0FCFFF762FE4B
:1045200005F0ADFC014802F033FDF1E6C9400000A2
:1045300038B5164D95F824402CBB05F1380005F030
:1045400065FE204600F010FB22460121E86127208D
:10455000FFF74AF805F093FCFFF744FE044610B954
:10456000012385F824300A4B1B680BB1FFF7A0FC30
:104570004FF08043D3F83834DB0702D50020FFF733
:10458000DDFC204638BD0024FBE700BFB009002059
:1045900030020020074B93F824203AB193F82530DD
:1045A000002B14BF00206FF0120070476FF0120054
:1045B000704700BFB009002038B5104B93F8243085
:1045C0000446C3B105782846FFF742FC10B96FF0E6
:1045D000150038BD45722379837263884360207863
:1045E000618810F0080F02D14B1E0B42EFD105F08D
:1045F0003DFD0020EDE76FF01200EAE7B009002072
:1046000038B5124B93F824200546CAB193F82530EB
:10461000B3B1FFF71DFC0446A8B1837A012B12D079
:1046200007D9023B012B07D96369A3610020E06031
:1046300038BD02F021FFF7E7284602F091FEF3E7CC
:104640006FF01200F4E76FF01500F1E7B0090020F9
:1046500038B50E4B93F82420054682B193F82530E7
:104660006BB1FFF7F5FB68B115F008040AD12846D5
:1046700002F098FE284603F0FBF8204638BD6FF0A4
:104680001200FBE76FF01500F8E700BFB00900204B
:1046900038B50C4B93F8242005460C4662B193F8CC
:1046A00025304BB1FFF7D4FB48B144B1284602F0A6
:1046B0005FFE2070002038BD6FF01200FBE76FF046
:1046C0001500F8E7B009002070B5134E96F82430B5
:1046D0000446C3B1FFF7BCFB0546B8B1230705D4B8
:1046E000204602F05FFE204603F0C2F82B7A83B921
:1046F00001232B7296F825300BB9002070BD20469F
:1047000003F062F8F9E76FF01200F7E76FF01500B9
:10471000F4E76FF07700F1E7B00900202DE9F043EE
:10472000DFF8E4801E4698F8243085B007468946B5
:104730001546002B61D098F82530002B5DD003067C
:104740005ED5FFF785FB0446002859D0037A002B7D
:1047500056D04FF0FF334FF0FF3208F1380005F02C
:104760001EF9A37F4BB108F1380005F01AF96FF07C
:104770000A04204605B0BDE8F083A37AC5B13BB377
:104780000123A3774FF0000801A93846CDE9019530
:10479000CDF80C8002F03EFC1C4B984229D084F8E6
:1047A0001E801EBB6FF00404194805F0FAF8E0E71C
:1047B000E27F02B1E577002BE2D102F065FEB8425C
:1047C000DED002F051FE124805F0EBF80024D0E7ED
:1047D000B8F80A30AB42F0D96268B5FBF2F302FBDD
:1047E0001353002BE9D10123E377E6E7C6F80080F5
:1047F000D8E706B135600024D6E76FF01204B8E7B9
:104800006FF01504B5E700BFB00900200000AD0B44
:10481000E80900202DE9F0411D46204B174693F88A
:1048200024200E46002A33D093F8253083B30306A4
:1048300031D401B97FBBFFF70BFB044658B3037AB1
:104840004BB34FF0FF3316484FF0FF3205F0A7F897
:10485000E3689F42B84628BF984646B93FB905B1BC
:104860002B600F4805F09DF80020BDE8F081A1699C
:104870004246304605F030F8A3694344A361E3683B
:10488000A3EB0803E360002DEBD0C5F80080E8E758
:104890006FF01200E9E76FF01500E6E7B0090020BD
:1048A000E809002070B51E4D95F82420034682B318
:1048B00095F825206AB31B062ED4FFF7C9FA0446E3
:1048C00050B3037A43B34FF0FF334FF0FF3205F19B
:1048D000380005F064F8E368B3B901266369267708
:1048E000A361637F83B1FFF707FB30B905F138009F
:1048F00005F057F86FF00B0070BD06748460067306
:10490000FFF7DEFAFFF7D4FA064805F04AF8002070
:10491000F2E76FF01200EFE76FF01500ECE700BF71
:10492000B0090020E809002010B5084B93F82430A6
:104930000C462BB1FFF78CFA28B10460002010BDA3
:104940006FF01200FBE76FF01500F8E7B0090020E8
:10495000014B1860704700BFB009002008B5074B35
:1049600093F8243023B1FFF773FA20B1406808BDF3
:104970006FF01200FBE76FF01500F8E7B0090020B8
:10498000084B70B5C31A0D4607499B10044659439E
:104990000648402205F063F82B4601462046BDE854
:1049A0007040184754120020B76DDBB600A8000015
:1049B00073B50C4C0C4A4023041B00930D460B4668
:1049C0000A49A41061430646094805F075F8011E1E
:1049D00005DA30462B4602B0BDE87040184702B0F9
:1049E00070BD00BF54120020259B0000B76DDBB6E0
:1049F00000A80000002270B5012104461046FEF711
:104A0000F3FD0F4801F066F80E4B984215D101F006
:104A100071F826690C49304604F0F7FB00280BDBDF
:104A2000012535642469084904F11C0004F0EDFBFC
:104A3000002801DBE564002070BD6FF00400FBE797
:104A4000814A00000000AD0B74AB000070B5014658
:104A50000C2309484B43C418D4E90E5640330022B6
:104A60001844A26304F0E8FF2DB132462B460348F8
:104A7000BDE87040184770BD5412002000A8000027
:104A800010B1012804D07047034B1B6C5B0701D1A8
:104A9000FFF7DCBF704700BF5412002008B54FF08D
:104AA0002003EFF3118183F31288BFF36F8F124A53
:104AB000136843F002001060DA0708D481F311880C
:104AC000BFF36F8F0120BDE8084005F036B94FF005
:104AD0008043D3F80C24D3F80C34DB07EED5074819
:104AE00004F0AAFF81F31188BFF36F8F0020BDE8A7
:104AF0000840FFF7ABBF00BFA412002094120020B3
:104B00001FB500220123CDE90223094ACDF800D0C8
:104B10006B46CDF804D004F0FEFF002805DB4FF40F
:104B200080420023684603F07DFA05B05DF804FB7F
:104B3000439B000010B54FF02003EFF3118483F383
:104B40001288BFF36F8F074A136823F00201DB0757
:104B5000116002D4012005F02CF984F31188BFF311
:104B60006F8F10BDA4120020024AC3B21C2003FBA9
:104B700000207047541200202DE9F0413849BFF35E
:104B80005B8F0746012251E8003F41E800200028E2
:104B9000F9D1BFF35B8F33B9324933484B60CB60F7
:104BA0008A6004F045FB7B1E012B2BD8012F07D117
:104BB0004FF08043D3F81C3403F00303012B21D0C2
:104BC00005F00AFB0546F8B9284B1B78E3B14FF016
:104BD00080430222C3F808230646DFF894804FF092
:104BE0008044D4F81824D4F81834D20316D503F02E
:104BF0000303012B01D0012F10D15DB386F311887F
:104C0000BFF36F8FBDE8F0814FF02003EFF3118603
:104C100083F31288BFF36F8F0125DEE7ADB1304615
:104C2000FEF7A6FCD4F81835002BDAD1D4F804210D
:104C3000002AD6D0C4F80431D4F804310123C4F8D2
:104C40001835C8F88031A360CBE70021212003F09C
:104C50002BFEE7E74FF080430222C3F80423D1E79D
:104C6000501200204012002070120020E315002096
:104C700000E100E008B5074805F039FA38B1064808
:104C8000FFF70EF80448FCF71BFD002008BD6FF08D
:104C90001200FBE73CA800009D4C00000A2838B534
:104CA000074D044604D1AB680D215B682846984740
:104CB000AB6803485B68E1B29847204638BD00BF47
:104CC0003CA8000030B54068057B01F01F04B2F538
:104CD000001F85B044EA451405D1204601F08AF949
:104CE000002005B030BD0025B2F5800FCDE902559A
:104CF00014D1B3F1007F0CBF042305238DF80830D5
:104D00000023194602AA204600F0BCFF234B98421C
:104D10003DD10121204601F027F9E1E7B3F1C06F51
:104D200027D0B3F1007F14BF012302238DF8083090
:104D3000836823FA01F111F00101E1D1B2F1A07F02
:104D4000DED104F01F03620903F5E07313D0012ADA
:104D500020D1134A52F82330DB07D1D40DF10705D7
:104D60002946204601F0B0F80E4B984206D0039534
:104D7000C6E70323DAE74FF0A042EBE7284601F04D
:104D8000EDF8064B9842F2D06FF00B00A9E76FF0F8
:104D90001500A6E751F82330FFDE00BF0000AD0B81
:104DA000000300500400AD0B10B501F0C7F8044635
:104DB00068B901F09BF8084B98420AD10748214690
:104DC00001F07CF8224605210620FEF70DFC0020AC
:104DD00010BD6FF00400FBE70000AD0BE14D0000DB
:104DE000420970B5034602D0012A17D070BD0D4E9E
:104DF000326951680029F9D003F01F0301250C68BE
:104E00009D400029F2D08A682A4002D04B68304683
:104E100098472CB1236821461C46F2E7024EE7E78B
:104E20002346F8E728A8000014A800002DE9FF4158
:104E300047683B7B01F01F0545EA43150E462846AF
:104E40000DF10301144601F03FF814F4403F804691
:104E50000BD1284601F0F0F83D4B984503D19DF861
:104E6000030001F075F800200CE00023194602AAA7
:104E70002846CDE9023300F005FF354B984204D0B7
:104E80006FF0150004B0BDE8F081804503D19DF8B6
:104E9000030001F05DF8A3034BD540F20633234035
:104EA000B3F5837F19D00CD8062B17D004D8ABB13B
:104EB000022BE5D1042311E0B3F5807FE0D101237B
:104EC0000CE040F20222934227D0B3F5407F26D077
:104ED000B3F5007FD4D1022300E007238DF804301E
:104EE00084F48033C3F30043E0068DF8053054BFEB
:104EF000C4F34013032321038DF8063011D57A68DB
:104F00000123B340C2F80835002201A9284600F069
:104F100065FF0F4B9842A6D0B2E70523DEE70323D7
:104F2000DCE7620341BF01237A68B340C2F80C3565
:104F3000EAE7E3064FF0000354BFC4F34014032430
:104F40001A4601A928468DF8044000F09BFEE0E7D0
:104F50000000AD0B38B544680569E3699847206ADD
:104F600004F077FE00280DDB2B46084A04F1080107
:104F7000204601F04BFA064B984204D1204601F03E
:104F800089FA002038BD6FF00400FBE7D14F000024
:104F90000000AD0B70B544682368D3F80855D3F80A
:104FA0000C65204601F086FA3146284602F080FC66
:104FB0000546206A04F04DFE204601F06BFA034BD3
:104FC0009D4214BF6FF00F00002070BD0000AD0BBC
:104FD0000378012B08D0022B08D04BB9054B0B628C
:104FE00001F1100002F0FABF034BF8E7034BF6E7BC
:104FF000034BF4E70000AD0B0100AE0B0200AE0B5B
:105000000100AD0B2DE9F04FD0F804A006698BB07C
:10501000934614221D468146BAF81830D6F82480EB
:1050200002930C460DEB0200002104F060FC8DF8A9
:1050300015504FF0FF324FF0FF33304602F0F2FFD1
:1050400006F1100301930022002306F1100002F084
:10505000E9FF00273D465F4501D3002468E0207A40
:10506000020700F18A8001375F450AD2830708D41E
:10507000237D80EA030202F0010203F004031A43D5
:105080001AD0DDB100236268DDF808C0A9186145B7
:1050900076D8C10706D42168039308EB050004F015
:1050A0001BFC039B62682A4495B2002B4FD14DB183
:1050B000CDF820802B4609E00123E4E7C007D4E9BE
:1050C00000121BD52368089363680025227A069393
:1050D00002F0010382F00202C2F34002520105A96C
:1050E00050468DF8143001F003FA284B984213D043
:1050F0000B3398421AD16FF00F0419E001F06043AE
:10510000B3F1005FDED0BAF81A3093423BD3404689
:1051100004F0E2FBA588CAE74FF48042019800231F
:1051200002F080FF58B14846FFF734FF6FF00404E7
:10513000304602F053FF20460BB0BDE8F08F336AD3
:10514000124A9342F2D1237ADB0702D400250C34B1
:1051500081E7089B9845F9D1234608E0A91AD86849
:1051600003938DB218FA81F104F0B6FB039B5A68E1
:105170009542A3F10C03F1D2E8E76FF08504D7E77D
:105180006FF01B04D4E76FF01504D1E70000AD0BFE
:10519000F0B52D4E0025EBB2994201D80020F0BDAC
:1051A00050F8253003F07F0CBCF17F0F4FEA134419
:1051B00029D00B2CC3F3432734D1C2F808C5002FE4
:1051C00008BF06275FEA5C1C50F8254003F01F0368
:1051D0002DD0BCF1010F30D1B4460CEB8303DFF8C6
:1051E0006CC0D3F800E70EEA0C0CC4F3403EC4F3E5
:1051F000C114A40044EA4E0444EA072444EA0C041F
:10520000C3F8004705E00B2C05D14FF0FF33C2F87F
:1052100008350135BFE70C2C0CD14FF0FF33C2F835
:105220000C35F6E70C2C05D1C2F80CC5C7E74FF0DA
:10523000A04CD2E76FF08500B1E7002203F5E073E0
:1052400052F82330FFDE00BF00030050F0F8FCFFEF
:10525000014B01221A60704700C000400C2903690D
:105260000BD15B6A064907484B4393FBF0F100FB07
:10527000113311605360002070476FF08500704754
:1052800090D0030040420F00044B00690022C3F895
:105290000021D3F8003102F0A1BE00BF00C00040E1
:1052A0007FB50569AB6A63B3392901D00C292BD1CD
:1052B00005F110064FF0FF324FF0FF33304602F099
:1052C000A3FD134B0193A86A0323002469460394AA
:1052D000029303F0ADFF4FF0FF324FF0FF3328464B
:1052E00002F0A0FEA86A03F0FBFF0A4BD3F80825E2
:1052F0006A6201225A60304602F000FE204604B085
:1053000070BD6FF00A00FAE76FF08500F7E700BFA5
:105310005152000000C0004010B504690020FFF7A2
:1053200023FCA0624FF0FF320021204604F0EEFF84
:1053300004F1100004F06AFF002201210C20FEF7A6
:1053400053F90C20FEF720F9024B0122C3F8042385
:10535000002010BD00C0004070B5012383400E4AFC
:10536000BFF35B8FDC4352E8001F01EA040542E80B
:105370000056002EF7D1BFF35B8F4FF4803282408E
:105380000648C0F80823BFF35F8FBFF36F8F0B424F
:1053900014BF0120002070BDF01200200010014059
:1053A00070B40E49D1E90034D01AC31844F1000496
:1053B00022F07F46C1E90034A6F50013B3F5400F93
:1053C00009D2074B1B681A0A1B069C19054B42F1B0
:1053D0000005C3E9004570BC03F0E8BBB805002038
:1053E000F4120020C005002011B3BFF35B8F01232E
:1053F000104A834052E800CF4CEA030C42E800C157
:105400000029F7D1BFF35B8F0B4A4FF48033834001
:10541000C2F80433094BBFF35B8F1B68BFF35B8F8C
:10542000C340DB0742BF064B4FF40032C3F80021F4
:10543000704700BFF012002000100140EC12002065
:1054400000E100E00D4B1868010A0006BFF35F8F12
:105450000B4BD3F80435181841F10001B3F5801F48
:105460000AD2084BD3E90023904271EB030303D225
:1054700010F1807041F10001704700BFF41200206C
:1054800000100140C00500202DE9F04F85B0164600
:105490001F469DF840A00446FFF75EFF0190FFF70E
:1054A000D1FFB04271EB070354D23E4B301A67EB89
:1054B0000101984271F100014FD23B4B03EB041301
:1054C000D3E902239F4208BF96425ED037494FF48A
:1054D000803804F1500508FA04F8AD00C1F848839B
:1054E0002046ADB204F016FC26F07F4B05F1804556
:1054F00004F5A87305F58835DC464FF003090293DF
:10550000029A2CF07F4341F82230C1F84483D1F84D
:105510000435274A6FF00200C01A604420F07F4033
:10552000904232D9286868B1D1F804350393A3EBCF
:105530000B0020F07F40B0F5000F26D9204604F084
:10554000E9FB039BBAF1000F07D109EB030C09F14A
:105550000109D5E7BAF1000F09D06FF01505204613
:105560000199FFF741FF284605B0BDE8F08F012300
:10557000104ABFF35B8FA34052E8000F184342E884
:1055800000010029F8D1BFF35B8F07490E98230172
:1055900001EB0412C8500F9B5360C2E9026700255B
:1055A000DDE700BF01008000A805002000100140D9
:1055B000FDFF7F00EC1200207FB51C4C1C4BC4F893
:1055C0000833C4F848331B4B00254FF0FF304FF031
:1055D000FF31C4F80855C3E902014FF48033C4F821
:1055E0000433154B02264FF400320121C4F8046342
:1055F0001120C3F880212A46FDF7F6FF1120FDF7A0
:10560000C3FF0E4A0123A360236013600C4B0D4AB5
:105610000093CDE9015500232846FFF735FF3046BA
:10562000FFF7AAFA284604B070BD00BF0010014081
:1056300003000F00A805002000E100E0F0120020A8
:10564000A1530000FFFF7F002DE9F7432F4CD4F852
:10565000043399070BD5D4F8043143B12C4A002305
:10566000C4F80431D4F80431136801331360D4F85A
:105670000433DA032AD5BFF35B8F264B53E8002FA0
:1056800022F0010143E800100028F7D1BFF35B8F3F
:10569000D30702D4D4F84031C3B10025C4F8405137
:1056A000D4F84031FFF7CEFE4FF02003EFF3118224
:1056B00083F31288BFF36F8F174BD3E90267B042B1
:1056C000B94106D282F31188BFF36F8F03B0BDE8F2
:1056D000F0834FF0FF384FF0FF39C3E90289D3E977
:1056E00000101D604FF48033C4F84833C4F84051B3
:1056F000D4F8403182F31188BFF36F8F0029E5D0D1
:10570000009032463B4628468847DFE700100140BC
:10571000F4120020EC120020A80500201FB5431C45
:1057200023D0012823DD134A134B9042D4BF0446F3
:105730001C46FFF787FE114B0F49D3E90023801A5F
:10574000B0F5000F28BF002404448C4228BF0C464B
:10575000A2180B4900914FF00000CDE9010043F180
:105760000003FFF791FE04B010BD034CE1E70124F4
:10577000DFE700BFFEFF7F00FFFF7F00B8050020CE
:10578000A153000008B5FFF75DFE024B1B68C01A6D
:1057900008BD00BFB80500204FF08053D3F830217A
:1057A000082A06D1D3F83431052B02D8024AD05C3E
:1057B00070470020704700BF02B00000024AD2F8D4
:1057C0000034002BFBD0704700E0014010B54FF0D3
:1057D0008053D3F83021082A4ED14FF08042002167
:1057E000C2F80C11C2F81011C2F8381502F5404287
:1057F000D3F80414C2F82015D3F80814C2F82415FD
:10580000D3F80C14C2F82815D3F81014C2F82C15CC
:10581000D3F81414C2F83015D3F81814C2F834159C
:10582000D3F81C14C2F84015D3F82014C2F844155C
:10583000D3F82414C2F84815D3F82814C2F84C152C
:10584000D3F82C14C2F85015D3F83014C2F85415FC
:10585000D3F83414C2F86015D3F83814C2F86415BC
:10586000D3F83C14C2F86815D3F84014C2F86C158C
:10587000D3F84434C2F87035FFF78EFF18B13A4BB5
:105880003A4AC3F88C26FFF787FF18B1384BFB2242
:10589000C3F81825FFF780FF70B14FF080414FF03B
:1058A0008053D1F8E42ED3F8583222F00F0203F0DF
:1058B0000F031343C1F8E43EFFF76EFF20B12D4BF9
:1058C0004FF40072C3F840264FF08053D3F83031C4
:1058D000082B1AD14FF08043D3F80024D20744BFDD
:1058E0006FF00102C3F800244FF08053D3F8343135
:1058F000052B02D8204AD35C3BB14FF01023D3F8DC
:1059000008224FF08043C3F858254FF01023D3F8F6
:105910000022002A03DBD3F80432002B22DA1749D5
:1059200001234FF01020C1F804351224FFF746FF81
:10593000C0F80042FFF742FFC0F80442FFF73EFF05
:105940000023C1F80435FFF739FFBFF34F8F0C492F
:105950000C4BCA6802F4E0621343CB60BFF34F8F75
:1059600000BFFDE710BD00BF0050004048810300AC
:1059700000F0004000900240FCAF000000E0014059
:1059800000ED00E00400FA0530B50468CCB1BFF3C7
:105990005B8FB4FA84F3C3F11F03DBB201229A4098
:1059A00024EA020250E8005FA54204D140E8002C3E
:1059B000BCF1000FF6D1BFF35B8FE6D102480B704C
:1059C00030BD0248FCE700BF0000AD0B0200AD0B8C
:1059D00010B50368CB40DB0714D401238B40026869
:1059E000BFF35B8F43EA020150E8004F944204D1B9
:1059F00040E8001CBCF1000FF6D1BFF35B8FEED185
:105A0000014810BD0148FCE70000AD0B0400AD0BE0
:105A1000F7B5044618B1012823D003B0F0BD4FF00C
:105A200080430222C3F80823C3F80401D3F80421F9
:105A30000122DA60064601238DF8073042F2107524
:105A40004FF08047D4B1012CE7D1D7F80C3403F4E0
:105A50008033AEBB83B3012004F06DF9013DF4D176
:105A60002AE04FF080430022C3F80803C3F8002166
:105A7000D3F8002158600DF10706DCE7D7F8183499
:105A800003F480333EB9002BC7D0012004F053F952
:105A9000013DF3D1C1E7D7F8182402F003023260C8
:105AA000002BBAD09DF80700012803D104F043F978
:105AB000013DC7D1012CB0D1054B00225A71ACE792
:105AC000D7F80C2402F001023270002BEAD1F3E780
:105AD000F8120020044B1A7922B9012218609A802A
:105AE0000248704702487047F81200200000AD0BD2
:105AF0000C00AD0B08B50020FDF768FD08B9FDF7F7
:105B000043FD4FF080430022C3F81825014B0122CA
:105B10001A7008BDDD15002010B54FF08043D3F892
:105B200000216AB10022C3F80021D3F8002101222C
:105B3000C3F80823114B587910B95A711B6898475C
:105B40004FF08043D3F8042172B10022C3F804213E
:105B5000D3F80421D3F81824D3F81824920704D1D9
:105B60000122C3F818259A6010BD0222C3F8082349
:105B7000024BBDE810401B6801201847F8120020B6
:105B8000036803F01F025B09026004D0012B034885
:105B900018BF002070474FF0A0407047000300502E
:105BA00070B500F108030C4C34F81330DA050546E3
:105BB0000E4607D5C3F3432304EBC30254F8333036
:105BC00052689847A3682BB1E26831462846BDE881
:105BD0007040184770BD00BF4C01002010B4124A3D
:105BE000083032F81030D9051BD5C3F3432123F414
:105BF000F85322F8103002F10E04002034F8023F6E
:105C000013F4807F03D0C3F34323994209D00130BA
:105C10003028F3D1002342F83130044810BCFFF79C
:105C2000D7BE10BC704700BF4C010020C00100204F
:105C3000F0B50146104A114C00200125064602F13C
:105C40004043A3F5C2439B0805FA03F3194204D06D
:105C5000176817B11660176818430432A242EED1D4
:105C6000074BD3F87C2132B10022C3F87C21D3F852
:105C70007C3140F00040F0BD0061004020610040F8
:105C8000006000402DE9FF411D46044616460B46C4
:105C9000E9B14D4F00F1080837F8182002F0220250
:105CA000222A20D00022CDE900228DF80E208DF886
:105CB0000F200DF10E010DF10F0204F07CF837F802
:105CC000183023F0020343F0010327F8183046B3DD
:105CD0003D4B96F800C0726804F1080733F81710BE
:105CE000880702D5AAB139481DE021F02001C90476
:105CF000C90C23F8171062B1BCF1030FF3D8726816
:105D00001678BCF1000F11D1314A06F5A27642F89F
:105D100026C033F8172022F01C0242EA8C0223F836
:105D2000172045BB2B4804B0BDE8F081B20002F15A
:105D3000804202F5C04241EA4631D2F8100520F017
:105D40000300C2F81005D2F8100520F44F3020F4FB
:105D50004070C2F810052002D2F810E500F47C5023
:105D600040EA0C4040EA0E0041F0200123F81710F1
:105D7000C2F81005CDE7D5E900672046FFF72EFFF2
:105D8000002ECFD0104DD5E90023964201D19F427D
:105D900018D011480DF10F01FFF7F6FD0D4B984299
:105DA000C1D19DF80F2045F8326005EBC2030834DD
:105DB0005F6035F8143043EA422343F4807325F8DA
:105DC0001430AFE70022EEE74C0100200400AD0BD9
:105DD000006000400000AD0BC0010020F0B504469B
:105DE00085B0154609B300F10807314E36F8173073
:105DF000980701D49A0658D413F01C0F02D04B78A0
:105E0000012B52D001238DF80F300023CDE9001370
:105E10004A1C8B1C20460DF10F0103F0CCFF36F815
:105E2000173043F0030326F8173015B9214805B0A1
:105E3000F0BD1F4E04F1080736F81700830734D56C
:105E400095F800C06146890020F0200001F18041F2
:105E5000C00401F5C041C00C26F817000023C1F8AA
:105E600010356A78002AE1D0D1F81035AD7823F4E6
:105E7000991323F4F853C1F81035D1F810E5230233
:105E800003F47C53120443EA0E0302F440322D055E
:105E9000134305F4801540EA4C302B4340F02000BA
:105EA00026F81700C1F81035C0E70348BFE700BF68
:105EB0004C0100200000AD0B0400AD0B014BC3E909
:105EC000020170474C0100200830054B33F81030B8
:105ED0009A0643BF5B0B03480B700348704700BF33
:105EE0004C0100200000AD0B0400AD0B70B50F4C51
:105EF00094F87860BEB90E4D6022314604F110006E
:105F000003F0F5FCC5F87C610620D5F87C31FDF77F
:105F10003BFB4FF00043C5F804330648012384F8E7
:105F20007830636770BD0448FCE700BF4C01002077
:105F3000006000400000AD0B0500AD0B034B93F873
:105F40007800003818BF0120704700BF4C010020C6
:105F500001460148FFF73CBDBC0100200146014855
:105F6000FFF712BDBC01002037B5204B00F108023D
:105F7000044633F812309A061DD513F002051AD1E3
:105F80005B0B9A0002F1804000F5C24002F18042B2
:105F900002F5C04205600068D2F8100540F001002B
:105FA000C2F8100529B1012202FA03F3104AC2F81F
:105FB000043303B030BDC3F38203042B12D0052B8E
:105FC00012D001A80194FFF7DBFD019BD0F810155A
:105FD000D94001F001010231204603B0BDE8304054
:105FE00003F032BF0321F7E70221F5E74C0100205F
:105FF000006000400E4B00F1080233F812309906A1
:1060000013D59A0711D45B0B01229A409B000949D2
:1060100003F1804303F5C043C1F80823D3F81025EA
:1060200022F00302C3F810257047002103F00CBFD3
:106030004C0100200060004073B5174D00F10806C8
:10604000044635F81630D90724D5FFF7D3FF35F8C5
:1060500016309A0606D55B0B104A03F5A273002191
:1060600042F823102046FFF7B9FD002301A825F8C8
:1060700016300194FFF784FD019B00EB8300084B71
:10608000D0F80027134043F00203C0F8003705485A
:1060900002B070BD0448FBE74C01002000600040E6
:1060A000F0F8FCFF0000AD0B0400AD0B2DE9F04F44
:1060B000624BD3F80403C0B287B040F00040FFF752
:1060C000B7FD051E80F29C804FF0A043DFF8708181
:1060D000D3F820250492C3F82025D8F8203505935D
:1060E000C8F820354FF000090DF1100A4FEA4913A6
:1060F00000934FF0010B49E0009B524A94FAA4F43C
:10610000B4FA84F41C44E00804F10803039432F860
:1061100013701AF8003004F007020BFA02F223EAB7
:1061200002030AF8003003A8FFF72AFD039B03F5DA
:10613000E073B90850F82330C7F382064A073746A0
:10614000C3F301432CD520463946DEB2FFF728FDC4
:1061500003A80394FFF714FD039B03F5E07350F8C5
:106160002330C3F301439E4207D10021204603F0B0
:106170006BFE3146204603F067FE03A80394FFF749
:10618000FFFC039B0BFA03F3C0F820355AF82940B3
:10619000002CB1D1B9F1000F1DD14FF00109A5E7D5
:1061A000022B0CD10321204603F04EFE06F005031E
:1061B000012BE2D139462046FFF7F2FCDDE7022150
:1061C0002046019303F040FE032EF3D0019B032BE6
:1061D000D3D1022EEDE74FF00040FFF729FD4FF03D
:1061E000A042D2F820350493C2F82035D8F82025F3
:1061F00005921343C8F820257FF474AF25F00045BD
:10620000012415B907B0BDE8F08F95FAA5F3B3FAEC
:1062100083F304FA03F29B0003F1804303F5C043C8
:1062200025EA0205D3F81005D3F81015C0F30520B0
:10623000C1F30141FFF7B4FCE3E700BF0060004099
:10624000000300504C01002010B5184C237853BBBC
:106250000278C2F34003920712D54FF08053D3F86F
:106260003021082A0BD1D3F83431052B07D8104A36
:10627000D35C23B14FF080430122C3F838260123B9
:106280004FF08042C2F88035037803F00103C2F872
:1062900078350020FDF79AF908B9FDF775F9012363
:1062A0000448237010BD0448FCE700BFDE15002041
:1062B0001FB000000000AD0B0C00AD0B4FF0804391
:1062C0004FF46072C3F80823014B00221A60704734
:1062D0000013002008B5FFF7F1FF03680BB1014A76
:1062E000136008BD0013002010B54FF08043D3F8B1
:1062F0000443620707D54FF4847003F0B4FD10B176
:106300001E4B1B689847A30608D54FF48A7003F00C
:10631000AAFD18B11A4B00201B689847600608D5E3
:106320004FF48C7003F09FFD18B1154B01201B68D2
:106330009847210608D54FF48E7003F094FD18B1EC
:10634000104B00201B689847E20508D54FF4907069
:1063500003F089FD18B10B4B01201B689847A3057A
:106360000AD54FF4927003F07EFD28B1054BBDE8CD
:1063700010401B680220184710BD00BF0813002002
:10638000041300200013002030B500F01F04400962
:1063900011D0012812D10C4800EB84001B02D0F868
:1063A00000570A4C43EA82022C4042EA4101214351
:1063B000C0F8001730BD4FF0A040EDE704F5E074E1
:1063C000002353F82430FFDE00030050F0F8FCFFF8
:1063D00010B4CC7B8A6803682CB9D1E90041C3F8BA
:1063E0000845C3F80C15C3F8242503792822534324
:1063F000054AD3582BB1006810BC40F30730FDF7B5
:10640000C3B810BC704700BF0C1300202DE9F8433F
:1064100090F804901C4D0746282000FB09F02E1828
:106420000C4696F8221069BBB1602A50736086F85A
:10643000251086F82410E4B194F80E8086F82780A1
:10644000B8F1000F0BD12068062303224146FFF765
:106450009BFF6068062303224146FFF795FF282330
:1064600003FB0953627B83F8262021463846FFF759
:10647000AFFF282303FB09550448012385F8223088
:10648000BDE8F8830248FBE70C1300200000AD0BC9
:106490000500AD0B036802790621C3F80015044B13
:1064A000282101FB0233022283F82220704700BF1B
:1064B0000C13002002790C4B282101FB0233002130
:1064C000996002680948C2F80803D2F8000220F473
:1064D000BC50C2F80002C2F80015012283F8222045
:1064E00083F82410704700BF0C13002002029C01A7
:1064F0002DE9F84FB04D90F804900468282303FB71
:1065000009539046002283F823204B680E4633B18E
:10651000CB6803F06043B3F1005F40F085813378CE
:10652000023B012B06D8336903F06043B3F1005FEF
:1065300040F07A81A14BC4F80833282303FB0953A8
:1065400093F8241001F0FF0239B19B68DFF870B2B4
:10655000C4F804335846BDE8F88F18F0140F0CBF88
:106560000121002183F82410317883F820107178FC
:1065700083F82110F168D960716819613169596136
:10658000B1689961C8F3001183F82510C3F81C8025
:106590007378C4F88835C4F86021D4F86031C4F841
:1065A0004821D4F84831C4F82421D4F82431C4F85F
:1065B0000421D4F8043118F0010318BF0123C4F8F2
:1065C000503518F0020318BF0123C4F84035337862
:1065D00009EB890705EBC707032B00F2A380DFE86F
:1065E00003F0799862024FF48073C4F80032D7E95F
:1065F0000323C4F84425C4F848350123A3604FF4AD
:106600008011204603F092FC0028F8D1D7E9052339
:10661000C4F84425C4F84835282303FB09534FF434
:1066200080229A60DFF89CB1282202FB09F218F060
:10663000080AAB5805EB020013D13178032910D0BA
:10664000012940F085802160002B6ED0282202FBBA
:1066500009F27168AA5821B9002A00F0BB80012212
:106660006261282202FB09F2A918AA58002A00F048
:10667000B18018F0040F1CBF00228A6018F0400F90
:1066800006D1282202FB0952916841F00201916073
:10669000282202FB0952916841F4007191609268CE
:1066A000C4F8042356E7D7E90323C4F84425C4F803
:1066B0004835D7E90523C4F83425C4F838354FF4F4
:1066C0008453C4F8003201232362282303FB0953B7
:1066D0000222A6E7D7E9032318F0200FC4F84425C7
:1066E000C4F848354FF0280315BF4FF480724FF4BB
:1066F000007203FB095303FB095315BFC4F80022C2
:10670000C4F800224FF4802202229A6001232362FF
:1067100088E7D7E90323C4F83425C4F838354FF4A3
:106720008053CEE7DFF8A0B07EE7026902B961616D
:106730002649DFF89CA0204603F0F8FB012210F464
:10674000007F18BF626110EA0A0F2049F3D07DE78D
:106750000121A160002B7FF479AF006918B31C4BB5
:106760001AEA030F7FF472AF1849204603F0DEFBEC
:1067700010F4007F8246F2D04FF08071204603F083
:10678000D5FBD4F8001280B111F4007003D10122BE
:10679000226282466261CB05E1D54FF4802120461A
:1067A00003F0C4FB04E06161D9E701222262626167
:1067B0004FF0000AD3E700BF0C13002002029C0137
:1067C0000B00AD0B0000AD0B0400AD0B020204008A
:1067D000020004002821D4F8C424C4F8C42401FB16
:1067E0000955002185F824108AB11149114B12F086
:1067F000010F14BF8B469B46013112F0020F18BFE8
:106800008B4612F0040F0C4A18BF9346A2E618F00C
:10681000400F7FF49FAE3946204603F045FB054A02
:10682000002808BF934695E6DFF810B092E600BF57
:106830000000AE0B0100AD0B0200AE0B0A00AD0B69
:1068400070B55C4D5C4C86B00221284603F06EFBAF
:106850004FF400710646284603F068FBD8B1E6B94C
:10686000A368C5F808330223A360A368C5F80433FE
:106870004FF08071284603F059FB18B1D5F800326B
:106880009B0503D44B4B01221A625A61012384F801
:10689000233006B070BD002E57D0E5696E060AD4CD
:1068A00094F823303BB94449424803F0FDFA80F0A4
:1068B000010084F8230015F0040524D13D4B94F821
:1068C0002520C3F86051D3F86011C3F85C51D3F8A8
:1068D0005C1112B194F8232052B10022C3F80022B7
:1068E000A260364AC3F80823354B0822C3F880213A
:1068F000238CADF80430E368049323690293636941
:106900000593A36903932B4AD2F8C434C2F8C43464
:10691000980749D4590749D4DA0749D494F8233061
:106920009B00DBB28DF8003094F825300BB984F869
:106930002430E3695B0703D594F82330002BA8D0FB
:10694000D4E9003168469847A3E74FF480212846F0
:1069500003F0ECFA94F82030A3B994F825304BB941
:10696000C5F80032A360154BC5F80833144B082254
:10697000C3F8802100238DF8043094F821308DF87D
:106980000530B8E74FF40073C5F8003240F2022337
:10699000A36003F1CE73C5F80833A368C5F80433C8
:1069A0000123AB602B6274E70123BBE70223B9E745
:1069B0000323B7E7003000400C13002002029C01C3
:1069C00000E100E04FF08053D3F83021082A06D1CF
:1069D000D3F83431052B04D8034AD05C704700202B
:1069E00070470120704700BF2FB00000054B10F02A
:1069F000800FA3F1900208BF134600F00F0003EBD5
:106A000000107047DC14002007B5074A00231370FC
:106A1000064A137001230193054B01A81B68984790
:106A200003B05DF804FB00BFE1150020E015002075
:106A30007415002013B5194BD3F80044C3F8004473
:106A4000E105D3F8003408D5154B01221A70022352
:106A50000193144B01A81B689847A20508D5104B59
:106A600000221A70032301930E4B01A81B6898475C
:106A7000630510D50A4B1A786AB100221A70074BC9
:106A80000122C3F808259A659B6D04230193054BE9
:106A900001A81B68984702B010BD00BF00700240FB
:106AA000E1150020741500204FF02003EFF3118052
:106AB00083F31288BFF36F8F0A4BD3F8001C0322B5
:106AC00061B949F27531C3F8001CC3F8142DC3F83D
:106AD000001C80F31188BFF36F8F7047C3F8142D2B
