:10100000C03B00208154000037C700005554000049
:1010100055540000555400005554000000000000D5
:10102000000000000000000000000000514D000022
:101030005554000000000000FD4C00005554000015
:10104000014E0000014E0000014E0000014E000064
:10105000014E0000014E0000014E0000014E000054
:10106000014E0000014E0000014E0000014E000044
:10107000014E0000014E0000014E0000014E000034
:10108000014E0000014E0000014E0000014E000024
:10109000014E0000014E0000014E0000014E000014
:1010A000014E0000014E0000014E0000014E000004
:1010B000014E0000014E0000014E0000014E0000F4
:1010C000014E0000014E0000014E0000014E0000E4
:1010D000014E0000014E0000014E0000014E0000D4
:1010E000014E0000014E0000014E0000014E0000C4
:1010F000014E0000014E0000014E0000014E0000B4
:1011000053B94AB9002908BF00281CBF4FF0FF316E
:101110004FF0FF3000F00CB8ADF1080C6DE904CED3
:1011200000F008F8DDF804E0DDE9022304B07047C0
:10113000704700BF2DE9F04786468C460846089E5A
:10114000154674461946002B40F0C2808542B2FA1B
:1011500082F245D94AB1C2F1200300FA02FC2EFA0C
:1011600003F3954043EA0C0C94404FEA154EA8B2A5
:10117000BCFBFEF8230C0EFB18CC08FB00F943EA7D
:101180000C43994528D9EB1808F1FF3704D299454B
:1011900002D9A8F102072B44A3EB0903A4B2B3FBC5
:1011A000FEFC0EFB1C330CFB00F044EA0344A0429F
:1011B00014D92C190CF1FF3304D2A04202D9ACF19E
:1011C00002032C44241A43EA07401EB1D4400023F2
:1011D00034607360BDE8F0874746DDE76346F1E7BA
:1011E00092BB431B01214FEA154EAFB2B3FBFEFC8D
:1011F000200C0EFB1C330CFB07F840EA0343984518
:1012000062D9EB180CF1FF3004D2984502D9ACF149
:1012100002002B44A3EB0803A4B2B3FBFEFC0EFBBD
:101220001C330CFB07F744EA0344A7424ED92C19A0
:101230000CF1FF3304D2A74202D9ACF102032C44D3
:10124000E41B43EA0040C0E7C2F1200320FA03F1A7
:10125000954090402EFA03F303434FEA154EAFB288
:10126000B1FBFEFC0EFB1C10190C0CFB07F841EA4D
:101270000041884504FA02F422D969180CF1FF30C4
:1012800004D2884502D9ACF102002944A1EB08013F
:101290009BB2B1FBFEFC0EFB1C110CFB07F743EAF3
:1012A00001439F420ED9EB180CF1FF3104D29F424B
:1012B00002D9ACF102012B44DB1B41EA004192E769
:1012C0006046E3E76146F7E76046A3E76346B7E7B2
:1012D000834206D916B9002108467BE7C6E900E03B
:1012E000F9E7B3FA83F78FB9834201D3724508D87F
:1012F000BEEB020460EB030301209C461EB90021F3
:1013000068E73846FAE7C6E9004CF8E7C7F1200C71
:10131000BB4022FA0CF41C432EFA0CF120FA0CF319
:10132000B84001434FEA14490EFA07F5B3FBF9F848
:101330001FFA84FE09FB18300B0C08FB0EFA43EA77
:1013400000439A4502FA07F240D9E31808F1FF304A
:1013500004D29A4502D9A8F102002344A3EB0A0360
:1013600089B2B3FBF9F809FB183308FB0EFE41EA1A
:1013700003418E452CD9611808F1FF3304D28E4504
:1013800002D9A8F10203214443EA0040A0FB0298DD
:10139000A1EB0E014145CE46434602D306D14D4551
:1013A00004D2B9EB020E68EB04030138002EA6D07C
:1013B000B5EB0E0261EB030101FA0CFC22FA07F314
:1013C0004CEA0303F940C6E9003198E74046C5E717
:1013D0004346D9E7014601480AF01DB994DD0000F3
:1013E000014808F061BF00BF3403002013B5044674
:1013F00083682221DB689847014610B107480AF04C
:101400000AF9A3686A461B69222120469847DDE94C
:10141000001203480AF0FFF802B010BD9EDD000084
:10142000C5DD0000F0B585B02C4808F0A3FB0446EC
:101430000020019002F088FC00284CD1284D019B2F
:101440004BB1284D28460BF04DFD88B926480AF0CF
:10145000E2F805B0F0BDAB681B6D1BB101AA042119
:1014600028469847002140F6CD4009F07FFBE6E78B
:101470002A681E4829460AF0CEF81D4B1D493F2216
:10148000204604F0A3FB20460BF0CAF91A4802F0EC
:101490005BFCE8B9194F1A4E394630460AF0BBF8E2
:1014A000002140F6CD4009F061FB2846FFF79EFF82
:1014B000144A1068516802AB03C308221D238DF83B
:1014C0000F300DEB02010023204604F095FBE3E70B
:1014D0000D480AF0A0F80020BBE700BFD4DD0000F3
:1014E000D0D6000030D70000DADD0000FDDD0000BE
:1014F00008DA000041DE0000D51300002CDE0000F9
:1015000030DE0000F0D9000017DE00002DE9F04FBA
:1015100091B08407009302F004030293C2F3C20364
:1015200003F10103DDF86880039205460E4605933A
:1015300040F0BE81041D30B1072909D86FF01B00AF
:1015400011B0BDE8F08F01F00706341DC6F10806A2
:10155000009B4FF00009591E4FF0040A4FF0FF3373
:101560000193CDF810904F46CB4653460DB1009AEB
:1015700022600598002800F3EB809A48009A824286
:1015800003D399488242C0F0E380039AA4EB050E8E
:1015900092074FEA9E0000F106810F2F00F2B480FF
:1015A000002D00F0088107F140020DEB020C019ABA
:1015B0000CF8200C0CF8102C049801300490EAE090
:1015C0007A2860D84B280ED847285CD829282FD8ED
:1015D000252855D057D820287DD02338D0F1000BAE
:1015E0004BEB000B77E0A0F14C0CBCF12E0F4AD86E
:1015F000DFE80CF071494949494949494949494994
:101600004C49494949494949495A494C4C5A5A5AFD
:10161000714C6E497149184C18494983804C4949AD
:101620004C49800000204FF0000B4FF0040A39E0D5
:10163000A0F12A0C5FFA8CFC012202FA0CFC1CEAD5
:101640000E0F48D11CF062502ED11CEA020B42D082
:10165000013C5444CAF1000C04EA0C04002D61D092
:10166000A3EB050CA444B4453FF668AF002868D14D
:10167000042B47D158F8043B2360043404232AE0A8
:10168000019A013A01924FF0000B24E011F8010C8D
:101690006C2834D111F8023C00206C2B8346C4D155
:1016A0004FF0080A5346D3E708F1070828F0070867
:1016B0000734F8E802AB24F0070435B1069820445B
:1016C000B0423FF63BAFC4E900AB08344FF0000B2B
:1016D0004FF0080A534611F8010F002878D0BBF1EB
:1016E000000F7FF46DAF2528F5D1019B01330193E5
:1016F0004FF0010B4FF0040AECE7584693E7002047
:101700008346A5E7082B02D06FF0150018E708F113
:10171000070828F00708F8E80223C4E90023083482
:101720000823D8E768B9042B02D108F10408A4E71C
:10173000082BE9D108F1070828F0070808F1080884
:10174000EDE7059A013A059258F8042B00920DE74F
:10175000039A900720D5A4EB050E4FEA9E004FF0A8
:10176000010CBEF5007FCFD20F2FCDD8F5B107F118
:1017700040020DEB020EC0B2019A0EF8200C0EF8DA
:10178000102CBCF1000F3FF417AF60F07F000EF893
:10179000200C09F101090137C5F108020434069251
:1017A0004FF6DA7E97E74FF0000CDAE7BCF1000F56
:1017B00001D00136EFE7029802360028EBD10098FD
:1017C000CDE906310AF0C1FFDDE906310644E2E762
:1017D000631BB3F5806F97D245B9A6F10804E018F2
:1017E000AEE600BFE0D50000A0EF0000029A28603E
:1017F0009B082B709DF81030C2B1EB7085F80290F9
:10180000B9F1000F05D008A80022C5F1010C9742DC
:101810000ED1C5F101030DF120084FF0000A01932C
:101820000DF1300B574512D1601B89E66B70E5E76F
:1018300010F8013B190608D504EB0C0EB64503F071
:101840007F033FF67BAE04F8013B0132DFE7B9F1DD
:10185000000F03D098F90020002A17DB029BD3B1B8
:101860001AF80B2004F8012B0022019B9818204441
:10187000B0423FF663AE98F8000004F8010B0099FF
:10188000039220460AF07DFF039A14440AF1010AEC
:1018900008F10108C6E798F8002055F822300093B7
:1018A000029B45F8223000980AF04FFF421CDCE70B
:1018B0006FF00D0044E600BF2DE9F04F95B000AF8A
:1018C0000446D7F878B0BB61CBF3C0037A623B61C2
:1018D000396251B903784678807800EB8300204460
:1018E0003B6A9E421AD8031B3B6294F802A0E3783D
:1018F0007B615646BAF1000F02D01BF0010F17D1E1
:101900007B695BBB7B6A1BB1BA69396A2046984721
:101910003D6A28465437BD46BDE8F08F451C284631
:101920000AF013FF3B6A0130013328443B62D7E7DA
:1019300094F800806368FB617B6A4FEA8802FA6072
:1019400004EB8808002B40F001813D6AC1460AEB98
:10195000080300264B454ED1D04413E01BF0020F84
:10196000D0D094F800804FEA8803FB606368FB6185
:101970007B6A04EB8808002B78D13D6ABAF1000F2E
:101980004ED156461BF0050F0CBF022301237B628C
:101990007B6908EB430A0BF002033B62D045B8D0E9
:1019A00018F8021B18F8013C54F82390AC4B9945E9
:1019B00002D3AC4B994539D33B69002B43D0F8692E
:1019C00009F0EFFD00283ED0E9468AB06A46A64BF2
:1019D0005361FB69C2E906314FF400731384A34BD2
:1019E00042F8103FA24800234FF4125101F0CEF804
:1019F000023DCD46D2E719F8012B7B6254F8220054
:101A00000AF0A3FEFA6F7B6A01303AB1D7F8802062
:101A100096423EBFFA6F22F816000136054499E758
:101A20001BF004061CBF7E6AD044ABE73B6923B1C0
:101A3000F86909F0B6FD0028C6D11BF0010F05D1E9
:101A40007B6AED1AAAE73B6A002BA7D048460AF04A
:101A50007CFEFB6F43B1D7F880309E423FBFFA6FE8
:101A6000431C22F816300136054497E7BAF1000FFF
:101A700071D01BF0040671D0D146002607F140005A
:101A8000524641460AF07DFE7B695B00BB607B6984
:101A9000D04408EB43037B610BF002037B607B695E
:101AA00098455DD12378FB6163781BF0020F06EB4C
:101AB00003020CBF4FEA590100211BF0010FD2B203
:101AC00040F09D801BF0040F14BF4846002094F89E
:101AD00002B094F803803B616270A070E170BA6953
:101AE000F9687B6A20469847051EFFF612AFFB692E
:101AF00023703B69637084F80380BA697B6A84F859
:101B000002B0494607F140009847B0F10008C0F222
:101B1000A3803B6ABA697869A3EB0A01FB68C91A1A
:101B2000BB68C91A7B6A98470028C0F29780A8440E
:101B300008EB00054FF0000B07F1300AB34560D306
:101B40000021BA697B6A08469847E2E64FF000092F
:101B500007F1300094E75646D14695E7B14693E742
:101B600018F8021B3E4A18F8015C54F825309342DD
:101B700002D33C4A93421CD33B6923B1F86909F074
:101B800010FD00288BD17B68F3B909F1280207F119
:101B90002800024409F1010302F8101C07F1500269
:101BA00052FA83F309F102095FFA89F903F8105C2C
:101BB00075E73B692BB1F86909F0F3FC00287FF465
:101BC0006EAF1BF0010F09D006F1280207F12801C2
:101BD000731C561806F8205CDEB260E71BF0040F99
:101BE0003FF45DAF09F1280207F1280109F1010373
:101BF00002EB010909F8105C5FFA83F94FE7002056
:101C000065E71BF80A3087F82F3054F82390FB6FF4
:101C1000FBB133F81B80BA697B6A012107F12F0001
:101C2000984700281ADB0544B8F1000F06D1484652
:101C30000AF08BFD00F101081FFA88F8BA697B6A87
:101C4000414648469847002808DB05440BF1010B44
:101C500074E7D7F87C80DEE745465AE6054658E645
:101C6000E0D50000A0EF000080DE000004000001CD
:101C700044D90000014B1860704700BFB00000203D
:101C800030B587B00025CDE903010446009503A9CE
:101C90000548059500F018F9DDE904309842B8BF11
:101CA000255407B030BD00BFF1B500002DE9F04765
:101CB000058B04462807904611D4022905F0070534
:101CC00040F0CD80204609F0AAFE78B10138218B82
:101CD000042811D8DFE800F0C3106D8595000129B4
:101CE0000CBF45F0100545F02005258388F31188C9
:101CF000BFF36F8FBDE8F08701F0070AAA4500F037
:101D0000A6800027B9463E46A368002B00F0BD80A0
:101D100041F00801218388F31188BFF36F8FA16818
:101D2000002900F0BB800D68002900F0B780D1F8D1
:101D30000480334652462046C047002D76D02B689B
:101D400029461D46F0E701F007035A1F012A1BD858
:101D5000002221F00701062B276889B2C4E900227E
:101D600009D13B4603E0628B013262831B68002B82
:101D7000F9D141F002012183204609F050FE0028EC
:101D80007BD041F0200177E0042B0AD121F007013C
:101D900089B22183204609F042FE10B141F02001B2
:101DA0002183218B01F0070AAA4550D00027B946AC
:101DB000AAE7236921F0070141F00601062DD3F8B7
:101DC000009021832DD1B9F1000F40D041F00801DE
:101DD000218388F31188BFF36F8F3A492046C847A3
:101DE00029E021F00701236941F0040189B2042DA3
:101DF000D3F804902183E6D000273E464FF0040A32
:101E000082E721F00701236941F0050189B2052D20
:101E1000D3F808902183D6D000273E464FF0050A1C
:101E200072E700273E464FF0060A6DE72B4687E72C
:101E3000B9F1000FD1D14FF02003EFF3118883F3F4
:101E40001288BFF36F8F238B23F008032383258B26
:101E5000EA062ED525F01003238305F007056669F1
:101E6000218B002EBFF66FAF00232768C4E9003333
:101E700021F0070141F001012183218B01F0070AC4
:101E8000AA454FF000097FF43FAF002F9BD041F0EF
:101E90000801218388F31188BFF36F8F002FC7D00B
:101EA0003D68394633465246204609F0E4FD2F4648
:101EB000F4E7AB067FF51AAF25F02003238305F086
:101EC0000705FFE6A3BA00002DE9F04F814695B063
:101ED0008B4617461C460025387808B9284658E333
:101EE0007B1C2528039306D05946C8470028C0F21A
:101EF00050830135FBE1182200210EA80AF04CFCAA
:101F00007B78252B7DD00023781C98469E469C46E6
:101F10001E46014610F8012B2B2A00F0A18000F28A
:101F20009880202A00F09F80232A00F09F802BB108
:101F30009DF8403043F040038DF84030B8F1000F79
:101F400005D09DF8403043F020038DF84030BEF1BD
:101F5000000F05D09DF8403043F010038DF840305D
:101F6000BCF1000F05D09DF8403043F008038DF818
:101F700040302EB19DF8403043F004038DF84030DE
:101F80009DF8403003F04400442803D16FF38613DA
:101F90008DF840309DF840302A2A43F080038DF8B8
:101FA00040307FD19DF8412042F001024B1C8DF85A
:101FB00041201A782E2A9DF841200CBF01210021D2
:101FC00061F341028DF8412078D15A782A2A6ED0E7
:101FD000013300224FF00A0C194611F8010BA0F151
:101FE0003006092E40F295809DF840101292C1F300
:101FF000400040EAD2700A4660F341028DF840206A
:102000005CE0BA1C03928DF843309DF84130DA074A
:1020100040F12E8154F8048BB8F1000F07DA9DF8D7
:10202000402042F004028DF84020C8F100085E070D
:1020300040F1278154F804ABBAF1000F80F22681F9
:102040009DF841306FF341038DF841304FF0FF3A76
:102050001CE12D2A0DD0302A7FF469AF012358E707
:102060004FF0010C55E74FF0010E52E74FF0010819
:102070004FE701264DE70EFB0262303A0346184651
:1020800010F8016BA6F1300CBCF1090FF3D999429D
:102090008FD09DF840101192D20F62F341018DF85C
:1020A000401086E70B4600224FF00A0EE7E79DF846
:1020B000412042F004028DF8412002331A786C2A44
:1020C00047D02BD8682A31D06A2A4BD04C2A51D01D
:1020D0001A4612F8013B0392782B9DF841208DF8A7
:1020E000433000F2BE806D2B51D8692B00F2B980CD
:1020F000572B67D8412B03D0453B022B00F2B18010
:102100009DF84230042262F302038DF8423001232D
:1021100073E00CFB0202303A0B465DE7742A25D0CF
:102120007A2AD5D19DF8412006210CE05A78682AF8
:102130009DF8412006D1012161F3C6028DF84120AE
:102140000233C5E7022161F3C6028DF84120013355
:10215000BEE75A786C2A9DF8412001D10421EBE7B3
:102160000321F0E79DF841200521ECE79DF841208F
:102170000721E8E7BDF8402022F4F04222F00202F5
:1021800042F4804242F00202ADF84020DFE76E3BAD
:10219000D9B201238B4040F282410B4237D113F078
:1021A000240F51D1D8075CD59DF84230032161F34B
:1021B00002038DF8423002F07803A3F140014B4254
:1021C0004B411AE0A3F15801C9B2012000FA01F114
:1021D00011F4624F94D140F6010631421DD111F441
:1021E000043F3ED09DF8423060F3020302F07802D3
:1021F000402A8DF8423034D000239DF84020C2F3AD
:1022000040010B4363F341028DF84020FDE69DF849
:102210004230022161F30203E8E79DF842100220F8
:1022200002F0780260F30201402A8DF8421002BFEA
:102230009DF8401041F001018DF84010632BDBD177
:10224000131E18BF0123D8E79DF84230032161F324
:10225000020312F0780F8DF8423014BF01230023DF
:10226000CBE79DF8403043F001038DF84030C3E7E1
:102270009DF94020002AB4BFDDF844804FF0FF38BC
:10228000D5E698077FF5E2AEDDF848A09DF841104D
:102290000023CDE911339DF8423003F00703012BF1
:1022A000C1F3C30133D1CB1E042B04D8DFE803F004
:1022B000214646212100236801294FEAE372CDE936
:1022C0000E321CD19DF93830DA17CDE90E320434C4
:1022D0009DF8403013F0030650D0039B3A46594610
:1022E000484609F0FCFC0028C0F253810544039FD6
:1022F000F2E554F8043BDA17CDE90E32E8E702299B
:10230000E5D11AB243F3C033CDE90E23DFE7022B48
:1023100024D1CB1E042B04D8DFE803F018101018CA
:102320001800012954F8043B4FF0000214D0022990
:10233000CDE90E32CCD19BB20E93C9E7073424F01D
:102340000704F4E80223CDE90E23C1E754F8043B67
:102350000E9300230F93BBE7DBB2CDE7042B08D12C
:10236000073424F00704D4E900230834CDE90E2310
:10237000AEE7032BACD154F8043BDDE79DF84300F6
:102380007828B4D862281CD825283FF4ADAD582849
:10239000ADD10DF136030093DDE90E0108AB10AAB3
:1023A00009F057FCBAF1000F074680F29A80002F1F
:1023B0009DD00DF13603D81B002E00F0C1800130F6
:1023C000BEE06338152892D801A252F820F000BF71
:1023D000A5240000B7240000EF220000EF22000037
:1023E000EF220000EF220000B7240000EF220000DF
:1023F000EF220000EF220000EF2200004525000040
:10240000DD24000003250000EF220000EF22000081
:1024100029240000EF220000DD240000EF2200004C
:10242000EF220000DD240000BAF1000F0E9F35DB23
:10243000514638460AF090F907EB000A002F3FF4A6
:1024400056AF00269DF8423013F01002059200F0BE
:10245000938002305B06119A48BF129B049210448D
:1024600048BFC018B8F1000F40F3A0809DF840208D
:10247000A8EB0008C2F380035007069300F1968092
:10248000510640F189803EB159463046C847002880
:102490007FDB069B01351E4630227EE038460AF07F
:1024A00054F9C9E70E9B8DF82030002608AF0DF1D6
:1024B000210A0120C6E719075CBFC3F300135E01C0
:1024C000DDE90E2348BF2B26002BBFF662AF524238
:1024D00063EB4303CDE90E232D265AE7002658E788
:1024E00000269DF840200DF13603DB1B6FF38612AA
:1024F0009A458DF840207FF65AAFAAEB030311935B
:1025000055E70E9890B30DF13603009310AA08AB6F
:10251000002109F09EFBBDF8423003F0EF0343F4C5
:10252000F04343F01003BAF1000F0746ADF8423014
:10253000D6DA00283FF4DBAE0DF13603181A002678
:102540009A467FE70E9B07293FF6D1AEDFE801F000
:102550000C04060C08080C0C1D70C8E61D80C6E6AD
:10256000EA17C3E90052C2E61D60C0E62E4F0646D8
:1025700007F1050A052065E71A0748BF013069E73A
:102580000793104606925946C8470028DDE90623FE
:1025900004DA15B0BDE8F08F202243461946002921
:1025A00003F1FF33ECDC45446D1A98462EB15946D1
:1025B0003046C8470028ECDB01359DF84230DA068A
:1025C00001D41B0705D559463020C8470028E0DB59
:1025D0000135059B33B19DF843005946C847002893
:1025E000D7DB0135049E2E4405E059463020C8470C
:1025F0000028CEDB0135731B002BF6DC53463A4630
:102600005946484609F06BFB0028C2DB0544A84444
:10261000A8EB0503002B7FF76AAE59462020C84778
:102620000028B6DB0135F3E734DF000008B50446C7
:102630004FF02002EFF3118382F31288BFF36F8F04
:1026400005F0BEF9204603F0A7F8034808F0E3FFC1
:1026500002F052FAFCE700BF3ADF000005F0F8B9DB
:102660002DE9F047DFF85880044607464FF001098E
:1026700014B93846BDE8F08794FAA4F5B5FA85F5A3
:1026800009FA05F32E0108EB05156FEA030A24EA9F
:1026900003042B7B002BEBD058F806301B694BB999
:1026A0004644042273682846196807EA0A0700F0BE
:1026B00059FADDE7284698470028D9D1F0E700BF4E
:1026C000DCD9000030B51049104889B000220AF06A
:1026D000E0FE0F4D0F4900220023CDE90623002420
:1026E0000E23CDE90334CDE901440B4B00944FF4A4
:1026F0004072284607F04AFC084928460AF054FC74
:10270000204609B030BD00BF21270000300900205D
:10271000A804002040220020112A000063DF0000EE
:10272000014807F0C1BD00BF240300202DE9F04798
:1027300080461F480F4609F0FAFD0646002830D0B3
:1027400000252846BDE8F087237B73B12368DB684A
:102750000BB12046984723681B69D3B963680422EC
:102760001968204600F0FEF9013610344C45EBD3D1
:10277000B8F1000FE5D0002DE2D02846FFF770FF3A
:102780000546002FF7D000214FF4A47008F0EEF9B1
:10279000F1E7204698470028E0D00AFA06F31D43E7
:1027A000E2E7044CDFF8109005464FF0010ADDE740
:1027B000980C0020DCD90000ECD90000014B53F844
:1027C0002000704730DA000008B5034608462BB1F8
:1027D000044A136000F078FC002008BD6FF015007B
:1027E000FBE700BFB400002010B5044C237813B9F8
:1027F000034807F059FD0123237010BD0A22002071
:102800002403002010B50446084809F090FD5CB18F
:10281000BFF35B8F064B53E8001F013943E80012FA
:10282000002AF8D1BFF35B8F10BD00BF900C0020D1
:10283000940C00200020064BBFF35B8F014653E849
:10284000000F43E80012002AF9D1BFF35B8F7047F5
:10285000900C002070B5FFF7EDFF084C084E0546C0
:10286000B44200D370BD63685B792BB123685B68A9
:1028700013B12946204698471034F1E7DCD900000F
:10288000ECD9000010B5044C0449204609F0E0FBE7
:10289000034B1C6010BD00BF680200201CDA000062
:1028A000880C0020084A094808B500231370084A1C
:1028B0001360084A4FF400411360FFF785FFBDE83D
:1028C0000840FFF7DFBF00BF0B2200202BC3000032
:1028D000900C0020940C00200146002201480023A7
:1028E00009F0D7BB68020020014809F070BC00BFA6
:1028F00068020020024B0146186809F0BABC00BF0C
:10290000880C0020014809F0F0BC00BF68020020DC
:1029100070B5284B187800284BD0FFF7E5FF054627
:1029200090B1BFF35B8F244B53E8001F013943E89C
:102930000012002AF8D1BFF35B8F204C204EB44226
:102940002DD32846FFF7D6FF1E4B1F4C1B68002BCC
:1029500019DD0AF076FD4FF47A72A0FB020302FB48
:102960000131C30BD4E9002043EA41439B1A4FEAEB
:10297000D13140F2E93261EB0001934271F1000183
:1029800001D3FFF767FFD4E9003213F57A7342F100
:102990000002C4E90032BDE87040FFF7B3BF6368CE
:1029A0005B7923B1236829461B6820469847103479
:1029B000C5E770BD0A220020940C0020DCD900007D
:1029C000ECD90000900C00202809002070B50D4DB6
:1029D000297861B90120FFF7A9FE0B4C0B4EB442D8
:1029E00006D3FFF795FF0028FBD101232B7070BDA4
:1029F00063685B791BB1236820469B689847103455
:102A0000EDE700BF0B220020DCD90000ECD900006C
:102A100000212DE9F0470846FFF788FE044648B339
:102A200040F267684FF0000908F0D4F81A4B1860BC
:102A300030B11A4B1B68092B02DD194807F034FC32
:102A4000184FDFF85CA0002544B12046FFF708FED0
:102A5000044618B94FF0FF384FF0FF39FFF758FF21
:102A6000064628B9B5B942464B46504607F03CFCED
:102A70003546E9E74FF0FF384FF0FF39D4E72B68D0
:102A80009B691BB100221146284698471035BD426C
:102A9000F5D3E8E7044DFAE78C0C0020940C0020F5
:102AA00024030020ECD90000DCD9000013B518483D
:102AB00009F03DFC174B1B787BB14FF02003EFF37F
:102AC000118483F31288BFF36F8FFFF721FF84F324
:102AD0001188BFF36F8F02B010BD0F4B1B68002B26
:102AE000F9D050B900220023CDE900230B484FF460
:102AF0000042002308F0B2FAEDE70A28EBD10748BC
:102B00000AF0D3FC064802B0BDE8104007F0CCBB89
:102B1000940C00200B2200208C0C00203009002097
:102B20002403002010B5064B1B6804469847214635
:102B3000A060044809F02BFBBDE81040FFF7B6BFCA
:102B4000B400002068020020044A054B9B1AB1EB38
:102B5000D30F34BF52F83100002070471CD9000059
:102B6000DCD90000084BC31A10B41B1144680133B0
:102B7000237143689A7143681960436801225A714E
:102B800010BCFFF731BE00BFDCD900002DE9F04FCB
:102B90008FB004AFC1F34A28B8600D4691467B6000
:102BA0000C0DB8F1000F63D0002607F114034FF0AD
:102BB000040B4FF00A0AC7F80C80C7E907667E626B
:102BC0000193CDF808B0CDF800A007F11C03F96817
:102BD00032464846FEF770FEB0F5006F03461CD340
:102BE0006C468AB0D9F8041004AB2648C3E9050145
:102BF00040F2FF71D9611A464FF400711984224BDB
:102C000042F8103F214833464FF41251FFF7BEFF00
:102C1000A5462C37BD46BDE8F08FC0F30A0804F185
:102C20001700184420F0070080083B60FFF754FEAF
:102C300068F35325044690B13B68154AC7E9083646
:102C400000F1100107F11403F961CDE900A3CDF8FB
:102C500008B0F96807F11C034846FEF72DFE68F33B
:102C600053257B68B9682A46204609F096FBD0E7D1
:102C700004F1170020F007008008FFF72DFE04463E
:102C8000EDE700BF78DF0000040000016CD9000010
:102C90006FC300002DE9F04F87B0DDE91269DDE96F
:102CA000105A04460F4693469846A6B31021CDF815
:102CB0000090334652460020CDF81490FEF726FCD3
:102CC000014605F117000844144B039104F0070472
:102CD0000BF0070BE40020F0070003EA412344EA6D
:102CE0008B1480081C43FFF7F7FD44EA05540546A2
:102CF00040B13EB10399CDF80090334652461030B2
:102D0000FEF704FC434622463946284607B0BDE894
:102D1000F04F09F042BB3146D3E700BF00FE0F0081
:102D20000EB403B503AB014653F8042B04480193DA
:102D300009F059FB02B05DF804EB03B0704700BF27
:102D40000FC40000CA0605D48B064CBF02490349D4
:102D5000FFF7E6BF704700BFB8DF0000B7DF000035
:102D60002DE9F04F89B09B469DF848300493DDE98A
:102D700013930593049B0692DDE9157604460D46F0
:102D8000002B00F0878006F00803079309F0EDFAA6
:102D900006F0020A024600284BD086492046FFF77B
:102DA000BFFF8046BAF1000F08D016F0440F42D1A1
:102DB00081492A462046FFF7B3FF804406F001030D
:102DC0005BB17E4B049A7E4953F822207D4B20460E
:102DD000002A08BF1A46FFF7A3FF06F00803002BDE
:102DE00055D0794B049A794953F822202046FFF7B1
:102DF00097FF0546069B2BB175491A462046FFF7FB
:102E00008FFF0544BBF1000F05D072495A4620469A
:102E1000FFF786FF05444544B9F1000F49D1002F63
:102E20004FD1F30700F1C08031462046FFF78AFFFB
:102E3000B4E08046B6E7684B18680028BDD0674B01
:102E40004FF47A7E1B68B5FBF3F54FF46162B5FB76
:102E5000F0F300FB1355B3FBF2FA0EFB05F502FB92
:102E60001A323C21B5FBF0FCB2FBF1F300FB1C5520
:102E700001FB13220EFB05F50092B5FBF0F5584956
:102E8000CDE901C552462046FFF74AFF95E706F017
:102E90000805AFE7BBF1010F06D1B9F1000F64D10E
:102EA000002F7BD000250CE0B9F1000FF8D04D4881
:102EB0005CE04D484D494B46224608F041FB002F4F
:102EC00068D0DFF82C91DFF82CA1102F3146204676
:102ED000B84628BF4FF01008FFF734FF4FF0000B43
:102EE0005D4545DC059B51461A782046FFF718FFE3
:102EF0004FF0010B1BF0070F03D149462046FFF7A7
:102F00000FFFD8453BD9059B514613F80B202046AF
:102F1000FFF706FF0BF1010BBBF1100FEAD13649A9
:102F200020464FF0000BFFF7FBFE5A46059B9A5CCC
:102F3000A2F120015F2928BF2E2230492046FFF749
:102F4000EFFE0BF1010BBBF1100F1DD01BF0070FB3
:102F500003D149462046FFF7E3FED8455A46E5D857
:102F600049462046FFF7DCFEEBE71F48049DA1E73A
:102F700049462046FFF7D4FE0BF1010BB0E720498C
:102F80002046FFF7CDFEC5E7059BB7EB0807434496
:102F900005939AD1049B002B7FF443AF204609B0E0
:102FA000BDE8F04F09F026BA064A05492046FFF76A
:102FB000B7FE39E7BFDF0000C3DF000040DA0000E2
:102FC00075EC0000BADF000054DA0000E8DF000012
:102FD000EEDF0000F2DF0000A00C00209C0C0020BF
:102FE000CCDF000045C400000FC40000E7C30000B0
:102FF000D2DD0000F7DF000001E0000003E0000088
:10300000FDDF00002DE9F0410F884B688E6886B027
:1030100005460C469046C7F382175BB1134A9B1ACC
:1030200043F3CF0100291FDB2078C0F3C200FFF774
:103030008BFD03462146608851F8102B0097C2F3A0
:103040004A22002A01EB0204C0F30B1008BF002142
:10305000CDE90308CDE90114002231462846FFF7E7
:103060007FFE06B0BDE8F0810023E3E71CD9000035
:1030700073B542F20F738B4228BF0B4605680F4AA7
:1030800004460521684608F0D3FA63680C495B687A
:1030900006460B22284609F099F9636832466946CC
:1030A00028465B6809F092F9636806495B681B2251
:1030B000284609F08BF902B070BD00BF9BEA000002
:1030C00022E0000006E00000074A002101239042B0
:1030D00006D8064A01B901231360054B18607047F2
:1030E00040085B000121F2E740420F009C0C0020E9
:1030F000A00C0020014B002019607047B80C002084
:10310000024B034801221A7009F074B90D22002005
:1031100084DA00000148FFF7ABBF00BF84DA00008B
:1031200010B5064B18680C46FFF748FB21460346CE
:10313000BDE8104002480F22184700BFB80C00201D
:1031400084DA0000F8B5074F0D4604464618B4422D
:1031500001D12846F8BD14F8011BBB6801485B6823
:103160009847F4E7D0D600002DE9F84305464FF024
:103170002003EFF3118683F31288BFF36F8F0E4B9A
:103180000E4F1C68DFF838804FF00C092CB986F31D
:103190001188BFF36F8FBDE8F883D4E90123002DB8
:1031A00018BF13462BB198F8102009FB02F2B85C47
:1031B00098472468EAE700BFD40C0020C80C002020
:1031C000F41F002070B5194B1C7CBFF35B8F04F01B
:1031D0001F0301229A40164B610903EB8103D04380
:1031E00053E8001F01EA000543E80056002EF7D11E
:1031F000BFF35B8F0A4213D00E4B0F4D8BB10C23E4
:103200006343EA18E85C517809F0DEFA0020FFF722
:10321000ABFF0C235C432A1900232B51C2E9013375
:1032200070BD83F31188BFF36F8FEFE7F41F0020A9
:10323000DC0C0020C9C70000C80C00202DE9F041BB
:10324000354B07461D7C4FF02003EFF3118883F3C5
:103250001288BFF36F8F0C24304B314E6C431A1918
:10326000195D00294CD007CA06EB040C8CE8070056
:1032700000221A5588F31188BFF36F8F0C236B431C
:10328000F218F05C002839D07B1C10D0D2F808C0AE
:10329000244C254A4FF400400021ECFB0041002360
:1032A0002046FDF72DFF0121381A04F04DFB07F0F1
:1032B000A3FB0120FFF758FFBFF35B8F1B4B6A098D
:1032C00003EB820305F01F0101228A4053E8000F3F
:1032D000104343E800010029F8D1BFF35B8F144B82
:1032E0003BB10C2303FB05F03318305C597809F02F
:1032F0005FFAFFF767FF07F093FB0120BDE8F0815D
:103300000146284600F016F80028B3D007C8344418
:1033100084E80700AEE700BFF41F0020BC0C0020CB
:10332000C80C00203F420F0040420F00DC0C002080
:10333000B1C700002DE9F04F85B00E4603A900F09B
:1033400043F81E4B039DD3F800A0DFF87480431EA2
:103350001BB203EB4303044605EB83054FF4004720
:103360004FF0000B24B9A146484605B0BDE8F08FE8
:103370006868144AC4465946E0FB07C1002360460A
:10338000FDF7BEFE0190A8680E4AC4465946E0FB10
:1033900007C100236046FDF7B3FEBAF1FF3FA9461F
:1033A00001D0824505D9731CDED0019B1844B04280
:1033B000DAD9013CA4B20C3DD4E700BFB80000202C
:1033C0003F420F0040420F0008B9024B0B60002043
:1033D000704700BF94DA0000F0B40C4B0C4E5F6AEB
:1033E0000C4BB34203D36FF08500F0BC70475D68AF
:1033F000BD4209D31C693CB195F802C00579AC45C2
:1034000002D12346F0BC18472433EAE7E00C002041
:10341000A4040020380400202DE9F047134CDFF805
:103420005080DFF8509005460E461746444503D3BA
:103430006FF08500BDE8F0876268D9F824309A42C1
:1034400012D3A36983B190782979884205D13A468D
:1034500031462846BDE8F04718475279012A03D182
:103460003A463146284698472434DFE7380400209E
:10347000A4040020E00C00202DE9F0410B4CDFF803
:10348000308005460E461746444502D36FF085004E
:1034900009E063690BB92434F6E73A463146284619
:1034A00098470028F7D1BDE8F08100BF380400201C
:1034B000A404002002480822002109F06DB900BFD1
:1034C0009B0D002070B50B4B0B4CA34201D3002089
:1034D00070BD196A1E7F00220439D5B2AE4201D8F0
:1034E0002433F2E7013211F832508542F5D1012040
:1034F000EEE700BF38040020A404002008B5094806
:103500000378C3F341130A3350F823303BB100F181
:10351000080200F110019847C043C00F08BD1846CB
:10352000FCE700BFE00C00207FB5074B0593074880
:10353000022304AA4FF48251049308F092FF4FF043
:10354000FF3007B05DF804FB6BE00000BCD9000061
:1035500080B500AF88B06A46064BC2E90530032348
:1035600042F8103F04484FF4C25108F07AFF00209F
:10357000BD4680BD90E00000BCD90000F8B500AFAA
:10358000054609F071F910F1780F04461AD16C461E
:1035900088B06A46154B1648C2E90535032342F840
:1035A000103F4FF4C45108F05CFFA546284608F0D0
:1035B0005BFF104AD2F8C43023EA0003C2F8C430DB
:1035C000002410E00028F1D06E4688B06A460A4B0D
:1035D0000748C2E90535032342F8103F4FF4C251B2
:1035E00008F03FFFB5462046BD46F8BDABE0000001
:1035F000BCD90000E00C0020CCE0000004282DE93C
:10360000F74FDFF89C9004460F4615D001282FD1C4
:10361000DFF8908098F8B93053B300F04FFF224D97
:103620004D4522D22A6A4FF0000A2B7F5FFA8AF6B4
:10363000B34204D82435F3E7FFF73CFFE8E702EB99
:10364000C6060192307909F00FF98346307908F007
:103650000BFFD8F8C430019A23EA0003BBF1000F36
:10366000C8F8C4300AF1010ADFDA002388F8B9305B
:103670000D4D4D4508D30B4B1B6A6BB139462046A7
:1036800003B0BDE8F04F1847EB681BB13A4621463E
:10369000284698472435ECE703B0BDE8F08F00BF1B
:1036A000A4040020E00C002038040020F0B583B012
:1036B000C4B200AF63060D46FC7107D02046FFF789
:1036C00001FFE8B11C4B93F8BA00C8B11A4ED5B14E
:1036D0006D4688B06A46194B1948C2E90534032380
:1036E00042F8103F4FF4C65108F0BBFEAD46F879E2
:1036F00002F094FFF36913B1F91D082098470120E7
:103700000C37BD46F0BD6D4688B06A460D4B0C487F
:10371000C2E90534032342F8103F4FF4C65108F0C4
:10372000A0FEAD46F87902F0B3FFF369002BE6D0B6
:10373000F91D0920E2E700BFE00C0020EEE00000E8
:10374000BCD9000001E10000F0B583B000AF044631
:103750008078387023796279364D43EA02237B8082
:10376000E37803F003033B7108F07EFED5F8C43024
:10377000184206460CD0A478204600F081FE204670
:10378000FFF7FCFE09F00AFC10B9962007F008FAD2
:10379000384602F00FFF10F1780F3B782DD16C46C0
:1037A00088B06A4624492548C2E90513032342F834
:1037B000103F4FF4C45108F054FEA546387802F08B
:1037C000A3FF10F1780F2DD16C4688B03B786A4684
:1037D0001B491A48C2E90513032342F8103F4FF46E
:1037E000C45108F03EFEA546D5F8C430012033434D
:1037F00085F8B900C5F8C43011E00028DED06C4669
:1038000088B06A460F490D48C2E90513032342F800
:10381000103F4FF4C25108F024FE0020A5460C379B
:10382000BD46F0BD0028DFD06C4688B03B786A46C4
:103830000549E8E7E00C002016E10000BCD90000D3
:103840005DE1000039E100007DE100002DE9F04775
:10385000A34EB36904460F461546FBB9237803F01F
:103860001F03012B00F09D80022B00F0048133BB6D
:1038700094F900002A686178002834DA062912D009
:1038800008292BD0D9B901231370517096F8C33091
:103890005B0043F00103137002232AE198470028DC
:1038A000DCD100200DE06288100A011F0129844646
:1038B00005D9072803D8716AD2B20C781CB96FF009
:1038C0001500BDE8F0874E78664503D19A4200F0B6
:1038D0000B8101332144F0E70B780AE196F8BA3006
:1038E0001370012305E101390829E8D801A353F831
:1038F00021F000BF8D390000BF3800009B39000067
:10390000BF38000019390000BF380000BF38000080
:10391000BF38000025390000A07802F007FE00281B
:10392000BFD0CCE76388756A63BBFFF7C3FD6388CC
:1039300086F8BA30F369002BB3D06A490320984760
:10394000AFE76B78042B10D0052B11D0022B04D1DC
:103950006F796388BB4208BF01202B781D442B7808
:10396000002BEED10028AAD0DFE795F80380F4E71A
:103970006388BB42F1D1B8F1000FEED12846FFF7C2
:10398000E3FEEAE7FF270020B846E8E76388012B5B
:1039900095D1002386F8C33083E76388012B8ED14D
:1039A000F8E796F8BA30D5F800C0002B87D0756AD2
:1039B000A38894F804E02A46107800283FF47FAFEB
:1039C0005178022904D192F80480F04500F29380E6
:1039D0000244F1E78CF800208CF80120396060E7A0
:1039E000154494E00B2A7FF46AAF00274FF0FF08DC
:1039F000C146BA4606E06B78042B0FD0052B21D0C8
:103A00002B781D442B78002BF5D1F36913B1514667
:103A100007209847002F7FF444AF50E795F80280C5
:103A2000A38895F803909845EAD163889945E7D132
:103A3000B8F1070F1CD806EB0803AA4683F8BB9021
:103A40000127DDE7A3884345DAD1A3784B450AD0A7
:103A5000AF78384600F014FD3846FFF78FFDB0FA16
:103A600080F77F09CCE72846FFF76EFE0746C7E7D9
:103A7000AA460027C4E794F900206378002A18DAE0
:103A8000002B7FF41CAF24792D6863060AD02046F2
:103A9000FFF718FD00283FF412AF96F8BA30002B5C
:103AA0003FF40DAF2946204602F012FE00236B7052
:103AB000F2E6012B08D0032B7FF401AF6388002BC3
:103AC0007FF4FDAE012103E0618800297FF4F7AEA9
:103AD000A088FFF7EBFD00287FF4E3AEEFE600BF20
:103AE000E00C00209A0D0020022829607FF4F4AE3B
:103AF0004B883B60D5E694F9000062780028BFF659
:103B000071AF002A3FF466AF0A2A7FF4D8AE2A7854
:103B1000002A3FF4D4AE697804297FF461AFA97814
:103B20008B427FF45DAF072B96BF9B19002393F860
:103B3000BB308CF80030D4E62DE9F04F83B000AFF5
:103B4000144E796004469046994604254FF0030AC6
:103B500079684B464246204602F000FE10F10B0FFA
:103B6000834612D1C7F800D088B06A460A48C2E935
:103B700005644FF4C45142F810AF08F072FCD7F856
:103B800000D006F071FF013DE2D158460C37BD462A
:103B9000BDE8F08F9EE10000BCD9000013B5134CC6
:103BA000237DCBB9E268A168019201AB8020FFF7C9
:103BB000C3FF019AA3681344A360E3689B1AE36000
:103BC00043B93AB12369E2889A4203DD9B0601D1E9
:103BD0000123237502B010BD00231A461946802028
:103BE000237502B0BDE8104002F0B8BDE00C002023
:103BF00070B58AB000230D4601930646002867D1B0
:103C000000293FD108220B460DEB020108F045FECA
:103C1000002804DA802002F001FD0AB070BD314CAA
:103C2000029A2260039A626004F13802A2609DF950
:103C30000820BDF80E302575002AC4E9035514DBB1
:103C4000802B0ED9284B2948099308AA02234FF448
:103C50008251089308F005FC802002F0DFFC284622
:103C6000D9E713B1C4E90333D7E7FFF747FC0028CE
:103C7000D0D0E28823699A42D4BFE260E360FFF7C4
:103C80008DFFCAE7174CD4E90212002A01AB05DC0C
:103C9000024608F002FE0028BFDABBE708F0FDFD8F
:103CA000002804DA802002F0B9FC3046B3E7019A1C
:103CB000A3681344A360E3689B1AE360002BACD1B4
:103CC00004F13803A360FFF719FC0028D7D1A1E75E
:103CD0008028A2D1034BDA68002AD0D11B7D002BAB
:103CE000CDD19AE7E00C0020C5E10000BCD900006E
:103CF000054B064A9A62064ADA62064A1A63064A7F
:103D000058629A6100207047E00C00204D38000096
:103D1000D9330000793400001934000010B5094B84
:103D200093F8B84054B900F0E7F818B9BDE810406E
:103D3000FFF7FABBFFF7DCFF204610BD6FF07700FE
:103D4000FBE700BFE00C00202DE9F041044686B0FF
:103D50003F4D40484FF0FF324FF0FF3306F0BAF9C5
:103D600095F8B86096B13C4B05933C48022304AAF1
:103D70004FF484516FF07704049308F072FB3548D8
:103D800006F022FA204606B0BDE8F08134482C62E5
:103D9000E86102F057FE02F097FB041EEFDB00F033
:103DA000B1FB041EEBDB40236846ADF802308DF812
:103DB00004608DF8006002F0FDFB041EDFDB80274D
:103DC00068468DF8007002F0F5FB041ED7DB25492C
:103DD000304602F023FE041ED1DB2249384602F0B1
:103DE0001DFE041ECBDB204CDFF8808044451AD337
:103DF000002002F089FC041EC1DBD5F8C43080200D
:103E000043F00103C5F8C43002F07EFC041EB6DBAB
:103E1000D5F8C43043F48033C5F8C430012385F8A5
:103E2000B8300024ABE7276A0026227FF3B29A421B
:103E300001D82434DAE707EBC30257F833101079BE
:103E400002F0ECFD01360028EFD04FF0FF3496E78A
:103E5000E00C002010030020DEE10000BCD90000CF
:103E6000FD350000F13B000038040020A4040020D0
:103E700030B51F4B8BB005AA03F1100518685968BF
:103E8000144603C40833AB422246F7D11B78237093
:103E90001022002101A808F07FFC12220021154801
:103EA00008F07AFC102101A808F0EAFD00281BDDCB
:103EB0000828B8BF0820093801AB0E491A1800209D
:103EC00012F8013F0AAC04EB131403F00F0328337C
:103ED0006B44013014F8144C13F8143C0C7008288F
:103EE0004B7001F10201EBD102480BB030BD00BFB5
:103EF0000CE200000E2200202DE9F04F834C8BB025
:103F000000AF00264FF0011BB2463546B04623787D
:103F100043B97F4B02349C42F3D17C482C37BD46D9
:103F2000BDE8F08F6378052B05D8DFE803F0A60421
:103F300003A6073FA04623781C44E8E7E378002B5C
:103F4000F9D1A37843B30AF1010A5FFA8AFAF2E7DA
:103F50006A68944223D024359D42F9D36D4688B0D7
:103F60006A466C4BC2E90534032342F8103F6A48A5
:103F700000234FF4C251FEF709FEAD46674B7B624A
:103F800002233B626448002307F120024FF4825170
:103F9000FEF7FCFD0020C1E7614D624BDCE7AB683A
:103FA000002BD0D0514620469847CCE7002D62D157
:103FB0005D4B7B6202233B625748002307F12002DE
:103FC0004FF48251FEF7E2FDD8E7296AA07801EBB1
:103FD000C2010B79984205D001322B7F9A42F4D36B
:103FE000524BE6E74FF00109E07800F00300387526
:103FF000207994F805C040EA0C20788294F90200F8
:1040000000285FFA89F328DA09F110004FF0010C5B
:104010000CFA00F010EA0B0F27D143F0800038743F
:1040200007F11000C7E90131FA6002F091FAD7E90F
:1040300002127B68C8B93A7CA27012F0800F18BFD8
:1040400010330A7118BFDBB24FF0010214BF9A405F
:1040500002FA09F24BEA020B6DE7012000FA09F0BF
:1040600010EA0B0F01D11846D9E709F10109B9F19E
:10407000100FB9D1B0E70022AFE7032E2AD1FFF726
:10408000F7FE8146A8B108F060FBF86088B12848C7
:1040900008F05BFBFA68824217D0264B7B62022352
:1040A0003B621D48002307F120024FF48251FEF7C6
:1040B0006DFD23786FF00201E218091B04EB530336
:1040C000D1420ED50136F6B235E74946A01C08F0BC
:1040D00058FBEEE7002EECD1B8F1000F0AD1164BD9
:1040E00067E74FF0000002F8010C13F8010902F82D
:1040F000020DE5E7A4EB080388F80230C3F30723B9
:1041000088F8033088F804A0DCE700BF54030020DF
:10411000370400201DE20000B4D9000003E30000D2
:1041200038040020A40400203DE200007EE20000EC
:104130000CE200009BE20000E6E2000010B5094B33
:1041400000211A461C78844204D15C6814B102EB49
:10415000811010BD0131042903F14003F2D1002088
:10416000F7E700BFA80D00202DE9F04383B050F819
:10417000283C10F82C5C103300AF044611D10369C1
:1041800050F8202C13F002064ED00ABB13F00403A3
:1041900004D11A4619462846FFF7CEFC002344F8FE
:1041A000283C54F8283C10330ED054F8186C5EB1FB
:1041B00054F81C8C54F8149C08F0F0FE00286FD0C2
:1041C0003D48214608F0E0FF0C37BD46BDE8F083CE
:1041D00050F8241C3B1D2846FFF7AEFC98B16E46F4
:1041E00088B06A46354BD561C2E90530042342F8F0
:1041F000103F334800234FF40151FEF7C7FCB5468A
:104200006FF01503CBE77A6854F8243C134444F864
:10421000243C54F8203C9B1A44F8203C54F81C3CA5
:10422000134444F81C3CBCE750F8241C3B1D2846B2
:1042300002F036FB88B1E84688B06A461F4BD5616C
:10424000C2E90530042342F8103F1D4833464FF4BD
:104250000151FEF79BFCC546D2E77E6854F8243C2A
:10426000334444F8243C54F8203C9B1B44F8203C45
:1042700054F81C3C334444F81C3C002E8ED0284695
:1042800002F0E6FBB6FBF0F303FB1066002E85D1CF
:1042900054F8203C002B81D0284602F067FB80E7D1
:1042A00044F8180CA4F1100005F0FEFF4A46414600
:1042B0002846B04788E700BF6809002031E30000C6
:1042C000D4D9000070B54B1E012B88B006460D46B0
:1042D00018D8FFF733FF0446B0B9012D12D101AB56
:1042E000012202A9304602F0DBFA019B002BF6D135
:1042F0000F4A0792022206920E4806AA4FF48251F4
:10430000FEF744FC08B070BD08F048FE04F12C0133
:1043100008B1012D05D1084608B0BDE87040FFF78F
:1043200023BF054808B0BDE8704008F02DBF00BFAE
:104330004EE30000D4D90000680900202DE9F04FB9
:104340008BB000AF0546B9601646FB6008F0CAF8AE
:10435000002840F086804FF02003EFF3118283F3B2
:104360001288BFF36F8FDFF800A17A6081460023C7
:104370000022504605F0B8FF0346E8B9DFF8ECB07C
:104380004FEA89180BEB8919D9F8044014F1100F82
:1043900031D16E4688B06A463549C2E90515032118
:1043A00042F8101F33484FF4C251FEF7EFFBB546F9
:1043B000504605F079FF14E009F10109B9F1040F45
:1043C0000AF1400AD3D12C4B7B6202233B6229487D
:1043D000002307F120024FF482516FF00B04FEF727
:1043E000D5FB7B6883F31188BFF36F8F20462C3792
:1043F000BD46BDE8F08F3B6DC9F81430FB68BA6864
:10440000C9F83C307B6DC9F81000C9F8183028464F
:104410006FF00F03C9E902260BF80850C9F8043001
:1044200002F016FB68B1284602F012FBB6FBF0F36F
:1044300003FB10662EB1D9F83C3043F00403C9F8F1
:104440003C30FB689B0707D508F12C010B48594409
:1044500008F09AFE0024C4E7284602F087FA0446D2
:10446000BFE76FF00F04C1E7C40D0020A80D0020C6
:1044700083E30000D4D9000068E30000680900204D
:1044800010B54FF02003EFF3118483F31288BFF3CC
:104490006F8FFFF753FE50B14368103307D16FF0B1
:1044A0008B03436000F12C01034808F06DFE84F398
:1044B0001188BFF36F8F10BD6809002070B50F4CD5
:1044C00004254FF02003EFF3118683F31288BFF326
:1044D0006F8F6368103307D16FF08B0308486360F8
:1044E00004F12C0108F050FE86F31188BFF36F8FA2
:1044F000013D04F14004E4D170BD00BFA80D0020CF
:104500006809002070B50A4C0A4E00253146204645
:1045100008F01DFE0122A4F110001146013508F03B
:10452000D9FD042D04F14004F0D1002070BD00BF7E
:10453000D40D00206941000070B504460E46017993
:104540001248154607F0AAFFE8B194F900206378F5
:10455000002A11DB202B04D0222B09D06FF085001C
:1045600005E029680722103808F00BF9002070BD1B
:10457000638800F8093CF9E7212BEFD110380723B5
:1045800028603360F2E76FF01200F0E7A80E002019
:1045900008B50146034807F08FFF10B1012300F86A
:1045A000073C08BDA80E00200169012381F84B30AB
:1045B0000B6833B191F849301BB10248083108F05B
:1045C000E3BD7047680900200169012381F84A3082
:1045D0000B6833B191F848301BB10248083108F03C
:1045E000D3BD7047680900200D4A03460021A0F89A
:1045F00048101068C3F8940090889279A3F8980046
:1046000083F89A2083F89C1083F89B10A3F89E10DF
:1046100083F8A010402203F14C0008F0BDB800BFA1
:10462000F8D9000038B5056995F89E0088B195F86D
:104630009F307BB985F84830D5F8900007F09AFB99
:10464000002204460023044805F1180105F0A2FFEA
:10465000204638BD0020FCE76809002013B5046936
:104660008DF8071094F89E30A3B194F89F308BB961
:104670000DF10701D4F8900084F84830012207F0CA
:1046800079FB014640B10D482122002304F11801B5
:1046900005F080FF02B010BDD4F89000012207F0B1
:1046A000BDFB0028F6D0D4F8900001220DF10701DF
:1046B00007F060FB0028E6D1ECE700BF68090020A6
:1046C000F0B5D0F88C305B681B6A1F7D85B005465D
:1046D000384607F007FF0646E0B9A86F4FF480623E
:1046E00003A907F066FB0446A0B18306A5F11803F1
:1046F00008BF00F1FF3485F830600193064B039941
:104700000093224602233846FFF718FEA86F214681
:1047100007F06FFB05B0F0BD1D47000010B5012389
:1047200082F84830136814463BB192F84A3023B1FE
:104730000A4802F1080108F027FDD4F890309A6881
:104740001B699A4208D004F118010448BDE81040E2
:104750000022002305F01EBF10BD00BF6809002025
:1047600010B504690023C4F8A8300C4BC4F8A400A9
:10477000596804F1A80269B9C3E9002204F10800EC
:10478000074908F0E4FC04F11800064908F00DFDA3
:10479000002010BD0A605A60F0E700BFA80E00209C
:1047A0000FC50000C146000030B54FF40033426829
:1047B00005690D4C85B042F2A100CDE9010300234B
:1047C00085F89D30106AADF80C1000790A2201A915
:1047D000FFF7B2F995F89D3023B9012008F033FEB8
:1047E000013CF7D105B030BDA186010073B5144678
:1047F00002F14C060A1E05461FDDD4F88C00314636
:1048000007F0B8FA012384F8493023683BB194F8E3
:104810004B3023B10E4804F1080108F0B5FCD4F880
:104820008C104B684A699A1ACB699B1A3F2B04D8A3
:10483000012384F8A03002B070BD064B00930194B0
:104840000123402231462846FFF778FDF3E700BFF9
:1048500068090020ED47000038B50D4601461E48A6
:1048600007F010FE044680B30246691E52F8A439D0
:104870005B68052929D8DFE801F0202803202529D5
:1048800014F8061C31B91B6A187BFFF7AFFF012330
:1048900004F8063C14F85C3CBBB9012304F85C3C0A
:1048A00054F8A43C8BB114F85A3C73B1A4F19C01A8
:1048B0000A48BDE8384008F067BCBDE838401046FB
:1048C000FFF792BE012304F8053C38BD14F8053CFF
:1048D000002BFAD00023F6E7A80E0020680900207C
:1048E00037B5094D0949002400944FF0FF334FF4C8
:1048F0008062284605F016FE0549284608F054FB5C
:10490000204603B030BD00BF68090020802500208C
:10491000D3E30000014806F06BBC00BFE8DA0000FA
:1049200038B5044618B90F4B0F485B689847616863
:10493000B1F5683F0FD0B1F5680F0CD00B4DA9420F
:1049400009D011F4686107D00948214608F0FDFA42
:1049500000232360656038BD2068142207F01CFF27
:10496000F8E700BFF4010020DCE300002C5F5CA945
:10497000B013002008B520B34368B3F5683F10D1E9
:1049800001220368BFF35B8F53E8001F002903D1A6
:1049900043E800200028F7D1BFF35B8F0DD1002042
:1049A00008BD094A93420AD000684FF0FF324FF029
:1049B000FF3305F08FFB0028F1D00448F0E70448EE
:1049C000EEE76FF4E040EBE72C5F5CA9E98FFFFFB7
:1049D000EA8FFFFF08B5D8B14368B3F5683F10D13F
:1049E00000220368BFF35B8F53E8001F012903D146
:1049F00043E800200028F7D1BFF35B8F0BD10020E4
:104A000008BD074A934208D0006805F0DDFBF6E7D1
:104A10006FF4E040F4E70348F2E70348F0E700BF33
:104A20002C5F5CA9E98FFFFFEA8FFFFF10B50446FA
:104A300018B91D4B1D485B6898476368B3F5683F1C
:104A40002FD0B3F5680F2CD0194A934219D123689F
:104A500003BB18484FF0FF324FF0FF33214605F0FB
:104A600035FA08B923681BB90F4B13485B689847A0
:104A700020681422002107F08FFE4FF46863636002
:104A800008E0B3F5683F0DD83A2B03D040F6BA6280
:104A90009342DED1206808F09DFA636843F03A0340
:104AA000636010BD054AF3E7F4010020DCE3000079
:104AB0002C5F5CA9B013002002E400003A00003A29
:104AC00008B5064906484023142208F030FABDE82C
:104AD00008400449044806F0FDBB00BFB00E0020AA
:104AE000B0130020F0DA000004DB000001491022BE
:104AF0000A60704710ED00E072B6404080F3118804
:104B0000BFF36F8FBFF34F8F30BF62B6BFF36F8FAE
:104B1000704700BF72B6494081F31188BFF34F8FD1
:104B200020BF80F3118862B6704700BF2DE9F047BF
:104B3000814600AF0C4600294CD06E468AB0D1E9C0
:104B40000012A3686D462748A8464FF0050AC5E93C
:104B50000501C5E9072348F810AF23484246002362
:104B60004FF42151FEF712F8B546D4E903126369F8
:104B7000AD461E48C5F810A0C5E90501C5E90723E3
:104B80001948002342464FF42151FDF7FFFFB54677
:104B900088B0E3696D46164AA8464FF0030AC5E996
:104BA000052348F810AF1048002342464FF4C25185
:104BB000FDF7ECFFB546A369AD460E4AC5F810A057
:104BC000C5E905230848002342464FF4C251FDF7CA
:104BD000DDFFB5462146484604F0F6FFBD46BDE878
:104BE000F08700BF2FE400008CD900005EE40000D5
:104BF0008DE400009CE4000040B2002807DB044A7A
:104C00004109012300F01F00834042F82130704722
:104C100000E100E040B200280CDB4309064900F047
:104C20001F0020330122824041F82320BFF34F8F21
:104C3000BFF36F8F704700BF00E100E0054B4209F2
:104C400000F01F0053F82220012303FA00F0104067
:104C5000704700BF00E100E040B20028A8BF00F1AB
:104C6000604001F10101B8BF064B4FEA4111ACBFF2
:104C700000F5614000F00F00C9B2B4BF195480F8CC
:104C80000013704714ED00E030BFFFF7FDBF00BF19
:104C90000B4A08B50B4B22F07F029A60BFF34F8F8F
:104CA000BFF36F8FD3F8882022F47002C3F88820F6
:104CB00005F046F806F006F800F0D6FB05F084F89B
:104CC0000010000000ED00E0094A0A4993680968F5
:104CD0009967094958674B6843F080534B6000233C
:104CE00083F31188BFF36F8F9368986F704700BF8D
:104CF000F41F0020B8DC000000ED00E012498A68D3
:104D00004FF030001044EFF3098C80E8F01F2020B2
:104D100080F31288BFF36F8F0C4F4FF000668A69E3
:104D20008A603E60506F0023536780F3118804B59A
:104D3000104600F035FCBDE8044002F1300090E878
:104D4000F01F8CF309887047F41F002004ED00E089
:104D50001EF0040F0CBFEFF30880EFF309808169A8
:104D600011F8021C0229FFD001B507F0DCFC01BDDF
:104D700042F8203C009B42F81C3C0A49019B42F847
:104D8000183C029B42F8143C21F001014FF0807363
:104D900042F8043C42F8081C0023203A02654367AD
:104DA000704700BF4BB60000094A0346906870B1D7
:104DB00013F1160F406E05D0A0F140029A4205D8BB
:104DC000834203D2814228BF0020704700207047F1
:104DD000F41F002008B5094B0D461446986000F0FA
:104DE000DFFB204685F30988002163B681F3118833
:104DF000BFF36F8F0022002306F027FCF41F002072
:104E000001B572B60B4A506900281EBF00215161DE
:104E100008F0D1F862B6EFF30580A0F110004FEA78
:104E2000C0000549014409C99847BDE8014003494C
:104E300008470000F41F002060D70000414E00002A
:104E4000044B99689869884203D003494FF0805217
:104E50000A607047F41F002004ED00E02DE9F041E6
:104E600086B0064600AF0D46474B7B6102244FF4E7
:104E7000825146483C6107F1100207F063FC444B45
:104E80009B6AD9046DD5434B4048C7E9044307F1F9
:104E900010024FF4825107F055FC17203C4B9B6ADF
:104EA0001A050BD53C4B7B61022338483B6107F167
:104EB00010024FF4825107F045FC1820344CA36ACD
:104EC0009B0523D5E846354B7B6102232F483B6188
:104ED00007F110024FF4825107F034FCA36BA26A71
:104EE000100412D588B06A462D492848C2E9051336
:104EF000032342F8103F4FF4C25107F023FCC5468C
:104F00001EB1A36A23F40043A3621920204B9B6ABD
:104F100059050BD5234B7B6102231C483B6107F1EC
:104F200010024FF4825107F00DFC1A20184B9A6AB8
:104F3000D20518D51C4B7B61022314483B6107F155
:104F400010024FF4825107F0FDFB1B20104A936AB8
:104F500043F47F439362183700232B70BD46BDE8AE
:104F6000F08116209AE79B6A9B04EFD50F4B7B617B
:104F7000022306483B6107F110024FF4825107F00B
:104F8000E1FB1C20E2E700BFCAE400008CD900006E
:104F900000ED00E0E0E40000F1E4000004E50000C2
:104FA0001DE5000032E500004DE5000065E500006C
:104FB00010B586B0364B3748059304AA02244FF447
:104FC0008251049407F0BEFB334B9B6A9A015DD576
:104FD000324B304804AA4FF48251CDE9044307F024
:104FE000B1FB1E202C4B9B6ADB010AD52C4B2948B8
:104FF000059304AA02234FF48251049307F0A2FB05
:105000001F20254B9B6A1C030AD5264B214805937C
:1050100004AA02234FF48251049307F093FB21204A
:105020001D4B9B6A59030AD51F4B1A48059304AAC6
:1050300002234FF48251049307F084FB2220164B85
:105040009B6A9A030AD5194B1248059304AA0223B6
:105050004FF48251049307F075FB23200E4B9B6A9B
:10506000DB030AD5124B0B48059304AA02234FF425
:105070008251049307F066FB2420074A936A6FEA83
:1050800003436FEA1343936206B010BD1D20A9E7E6
:1050900094E500008CD9000000ED00E0ACE50000D4
:1050A000BFE50000D9E50000F7E500001CE60000C0
:1050B00036E600002DE9F04786B0814600AF8A460B
:1050C0009046514B7B61022450483C6107F110022D
:1050D0004FF4825107F036FB4D4B9B6ADE0645D5F7
:1050E0004C4B4A48C7E9044307F110024FF4825180
:1050F000112407F027FB464B9B6A1D070BD5464B37
:105100007B61022341483B6107F110024FF4825159
:10511000122407F017FB3E4DAB6A980728D56C4662
:105120003E4B7B6102233B614FF48251374807F1CC
:10513000100207F007FB6E6BAB6A190660D588B0EA
:105140006A46374B3148C2E90536032342F8103F1F
:105150004FF4C25107F0F6FAA546BAF1000F03D09A
:10516000AB6A23F08003AB62132403E01024C2E790
:105170006FF01506264B9B6ADA070BD5294B7B612E
:10518000022322483B6107F110024FF4825114249C
:1051900007F0D8FA1E4B9B6A9B060BD5224B7B610E
:1051A00002231A483B6107F110024FF48251152483
:1051B00007F0C8FA164B9A6AD50602D49A6A900785
:1051C0000AD55B68190507D549463046FFF7ECFD5F
:1051D00010B180F3098802240D4B9A6A920642BFEF
:1051E0005A6A22F400525A629A6A42F0FF029A62A4
:1051F00020460023183788F80030BD46BDE8F08708
:105200006FF01506B0E700BF61E600008CD9000022
:1052100000ED00E077E60000F1E40000AAE60000FF
:10522000C2E60000D8E6000065E500002DE9F04385
:10523000774B8BB0D3F8048000AF0546C8F3080461
:10524000002686F31188BFF36F8F02F07F43B3F11E
:105250007F4F0ED102F00C03082B19D16D4BFB616F
:1052600002236D48BB6107F118024FF4825107F029
:1052700069FA002635460023FB71E31E092B00F274
:10528000A680DFE803F00A999C95A4A4A4A4A49F97
:1052900010074CBF0D460126EDE7E9465F4BFB6169
:1052A0004FF0020807F118025B48C7F818804FF466
:1052B000825107F047FA0023554CFB71E36A9A07C5
:1052C0000BD5574BC7E90683534807F118024FF433
:1052D000825107F037FA002441E0E36A002B01DA3B
:1052E000504BEFE7E36A5B00F5D54F4B4A48C7E9FF
:1052F000068307F118024FF4825107F023FA63691D
:10530000AA6943F480736361BFF34F8FBFF36F8F5C
:10531000636932F8022C23F480736361BFF34F8F0B
:10532000BFF36F8F4DF602739A4208D0A36ADBB2C7
:105330008BB3FA1D01212846FFF7BCFE3AE088B086
:105340002B686A4639493448C2E90513032342F8F9
:10535000103F4FF4C25107F0F5F92C68CD46FB79A8
:10536000ABB92022294607F1080007F00AFA7B6A48
:10537000002E47D0C3F3080222B96FEA53236FEA25
:1053800043237B6207F108012046FFF7CFFB2C3750
:10539000BD46BDE8F083A36A13F47F4F04D0F91D26
:1053A0000120FFF75BFD05E0A36AB3F5803F92D3D0
:1053B000FFF7FEFD0446D2E7FA1D0021BBE7F91D09
:1053C0000020EEE71A4BFB610223BB617CE7194A20
:1053D000194B18F4F87FE8468AB018BF13466A469E
:1053E00016490D48C2E905134FF400731384103CAD
:1053F000134BD4614FF4115142F8103F07F0A2F95A
:10540000C54668E723F4FF7323F00103B9E700BF43
:1054100000ED00E025E700008CD9000050E7000017
:1054200067E7000088E7000096E70000B5E70000A6
:10543000D1E700000CE70000F7E60000F5E7000008
:1054400004000001024A536943F01003536170479E
:1054500000ED00E0EFF30880EFF3098101B572463B
:10546000FFF7E4FE01BD00BF044800232021C2185D
:105470000133302B82F80013F9D1704700E100E0CE
:10548000002080F31488BFF36F8FFDF7E7F800204A
:105490000D490860BFF34F8F0C4880F3088800F077
:1054A0002BF8202080F3118809484FF4046140183C
:1054B00080F30988EFF314800221084380F31488F5
:1054C000BFF36F8FFFF7E4FB94ED00E0C03B0020DB
:1054D000002E00200749D1F890200023C2F30722B4
:1054E0001846934200DB7047C1F89830C1F8A0001D
:1054F0000133F6E700ED00E008B572B6002383F350
:105500001388FFF7E7FF144B4FF0FF32C3F88020FA
:10551000C3F88420C3F88820C3F88C20C3F89020F7
:10552000C3F89420C3F89820C3F89C20C3F88021C6
:10553000C3F88421C3F88821C3F88C21C3F89021D3
:10554000C3F89421C3F89821C3F89C2162B6BFF335
:105550004F8FBFF36F8F08BD00E100E0084B9B68E1
:1055600083420BD1EFF3058343B1064B5A6842F0F7
:1055700080525A605A6A22F400425A6205F030BBE7
:10558000F41F002000ED00E0024B034A0348012114
:1055900000F092B8000004200000002014DB00009E
:1055A000426E054B403A1A60044A4021C3E9011299
:1055B0001846012100F08AB8CC13002000000B151A
:1055C0002DE9F041DFF8B4E09C4600AF154600231A
:1055D0008B421ADA4468002C4DD0BCF1000F1DD06C
:1055E000661E344215D06C4688B06A462449C2E92A
:1055F0000513032342F8103F224800234FF4C25101
:10560000FDF7C4FA6FF01505A5462846BD46BDE86E
:10561000F0811F2CE7D902681642E4D1202C0268E1
:1056200086685FFA85F814D9B4F1004F13D8013CAD
:10563000B4FA84F4C4F11F046400B8F1070F46EA19
:1056400004060AD96C4688B06A460F4BC2E9053594
:10565000CFE70824F1E73E24EFE722F01F022A43B8
:1056600042F0100246F00106CEF89850CEF89C2089
:105670000135CEF8A06001330C30A9E700ED00E061
:105680000CE8000084D900002FE80000044B05223C
:10569000C3F89420BFF34F8FBFF36F8F704700BFE5
:1056A00000ED00E0BFF35F8F024B0022C3F89420AF
:1056B000704700BF00ED00E010B5034C01232278D5
:1056C000FFF77EFF207010BD2022002008B5094A98
:1056D00000231278FFF774FF10F1160F03D0064B6A
:1056E0000022072800DD08BDC3F89800C3F8A020F9
:1056F0000130F6E72022002000ED00E014490868A0
:10570000082810B521D8FFF7CDFF124C49680022B8
:10571000904201F10C0105D10F4B1870FFF7B6FF55
:10572000002010BDC4F8982051F80C3C23F01F0352
:10573000134343F01003C4F89C3051F8043C43F089
:105740000103C4F8A0300132E2E74FF0FF30E8E790
:1057500020DB000000ED00E020220020014B18605B
:10576000704700BF340100204FF02003EFF3118297
:1057700083F31288BFF36F8F06490123C1F84035C8
:105780004FF08041C1F8783582F31188BFF36F8FF5
:105790000020704700E001404FF08043C0B2C3F8E2
:1057A0001C05BFF34F8F0549054BCA6802F4E06240
:1057B0001343CB60BFF34F8F00BFFDE700ED00E068
:1057C0000400FA0520B1034B800143F001031847A0
:1057D000704700BF00DA000080B500AF88B06A46AD
:1057E000064BC2E90530032342F8103F04484FF44A
:1057F000C45106F0F3FFBD4680BD00BF68E800005D
:10580000C4D900002DE9F84390F90030002B00AF17
:1058100004460D46164604DB6FF01500BD46BDE894
:10582000F883038823F0E0039BB240F201629342C5
:10583000F2D190F80490B0F802801B4849464FEA34
:10584000182806F02BFE78B96C4688B06A46174BCC
:105850001748C2E90539032342F8103F4FF4C451F9
:1058600006F0BCFFA546D7E7B8F1210F05D0B8F187
:10587000220F0FD06FF08500D0E70368E1885B68E6
:105880005B6813F8092F914294BF29602A60336046
:105890000020C3E7E38850F8142C9A4294BF2A6092
:1058A0002B6050F8183CF2E71814002089E800003B
:1058B000C4D9000080B500AF88B06A46064BC2E983
:1058C0000530032342F8103F04484FF4C45106F05A
:1058D00085FFBD4680BD00BFB0E80000C4D9000010
:1058E00070B504460D4601460A4806F0E5FD20B9AC
:1058F0002046BDE87040FFF7DDBF022D08D150F80B
:10590000103C2BB11B691BB1BDE870400068184703
:1059100070BD00BF181400202DE9F04387B0054684
:1059200000AF884601794E48914606F0B7FD04461F
:10593000A8B96C4688B0AB886A464A494A48C2E969
:105940000513032342F8103F4FF4C45106F046FFFD
:105950006FF01200A5461C37BD46BDE8F08395F9EF
:10596000003000686E78002B3CDA022E0DD0032E3A
:1059700028D0012E6DD154F8103CC3B11C68B4B1CD
:105980004B4642462946A047E5E7AB78012B11D9A3
:105990006C4688B06A463549C2E90513032342F8CC
:1059A000103F31484FF4C25106F018FFA5466FF082
:1059B0008500D0E7073C0123C9F80040C8F8003053
:1059C0000020C8E76B885BB1294B7B612648022326
:1059D00007F110024FF482513B6106F0FFFEE6E74B
:1059E000063CE8E70A2E09D00B2E18D0092E30D13C
:1059F00054F8103C002BDAD05C68C0E76B881A0AB8
:105A0000DBB2012BC4D8002304F8072C44F80C3C6B
:105A10006B88003B18BF012304F8083CD0E7698875
:105A2000012906D96C4688B06A46124BC2E9053195
:105A3000B4E714F8063C8B42C2D054F8103CC9B20B
:105A400004F8061C002BBBD09B68002BB8D09847ED
:105A5000B6E76C4688B06A46074BC2E905369DE753
:105A60001814002089E80000C4D90000D6E800001E
:105A7000F1E800001DE9000004E9000070B50646E9
:105A800086B00D460146464806F0FCFC044628B99F
:105A9000304606B0BDE87040FFF79EBEA0F1180684
:105AA0000A2D7AD8DFE805F00611292B3A4A5679F3
:105AB00079796F003B4B05933B48022304AA4FF4CE
:105AC0008651049306F08AFE26E0384B059336484B
:105AD000022304AA4FF48651049306F07FFE0023AC
:105AE00004F8053C04F8043C3046012304F8063C65
:105AF00006B0BDE8704006F074BE2D4BDBE72D4BC1
:105B000005932948022304AA4FF48651049306F012
:105B100065FE012304F8053C06B070BD264B0593D5
:105B20002148022304AA4FF48651049306F056FE3E
:105B3000002304F8053C04F8043CEDE71F4B0593F3
:105B40001948022304AA4FF48651049306F046FE36
:105B50000123F0E71A4B14480593022504AA4FF4D9
:105B60008651049506F03AFE14F8043C002BD3D07D
:105B7000144B0D4804AA4FF48651CDE9045306F0A6
:105B80002DFE0023D7E710F8083C002BC4D0304688
:105B900006B0BDE8704006F028BE0B4B8BE700BF97
:105BA0001814002036E90000C4D9000043E90000C1
:105BB00059E900006AE900007CE9000090E9000072
:105BC000A1E90000B0E90000BDE9000010B50469DA
:105BD000C4E90012A3600023E361064BA061596889
:105BE00004F11C0211B9C3E9002210BD0A605A6019
:105BF000FBE700BF1814002030B544680069C57C7D
:105C000087B045B1007D30B9206A007907B0BDE8A2
:105C10003040FDF791BF074B05930748022304AAC4
:105C20004FF48451049306F0D9FD6FF00A0007B0D9
:105C300030BD00BFCBE90000C4D90000020600F06F
:105C40007F0312D5082B05D1010700F00F0306D5FD
:105C50000E48704710F0780F12D100F00F034C205F
:105C600000EB43100A4B18447047082B05D102077C
:105C700000F00F0306D50748704710F0780FF6D0F4
:105C800000207047044800EB431070476C1500205B
:105C9000201400208C1600208C1500200149024899
:105CA00007F072BA48140020080A00200146014893
:105CB00007F005BA4403002002480022002304F044
:105CC000BFBA00BF4403002010B5054CFFF7F4FF36
:105CD00020B1011D204607F038F9F7E710BD00BFDD
:105CE000A402002010B588B018480022002301A9A2
:105CF00004F0ECF830B3164B1648079306AA4FF49D
:105D000082510224069406F0A8FDFFF7DDFF0F483C
:105D10000022002301A904F0D9F850B10E4B0D4820
:105D200006AA4FF48251CDE9064306F096FD002005
:105D30000AE00198042340600374FFF7B7FFFFF700
:105D4000ADFFF4E70198406008B010BDA402002048
:105D5000F2E90000CCD9000010EA000098B5022852
:105D600000AF11D8104B1C5CFFF7BCFF50B10022F4
:105D700002740472FFF79AFF0C4B93F824300BB1B6
:105D8000FFF78CFFBD4698BD6C4688B06A46084B4D
:105D9000C2E90530032342F8103F06484FF4C251D0
:105DA00006F05BFDA546EDE702EC000020140020A4
:105DB0002CEA0000CCD900002DE9F04190F80280D7
:105DC000064600AF4046FFF739FF18F0800FF47821
:105DD000054625D09CB1032C1FD06D4688B06A467D
:105DE0002A4BC2F81C80C2E90534042342F8103F54
:105DF00027484FF4015106F030FDAD460DE0FFF7A6
:105E000071FF034648B10122AC770274032202738A
:105E10009D60FFF74BFFFFF741FFBD46BDE8F081F6
:105E200054B1012CD9D1FFF75DFF03460028F4D00F
:105E30006C7704740473EBE7FFF754FF0028ECD091
:105E4000B278144B12F0800F02F0080111D041B16A
:105E5000D3F8A836EB600123037402230373856033
:105E6000D7E702F00F02142101FB0233D3F8083602
:105E7000F0E711B1D3F8A837ECE702F00F021421D4
:105E800001FB0233D3F80837E4E700BF47EA00001C
:105E9000CCD900000070024013B5124803F078F925
:105EA000114B98421AD1114802F012FB00241048FD
:105EB00002F054FB0F49104800944FF0FF334FF4A9
:105EC000806204F02FFB0D490B4807F06DF80C4879
:105ED0000C4907F03CF9204602B010BD6FF00400F9
:105EE000FAE700BF495F00000000AD0B05EC0000C1
:105EF00044DB0000C0290020080A002073EA0000EB
:105F0000481400202561000010B50E49BFF35B8FD7
:105F1000002351E8002F012A03D141E80030002876
:105F2000F7D1BFF35B8F0CD151F8044C14392046E4
:105F300005F055FE783004D12046BDE8104005F04C
:105F400029BE10BD401400202DE9F04188B006465E
:105F500000AF1422002107F10C0006F01DFC33787D
:105F6000062B24D8DFE803F09E04121616901800C2
:105F70000224FFF7B7FE0346C8B1047400F108021B
:105F8000D7E9050182E80300184638E003233B7592
:105F90000024EEE70423FAE796F802804046FFF774
:105FA0004DFE837A054633B1013B022B68D9203779
:105FB000BD46BDE8F08118F0800FF47824D09CB184
:105FC000032CF4D06D4688B06A46374BC2F81C806B
:105FD000C2E90534042342F8103F34484FF401511C
:105FE00006F03BFCAD46E2E7FFF77CFE03460028E7
:105FF000DDD00122AC770274032202739D60FFF7AB
:1060000055FEFFF74BFED2E754B1012CDAD1FFF772
:1060100069FE03460028CAD06C7704740473EDE768
:10602000FFF760FE04460028C1D001230374022359
:1060300003738560B07805F10C0106F017FF70B1AD
:106040006E4688B06A461A4BC2E90530032342F80F
:10605000103F16484FF4C25106F0FFFBB546154AF3
:10606000E968B2F88C328B4206D95B1AA2F88C32FE
:1060700003F0CAFA2046C2E70023A2F88C32F9E7FF
:106080003046FFF799FE92E7381D03F097FA7B79C7
:10609000052B03D13B7913F0600F88D0064B7B6151
:1060A000012466E7032464E747EA0000CCD9000036
:1060B0007EEA0000201400208C15002038B5002452
:1060C00064F07F00C0B2FFF7B9FD013406F0B2FB07
:1060D000082CF5D10E4D0024E0B2FFF7AFFD0369A7
:1060E00003B90561013406F0A5FB082C05F1400554
:1060F000F2D1084806F09EFB074BD3F87C2212B978
:10610000064AC3F87C22064806F094FB002038BDFE
:10611000B01A00206C15002020140020B0160020BA
:106120008C1600202DE9F047A34CDFF890A286B032
:10613000804600AFFFF7C0FD064618B91837BD46C8
:10614000BDE8F08794F82520337C06F104093AB9BC
:10615000002B00F0AF809948494606F0F6FEE9E7CB
:10616000042B00F29581DFE813F0A50005003B0148
:106170005101780118F8043C83B9B3686D4688B0C2
:106180005B7A6A468E498F48C2E90513032342F8B9
:10619000103F4FF4C25106F060FBAD46337BB5684B
:1061A000032B39D8DFE803F0023F6E736E690822D3
:1061B0000021304606F0F0FA834B8448D3F880245F
:1061C0003270D3F884247270D3F88824D3F88C14F6
:1061D00042EA01227280D3F89024D3F8941442EA60
:1061E0000122B280D3F89824D3F89C3442EA0323E6
:1061F0000822F3803146EA6006F0C3FA2B68687A19
:106200000021984796F90030002B08DBF38833B162
:10621000A4F88C3203F0F8F9494650469DE7002374
:10622000A4F88C32F8E76B7F002BF5D02B7F002B86
:10623000F2D0002666486E774FF0FF324FF0FF3302
:106240002E7706F00DFB6B693B606B68C7E9013682
:106250003946687A02F0DEFF5E4B98420ED06D46FA
:1062600088B06A465C4BC2E90530032342F8103F10
:1062700054484FF4C25106F0F0FAAD46544806F0C7
:10628000F1FAC9E72B680121687A9847C4E7AB7A2D
:106290006BB9EB7F5BB94E484FF0FF324FF0FF33E5
:1062A00006F0DEFA03F0E0F9494806F0DBFA2B6865
:1062B0000221E9E7337A042BAED8DFE803F0590373
:1062C0002367730002F02EFF05460028A4D102F0D8
:1062D00065FEBFF35B8F4149012351E8002F002A7F
:1062E00003D141E800300028F7D1BFF35B8F93D191
:1062F00041F8085C41F8105CE0696361143905F00D
:10630000F1FB89E7002565F07F00C0B2FFF796FC3E
:10631000037A13B1407A03F057FB0135082DF2D10F
:1063200094F854311BB194F8550103F04DFB00254E
:10633000E8B2FFF783FC037A13B1407A03F044FB21
:106340000135082DF4D194F874321BB194F875021C
:1063500003F03AFB012002F0C7FE012384F8253048
:106360002368002B3FF458AF00210220984753E7E1
:10637000002584F8255003F0E3FAFFF7C5FD2368F4
:10638000002B3FF449AF29460420EFE7002A3FF4F1
:1063900043AF02F0D1FE2368002B3FF43DAF002154
:1063A0000520E3E72368002B3FF436AF002A3FF4D3
:1063B00033AF00210620D9E720140020A4020020DA
:1063C0009EEA0000CCD90000007002402414002096
:1063D000581400200000AD0BC4EA00004014002057
:1063E00008F110054FF0FF334FF0FF32284606F05A
:1063F00037FAFFF763FE284606F034FA58F8283CCF
:10640000002B3FF409AF00210120AFE794F874326C
:1064100093B1012584F8895284F88852FFF762FC11
:1064200090B9234B7B61022322483B6107F11002A4
:106430004FF4825106F011FA58F8283C002B3FF433
:10644000EBAE00210A2091E71B4A057405738260B8
:10645000FFF72CFCFFF722FCEEE7184B7B610223D1
:106460003B6107F110024FF48251124806F0F5F932
:1064700006F043FC03F064FA02F086FDFFF724FC0B
:10648000FFF71CFE06F032FC0D4802F081FEC3E669
:106490006D4688B06A460B490648C2E905130323D6
:1064A00042F8103F4FF4C25106F0D7F9AD46B3E6BB
:1064B000EAEA0000CCD900008C160020FEEA0000B9
:1064C000495F000015EB000038B5164D95F82440E3
:1064D0002CBB05F1380006F07DFD204600F0BEFB28
:1064E00022460121E8612720FEF7B6FB06F0FEFBFD
:1064F000FFF7E4FD044610B9012385F824300A4B68
:106500001B680BB1FFF7CAFB4FF08043D3F8383458
:10651000DB0702D50020FFF721FC204638BD002410
:10652000FBE700BF2014002044030020074B93F832
:1065300024203AB193F82530002B14BF00206FF0CF
:10654000120070476FF01200704700BF2014002047
:106550007FB5034602781B7902F00F007BB958B172
:10656000104B05930223049304AA4FF482510E4862
:1065700006F073F94FF0FF3007B05DF804FB082810
:1065800001D90A4BEDE7012B09D1130707D4084BBA
:1065900005930223049304AA4FF48451E7E70020F3
:1065A000EAE700BF2CEB0000CCD900004BEB000069
:1065B0006AEB000030B5164B93F8243087B00446E0
:1065C0001BB305782846FFF739FBB0B14572237934
:1065D0008372638843602078618810F0080F10D1BF
:1065E0004B1E0B420DD00B4B05930B48022304AA04
:1065F0004FF48251049306F030F96FF0150007B0A4
:1066000030BD06F02EFC0020F9E76FF01200F6E72F
:106610002014002080EB0000CCD9000030B5194BCD
:1066200093F8242087B0054642B393F825302BB366
:10663000FFF704FB044618B96FF0150007B030BD32
:10664000837A012B0FD007D9023B012B07D963694D
:10665000A3610020E060F1E703F00EF8F7E72846B9
:1066600002F07EFFF3E7084B05930848022304AAD3
:106670004FF48251049306F0F0F8DDE76FF012005A
:10668000DCE700BF20140020A8EB0000CCD90000FC
:1066900038B50E4B93F82420054682B193F8253087
:1066A0006BB1FFF7CBFA68B115F008040AD12846A0
:1066B00002F078FF284603F0DBF9204638BD6FF082
:1066C0001200FBE76FF01500F8E700BF2014002070
:1066D00038B50C4B93F8242005460C4662B193F86C
:1066E00025304BB1FFF7AAFA48B144B1284602F071
:1066F0003FFF2070002038BD6FF01200FBE76FF005
:106700001500F8E72014002070B5134E96F82430D9
:106710000446C3B1FFF792FA0546B8B1230705D482
:10672000204602F03FFF204603F0A2F92B7A83B9FE
:1067300001232B7296F825300BB9002070BD20463E
:1067400003F042F9F9E76FF01200F7E76FF0150078
:10675000F4E76FF07700F1E7201400202DE9F0470F
:10676000DFF8249184B01E4699F8243000AF8046AB
:106770008A461546002B00F0838099F82530002BBF
:106780007ED010F0800F14D0FFF758FA044680B185
:10679000037AABB96C4688B06A463C4B3C48C2E9C8
:1067A0000538032342F8103F4FF4C25106F055F864
:1067B000A5466FF0150420461037BD46BDE8F087AA
:1067C0004FF0FF334FF0FF3209F1380006F048F880
:1067D000A37F33B109F1380006F044F86FF00A04E2
:1067E000E9E7A37A55B3002B38D00123A3774FF004
:1067F0000009391D4046C7E901A5C7F80C9002F011
:1068000009FD244B984237D084F81E900EB1C6F88B
:1068100000906C4688B06A461F4BC2E905300323DE
:1068200042F8103F1A484FF4C25106F016F8A54638
:106830006FF00404194806F015F8BCE7E27F02B1D6
:10684000E577002BD1D102F01FFF8045CDD002F0BB
:106850000BFF124806F006F80024ACE7B9F80A303E
:106860009D42F0D26268B5FBF2F302FB1353002B9A
:10687000E9D10123E377E6E706B135600024D9E7E3
:106880006FF0120497E700BF20140020CAEB00004D
:10689000CCD900000000AD0BE9EB0000581400203B
:1068A0002DE9F8431D462D4B904693F8242000AF68
:1068B00081460E46002A4DD093F82530002B49D052
:1068C00010F0800F19D111B9B8F1000F15D1484659
:1068D000FFF7B4F9044680B1037A8BB96C4688B0EF
:1068E0006A461F4B1F48C2E90539032342F8103F8F
:1068F0004FF4C25105F0B1FFA5466FF0150015E049
:106900004FF0FF3318484FF0FF3205F0A9FFE3685E
:106910009845C14628BF99465EB9B8F1000F08D125
:1069200005B12B60104805F09DFF0020BD46BDE875
:10693000F883A1694A46304605F023FFA3694B441A
:10694000A361E368A3EB0903E360002DEAD0C5F877
:106950000090E7E76FF01200E8E700BF2014002086
:10696000CAEB0000CCD9000058140020F8B5274D20
:1069700095F8243000AF0646002B44D095F825301A
:10698000002B40D0030614D4FFF758F9044680B119
:10699000037A93B96C4688B06A461D4B1D48C2E91C
:1069A0000536032342F8103F4FF4C25105F055FF5E
:1069B000A5466FF01500BD46F8BD4FF0FF334FF010
:1069C000FF3205F1380005F04BFFE368B3B901264B
:1069D00063692677A361637F83B1FFF783F930B9D9
:1069E00005F1380005F03EFF6FF00B00E3E7067499
:1069F00084600673FFF75AF9FFF750F9064805F06F
:106A000031FF0020D7E76FF01200D4E720140020F8
:106A1000CAEB0000CCD900005814002010B5084B78
:106A200093F824300C462BB1FFF708F928B1046025
:106A3000002010BD6FF01200FBE76FF01500F8E7C3
:106A400020140020014B1860704700BF2014002064
:106A500008B5074B93F8243023B1FFF7EFF820B1C6
:106A6000406808BD6FF01200FBE76FF01500F8E713
:106A700020140020084B70B5C31A0D4607499B101F
:106A8000044659430648402205F032FF2B46014692
:106A90002046BDE870401847C41C0020B76DDBB627
:106AA00088D6000073B50C4C0C4A4023041B00939D
:106AB0000D460B460A49A41061430646094805F0F5
:106AC00043FF011E05DA30462B4602B0BDE8704098
:106AD000184702B070BD00BFC41C0020B3C900003D
