:10100000803B0020E5520000F1C40000B95200000E
:10101000B9520000B9520000B952000000000000AF
:10102000000000000000000000000000B54B0000C0
:10103000B952000000000000614B0000B9520000EE
:10104000654C0000654C0000654C0000654C0000DC
:10105000654C0000654C0000654C0000654C0000CC
:10106000654C0000654C0000654C0000654C0000BC
:10107000654C0000654C0000654C0000654C0000AC
:10108000654C0000654C0000654C0000654C00009C
:10109000654C0000654C0000654C0000654C00008C
:1010A000654C0000654C0000654C0000654C00007C
:1010B000654C0000654C0000654C0000654C00006C
:1010C000654C0000654C0000654C0000654C00005C
:1010D000654C0000654C0000654C0000654C00004C
:1010E000654C0000654C0000654C0000654C00003C
:1010F000654C0000654C0000654C0000654C00002C
:1011000053B94AB9002908BF00281CBF4FF0FF316E
:101110004FF0FF3000F00CB8ADF1080C6DE904CED3
:1011200000F008F8DDF804E0DDE9022304B07047C0
:10113000704700BF2DE9F04786468C460846089E5A
:10114000154674461946002B40F0C2808542B2FA1B
:1011500082F245D94AB1C2F1200300FA02FC2EFA0C
:1011600003F3954043EA0C0C94404FEA154EA8B2A5
:10117000BCFBFEF8230C0EFB18CC08FB00F943EA7D
:101180000C43994528D9EB1808F1FF3704D299454B
:1011900002D9A8F102072B44A3EB0903A4B2B3FBC5
:1011A000FEFC0EFB1C330CFB00F044EA0344A0429F
:1011B00014D92C190CF1FF3304D2A04202D9ACF19E
:1011C00002032C44241A43EA07401EB1D4400023F2
:1011D00034607360BDE8F0874746DDE76346F1E7BA
:1011E00092BB431B01214FEA154EAFB2B3FBFEFC8D
:1011F000200C0EFB1C330CFB07F840EA0343984518
:1012000062D9EB180CF1FF3004D2984502D9ACF149
:1012100002002B44A3EB0803A4B2B3FBFEFC0EFBBD
:101220001C330CFB07F744EA0344A7424ED92C19A0
:101230000CF1FF3304D2A74202D9ACF102032C44D3
:10124000E41B43EA0040C0E7C2F1200320FA03F1A7
:10125000954090402EFA03F303434FEA154EAFB288
:10126000B1FBFEFC0EFB1C10190C0CFB07F841EA4D
:101270000041884504FA02F422D969180CF1FF30C4
:1012800004D2884502D9ACF102002944A1EB08013F
:101290009BB2B1FBFEFC0EFB1C110CFB07F743EAF3
:1012A00001439F420ED9EB180CF1FF3104D29F424B
:1012B00002D9ACF102012B44DB1B41EA004192E769
:1012C0006046E3E76146F7E76046A3E76346B7E7B2
:1012D000834206D916B9002108467BE7C6E900E03B
:1012E000F9E7B3FA83F78FB9834201D3724508D87F
:1012F000BEEB020460EB030301209C461EB90021F3
:1013000068E73846FAE7C6E9004CF8E7C7F1200C71
:10131000BB4022FA0CF41C432EFA0CF120FA0CF319
:10132000B84001434FEA14490EFA07F5B3FBF9F848
:101330001FFA84FE09FB18300B0C08FB0EFA43EA77
:1013400000439A4502FA07F240D9E31808F1FF304A
:1013500004D29A4502D9A8F102002344A3EB0A0360
:1013600089B2B3FBF9F809FB183308FB0EFE41EA1A
:1013700003418E452CD9611808F1FF3304D28E4504
:1013800002D9A8F10203214443EA0040A0FB0298DD
:10139000A1EB0E014145CE46434602D306D14D4551
:1013A00004D2B9EB020E68EB04030138002EA6D07C
:1013B000B5EB0E0261EB030101FA0CFC22FA07F314
:1013C0004CEA0303F940C6E9003198E74046C5E717
:1013D0004346D9E713B5044683682221DB68984762
:1013E000014610B1074809F0DEFFA3686A461B6991
:1013F000222120469847DDE90012034809F0D3FF77
:1014000002B010BDF0DA000017DB000073B5002455
:101410002046019402F0D8FB58B9184C019B5BB1EF
:10142000174C20460BF025FC98B9164809F0BBFF75
:1014300000E0204602B070BDA3681B6D1BB101AA7D
:10144000042120469847002140F6CD4009F056FA85
:10145000E4E722680C480D4E0D4D214609F0A3FF2C
:101460003146284609F09FFF002140F6CD4009F0A3
:1014700045FA2046FFF7AEFFF2E700BF58D4000060
:10148000A0D4000026DB000049DB000063DB000085
:1014900067DB00002DE9F04F91B08407009302F064
:1014A00004030293C2F3C20303F10103DDF8688071
:1014B000039205460E46059340F0BE81041D30B1EF
:1014C000072909D86FF01B0011B0BDE8F08F01F0BB
:1014D0000706341DC6F10806009B4FF00009591E8F
:1014E0004FF0040A4FF0FF330193CDF810904F46B0
:1014F000CB4653460DB1009A22600598002800F3B0
:10150000EB809A48009A824203D399488242C0F005
:10151000E380039AA4EB050E92074FEA9E0000F1C8
:1015200006810F2F00F2B480002D00F0088107F132
:1015300040020DEB020C019A0CF8200C0CF8102C58
:10154000049801300490EAE07A2860D84B280ED83D
:1015500047285CD829282FD8252855D057D82028A7
:101560007DD02338D0F1000B4BEB000B77E0A0F1DE
:101570004C0CBCF12E0F4AD8DFE80CF071494949F8
:1015800049494949494949494C49494949494949C8
:10159000495A494C4C5A5A5A714C6E497149184C27
:1015A00018494983804C49494C49800000204FF03C
:1015B000000B4FF0040A39E0A0F12A0C5FFA8CFC12
:1015C000012202FA0CFC1CEA0E0F48D11CF06250FA
:1015D0002ED11CEA020B42D0013C5444CAF1000C4B
:1015E00004EA0C04002D61D0A3EB050CA444B4451F
:1015F0003FF668AF002868D1042B47D158F8043B68
:101600002360043404232AE0019A013A01924FF046
:10161000000B24E011F8010C6C2834D111F8023CC5
:1016200000206C2B8346C4D14FF0080A5346D3E701
:1016300008F1070828F007080734F8E802AB24F09F
:10164000070435B106982044B0423FF63BAFC4E9E9
:1016500000AB08344FF0000B4FF0080A534611F866
:10166000010F002878D0BBF1000F7FF46DAF252863
:10167000F5D1019B013301934FF0010B4FF0040AA8
:10168000ECE7584693E700208346A5E7082B02D0F5
:101690006FF0150018E708F1070828F00708F8E8C8
:1016A0000223C4E9002308340823D8E768B9042BCF
:1016B00002D108F10408A4E7082BE9D108F10708D2
:1016C00028F0070808F10808EDE7059A013A0592A5
:1016D00058F8042B00920DE7039A900720D5A4EB4D
:1016E000050E4FEA9E004FF0010CBEF5007FCFD2F1
:1016F0000F2FCDD8F5B107F140020DEB020EC0B2AD
:10170000019A0EF8200C0EF8102CBCF1000F3FF4DB
:1017100017AF60F07F000EF8200C09F101090137C6
:10172000C5F10802043406924FF6DA7E97E74FF0CF
:10173000000CDAE7BCF1000F01D00136EFE70298A8
:1017400002360028EBD10098CDE906310AF0DAFE26
:10175000DDE906310644E2E7631BB3F5806F97D2FB
:1017600045B9A6F10804E018AEE600BF70D300004A
:1017700094EB0000029A28609B082B709DF81030B3
:10178000C2B1EB7085F80290B9F1000F05D008A83E
:101790000022C5F1010C97420ED1C5F101030DF1F4
:1017A00020084FF0000A01930DF1300B574512D17C
:1017B000601B89E66B70E5E710F8013B190608D558
:1017C00004EB0C0EB64503F07F033FF67BAE04F846
:1017D000013B0132DFE7B9F1000F03D098F9002097
:1017E000002A17DB029BD3B11AF80B2004F8012B57
:1017F0000022019B98182044B0423FF663AE98F84F
:10180000000004F8010B0099039220460AF08AFEBA
:10181000039A14440AF1010A08F10108C6E798F88E
:10182000002055F822300093029B45F822300098A2
:101830000AF068FE421CDCE76FF00D0044E600BFD2
:101840002DE9F04F95B000AF0446D7F878B0BB61F2
:10185000CBF3C0037A623B61396251B903784678B1
:10186000807800EB830020443B6A9E421AD8031B19
:101870003B6294F802A0E3787B615646BAF1000F10
:1018800002D01BF0010F17D17B695BBB7B6A1BB1D8
:10189000BA69396A204698473D6A28465437BD469A
:1018A000BDE8F08F451C28460AF02CFE3B6A01304B
:1018B000013328443B62D7E794F800806368FB61FA
:1018C0007B6A4FEA8802FA6004EB8808002B40F03C
:1018D00001813D6AC1460AEB080300264B454ED103
:1018E000D04413E01BF0020FD0D094F800804FEAF0
:1018F0008803FB606368FB617B6A04EB8808002B4C
:1019000078D13D6ABAF1000F4ED156461BF0050F53
:101910000CBF022301237B627B6908EB430A0BF0B7
:1019200002033B62D045B8D018F8021B18F8013CFE
:1019300054F82390AC4B994502D3AC4B994539D31D
:101940003B69002B43D0F86909F0F3FC00283ED036
:10195000E9468AB06A46A64B5361FB69C2E9063183
:101960004FF400731384A34B42F8103FA2480023A6
:101970004FF4125101F0CEF8023DCD46D2E719F8EE
:10198000012B7B6254F822000AF0BCFDFA6F7B6ADF
:1019900001303AB1D7F8802096423EBFFA6F22F864
:1019A00016000136054499E71BF004061CBF7E6A49
:1019B000D044ABE73B6923B1F86909F0BAFC0028D1
:1019C000C6D11BF0010F05D17B6AED1AAAE73B6A6D
:1019D000002BA7D048460AF095FDFB6F43B1D7F81E
:1019E00080309E423FBFFA6F431C22F8163001360A
:1019F000054497E7BAF1000F71D01BF0040671D0CF
:101A0000D146002607F14000524641460AF08AFDC1
:101A10007B695B00BB607B69D04408EB43037B615F
:101A20000BF002037B607B6998455DD12378FB61F5
:101A300063781BF0020F06EB03020CBF4FEA59015B
:101A400000211BF0010FD2B240F09D801BF0040F6B
:101A500014BF4846002094F802B094F803803B611C
:101A60006270A070E170BA69F9687B6A2046984795
:101A7000051EFFF612AFFB6923703B69637084F8A3
:101A80000380BA697B6A84F802B0494607F14000D6
:101A90009847B0F10008C0F2A3803B6ABA69786940
:101AA000A3EB0A01FB68C91ABB68C91A7B6A98478D
:101AB0000028C0F29780A84408EB00054FF0000B07
:101AC00007F1300AB34560D30021BA697B6A084642
:101AD0009847E2E64FF0000907F1300094E75646D8
:101AE000D14695E7B14693E718F8021B3E4A18F82D
:101AF000015C54F82530934202D33C4A93421CD3F4
:101B00003B6923B1F86909F014FC00288BD17B688C
:101B1000F3B909F1280207F12800024409F1010391
:101B200002F8101C07F1500252FA83F309F102097E
:101B30005FFA89F903F8105C75E73B692BB1F86926
:101B400009F0F7FB00287FF46EAF1BF0010F09D0FE
:101B500006F1280207F12801731C561806F8205CCC
:101B6000DEB260E71BF0040F3FF45DAF09F128021D
:101B700007F1280109F1010302EB010909F8105CE2
:101B80005FFA83F94FE7002065E71BF80A3087F812
:101B90002F3054F82390FB6FFBB133F81B80BA69E8
:101BA0007B6A012107F12F00984700281ADB0544C2
:101BB000B8F1000F06D148460AF0A4FC00F1010874
:101BC0001FFA88F8BA697B6A414648469847002858
:101BD00008DB05440BF1010B74E7D7F87C80DEE7E6
:101BE00045465AE6054658E670D3000094EB0000DF
:101BF00078DB000004000001ACD60000014B186047
:101C0000704700BFB000002030B587B00025CDE997
:101C100003010446009503A90548059500F018F94D
:101C2000DDE904309842B8BF255407B030BD00BF8D
:101C300081B300002DE9F047058B04462807904644
:101C400011D4022905F0070540F0CD80204609F0A7
:101C5000AEFD78B10138218B042811D8DFE800F0FF
:101C6000C3106D85950001290CBF45F0100545F0A6
:101C70002005258388F31188BFF36F8FBDE8F087B7
:101C800001F0070AAA4500F0A6800027B9463E46A3
:101C9000A368002B00F0BD8041F00801218388F388
:101CA0001188BFF36F8FA168002900F0BB800D6819
:101CB000002900F0B780D1F8048033465246204610
:101CC000C047002D76D02B6829461D46F0E701F06D
:101CD00007035A1F012A1BD8002221F00701062BF7
:101CE000276889B2C4E9002209D13B4603E0628B30
:101CF000013262831B68002BF9D141F0020121837C
:101D0000204609F054FD00287BD041F0200177E007
:101D1000042B0AD121F0070189B22183204609F062
:101D200046FD10B141F020012183218B01F0070A0B
:101D3000AA4550D00027B946AAE7236921F0070138
:101D400041F00601062DD3F8009021832DD1B9F181
:101D5000000F40D041F00801218388F31188BFF3C0
:101D60006F8F3A492046C84729E021F007012369CF
:101D700041F0040189B2042DD3F804902183E6D008
:101D800000273E464FF0040A82E721F0070123694D
:101D900041F0050189B2052DD3F808902183D6D0F2
:101DA00000273E464FF0050A72E700273E464FF0F7
:101DB000060A6DE72B4687E7B9F1000FD1D14FF046
:101DC0002003EFF3118883F31288BFF36F8F238B07
:101DD00023F008032383258BEA062ED525F0100374
:101DE000238305F007056669218B002EBFF66FAFD0
:101DF00000232768C4E9003321F0070141F0010105
:101E00002183218B01F0070AAA454FF000097FF4D6
:101E10003FAF002F9BD041F00801218388F3118848
:101E2000BFF36F8F002FC7D03D6839463346524607
:101E3000204609F0E8FC2F46F4E7AB067FF51AAF21
:101E400025F02003238305F00705FFE633B80000E3
:101E50002DE9F04F814695B08B4617461C4600256C
:101E6000387808B9284658E37B1C2528039306D008
:101E70005946C8470028C0F250830135FBE11822BB
:101E800000210EA80AF059FB7B78252B7DD000237A
:101E9000781C98469E469C461E46014610F8012B2B
:101EA0002B2A00F0A18000F29880202A00F09F8069
:101EB000232A00F09F802BB19DF8403043F040036F
:101EC0008DF84030B8F1000F05D09DF8403043F058
:101ED00020038DF84030BEF1000F05D09DF8403052
:101EE00043F010038DF84030BCF1000F05D09DF891
:101EF000403043F008038DF840302EB19DF840305B
:101F000043F004038DF840309DF8403003F0440066
:101F1000442803D16FF386138DF840309DF840308C
:101F20002A2A43F080038DF840307FD19DF841206C
:101F300042F001024B1C8DF841201A782E2A9DF8A0
:101F400041200CBF0121002161F341028DF84120A5
:101F500078D15A782A2A6ED0013300224FF00A0C29
:101F6000194611F8010BA0F13006092E40F29580B8
:101F70009DF840101292C1F3400040EAD2700A4628
:101F800060F341028DF840205CE0BA1C03928DF8AA
:101F900043309DF84130DA0740F12E8154F8048B2C
:101FA000B8F1000F07DA9DF8402042F004028DF8E6
:101FB0004020C8F100085E0740F1278154F804ABC7
:101FC000BAF1000F80F226819DF841306FF3410392
:101FD0008DF841304FF0FF3A1CE12D2A0DD0302A08
:101FE0007FF469AF012358E74FF0010C55E74FF03C
:101FF000010E52E74FF001084FE701264DE70EFBB7
:102000000262303A0346184610F8016BA6F1300C14
:10201000BCF1090FF3D999428FD09DF8401011926D
:10202000D20F62F341018DF8401086E70B46002283
:102030004FF00A0EE7E79DF8412042F004028DF8C8
:10204000412002331A786C2A47D02BD8682A31D025
:102050006A2A4BD04C2A51D01A4612F8013B0392FF
:10206000782B9DF841208DF8433000F2BE806D2B17
:1020700051D8692B00F2B980572B67D8412B03D078
:10208000453B022B00F2B1809DF84230042262F3FE
:1020900002038DF84230012373E00CFB0202303A58
:1020A0000B465DE7742A25D07A2AD5D19DF84120C8
:1020B00006210CE05A78682A9DF8412006D10121BA
:1020C00061F3C6028DF841200233C5E7022161F3B6
:1020D000C6028DF841200133BEE75A786C2A9DF87C
:1020E000412001D10421EBE70321F0E79DF84120D5
:1020F0000521ECE79DF841200721E8E7BDF84020E5
:1021000022F4F04222F0020242F4804242F0020243
:10211000ADF84020DFE76E3BD9B201238B4040F29F
:1021200082410B4237D113F0240F51D1D8075CD52F
:102130009DF84230032161F302038DF8423002F032
:102140007803A3F140014B424B411AE0A3F158013F
:10215000C9B2012000FA01F111F4624F94D140F6A6
:10216000010631421DD111F4043F3ED09DF84230AA
:1021700060F3020302F07802402A8DF8423034D036
:1021800000239DF84020C2F340010B4363F341025A
:102190008DF84020FDE69DF84230022161F30203F4
:1021A000E8E79DF84210022002F0780260F3020195
:1021B000402A8DF8421002BF9DF8401041F0010105
:1021C0008DF84010632BDBD1131E18BF0123D8E715
:1021D0009DF84230032161F3020312F0780F8DF86D
:1021E000423014BF01230023CBE79DF8403043F079
:1021F00001038DF84030C3E79DF94020002AB4BFA9
:10220000DDF844804FF0FF38D5E698077FF5E2AE61
:10221000DDF848A09DF841100023CDE911339DF869
:10222000423003F00703012BC1F3C30133D1CB1EAE
:10223000042B04D8DFE803F021464621210023685F
:1022400001294FEAE372CDE90E321CD19DF93830F5
:10225000DA17CDE90E3204349DF8403013F003064E
:1022600050D0039B3A465946484609F000FC0028E6
:10227000C0F253810544039FF2E554F8043BDA179A
:10228000CDE90E32E8E70229E5D11AB243F3C033B3
:10229000CDE90E23DFE7022B24D1CB1E042B04D87B
:1022A000DFE803F0181010181800012954F8043B57
:1022B0004FF0000214D00229CDE90E32CCD19BB2EE
:1022C0000E93C9E7073424F00704F4E80223CDE9AC
:1022D0000E23C1E754F8043B0E9300230F93BBE792
:1022E000DBB2CDE7042B08D1073424F00704D4E98E
:1022F00000230834CDE90E23AEE7032BACD154F80C
:10230000043BDDE79DF843007828B4D862281CD848
:1023100025283FF4ADAD5828ADD10DF1360300931B
:10232000DDE90E0108AB10AA09F05BFBBAF1000F62
:10233000074680F29A80002F9DD00DF13603D81BFE
:10234000002E00F0C1800130BEE06338152892D81D
:1023500001A252F820F000BF2D2400003F2400000D
:102360007722000077220000772200007722000009
:102370003F2400007722000077220000772200002F
:1023800077220000CD240000652400008B2400008B
:102390007722000077220000B1230000772200009E
:1023A00065240000772200007722000065240000E9
:1023B000BAF1000F0E9F35DB514638460AF0A9F8F6
:1023C00007EB000A002F3FF456AF00269DF842307D
:1023D00013F01002059200F0938002305B06119A10
:1023E00048BF129B0492104448BFC018B8F1000FB8
:1023F00040F3A0809DF84020A8EB0008C2F38003C2
:102400005007069300F19680510640F189803EB155
:1024100059463046C84700287FDB069B01351E46DB
:1024200030227EE038460AF06DF8C9E70E9B8DF841
:102430002030002608AF0DF1210A0120C6E7190758
:102440005CBFC3F300135E01DDE90E2348BF2B26FA
:10245000002BBFF662AF524263EB4303CDE90E237C
:102460002D265AE7002658E700269DF840200DF15A
:102470003603DB1B6FF386129A458DF840207FF6FA
:102480005AAFAAEB0303119355E70E9890B30DF1E1
:102490003603009310AA08AB002109F0A2FABDF898
:1024A000423003F0EF0343F4F04343F01003BAF17A
:1024B000000F0746ADF84230D6DA00283FF4DBAE15
:1024C0000DF13603181A00269A467FE70E9B07295E
:1024D0003FF6D1AEDFE801F00C04060C08080C0C46
:1024E0001D70C8E61D80C6E6EA17C3E90052C2E6C1
:1024F0001D60C0E62E4F064607F1050A052065E778
:102500001A0748BF013069E70793104606925946FB
:10251000C8470028DDE9062304DA15B0BDE8F08FCE
:10252000202243461946002903F1FF33ECDC4544E1
:102530006D1A98462EB159463046C8470028ECDB44
:1025400001359DF84230DA0601D41B0705D55946FE
:102550003020C8470028E0DB0135059B33B19DF8EA
:1025600043005946C8470028D7DB0135049E2E4456
:1025700005E059463020C8470028CEDB0135731BE3
:10258000002BF6DC53463A465946484609F06FFAA6
:102590000028C2DB0544A844A8EB0503002B7FF705
:1025A0006AAE59462020C8470028B6DB0135F3E75C
:1025B0002CDC000008B504464FF02002EFF3118335
:1025C00082F31288BFF36F8F05F0ECF8204603F01A
:1025D00015F8034808F0E7FE02F0C0F9FCE700BF79
:1025E00032DC000005F026B92DE9F047DFF858800D
:1025F000044607464FF0010914B93846BDE8F08794
:1026000094FAA4F5B5FA85F509FA05F32E0108EB5D
:1026100005156FEA030A24EA03042B7B002BEBD099
:1026200058F806301B694BB94644042273682846A3
:10263000196807EA0A0700F059FADDE728469847C3
:102640000028D9D1F0E700BF44D7000030B51049C9
:10265000104889B000220AF0E3FD0F4D0F49002217
:102660000023CDE9062300240E23CDE90334CDE970
:1026700001440B4B00944FF44072284607F04EFB88
:10268000084928460AF057FB204609B030BD00BF74
:10269000A9260000E8080020600400200022002095
:1026A000992900005BDC0000014807F0C5BC00BFB1
:1026B000180300202DE9F04780461F480F4609F017
:1026C000FEFC0646002830D000252846BDE8F087ED
:1026D000237B73B12368DB680BB1204698472368DE
:1026E0001B69D3B9636804221968204600F0FEF91B
:1026F000013610344C45EBD3B8F1000FE5D0002D76
:10270000E2D02846FFF770FF0546002FF7D00021E2
:102710004FF4A47008F0F2F8F1E72046984700283B
:10272000E0D00AFA06F31D43E2E7044CDFF810900C
:1027300005464FF0010ADDE7500C002044D70000A9
:1027400054D70000014B53F8200070478CD700008D
:1027500008B5034608462BB1044A136000F078FC24
:10276000002008BD6FF01500FBE700BFB40000209B
:1027700010B5044C237813B9034807F05DFC01231E
:10278000237010BDA22100201803002010B50446BC
:10279000084809F094FC5CB1BFF35B8F064B53E82B
:1027A000001F013943E80012002AF8D1BFF35B8F04
:1027B00010BD00BF480C00204C0C00200020064B30
:1027C000BFF35B8F014653E8000F43E80012002A75
:1027D000F9D1BFF35B8F7047480C002070B5FFF74D
:1027E000EDFF084C084E0546B44200D370BD636847
:1027F0005B792BB123685B6813B129462046984763
:102800001034F1E744D7000054D7000010B5044C51
:102810000449204609F0E4FA034B1C6010BD00BFD8
:102820005C02002078D70000400C0020084A0948CC
:1028300008B500231370084A1360084A4FF400419A
:102840001360FFF785FFBDE80840FFF7DFBF00BF5B
:10285000A3210020BBC00000480C00204C0C00202D
:10286000014600220148002309F0DBBA5C02002087
:10287000014809F074BB00BF5C020020024B014616
:10288000186809F0BEBB00BF400C0020014809F0E9
:10289000F4BB00BF5C02002070B5284B18780028FC
:1028A0004BD0FFF7E5FF054690B1BFF35B8F244B9C
:1028B00053E8001F013943E80012002AF8D1BFF3A2
:1028C0005B8F204C204EB4422DD32846FFF7D6FF15
:1028D0001E4B1F4C1B68002B19DD0AF079FC4FF4CE
:1028E0007A72A0FB020302FB0131C30BD4E9002082
:1028F00043EA41439B1A4FEAD13140F2E93261EB9E
:102900000001934271F1000101D3FFF767FFD4E9A1
:10291000003213F57A7342F10002C4E90032BDE8D7
:102920007040FFF7B3BF63685B7923B12368294622
:102930001B68204698471034C5E770BDA2210020CF
:102940004C0C002044D7000054D70000480C002055
:10295000E008002070B50D4D297861B90120FFF71E
:10296000A9FE0B4C0B4EB44206D3FFF795FF00288F
:10297000FBD101232B7070BD63685B791BB12368A9
:1029800020469B6898471034EDE700BFA321002044
:1029900044D7000054D7000000212DE9F047084635
:1029A000FFF788FE044648B340F267684FF000091D
:1029B00007F0D8FF1A4B186030B11A4B1B68092B6F
:1029C00002DD194807F038FB184FDFF85CA000253E
:1029D00044B12046FFF708FE044618B94FF0FF380F
:1029E0004FF0FF39FFF758FF064628B9B5B9424600
:1029F0004B46504607F040FB3546E9E74FF0FF38BD
:102A00004FF0FF39D4E72B689B691BB100221146B8
:102A1000284698471035BD42F5D3E8E7044DFAE75C
:102A2000440C00204C0C00201803002054D7000058
:102A300044D7000013B5184809F041FB174B1B7829
:102A40007BB14FF02003EFF3118483F31288BFF3BF
:102A50006F8FFFF721FF84F31188BFF36F8F02B0F0
:102A600010BD0F4B1B68002BF9D050B9002200237A
:102A7000CDE900230B484FF40042002308F0B6F9DB
:102A8000EDE70A28EBD107480AF0D6FB064802B06A
:102A9000BDE8104007F0D0BA4C0C0020A321002064
:102AA000440C0020E80800201803002010B5064B55
:102AB0001B68044698472146A060044809F02FFA95
:102AC000BDE81040FFF7B6BFB40000205C02002054
:102AD000044A054B9B1AB1EBD30F34BF52F83100B7
:102AE0000020704784D6000044D70000084BC31A6A
:102AF00010B41B1144680133237143689A71436811
:102B00001960436801225A7110BCFFF731BE00BF43
:102B100044D700002DE9F04F8FB004AFC1F34A282D
:102B2000B8600D4691467B600C0DB8F1000F63D084
:102B3000002607F114034FF0040B4FF00A0AC7F800
:102B40000C80C7E907667E620193CDF808B0CDF826
:102B500000A007F11C03F96832464846FEF770FEF4
:102B6000B0F5006F03461CD36C468AB0D9F8041048
:102B700004AB2648C3E9050140F2FF71D9611A464A
:102B80004FF400711984224B42F8103F214833461C
:102B90004FF41251FFF7BEFFA5462C37BD46BDE8E6
:102BA000F08FC0F30A0804F11700184420F0070062
:102BB00080083B60FFF754FE68F35325044690B14C
:102BC0003B68154AC7E9083600F1100107F1140304
:102BD000F961CDE900A3CDF808B0F96807F11C034D
:102BE0004846FEF72DFE68F353257B68B9682A46F0
:102BF000204609F09AFAD0E704F1170020F0070008
:102C00008008FFF72DFE0446EDE700BF70DC0000F2
:102C100004000001D4D60000FFC000002DE9F04FF1
:102C200087B0DDE91269DDE9105A04460F46934684
:102C30009846A6B31021CDF80090334652460020A6
:102C4000CDF81490FEF726FC014605F11700084464
:102C5000144B039104F007040BF0070BE40020F081
:102C6000070003EA412344EA8B1480081C43FFF762
:102C7000F7FD44EA0554054640B13EB10399CDF84D
:102C80000090334652461030FEF704FC434622467D
:102C90003946284607B0BDE8F04F09F046BA31463C
:102CA000D3E700BF00FE0F000EB403B503AB01462F
:102CB00053F8042B0448019309F05DFA02B05DF863
:102CC00004EB03B0704700BF9FC10000CA0605D4E3
:102CD0008B064CBF02490349FFF7E6BF704700BFB0
:102CE000B0DC0000AFDC00002DE9F04F89B09B465E
:102CF0009DF848300493DDE913930593049B0692F5
:102D0000DDE9157604460D46002B00F0878006F0BD
:102D10000803079309F0F1F906F0020A02460028B9
:102D20004BD086492046FFF7BFFF8046BAF1000F1F
:102D300008D016F0440F42D181492A462046FFF7B9
:102D4000B3FF804406F001035BB17E4B049A7E49D9
:102D500053F822207D4B2046002A08BF1A46FFF771
:102D6000A3FF06F00803002B55D0794B049A79494C
:102D700053F822202046FFF797FF0546069B2BB10C
:102D800075491A462046FFF78FFF0544BBF1000F37
:102D900005D072495A462046FFF786FF0544454450
:102DA000B9F1000F49D1002F4FD1F30700F1C080D6
:102DB00031462046FFF78AFFB4E08046B6E7684B0D
:102DC00018680028BDD0674B4FF47A7E1B68B5FBAE
:102DD000F3F54FF46162B5FBF0F300FB1355B3FB61
:102DE000F2FA0EFB05F502FB1A323C21B5FBF0FCB2
:102DF000B2FBF1F300FB1C5501FB13220EFB05F5A2
:102E00000092B5FBF0F55849CDE901C55246204680
:102E1000FFF74AFF95E706F00805AFE7BBF1010FA2
:102E200006D1B9F1000F64D1002F7BD000250CE052
:102E3000B9F1000FF8D04D485CE04D484D494B4684
:102E4000224608F045FA002F68D0DFF82C91DFF811
:102E50002CA1102F31462046B84628BF4FF010084D
:102E6000FFF734FF4FF0000B5D4545DC059B5146F5
:102E70001A782046FFF718FF4FF0010B1BF0070FE1
:102E800003D149462046FFF70FFFD8453BD9059BA4
:102E9000514613F80B202046FFF706FF0BF1010BFC
:102EA000BBF1100FEAD1364920464FF0000BFFF777
:102EB000FBFE5A46059B9A5CA2F120015F2928BFC0
:102EC0002E2230492046FFF7EFFE0BF1010BBBF13C
:102ED000100F1DD01BF0070F03D149462046FFF706
:102EE000E3FED8455A46E5D849462046FFF7DCFEC2
:102EF000EBE71F48049DA1E749462046FFF7D4FEB3
:102F00000BF1010BB0E720492046FFF7CDFEC5E7E6
:102F1000059BB7EB0807434405939AD1049B002B0C
:102F20007FF443AF204609B0BDE8F04F09F02AB95D
:102F3000064A05492046FFF7B7FE39E7B7DC00002F
:102F4000BBDC00009CD7000068E80000B2DC000099
:102F5000B0D70000E0DC0000E6DC0000EADC0000A6
:102F6000580C0020540C0020C4DC0000D5C1000027
:102F70009FC1000077C1000024DB0000EFDC0000EF
:102F8000F9DC0000FBDC0000F5DC00002DE9F0417D
:102F90000F884B688E6886B005460C469046C7F38E
:102FA00082175BB1134A9B1A43F3CF0100291FDB41
:102FB0002078C0F3C200FFF78BFD034621466088EE
:102FC00051F8102B0097C2F34A22002A01EB0204A9
:102FD000C0F30B1008BF0021CDE90308CDE90114AF
:102FE000002231462846FFF77FFE06B0BDE8F0819B
:102FF0000023E3E784D6000073B542F20F738B42DF
:1030000028BF0B4605680F4A04460521684608F0AC
:10301000D7F963680C495B6806460B22284609F01D
:103020009DF863683246694628465B6809F096F861
:10303000636806495B681B22284609F08FF802B0D6
:1030400070BD00BFA4E600001ADD0000FEDC000039
:10305000074A00210123904206D8064A01B90123FC
:103060001360054B1860704740085B000121F2E7D0
:1030700040420F00540C0020580C0020014B00204F
:1030800019607047700C0020024B034801221A702F
:1030900009F078B8A5210020E0D700000148FFF72B
:1030A000ABBF00BFE0D7000010B5064B18680C4658
:1030B000FFF748FB21460346BDE8104002480F22B7
:1030C000184700BF700C0020E0D70000F8B5074F8C
:1030D0000D4604464618B44201D12846F8BD14F8FE
:1030E000011BBB6801485B689847F4E758D40000AF
:1030F0002DE9F84305464FF02003EFF3118683F3E3
:103100001288BFF36F8F0E4B0E4F1C68DFF83880AC
:103110004FF00C092CB986F31188BFF36F8FBDE80F
:10312000F883D4E90123002D18BF13462BB198F87A
:10313000102009FB02F2B85C98472468EAE700BF58
:103140008C0C0020800C00208C1F002070B5194BC7
:103150001C7CBFF35B8F04F01F0301229A40164BC7
:10316000610903EB8103D04353E8001F01EA000526
:1031700043E80056002EF7D1BFF35B8F0A4213D00D
:103180000E4B0F4D8BB10C236343EA18E85C51786A
:1031900009F0EBF90020FFF7ABFF0C235C432A1981
:1031A00000232B51C2E9013370BD83F31188BFF3B3
:1031B0006F8FEFE78C1F0020940C00206BC5000080
:1031C000800C00202DE9F041354B07461D7C4FF067
:1031D0002003EFF3118883F31288BFF36F8F0C2461
:1031E000304B314E6C431A19195D00294CD007CA77
:1031F00006EB040C8CE8070000221A5588F31188AE
:10320000BFF36F8F0C236B43F218F05C002839D0AA
:103210007B1C10D0D2F808C0244C254A4FF4004043
:103220000021ECFB004100232046FDF769FF01214E
:10323000381A04F07BFA07F0A7FA0120FFF758FFCD
:10324000BFF35B8F1B4B6A0903EB820305F01F0181
:1032500001228A4053E8000F104343E8000100298F
:10326000F8D1BFF35B8F144B3BB10C2303FB05F08C
:103270003318305C597809F06CF9FFF767FF07F0F5
:1032800097FA0120BDE8F0810146284600F016F8C3
:103290000028B3D007C8344484E80700AEE700BF75
:1032A0008C1F0020740C0020800C00203F420F0077
:1032B00040420F00940C002053C500002DE9F04F50
:1032C00085B00E4603A900F043F81E4B039DD3F8CA
:1032D00000A0DFF87480431E1BB203EB43030446D7
:1032E00005EB83054FF400474FF0000B24B9A146CE
:1032F000484605B0BDE8F08F6868144AC446594690
:10330000E0FB07C100236046FDF7FAFE0190A868C4
:103310000E4AC4465946E0FB07C100236046FDF74C
:10332000EFFEBAF1FF3FA94601D0824505D9731CD3
:10333000DED0019B1844B042DAD9013CA4B20C3D66
:10334000D4E700BFB80000203F420F0040420F000A
:1033500008B9024B0B600020704700BFF0D7000097
:10336000F0B40C4B0C4E5F6A0C4BB34203D36FF0BE
:103370008500F0BC70475D68BD4209D31C693CB153
:1033800095F802C00579AC4502D12346F0BC184738
:103390002433EAE7980C00205C0400201404002089
:1033A0002DE9F047134CDFF85080DFF850900546C8
:1033B0000E461746444503D36FF08500BDE8F087FD
:1033C0006268D9F824309A4212D3A36983B1907805
:1033D0002979884205D13A4631462846BDE8F0476A
:1033E00018475279012A03D13A4631462846984770
:1033F0002434DFE7140400205C040020980C002033
:103400002DE9F0410B4CDFF8308005460E4617469B
:10341000444502D36FF0850009E063690BB9243499
:10342000F6E73A463146284698470028F7D1BDE8E6
:10343000F08100BF140400205C0400200248082230
:10344000002109F07AB800BF530D002070B50B4B76
:103450000B4CA34201D3002070BD196A1E7F0022CD
:103460000439D5B2AE4201D82433F2E7013211F863
:1034700032508542F5D10120EEE700BF1404002050
:103480005C04002008B509480378C3F341130A33EC
:1034900050F823303BB100F1080200F110019847C9
:1034A000C043C00F08BD1846FCE700BF980C0020C1
:1034B0007FB5084B0593022304930748002304AA11
:1034C0004FF48251FFF726FB4FF0FF3007B05DF855
:1034D00004FB00BF63DD000024D7000073B5C4B255
:1034E00063060D468DF8074007D02046FFF7AEFF74
:1034F00078B10D4B93F8BA0058B10B4E204655B138
:1035000002F07EFFF3691BB10DF107010820984717
:10351000012002B070BD02F0ADFFF369002BF7D0BF
:103520000DF107010920F2E7980C002080B500AFEB
:1035300088B06A46074BC2E90530032342F8103FC2
:10354000054800234FF4C251FFF7E4FA0020BD46BE
:1035500080BD00BF88DD000024D7000004282DE9CD
:10356000F74FDFF89C9004460F4615D001282FD165
:10357000DFF8908098F8B93053B300F0D1FE224DB7
:103580004D4522D22A6A4FF0000A2B7F5FFA8AF655
:10359000B34204D82435F3E7FFF750FFE8E702EB26
:1035A000C6060192307909F026F88346307908F092
:1035B00020FED8F8C430019A23EA0003BBF1000FC3
:1035C000C8F8C4300AF1010ADFDA002388F8B930FC
:1035D0000D4D4D4508D30B4B1B6A6BB13946204648
:1035E00003B0BDE8F04F1847EB681BB13A462146DF
:1035F000284698472435ECE703B0BDE8F08F00BFBC
:103600005C040020980C002014040020F8B500AFE2
:10361000054608F0F0FF10F1780F044613D090B182
:103620006E4688B06A460E4BC2E90535032342F860
:10363000103F0C4800234FF4C251FFF76BFAB54618
:103640002046BD46F8BD284608F0D3FD064AD2F80C
:10365000C43023EA0003C2F8C4300024F0E700BFFE
:10366000A3DD000024D70000980C0020F0B583B043
:1036700000AF04468078387023796279274D43EA99
:1036800002237B80E37803F003033B7108F0B1FD74
:10369000D5F8C430184206460CD0A478204600F075
:1036A00021FE2046FFF7B2FF09F03FFB10B996203C
:1036B00007F03EF9384602F06FFE10F1780F03462E
:1036C000387814D09BB16C4688B06A46144BC2E976
:1036D0000530032342F8103F124800234FF4C25133
:1036E000FFF718FA0020A5460C37BD46F0BD02F0E2
:1036F000FDFE10F1780F08D038B16C4688B03B78E9
:103700006A460949C2E90513E3E7D5F8C430012048
:10371000334385F8B900C5F8C430E5E7980C0020BC
:10372000C5DD000024D70000E9DD00002DE9F047E9
:10373000A34EB36904460F461546FBB9237803F040
:103740001F03012B00F09D80022B00F0048133BB8E
:1037500094F900002A686178002834DA062912D02A
:1037600008292BD0D9B901231370517096F8C330B2
:103770005B0043F00103137002232AE198470028FD
:10378000DCD100200DE06288100A011F0129844667
:1037900005D9072803D8716AD2B20C781CB96FF02A
:1037A0001500BDE8F0874E78664503D19A4200F0D7
:1037B0000B8101332144F0E70B780AE196F8BA3027
:1037C0001370012305E101390829E8D801A353F852
:1037D00021F000BF6D3800009F3700007B380000EB
:1037E0009F370000F93700009F3700009F37000027
:1037F0009F37000005380000A07802F091FD0028F6
:10380000BFD0CCE76388756A63BBFFF717FE638898
:1038100086F8BA30F369002BB3D06A490320984781
:10382000AFE76B78042B10D0052B11D0022B04D1FD
:103830006F796388BB4208BF01202B781D442B7829
:10384000002BEED10028AAD0DFE795F80380F4E73B
:103850006388BB42F1D1B8F1000FEED12846FFF7E3
:1038600005FFEAE7FF270020B846E8E76388012B59
:1038700095D1002386F8C33083E76388012B8ED16E
:10388000F8E796F8BA30D5F800C0002B87D0756AF3
:10389000A38894F804E02A46107800283FF47FAF0C
:1038A0005178022904D192F80480F04500F2938007
:1038B0000244F1E78CF800208CF80120396060E7C1
:1038C000154494E00B2A7FF46AAF00274FF0FF08FD
:1038D000C146BA4606E06B78042B0FD0052B21D0E9
:1038E0002B781D442B78002BF5D1F36913B1514689
:1038F00007209847002F7FF444AF50E795F80280E7
:10390000A38895F803909845EAD163889945E7D153
:10391000B8F1070F1CD806EB0803AA4683F8BB9042
:103920000127DDE7A3884345DAD1A3784B450AD0C8
:10393000AF78384600F0D6FC3846FFF767FEB0FA9D
:1039400080F77F09CCE72846FFF790FE0746C7E7D8
:10395000AA460027C4E794F900206378002A18DA01
:10396000002B7FF41CAF24792D6863060AD0204613
:10397000FFF76CFD00283FF412AF96F8BA30002B29
:103980003FF40DAF2946204602F094FD00236B70F2
:10399000F2E6012B08D0032B7FF401AF6388002BE4
:1039A0007FF4FDAE012103E0618800297FF4F7AECA
:1039B000A088FFF793FD00287FF4E3AEEFE600BF99
:1039C000980C0020520D0020022829607FF4F4AEEC
:1039D0004B883B60D5E694F9000062780028BFF67A
:1039E00071AF002A3FF466AF0A2A7FF4D8AE2A7876
:1039F000002A3FF4D4AE697804297FF461AFA97836
:103A00008B427FF45DAF072B96BF9B19002393F881
:103A1000BB308CF80030D4E613B5134C237DCBB902
:103A2000E268A168019201AB802008F0F0FB019AE6
:103A3000A3681344A360E3689B1AE36043B93AB1F7
:103A40002369E2889A4203DD9B0601D10123237595
:103A500002B010BD00231A4619468020237502B01B
:103A6000BDE8104002F06CBD980C002070B58AB023
:103A700000230D4601930646002868D1002940D155
:103A800008220B460DEB020108F0CEFD002804DAF7
:103A9000802002F0B5FC0AB070BD324C029A226060
:103AA000039A626004F13802A2609DF90820BDF813
:103AB0000E302575002AC4E9035515DB802B0FD97C
:103AC000294B09930223089328482B4608AA4FF450
:103AD0008251FFF71FF8802002F092FC2846D8E7B9
:103AE00013B1C4E90333D6E7FFF7CCFC0028CFD0ED
:103AF000E28823699A42D4BFE260E360FFF78CFF5B
:103B0000C9E7184CD4E90212002A01AB05DC0246D1
:103B100008F08AFD0028BEDABAE708F085FD002823
:103B200004DA802002F06CFC3046B2E7019AA36808
:103B30001344A360E3689B1AE360002BABD104F14C
:103B40003803A360FFF79EFC0028D7D1A0E78028A8
:103B5000A1D1044BDA68002AD0D11B7D002BCDD136
:103B600099E700BF980C00200ADE000024D700006F
:103B7000054B064A9A62064ADA62064A1A63064A00
:103B800058629A6100207047980C00202D37000081
:103B90006133000001340000A133000010B5094B6F
:103BA00093F8B84054B900F0D9F818B9BDE81040FE
:103BB000FFF77EBCFFF7DCFF204610BD6FF07700FB
:103BC000FBE700BF980C00202DE9F34104463B4D74
:103BD0003B484FF0FF324FF0FF3306F043F995F8C2
:103BE000B860002E67D137482C62E86102F01CFEF5
:103BF00002F064FB041E42DB00F0B6FB041E3EDB59
:103C000040236846ADF802308DF804608DF80060FE
:103C100002F0C2FB041E32DB802768468DF800707C
:103C200002F0BAFB041E2ADB2749304602F0E8FD09
:103C3000041E24DB2449384602F0E2FD041E1EDB8C
:103C4000224CDFF88C80444520D3002002F04EFC4B
:103C5000041E14DBD5F8C430802043F00103C5F8FE
:103C6000C43002F043FC041E09DBD5F8C43043F431
:103C70008033C5F8C430012385F8B83000241048DB
:103C800006F06AF9204602B0BDE8F081276A0026F6
:103C9000227FF3B29A4201D82434D4E707EBC3025F
:103CA00057F83310107902F0ABFD01360028EFD041
:103CB0004FF0FF34E3E76FF07704E0E7980C002063
:103CC000040300205D3500006D3A0000140400205C
:103CD0005C04002030B51F4B8BB005AA03F1100522
:103CE00018685968144603C40833AB422246F7D11A
:103CF0001B7823701022002101A808F01EFC12225C
:103D00000021154808F019FC102101A808F07FFDDA
:103D100000281BDD0828B8BF0820093801AB0E4970
:103D20001A18002012F8013F0AAC04EB131403F038
:103D30000F0328336B44013014F8144C13F8143C6F
:103D40000C7008284B7001F10201EBD102480BB056
:103D500030BD00BF2EDE0000A62100202DE9F04F6F
:103D6000834C8BB000AF00264FF0011BB2463546A6
:103D7000B046237843B97F4B02349C42F3D17C4850
:103D80002C37BD46BDE8F08F6378052B05D8DFE8FA
:103D900003F0A60403A6073FA04623781C44E8E7E7
:103DA000E378002BF9D1A37843B30AF1010A5FFA53
:103DB0008AFAF2E76A68944223D024359D42F9D307
:103DC0006D4688B06A466C4BC2E90534032342F85D
:103DD000103F6A4800234FF4C251FEF79BFEAD46E8
:103DE000674B7B6202233B626448002307F1200299
:103DF0004FF48251FEF78EFE0020C1E7614D624B09
:103E0000DCE7AB68002BD0D0514620469847CCE782
:103E1000002D62D15D4B7B6202233B625748002339
:103E200007F120024FF48251FEF774FED8E7296AA9
:103E3000A07801EBC2010B79984205D001322B7FAB
:103E40009A42F4D3524BE6E74FF00109E07800F0D4
:103E500003003875207994F805C040EA0C20788278
:103E600094F9020000285FFA89F328DA09F11000BA
:103E70004FF0010C0CFA00F010EA0B0F27D143F0C1
:103E80008000387407F11000C7E90131FA6002F0D0
:103E900059FAD7E902127B68C8B93A7CA27012F0CD
:103EA000800F18BF10330A7118BFDBB24FF0010248
:103EB00014BF9A4002FA09F24BEA020B6DE70120A7
:103EC00000FA09F010EA0B0F01D11846D9E709F101
:103ED0000109B9F1100FB9D1B0E70022AFE7032E05
:103EE0002AD1FFF7F7FE8146A8B108F00BFBF86076
:103EF00088B1284808F006FBFA68824217D0264BA2
:103F00007B6202233B621D48002307F120024FF42D
:103F10008251FEF7FFFD23786FF00201E218091BC2
:103F200004EB5303D1420ED50136F6B235E74946CC
:103F3000A01C08F0F7FAEEE7002EECD1B8F1000F64
:103F40000AD1164B67E74FF0000002F8010C13F896
:103F5000010902F8020DE5E7A4EB080388F8023036
:103F6000C3F3072388F8033088F804A0DCE700BF18
:103F700038030020120400203FDE00001CD70000A0
:103F800025DF0000140400205C0400205FDE000038
:103F9000A0DE00002EDE0000BDDE000008DF000015
:103FA00010B5094B00211A461C78844204D15C6884
:103FB00014B102EB811010BD0131042903F140035B
:103FC000F2D10020F7E700BF600D00202DE9F0439B
:103FD00083B050F8283C10F82C5C103300AF044636
:103FE00011D1036950F8202C13F002064ED00ABB01
:103FF00013F0040304D11A461946284608F007F9BD
:10400000002344F8283C54F8283C10330ED054F8D0
:10401000186C5EB154F81C8C54F8149C08F085FEA2
:1040200000286FD03D48214608F075FF0C37BD468B
:10403000BDE8F08350F8241C3B1D284608F0E7F843
:1040400098B16E4688B06A46354BD561C2E90530F5
:10405000042342F8103F334800234FF40151FEF788
:1040600059FDB5466FF01503CBE77A6854F8243C48
:10407000134444F8243C54F8203C9B1A44F8203C58
:1040800054F81C3C134444F81C3CBCE750F8241C76
:104090003B1D284602F0F6FA88B1E84688B06A4629
:1040A0001F4BD561C2E90530042342F8103F1D487B
:1040B00033464FF40151FEF72DFDC546D2E77E6829
:1040C00054F8243C334444F8243C54F8203C9B1BD3
:1040D00044F8203C54F81C3C334444F81C3C002E6B
:1040E0008ED0284602F0A6FBB6FBF0F303FB106669
:1040F000002E85D154F8203C002B81D0284602F0B8
:1041000027FB80E744F8180CA4F1100005F094FF99
:104110004A4641462846B04788E700BF20090020AC
:1041200053DF00003CD7000070B54B1E012B88B058
:1041300006460D4618D8FFF733FF0446B0B9012DE7
:1041400012D101AB012202A9304602F09BFA019B79
:10415000002BF6D10F4A0792022206920E4806AAB9
:104160004FF48251FEF7D6FC08B070BD08F0DDFDBB
:1041700004F12C0108B1012D05D1084608B0BDE8B5
:104180007040FFF723BF054808B0BDE8704008F055
:10419000C2BE00BF70DF00003CD700002009002035
:1041A0002DE9F04F8BB000AF0546B9601646FB60B5
:1041B00008F075F8002840F086804FF02003EFF3F8
:1041C000118283F31288BFF36F8FDFF800A17A604A
:1041D000814600230022504605F04EFF0346E8B911
:1041E000DFF8ECB04FEA89180BEB8919D9F80440D5
:1041F00014F1100F31D16E4688B06A463549C2E9D4
:104200000515032142F8101F33484FF4C251FEF741
:1042100081FCB546504605F00FFF14E009F1010995
:10422000B9F1040F0AF1400AD3D12C4B7B6202236F
:104230003B622948002307F120024FF482516FF0BE
:104240000B04FEF767FC7B6883F31188BFF36F8F65
:1042500020462C37BD46BDE8F08F3B6DC9F81430C1
:10426000FB68BA68C9F83C307B6DC9F81000C9F822
:10427000183028466FF00F03C9E902260BF80850E2
:10428000C9F8043002F0D6FA68B1284602F0D2FA32
:10429000B6FBF0F303FB10662EB1D9F83C3043F0C7
:1042A0000403C9F83C30FB689B0707D508F12C01D3
:1042B0000B48594408F02FFE0024C4E7284602F0BA
:1042C00047FA0446BFE76FF00F04C1E77C0D0020FA
:1042D000600D0020A5DF00003CD700008ADF000051
:1042E0002009002010B54FF02003EFF3118483F371
:1042F0001288BFF36F8FFFF753FE50B1436810333E
:1043000007D16FF08B03436000F12C01034808F0E4
:1043100002FE84F31188BFF36F8F10BD20090020C7
:1043200070B50F4C04254FF02003EFF3118683F393
:104330001288BFF36F8F6368103307D16FF08B0360
:104340000848636004F12C0108F0E5FD86F311884C
:10435000BFF36F8F013D04F14004E4D170BD00BF95
:10436000600D00202009002070B50A4C0A4E00257F
:104370003146204608F0B2FD0122A4F1100011469A
:10438000013508F06EFD042D04F14004F0D1002049
:1043900070BD00BF8C0D0020CD3F000070B50446FD
:1043A0000E4601791248154607F055FFE8B194F919
:1043B00000206378002A11DB202B04D0222B09D0A7
:1043C0006FF0850005E029680722103808F0AAF888
:1043D000002070BD638800F8093CF9E7212BEFD17C
:1043E0001038072328603360F2E76FF01200F0E71F
:1043F000600E002008B50146034807F03AFF10B1EF
:10440000012300F8073C08BD600E0020016901236C
:1044100081F84B300B6833B191F849301BB1024839
:10442000083108F078BD7047200900200169012398
:1044300081F84A300B6833B191F848301BB102481B
:10444000083108F068BD7047200900200D4A034676
:104450000021A0F848101068C3F894009088927961
:10446000A3F8980083F89A2083F89C1083F89B1097
:10447000A3F89E1083F8A010402203F14C0008F02E
:104480005CB800BF60D7000038B5056995F89E009C
:1044900088B195F89F307BB985F84830D5F8900001
:1044A00007F030FB002204460023044805F1180100
:1044B00005F038FF204638BD0020FCE72009002029
:1044C00013B504698DF8071094F89E30A3B194F8E1
:1044D0009F308BB90DF10701D4F8900084F8483073
:1044E000012207F00FFB014640B10D4821220023B5
:1044F00004F1180105F016FF02B010BDD4F89000C9
:10450000012207F053FB0028F6D0D4F890000122D6
:104510000DF1070107F0F6FA0028E6D1ECE700BF3D
:1045200020090020F0B5D0F88C305B681B6A1F7D35
:1045300085B00546384607F0B2FE0646E0B9A86FDA
:104540004FF4806203A907F0FCFA0446A0B1830689
:10455000A5F1180308BF00F1FF3485F8306001931E
:10456000064B03990093224602233846FFF718FEB4
:10457000A86F214607F005FB05B0F0BD814500009E
:1045800010B5012382F84830136814463BB192F805
:104590004A3023B10A4802F1080108F0BCFCD4F803
:1045A00090309A681B699A4208D004F118010448B7
:1045B000BDE810400022002305F0B4BE10BD00BFCE
:1045C0002009002010B504690023C4F8A8300C4B62
:1045D000C4F8A400596804F1A80269B9C3E900222B
:1045E00004F10800074908F079FC04F118000649B5
:1045F00008F0A2FC002010BD0A605A60F0E700BF7E
:10460000600E0020C9C200002545000030B54FF4FF
:104610000033426805690D4C85B042F2A100CDE936
:104620000103002385F89D30106AADF80C10007965
:104630000A2201A907F0EBFD95F89D3023B901206E
:1046400008F0C8FD013CF7D105B030BDA1860100DE
:1046500073B5144602F14C060A1E05461FDDD4F858
:104660008C00314607F04EFA012384F84930236864
:104670003BB194F84B3023B10E4804F1080108F027
:104680004AFCD4F88C104B684A699A1ACB699B1A79
:104690003F2B04D8012384F8A03002B070BD064B34
:1046A000009301940123402231462846FFF778FD0C
:1046B000F3E700BF200900205146000038B50D4641
:1046C00001461E4807F0BBFD044680B30246691E42
:1046D00052F8A4395B68052929D8DFE801F02028C1
:1046E0000320252914F8061C31B91B6A187BFFF733
:1046F000AFFF012304F8063C14F85C3CBBB901236E
:1047000004F85C3C54F8A43C8BB114F85A3C73B1E7
:10471000A4F19C010A48BDE8384008F0FCBBBDE8A4
:1047200038401046FFF792BE012304F8053C38BD1F
:1047300014F8053C002BFAD00023F6E7600E0020A9
:104740002009002037B5094D0949002400944FF095
:10475000FF334FF48062284605F0ACFD054928463A
:1047600008F0E9FA204603B030BD00BF2009002060
:1047700040250020F5DF0000014806F001BC00BF25
:1047800044D8000038B5044618B90F4B0F485B6891
:1047900098476168B1F5683F0FD0B1F5680F0CD04C
:1047A0000B4DA94209D011F4686107D00948214690
:1047B00008F092FA00232360656038BD2068142257
:1047C00007F0BBFEF8E700BFEC010020FEDF0000B1
:1047D0002C5F5CA96813002008B520B34368B3F5CB
:1047E000683F10D101220368BFF35B8F53E8001FBD
:1047F000002903D143E800200028F7D1BFF35B8FE5
:104800000DD1002008BD094A93420AD000684FF03C
:10481000FF324FF0FF3305F025FB0028F1D00448AC
:10482000F0E70448EEE76FF4E040EBE72C5F5CA9AB
:10483000E98FFFFFEA8FFFFF08B5D8B14368B3F5F2
:10484000683F10D100220368BFF35B8F53E8001F5D
:10485000012903D143E800200028F7D1BFF35B8F83
:104860000BD1002008BD074A934208D0006805F02C
:1048700073FBF6E76FF4E040F4E70348F2E7034820
:10488000F0E700BF2C5F5CA9E98FFFFFEA8FFFFF15
:1048900010B5044618B91D4B1D485B6898476368FE
:1048A000B3F5683F2FD0B3F5680F2CD0194A934267
:1048B00019D1236803BB18484FF0FF324FF0FF3384
:1048C000214605F0CBF908B923681BB90F4B1348F3
:1048D0005B68984720681422002107F02EFE4FF4F1
:1048E0006863636008E0B3F5683F0DD83A2B03D0E6
:1048F00040F6BA629342DED1206808F032FA63686B
:1049000043F03A03636010BD054AF3E7EC01002071
:10491000FEDF00002C5F5CA96813002024E000008B
:104920003A00003A08B5064906484023142208F028
:10493000C5F9BDE808400449044806F093BB00BF30
:10494000680E0020681300204CD8000060D80000DA
:10495000014910220A60704710ED00E072B6404035
:1049600080F31188BFF36F8FBFF34F8F30BF62B6F4
:10497000BFF36F8F704700BF72B6494081F3118853
:10498000BFF34F8F20BF80F3118862B6704700BF1E
:104990002DE9F047814600AF0C4600294CD06E4609
:1049A0008AB0D1E90012A3686D462748A8464FF0A7
:1049B000050AC5E90501C5E9072348F810AF2348F2
:1049C000424600234FF42151FEF7A4F8B546D4E93E
:1049D00003126369AD461E48C5F810A0C5E905017C
:1049E000C5E907231948002342464FF42151FEF739
:1049F00091F8B54688B0E3696D46164AA8464FF06F
:104A0000030AC5E9052348F810AF104800234246C1
:104A10004FF4C251FEF77EF8B546A369AD460E4A83
:104A2000C5F810A0C5E905230848002342464FF405
:104A3000C251FEF76FF8B5462146484604F08CFF98
:104A4000BD46BDE8F08700BF51E00000F4D600008D
:104A500080E00000AFE00000BEE0000040B20028AF
:104A600007DB044A4109012300F01F00834042F89C
:104A70002130704700E100E040B200280CDB430920
:104A8000064900F01F0020330122824041F8232014
:104A9000BFF34F8FBFF36F8F704700BF00E100E09F
:104AA000054B420900F01F0053F82220012303FAAE
:104AB00000F01040704700BF00E100E040B2002865
:104AC000A8BF00F1604001F10101B8BF064B4FEAF9
:104AD0004111ACBF00F5614000F00F00C9B2B4BF96
:104AE000195480F80013704714ED00E030BFFFF751
:104AF000FDBF00BF0B4A08B50B4B22F07F029A6046
:104B0000BFF34F8FBFF36F8FD3F8882022F470026A
:104B1000C3F8882004F0DCFF05F09CFF00F0D6FB12
:104B200005F01AF80010000000ED00E0094A0A49FB
:104B3000936809689967094958674B6843F080533F
:104B40004B60002383F31188BFF36F8F9368986FD6
:104B5000704700BF8C1F002014DA000000ED00E059
:104B600012498A684FF030001044EFF3098C80E856
:104B7000F01F202080F31288BFF36F8F0C4F4FF08F
:104B800000668A698A603E60506F0023536780F335
:104B9000118804B5104600F035FCBDE8044002F170
:104BA000300090E8F01F8CF3098870478C1F0020BC
:104BB00004ED00E01EF0040F0CBFEFF30880EFF3EC
:104BC0000980816911F8021C0229FFD001B507F0A4
:104BD00087FC01BD42F8203C009B42F81C3C0A497E
:104BE000019B42F8183C029B42F8143C21F0010161
:104BF0004FF0807342F8043C42F8081C0023203A2E
:104C000002654367704700BFDBB30000094A0346F3
:104C1000906870B113F1160F406E05D0A0F14002FC
:104C20009A4205D8834203D2814228BF00207047B0
:104C3000002070478C1F002008B5094B0D46144614
:104C4000986000F0DFFB204685F30988002163B6F9
:104C500081F31188BFF36F8F0022002306F0BDFBA4
:104C60008C1F002001B572B60B4A506900281EBF88
:104C70000021516108F066F862B6EFF30580A0F1FB
:104C800010004FEAC0000549014409C99847BDE832
:104C900001400349084700008C1F0020D0D40000C9
:104CA000A54C0000044B99689869884203D00349D9
:104CB0004FF080520A6070478C1F002004ED00E026
:104CC0002DE9F04186B0064600AF0D46474B7B61AB
:104CD00002244FF4825146483C6107F1100207F06C
:104CE0000EFC444B9B6AD9046DD5434B4048C7E941
:104CF000044307F110024FF4825107F000FC172023
:104D00003C4B9B6A1A050BD53C4B7B610223384810
:104D10003B6107F110024FF4825107F0F0FB1820BD
:104D2000344CA36A9B0523D5E846354B7B610223AF
:104D30002F483B6107F110024FF4825107F0DFFB6F
:104D4000A36BA26A100412D588B06A462D49284880
:104D5000C2E90513032342F8103F4FF4C25107F094
:104D6000CEFBC5461EB1A36A23F40043A3621920FB
:104D7000204B9B6A59050BD5234B7B6102231C48B2
:104D80003B6107F110024FF4825107F0B8FB1A2083
:104D9000184B9A6AD20518D51C4B7B610223144824
:104DA0003B6107F110024FF4825107F0A8FB1B2072
:104DB000104A936A43F47F439362183700232B70A1
:104DC000BD46BDE8F08116209AE79B6A9B04EFD5AB
:104DD0000F4B7B61022306483B6107F110024FF441
:104DE000825107F08CFB1C20E2E700BFECE00000E2
:104DF000F4D6000000ED00E002E1000013E1000045
:104E000026E100003FE1000054E100006FE10000F6
:104E100087E1000010B586B0364B3748059304AAE9
:104E200002244FF48251049407F069FB334B9B6AD0
:104E30009A015DD5324B304804AA4FF48251CDE936
:104E4000044307F05CFB1E202C4B9B6ADB010AD558
:104E50002C4B2948059304AA02234FF48251049352
:104E600007F04DFB1F20254B9B6A1C030AD5264BE0
:104E70002148059304AA02234FF48251049307F0BA
:104E80003EFB21201D4B9B6A59030AD51F4B1A4834
:104E9000059304AA02234FF48251049307F02FFBD9
:104EA0002220164B9B6A9A030AD5194B1248059388
:104EB00004AA02234FF48251049307F020FB23201D
:104EC0000E4B9B6ADB030AD5124B0B48059304AAD1
:104ED00002234FF48251049307F011FB2420074A68
:104EE000936A6FEA03436FEA1343936206B010BDFF
:104EF0001D20A9E7B6E10000F4D6000000ED00E0B7
:104F0000CEE10000E1E10000FBE1000019E2000059
:104F10003EE2000058E200002DE9F04786B08146ED
:104F200000AF8A469046514B7B61022450483C6159
:104F300007F110024FF4825107F0E1FA4D4B9B6AE2
:104F4000DE0645D54C4B4A48C7E9044307F1100239
:104F50004FF48251112407F0D2FA464B9B6A1D0789
:104F60000BD5464B7B61022341483B6107F11002A0
:104F70004FF48251122407F0C2FA3E4DAB6A9807F3
:104F800028D56C463E4B7B6102233B614FF4825136
:104F9000374807F1100207F0B2FA6E6BAB6A1906D8
:104FA00060D588B06A46374B3148C2E905360323DD
:104FB00042F8103F4FF4C25107F0A1FAA546BAF1EA
:104FC000000F03D0AB6A23F08003AB62132403E02D
:104FD0001024C2E76FF01506264B9B6ADA070BD543
:104FE000294B7B61022322483B6107F110024FF4F9
:104FF0008251142407F083FA1E4B9B6A9B060BD543
:10500000224B7B6102231A483B6107F110024FF4E7
:105010008251152407F073FA164B9A6AD50602D40A
:105020009A6A90070AD55B68190507D54946304644
:10503000FFF7ECFD10B180F3098802240D4B9A6A4A
:10504000920642BF5A6A22F400525A629A6A42F0A9
:10505000FF029A6220460023183788F80030BD46C8
:10506000BDE8F0876FF01506B0E700BF83E20000EF
:10507000F4D6000000ED00E099E2000013E100002A
:10508000CCE20000E4E20000FAE2000087E1000068
:105090002DE9F043774B8BB0D3F8048000AF054681
:1050A000C8F30804002686F31188BFF36F8F02F05F
:1050B0007F43B3F17F4F0ED102F00C03082B19D1BF
:1050C0006D4BFB6102236D48BB6107F118024FF481
:1050D000825107F014FA002635460023FB71E31EC7
:1050E000092B00F2A680DFE803F00A999C95A4A49E
:1050F000A4A4A49F10074CBF0D460126EDE7E94686
:105100005F4BFB614FF0020807F118025B48C7F8DC
:1051100018804FF4825107F0F2F90023554CFB71CF
:10512000E36A9A070BD5574BC7E90683534807F143
:1051300018024FF4825107F0E2F9002441E0E36ADB
:10514000002B01DA504BEFE7E36A5B00F5D54F4BDC
:105150004A48C7E9068307F118024FF4825107F065
:10516000CEF96369AA6943F480736361BFF34F8F1B
:10517000BFF36F8F636932F8022C23F4807363618D
:10518000BFF34F8FBFF36F8F4DF602739A4208D073
:10519000A36ADBB28BB3FA1D01212846FFF7BCFEE0
:1051A0003AE088B02B686A4639493448C2E90513A9
:1051B000032342F8103F4FF4C25107F0A0F92C68C6
:1051C000CD46FB79ABB92022294607F1080007F04C
:1051D000A9F97B6A002E47D0C3F3080222B96FEA0F
:1051E00053236FEA43237B6207F108012046FFF750
:1051F000CFFB2C37BD46BDE8F083A36A13F47F4F85
:1052000004D0F91D0120FFF75BFD05E0A36AB3F5AB
:10521000803F92D3FFF7FEFD0446D2E7FA1D00213E
:10522000BBE7F91D0020EEE71A4BFB610223BB61CF
:105230007CE7194A194B18F4F87FE8468AB018BF82
:1052400013466A4616490D48C2E905134FF4007328
:105250001384103C134BD4614FF4115142F8103FAA
:1052600007F04DF9C54668E723F4FF7323F0010307
:10527000B9E700BF00ED00E047E30000F4D600000E
:1052800072E3000089E30000AAE30000B8E3000035
:10529000D7E30000F3E300002EE3000019E3000071
:1052A00017E4000004000001024A536943F01003B0
:1052B0005361704700ED00E0EFF30880EFF30981E0
:1052C00001B57246FFF7E4FE01BD00BF04480023AC
:1052D0002021C2180133302B82F80013F9D1704716
:1052E00000E100E0002080F31488BFF36F8FFDF72A
:1052F00079F900200D490860BFF34F8F0C4880F307
:10530000088800F02BF8202080F3118809484FF41A
:105310000461401880F30988EFF3148002210843E8
:1053200080F31488BFF36F8FFFF7E4FB94ED00E088
:10533000803B0020C02D00200749D1F89020002399
:10534000C2F307221846934200DB7047C1F8983039
:10535000C1F8A0000133F6E700ED00E008B572B631
:10536000002383F31388FFF7E7FF144B4FF0FF325E
:10537000C3F88020C3F88420C3F88820C3F88C20A9
:10538000C3F89020C3F89420C3F89820C3F89C2059
:10539000C3F88021C3F88421C3F88821C3F88C2185
:1053A000C3F89021C3F89421C3F89821C3F89C2135
:1053B00062B6BFF34F8FBFF36F8F08BD00E100E00F
:1053C000084B9B6883420BD1EFF3058343B1064B37
:1053D0005A6842F080525A605A6A22F400425A6275
:1053E00005F0C6BA8C1F002000ED00E0024B034A16
:1053F0000348012100F092B80000042000000020C2
:1054000070D80000426E054B403A1A60044A4021B1
:10541000C3E901121846012100F08AB88413002064
:1054200000000B152DE9F041DFF8B4E09C4600AF19
:10543000154600238B421ADA4468002C4DD0BCF18B
:10544000000F1DD0661E344215D06C4688B06A46E7
:105450002449C2E90513032342F8103F22480023E0
:105460004FF4C251FDF756FB6FF01505A5462846CF
:10547000BD46BDE8F0811F2CE7D902681642E4D191
:10548000202C026886685FFA85F814D9B4F1004FC1
:1054900013D8013CB4FA84F4C4F11F046400B8F1D9
:1054A000070F46EA04060AD96C4688B06A460F4BD5
:1054B000C2E90535CFE70824F1E73E24EFE722F003
:1054C0001F022A4342F0100246F00106CEF898501F
:1054D000CEF89C200135CEF8A06001330C30A9E74E
:1054E00000ED00E02EE40000ECD6000051E40000E6
:1054F000044B0522C3F89420BFF34F8FBFF36F8F87
:10550000704700BF00ED00E0BFF35F8F024B002249
:10551000C3F89420704700BF00ED00E010B5034CC5
:1055200001232278FFF77EFF207010BDB8210020F4
:1055300008B5094A00231278FFF774FF10F1160F1F
:1055400003D0064B0022072800DD08BDC3F89800F1
:10555000C3F8A0200130F6E7B821002000ED00E0FC
:1055600014490868082810B521D8FFF7CDFF124C60
:1055700049680022904201F10C0105D10F4B1870CF
:10558000FFF7B6FF002010BDC4F8982051F80C3C7E
:1055900023F01F03134343F01003C4F89C3051F869
:1055A000043C43F00103C4F8A0300132E2E74FF0BD
:1055B000FF30E8E77CD8000000ED00E0B8210020D3
:1055C000014B1860704700BF340100204FF02003EA
:1055D000EFF3118283F31288BFF36F8F0649012323
:1055E000C1F840354FF08041C1F8783582F3118819
:1055F000BFF36F8F0020704700E001404FF0804301
:10560000C0B2C3F81C05BFF34F8F0549054BCA68EC
:1056100002F4E0621343CB60BFF34F8F00BFFDE79E
:1056200000ED00E00400FA0520B1034B800143F0D7
:1056300001031847704700BF70D7000080B500AF66
:1056400088B06A46064BC2E90530032342F8103F92
:1056500004484FF4C45106F092FFBD4680BD00BF20
:105660008AE400002CD700002DE9F84390F90030BF
:10567000002B00AF04460D46164604DB6FF0150004
:10568000BD46BDE8F883038823F0E0039BB240F2F7
:1056900001629342F2D190F80490B0F802801B4866
:1056A00049464FEA182806F0D6FD78B96C4688B00E
:1056B0006A46174B1748C2E90539032342F8103FE1
:1056C0004FF4C45106F05BFFA546D7E7B8F1210FB0
:1056D00005D0B8F1220F0FD06FF08500D0E7036836
:1056E000E1885B685B6813F8092F914294BF2960D9
:1056F0002A6033600020C3E7E38850F8142C9A42F4
:1057000094BF2A602B6050F8183CF2E7B0130020D9
:10571000ABE400002CD7000080B500AF88B06A462B
:10572000064BC2E90530032342F8103F04484FF40A
:10573000C45106F024FFBD4680BD00BFD2E4000086
:105740002CD7000070B504460D4601460A4806F005
:1057500090FD20B92046BDE87040FFF7DDBF022D67
:1057600008D150F8103C2BB11B691BB1BDE870404B
:105770000068184770BD00BFB01300202DE9F0434A
:1057800087B0054600AF884601794E48914606F03D
:1057900062FD0446A8B96C4688B0AB886A464A499F
:1057A0004A48C2E90513032342F8103F4FF4C4519D
:1057B00006F0E5FE6FF01200A5461C37BD46BDE8B9
:1057C000F08395F9003000686E78002B3CDA022EE9
:1057D0000DD0032E28D0012E6DD154F8103CC3B14A
:1057E0001C68B4B14B4642462946A047E5E7AB7872
:1057F000012B11D96C4688B06A463549C2E90513B8
:10580000032342F8103F31484FF4C25106F0B7FE6F
:10581000A5466FF08500D0E7073C0123C9F800409A
:10582000C8F800300020C8E76B885BB1294B7B616A
:105830002648022307F110024FF482513B6106F023
:105840009EFEE6E7063CE8E70A2E09D00B2E18D0AC
:10585000092E30D154F8103C002BDAD05C68C0E738
:105860006B881A0ADBB2012BC4D8002304F8072C7A
:1058700044F80C3C6B88003B18BF012304F8083C3B
:10588000D0E76988012906D96C4688B06A46124B70
:10589000C2E90531B4E714F8063C8B42C2D054F893
:1058A000103CC9B204F8061C002BBBD09B68002B2F
:1058B000B8D09847B6E76C4688B06A46074BC2E94D
:1058C00005369DE7B0130020ABE400002CD70000A4
:1058D000F8E4000013E500003FE5000026E50000C5
:1058E00070B5064686B00D460146464806F0A7FC50
:1058F000044628B9304606B0BDE87040FFF79EBEAA
:10590000A0F118060A2D7AD8DFE805F00611292B38
:105910003A4A567979796F003B4B05933B4802230D
:1059200004AA4FF48651049306F029FE26E0384B72
:1059300005933648022304AA4FF48651049306F0D7
:105940001EFE002304F8053C04F8043C3046012305
:1059500004F8063C06B0BDE8704006F013BE2D4BBF
:10596000DBE72D4B05932948022304AA4FF4865107
:10597000049306F004FE012304F8053C06B070BD54
:10598000264B05932148022304AA4FF48651049321
:1059900006F0F5FD002304F8053C04F8043CEDE7AF
:1059A0001F4B05931948022304AA4FF48651049310
:1059B00006F0E5FD0123F0E71A4B14480593022594
:1059C00004AA4FF48651049506F0D9FD14F8043C5E
:1059D000002BD3D0144B0D4804AA4FF48651CDE9C7
:1059E000045306F0CCFD0023D7E710F8083C002B49
:1059F000C4D0304606B0BDE8704006F0C7BD0B4BC2
:105A00008BE700BFB013002058E500002CD7000042
:105A100065E500007BE500008CE500009EE50000E8
:105A2000B2E50000C3E50000D2E50000DFE50000BC
:105A3000020600F07F0312D5082B05D1010700F004
:105A40000F0306D50E48704710F0780F12D100F002
:105A50000F034C2000EB43100A4B18447047082BEF
:105A600005D1020700F00F0306D50748704710F074
:105A7000780FF6D000207047044800EB43107047C1
:105A800004150020B813002024160020241500203F
:105A90000149024807F03FBAE0130020C009002086
:105AA0000146014807F0D2B928030020024800222D
:105AB000002304F08DBA00BF2803002010B5054C68
:105AC000FFF7F4FF20B1011D204607F005F9F7E7C5
:105AD00010BD00BF9802002010B588B01848002201
:105AE000002301A904F0BAF830B3164B1648079307
:105AF00006AA4FF482510224069406F075FDFFF7C2
:105B0000DDFF0F480022002301A904F0A7F850B1DF
:105B10000E4B0D4806AA4FF48251CDE9064306F01C
:105B200063FD00200AE00198042340600374FFF73E
:105B3000B7FFFFF7ADFFF4E70198406008B010BD74
:105B400098020020FBE5000034D7000019E60000B1
:105B500098B5022800AF11D8104B1C5CFFF7BCFFB2
:105B600050B1002202740472FFF79AFF0C4B93F8B5
:105B700024300BB1FFF78CFFBD4698BD6C4688B052
:105B80006A46084BC2E90530032342F8103F064835
:105B90004FF4C25106F028FDA546EDE7F5E70000F9
:105BA000B813002035E6000034D700002DE9F0419D
:105BB00090F80280064600AF4046FFF739FF18F024
:105BC000800FF478054625D09CB1032C1FD06D467C
:105BD00088B06A462A4BC2F81C80C2E90534042307
:105BE00042F8103F27484FF4015106F0FDFCAD4646
:105BF0000DE0FFF771FF034648B10122AC77027454
:105C0000032202739D60FFF74BFFFFF741FFBD4684
:105C1000BDE8F08154B1012CD9D1FFF75DFF0346F7
:105C20000028F4D06C7704740473EBE7FFF754FF9B
:105C30000028ECD0B278144B12F0800F02F008016B
:105C400011D041B1D3F8A836EB60012303740223CD
:105C500003738560D7E702F00F02142101FB0233C2
:105C6000D3F80836F0E711B1D3F8A837ECE702F023
:105C70000F02142101FB0233D3F80837E4E700BF19
:105C800050E6000034D700000070024013B51248FF
:105C900003F070F9114B98421AD1114802F00AFB37
:105CA0000024104802F04CFB0F49104800944FF0BC
:105CB000FF334FF4806204F0FDFA0D490B4807F002
:105CC0003AF80C480C4907F009F9204602B010BD1B
:105CD0006FF00400FAE700BF3D5D00000000AD0B6F
:105CE000F8E70000A0D8000080290020C0090020AB
:105CF0007CE60000E0130020195F000010B50E499B
:105D0000BFF35B8F002351E8002F012A03D141E844
:105D100000300028F7D1BFF35B8F0CD151F8044C51
:105D20001439204605F023FE783004D12046BDE822
:105D3000104005F0F7BD10BDD81300202DE9F0414B
:105D400088B0064600AF1422002107F10C0006F0CF
:105D5000F4FB3378062B24D8DFE803F09E041216F8
:105D6000169018000224FFF7B7FE0346C8B104746A
:105D700000F10802D7E9050182E80300184638E07F
:105D800003233B750024EEE70423FAE796F802802C
:105D90004046FFF74DFE837A054633B1013B022BA7
:105DA00068D92037BD46BDE8F08118F0800FF4783F
:105DB00024D09CB1032CF4D06D4688B06A46374B92
:105DC000C2F81C80C2E90534042342F8103F34486D
:105DD0004FF4015106F008FCAD46E2E7FFF77CFE08
:105DE00003460028DDD00122AC770274032202733F
:105DF0009D60FFF755FEFFF74BFED2E754B1012C33
:105E0000DAD1FFF769FE03460028CAD06C77047424
:105E10000473EDE7FFF760FE04460028C1D00123BC
:105E20000374022303738560B07805F10C0106F05A
:105E3000E4FE70B16E4688B06A461A4BC2E905307E
:105E4000032342F8103F16484FF4C25106F0CCFB32
:105E5000B546154AE968B2F88C328B4206D95B1A0E
:105E6000A2F88C3203F0C2FA2046C2E70023A2F85F
:105E70008C32F9E73046FFF799FE92E7381D03F0C0
:105E80008FFA7B79052B03D13B7913F0600F88D013
:105E9000064B7B61012466E7032464E750E60000BB
:105EA00034D7000087E60000B81300202415002036
:105EB00038B5002464F07F00C0B2FFF7B9FD0134AB
:105EC00006F07FFB082CF5D10E4D0024E0B2FFF761
:105ED000AFFD036903B90561013406F072FB082CBC
:105EE00005F14005F2D1084806F06BFB074BD3F8EB
:105EF0007C2212B9064AC3F87C22064806F061FBF0
:105F0000002038BD481A002004150020B8130020D6
:105F100048160020241600202DE9F047A34CDFF896
:105F200090A286B0804600AFFFF7C0FD064618B9C4
:105F30001837BD46BDE8F08794F82520337C06F17C
:105F400004093AB9002B00F0AF809948494606F0A1
:105F5000C3FEE9E7042B00F29581DFE813F0A5000A
:105F600005003B015101780118F8043C83B9B3687E
:105F70006D4688B05B7A6A468E498F48C2E9051340
:105F8000032342F8103F4FF4C25106F02DFBAD46FB
:105F9000337BB568032B39D8DFE803F0023F6E731B
:105FA0006E6908220021304606F0C7FA834B844808
:105FB000D3F880243270D3F884247270D3F8882404
:105FC000D3F88C1442EA01227280D3F89024D3F8DB
:105FD000941442EA0122B280D3F89824D3F89C3476
:105FE00042EA03230822F3803146EA6006F09AFA77
:105FF0002B68687A0021984796F90030002B08DB5F
:10600000F38833B1A4F88C3203F0F0F949465046D6
:106010009DE70023A4F88C32F8E76B7F002BF5D0C6
:106020002B7F002BF2D0002666486E774FF0FF32B0
:106030004FF0FF332E7706F0DAFA6B693B606B683E
:10604000C7E901363946687A02F0D6FF5E4B9842BE
:106050000ED06D4688B06A465C4BC2E9053003231A
:1060600042F8103F54484FF4C25106F0BDFAAD4615
:10607000544806F0BEFAC9E72B680121687A9847B0
:10608000C4E7AB7A6BB9EB7F5BB94E484FF0FF3298
:106090004FF0FF3306F0ABFA03F0D8F9494806F0A9
:1060A000A8FA2B680221E9E7337A042BAED8DFE89F
:1060B00003F059032367730002F026FF054600280A
:1060C000A4D102F05DFEBFF35B8F4149012351E88B
:1060D000002F002A03D141E800300028F7D1BFF398
:1060E0005B8F93D141F8085C41F8105CE069636113
:1060F000143905F0BFFB89E7002565F07F00C0B2C9
:10610000FFF796FC037A13B1407A03F04FFB013599
:10611000082DF2D194F854311BB194F8550103F0D5
:1061200045FB0025E8B2FFF783FC037A13B1407A00
:1061300003F03CFB0135082DF4D194F874321BB107
:1061400094F8750203F032FB012002F0BFFE012338
:1061500084F825302368002B3FF458AF002102203B
:10616000984753E7002584F8255003F0DBFAFFF742
:10617000C5FD2368002B3FF449AF29460420EFE713
:10618000002A3FF443AF02F0C9FE2368002B3FF41E
:106190003DAF00210520E3E72368002B3FF436AF35
:1061A000002A3FF433AF00210620D9E7B8130020BE
:1061B00098020020A7E6000034D7000000700240DB
:1061C000BC130020F01300200000AD0BCDE6000052
:1061D000D813002008F110054FF0FF334FF0FF32C5
:1061E000284606F004FAFFF763FE284606F001FA97
:1061F00058F8283C002B3FF409AF00210120AFE7FD
:1062000094F8743293B1012584F8895284F8885245
:10621000FFF762FC90B9234B7B61022322483B616C
:1062200007F110024FF4825106F0DEF958F8283CCD
:10623000002B3FF4EBAE00210A2091E71B4A0574C6
:1062400005738260FFF72CFCFFF722FCEEE7184B8A
:106250007B6102233B6107F110024FF48251124827
:1062600006F0C2F906F010FC03F05CFA02F07EFDC5
:10627000FFF724FCFFF71CFE06F0FFFB0D4802F0C1
:1062800079FEC3E66D4688B06A460B490648C2E906
:106290000513032342F8103F4FF4C25106F0A4F94E
:1062A000AD46B3E6F3E6000034D700002416002024
:1062B00007E700003D5D00001EE7000038B5164D01
:1062C00095F824402CBB05F1380006F04AFD204625
:1062D00000F0B6FB22460121E8612720FEF7EEFB25
:1062E00006F0CBFBFFF7E4FD044610B9012385F867
:1062F00024300A4B1B680BB1FFF7CAFB4FF08043F9
:10630000D3F83834DB0702D50020FFF721FC204604
:1063100038BD0024FBE700BFB8130020280300208D
:10632000074B93F824203AB193F82530002B14BF83
:1063300000206FF0120070476FF01200704700BF2E
:10634000B81300207FB502460378127903F00F00DE
:106350007AB958B10D4B0E48059304AA02234FF4A5
:106360008251049306F040F94FF0FF3007B05DF81A
:1063700004FB082801D9074BEDE7012A06BF83F08B
:10638000080343F3C0000020F0E700BF35E700003A
:1063900034D7000054E7000030B5164B93F8243092
:1063A00087B004461BB305782846FFF741FBB0B120
:1063B000457223798372638843602078618810F086
:1063C000080F10D14B1E0B420DD00B4B05930B4801
:1063D000022304AA4FF48251049306F005F96FF0EA
:1063E000150007B030BD06F003FC0020F9E76FF0A0
:1063F0001200F6E7B813002073E7000034D700005E
:1064000030B5194B93F8242087B0054642B393F872
:1064100025302BB3FFF70CFB044618B96FF01500BD
:1064200007B030BD837A012B0FD007D9023B012B77
:1064300007D96369A3610020E060F1E703F00EF87B
:10644000F7E7284602F07EFFF3E7084B059308487C
:10645000022304AA4FF48251049306F0C5F8DDE745
:106460006FF01200DCE700BFB81300209BE70000CC
:1064700034D7000038B50E4B93F82420054682B17E
:1064800093F825306BB1FFF7D3FA68B115F0080423
:106490000AD1284602F078FF284603F0DBF92046AF
:1064A00038BD6FF01200FBE76FF01500F8E700BF92
:1064B000B813002038B50C4B93F8242005460C4641
:1064C00062B193F825304BB1FFF7B2FA48B144B14D
:1064D000284602F03FFF2070002038BD6FF0120008
:1064E000FBE76FF01500F8E7B813002070B5134E06
:1064F00096F824300446C3B1FFF79AFA0546B8B1BE
:10650000230705D4204602F03FFF204603F0A2F9FE
:106510002B7A83B901232B7296F825300BB9002012
:1065200070BD204603F042F9F9E76FF01200F7E77B
:106530006FF01500F4E76FF07700F1E7B813002073
:106540002DE9F047DFF8249184B01E4699F82430F5
:1065500000AF80468A461546002B00F0838099F8EC
:106560002530002B7ED010F0800F14D0FFF760FA9A
:10657000044680B1037AABB96C4688B06A463C4B9E
:106580003C48C2E90538032342F8103F4FF4C2519A
:1065900006F02AF8A5466FF0150420461037BD46D0
:1065A000BDE8F0874FF0FF334FF0FF3209F13800BC
:1065B00006F01DF8A37F33B109F1380006F019F891
:1065C0006FF00A04E9E7A37A55B3002B38D0012312
:1065D000A3774FF00009391D4046C7E901A5C7F868
:1065E0000C9002F009FD244B984237D084F81E909D
:1065F0000EB1C6F800906C4688B06A461F4BC2E9DF
:106600000530032342F8103F1A484FF4C25105F0F9
:10661000EBFFA5466FF00404194805F0EAFFBCE75C
:10662000E27F02B1E577002BD1D102F01FFF804558
:10663000CDD002F00BFF124805F0DBFF0024ACE7E1
:10664000B9F80A309D42F0D26268B5FBF2F302FB62
:106650001353002BE9D10123E377E6E706B1356058
:106660000024D9E76FF0120497E700BFB8130020A9
:10667000BDE7000034D700000000AD0BDCE70000F0
:10668000F01300202DE9F8431D462D4B904693F85A
:10669000242000AF81460E46002A4DD093F82530C5
:1066A000002B49D010F0800F19D111B9B8F1000FAB
:1066B00015D14846FFF7BCF9044680B1037A8BB97F
:1066C0006C4688B06A461F4B1F48C2E90539032350
:1066D00042F8103F4FF4C25105F086FFA5466FF017
:1066E000150015E04FF0FF3318484FF0FF3205F06A
:1066F0007EFFE3689845C14628BF99465EB9B8F168
:10670000000F08D105B12B60104805F072FF002082
:10671000BD46BDE8F883A1694A46304605F002FF50
:10672000A3694B44A361E368A3EB0903E360002D75
:10673000EAD0C5F80090E7E76FF01200E8E700BF85
:10674000B8130020BDE7000034D70000F01300208C
:10675000F8B5274D95F8243000AF0646002B44D0FD
:1067600095F82530002B40D0030614D4FFF760F9CC
:10677000044680B1037A93B96C4688B06A461D4BD3
:106780001D48C2E90536032342F8103F4FF4C251B9
:1067900005F02AFFA5466FF01500BD46F8BD4FF085
:1067A000FF334FF0FF3205F1380005F020FFE368BA
:1067B000B3B9012663692677A361637F83B1FFF7CD
:1067C0008BF930B905F1380005F013FF6FF00B00BD
:1067D000E3E7067484600673FFF762F9FFF758F980
:1067E000064805F006FF0020D7E76FF01200D4E757
:1067F000B8130020BDE7000034D70000F0130020DC
:1068000010B5084B93F824300C462BB1FFF710F964
:1068100028B10460002010BD6FF01200FBE76FF09C
:106820001500F8E7B8130020014B1860704700BF4F
:10683000B813002008B5074B93F8243023B1FFF7B5
:10684000F7F820B1406808BD6FF01200FBE76FF069
:106850001500F8E7B8130020084B70B5C31A0D46B1
:1068600007499B10044659430648402205F007FF9C
:106870002B4601462046BDE8704018475C1C0020AE
:10688000B76DDBB610D4000073B50C4C0C4A402336
:10689000041B00930D460B460A49A41061430646AB
:1068A000094805F018FF011E05DA30462B4602B0F4
:1068B000BDE87040184702B070BD00BF5C1C0020EE
:1068C00041C70000B76DDBB610D40000002270B5E0
:1068D000012104461046FEF7F1F80F4801F02CF9AB
:1068E0000E4B984215D101F037F926690C49304614
:1068F00004F0ADFF00280BDB01253564246908494D
:1069000004F11C0004F0A3FF002801DBE564002073
:1069100070BD6FF00400FBE7596900000000AD0B8B
:10692000A4D8000070B501460C2309484B43C41895
:10693000D4E90E56403300221844A26305F08CFEC1
:106940002DB132462B460348BDE87040184770BD54
:106950005C1C002010D4000010B1012804D0704746
:10696000034B1B6C5B0701D1FFF7DCBF704700BF17
:106970005C1C002008B54FF02003EFF3118183F376
:106980001288BFF36F8F124A136843F00200106041
:10699000DA0708D481F31188BFF36F8F0120BDE8B7
:1069A000084005F0C8BF4FF08043D3F80C24D3F85B
:1069B0000C34D307EED5074805F04EFE81F311885D
:1069C000BFF36F8F0020BDE80840FFF7ABBF00BFEB
:1069D000AC1C00209C1C00201FB500220123CDE927
:1069E0000223094ACDF800D06B46CDF804D005F05B
:1069F000A0FE002805DB4FF480420023684603F028
:106A00003BFB05B05DF804FB5FC7000010B54FF01D
:106A10002003EFF3118483F31288BFF36F8F074ACB
:106A2000136823F00201DB07116002D4012005F096
:106A3000BEFF84F31188BFF36F8F10BDAC1C002024
:106A4000024AC3B21C2003FB002070475C1C0020DC
:106A50002DE9F0413849BFF35B8F0746012251E829
:106A6000003F41E800200028F9D1BFF35B8F33B924
:106A7000324933484B60CB608A6004F0FBFE7B1EDA
:106A8000012B2BD8012F07D14FF08043D3F81C34B2
:106A900003F00303012B21D006F047F90546F8B9AE
:106AA000284B1B78E3B14FF080430222C3F8082340
:106AB0000646DFF894804FF08044D4F81834D4F8B8
:106AC0001824D20316D503F00303012B01D0012FA4
:106AD00010D15DB386F31188BFF36F8FBDE8F081ED
