:10100000C0370020DD3A0000819C0000B13A0000AA
:10101000B13A0000B13A0000B13A0000000000000F
:101020000000000000000000000000001937000070
:10103000B13A000000000000C5360000B13A0000DF
:10104000C9370000C9370000C9370000C9370000A0
:10105000C9370000C9370000C9370000C937000090
:10106000C9370000C9370000C9370000C937000080
:10107000C9370000C9370000C9370000C937000070
:10108000C9370000C9370000C9370000C937000060
:10109000C9370000C9370000C9370000C937000050
:1010A000C9370000C9370000C9370000C937000040
:1010B000C9370000C9370000C9370000C937000030
:1010C000C9370000C9370000C9370000C937000020
:1010D000C9370000C9370000C9370000C937000010
:1010E000C9370000C9370000C9370000C937000000
:1010F000C9370000C9370000C9370000C9370000F0
:1011000053B94AB9002908BF00281CBF4FF0FF316E
:101110004FF0FF3000F00CB8ADF1080C6DE904CED3
:1011200000F008F8DDF804E0DDE9022304B07047C0
:10113000704700BF2DE9F04786468C460846089E5A
:10114000154674461946002B40F0C2808542B2FA1B
:1011500082F245D94AB1C2F1200300FA02FC2EFA0C
:1011600003F3954043EA0C0C94404FEA154EA8B2A5
:10117000BCFBFEF8230C0EFB18CC08FB00F943EA7D
:101180000C43994528D9EB1808F1FF3704D299454B
:1011900002D9A8F102072B44A3EB0903A4B2B3FBC5
:1011A000FEFC0EFB1C330CFB00F044EA0344A0429F
:1011B00014D92C190CF1FF3304D2A04202D9ACF19E
:1011C00002032C44241A43EA07401EB1D4400023F2
:1011D00034607360BDE8F0874746DDE76346F1E7BA
:1011E00092BB431B01214FEA154EAFB2B3FBFEFC8D
:1011F000200C0EFB1C330CFB07F840EA0343984518
:1012000062D9EB180CF1FF3004D2984502D9ACF149
:1012100002002B44A3EB0803A4B2B3FBFEFC0EFBBD
:101220001C330CFB07F744EA0344A7424ED92C19A0
:101230000CF1FF3304D2A74202D9ACF102032C44D3
:10124000E41B43EA0040C0E7C2F1200320FA03F1A7
:10125000954090402EFA03F303434FEA154EAFB288
:10126000B1FBFEFC0EFB1C10190C0CFB07F841EA4D
:101270000041884504FA02F422D969180CF1FF30C4
:1012800004D2884502D9ACF102002944A1EB08013F
:101290009BB2B1FBFEFC0EFB1C110CFB07F743EAF3
:1012A00001439F420ED9EB180CF1FF3104D29F424B
:1012B00002D9ACF102012B44DB1B41EA004192E769
:1012C0006046E3E76146F7E76046A3E76346B7E7B2
:1012D000834206D916B9002108467BE7C6E900E03B
:1012E000F9E7B3FA83F78FB9834201D3724508D87F
:1012F000BEEB020460EB030301209C461EB90021F3
:1013000068E73846FAE7C6E9004CF8E7C7F1200C71
:10131000BB4022FA0CF41C432EFA0CF120FA0CF319
:10132000B84001434FEA14490EFA07F5B3FBF9F848
:101330001FFA84FE09FB18300B0C08FB0EFA43EA77
:1013400000439A4502FA07F240D9E31808F1FF304A
:1013500004D29A4502D9A8F102002344A3EB0A0360
:1013600089B2B3FBF9F809FB183308FB0EFE41EA1A
:1013700003418E452CD9611808F1FF3304D28E4504
:1013800002D9A8F10203214443EA0040A0FB0298DD
:10139000A1EB0E014145CE46434602D306D14D4551
:1013A00004D2B9EB020E68EB04030138002EA6D07C
:1013B000B5EB0E0261EB030101FA0CFC22FA07F314
:1013C0004CEA0303F940C6E9003198E74046C5E717
:1013D0004346D9E7014806F00FBE00BFE8020020EF
:1013E00010B50B480B4C06F0EDFA206048B10A4BE3
:1013F0000A49342202F0A2FD2068BDE8104008F03E
:101400008FBC074807F0A4FE6FF0120010BD00BFAC
:10141000C0B10000C0070020C8AE000024B2000028
:10142000C6B1000013B5044683682221DB689847E3
:10143000014610B1054807F08BFEA3686A461B6998
:10144000222120469847009802B010BDE0B100006C
:101450002DE9F8432F4809F007F820B9BDE8F84313
:101460002D4807F075BE2B482C4E2A4FFFF7DAFFA8
:1014700081462848FFF7D6FF0C2390FBF3F202FBCE
:101480001300A9EB000999FBF3F93846F578FFF74B
:10149000C9FF04463846FFF7C5FF3846FFF7C2FFCD
:1014A000231A03F1C802B2F5C87F88BF0023844223
:1014B000EDB2EAD007344FF00C0894FBF8F208FBC9
:1014C0001242A41A94FBF8F8C845DED0A4F5B4740F
:1014D0000B2C01D8C146D8E7002BCCBF013505F154
:1014E000FF35EDB2F5700E4CF378E3700025F57022
:1014F0004FF0FF324FF0FF330A4806F09DFD0A48D7
:101500002B4604222146006808F014FC074806F028
:1015100073FDDFE720AC0000F8B10000EA1C0020FA
:10152000EE1C0020E8020020C0070020D8020020A6
:1015300010B5002088B001F013FA08BB4FF0FF325D
:101540004FF0FF33CDE906230123CDE90203CDE9B6
:10155000000004900C4B0D490D484FF4806206F0DA
:10156000BDFB0C490A4808F0FCFF09480A4C08F08A
:10157000FBFF40F267620023204606F05DFDF8E7BE
:10158000002008B010BD00BF51140000401D002015
:10159000200400201BB20000D8020020014B1B6871
:1015A000184700BFB0000020014B1860704700BF13
:1015B000B000002007B50B46002102460091034809
:1015C00000F014F903B05DF804FB00BF9D150000A6
:1015D0002DE9F047058B04462807904611D40229CF
:1015E00005F0070540F0CD80204607F0A8FF78B150
:1015F0000138218B042811D8DFE800F0C3106D8575
:10160000950001290CBF45F0100545F02005258304
:1016100088F31188BFF36F8FBDE8F08701F0070AE8
:10162000AA4500F0A6800027B9463E46A368002BD5
:1016300000F0BD8041F00801218388F31188BFF3D9
:101640006F8FA168002900F0BB800D68002900F0B1
:10165000B780D1F80480334652462046C047002D5B
:1016600076D02B6829461D46F0E701F007035A1F84
:10167000012A1BD8002221F00701062B276889B216
:10168000C4E9002209D13B4603E0628B0132628348
:101690001B68002BF9D141F002012183204607F09D
:1016A0004EFF00287BD041F0200177E0042B0AD1C7
:1016B00021F0070189B22183204607F040FF10B1D5
:1016C00041F020012183218B01F0070AAA4550D067
:1016D0000027B946AAE7236921F0070141F0060176
:1016E000062DD3F8009021832DD1B9F1000F40D001
:1016F00041F00801218388F31188BFF36F8F3A49C5
:101700002046C84729E021F00701236941F0040180
:1017100089B2042DD3F804902183E6D000273E46F9
:101720004FF0040A82E721F00701236941F0050127
:1017300089B2052DD3F808902183D6D000273E46E4
:101740004FF0050A72E700273E464FF0060A6DE7A4
:101750002B4687E7B9F1000FD1D14FF02003EFF30B
:10176000118883F31288BFF36F8F238B23F0080354
:101770002383258BEA062ED525F01003238305F05D
:1017800007056669218B002EBFF66FAF002327681F
:10179000C4E9003321F0070141F001012183218BCD
:1017A00001F0070AAA454FF000097FF43FAF002F70
:1017B0009BD041F00801218388F31188BFF36F8F1C
:1017C000002FC7D03D68394633465246204607F0C1
:1017D000E2FE2F46F4E7AB067FF51AAF25F02003B3
:1017E000238305F00705FFE6C39500002DE9F04FC0
:1017F000814695B08B4617461C460025387808B9B7
:10180000284658E37B1C2528039306D05946C84731
:101810000028C0F250830135FBE1182200210EA8F8
:1018200008F05CFA7B78252B7DD00023781C984645
:101830009E469C461E46014610F8012B2B2A00F0BE
:10184000A18000F29880202A00F09F80232A00F0D7
:101850009F802BB19DF8403043F040038DF840301D
:10186000B8F1000F05D09DF8403043F020038DF80B
:101870004030BEF1000F05D09DF8403043F010031A
:101880008DF84030BCF1000F05D09DF8403043F09A
:1018900008038DF840302EB19DF8403043F004032A
:1018A0008DF840309DF8403003F04400442803D1C7
:1018B0006FF386138DF840309DF840302A2A43F0AC
:1018C00080038DF840307FD19DF8412042F0010225
:1018D0004B1C8DF841201A782E2A9DF841200CBF10
:1018E0000121002161F341028DF8412078D15A781D
:1018F0002A2A6ED0013300224FF00A0C194611F843
:10190000010BA0F13006092E40F295809DF84010A1
:101910001292C1F3400040EAD2700A4660F34102DD
:101920008DF840205CE0BA1C03928DF843309DF89E
:101930004130DA0740F12E8154F8048BB8F1000FE2
:1019400007DA9DF8402042F004028DF84020C8F1EB
:1019500000085E0740F1278154F804ABBAF1000F8C
:1019600080F226819DF841306FF341038DF84130BC
:101970004FF0FF3A1CE12D2A0DD0302A7FF469AFD9
:10198000012358E74FF0010C55E74FF0010E52E7E5
:101990004FF001084FE701264DE70EFB0262303A97
:1019A0000346184610F8016BA6F1300CBCF1090F84
:1019B000F3D999428FD09DF840101192D20F62F363
:1019C00041018DF8401086E70B4600224FF00A0EC9
:1019D000E7E79DF8412042F004028DF841200233F0
:1019E0001A786C2A47D02BD8682A31D06A2A4BD073
:1019F0004C2A51D01A4612F8013B0392782B9DF8DD
:101A000041208DF8433000F2BE806D2B51D8692BF8
:101A100000F2B980572B67D8412B03D0453B022BEE
:101A200000F2B1809DF84230042262F302038DF887
:101A30004230012373E00CFB0202303A0B465DE7B3
:101A4000742A25D07A2AD5D19DF8412006210CE0B0
:101A50005A78682A9DF8412006D1012161F3C60217
:101A60008DF841200233C5E7022161F3C6028DF8EB
:101A700041200133BEE75A786C2A9DF8412001D1FC
:101A80000421EBE70321F0E79DF841200521ECE775
:101A90009DF841200721E8E7BDF8402022F4F042FC
:101AA00022F0020242F4804242F00202ADF84020ED
:101AB000DFE76E3BD9B201238B4040F282410B42FB
:101AC00037D113F0240F51D1D8075CD59DF842309F
:101AD000032161F302038DF8423002F07803A3F191
:101AE00040014B424B411AE0A3F15801C9B2012019
:101AF00000FA01F111F4624F94D140F6010631422F
:101B00001DD111F4043F3ED09DF8423060F3020332
:101B100002F07802402A8DF8423034D000239DF83C
:101B20004020C2F340010B4363F341028DF8402093
:101B3000FDE69DF84230022161F30203E8E79DF8DB
:101B40004210022002F0780260F30201402A8DF870
:101B5000421002BF9DF8401041F001018DF8401085
:101B6000632BDBD1131E18BF0123D8E79DF8423049
:101B7000032161F3020312F0780F8DF8423014BF95
:101B800001230023CBE79DF8403043F001038DF89B
:101B90004030C3E79DF94020002AB4BFDDF84480FF
:101BA0004FF0FF38D5E698077FF5E2AEDDF848A0A4
:101BB0009DF841100023CDE911339DF8423003F028
:101BC0000703012BC1F3C30133D1CB1E042B04D86F
:101BD000DFE803F0214646212100236801294FEA6E
:101BE000E372CDE90E321CD19DF93830DA17CDE918
:101BF0000E3204349DF8403013F0030650D0039B9E
:101C00003A465946484607F0FAFD0028C0F253818B
:101C10000544039FF2E554F8043BDA17CDE90E3290
:101C2000E8E70229E5D11AB243F3C033CDE90E2328
:101C3000DFE7022B24D1CB1E042B04D8DFE803F00E
:101C4000181010181800012954F8043B4FF0000236
:101C500014D00229CDE90E32CCD19BB20E93C9E744
:101C6000073424F00704F4E80223CDE90E23C1E78A
:101C700054F8043B0E9300230F93BBE7DBB2CDE790
:101C8000042B08D1073424F00704D4E900230834D6
:101C9000CDE90E23AEE7032BACD154F8043BDDE7CE
:101CA0009DF843007828B4D862281CD825283FF432
:101CB000ADAD5828ADD10DF136030093DDE90E012D
:101CC00008AB10AA07F055FDBAF1000F074680F2E5
:101CD0009A80002F9DD00DF13603D81B002E00F006
:101CE000C1800130BEE06338152892D801A252F8B5
:101CF00020F000BFC91D0000DB1D0000131C000008
:101D0000131C0000131C0000131C0000DB1D00004E
:101D1000131C0000131C0000131C0000131C000007
:101D2000691E0000011E0000271E0000131C000099
:101D3000131C00004D1D0000131C0000011E0000BC
:101D4000131C0000131C0000011E0000BAF1000F5C
:101D50000E9F35DB5146384607F0A0FF07EB000A1F
:101D6000002F3FF456AF00269DF8423013F01002CA
:101D7000059200F0938002305B06119A48BF129BD7
:101D80000492104448BFC018B8F1000F40F3A0807F
:101D90009DF84020A8EB0008C2F38003500706938B
:101DA00000F19680510640F189803EB15946304697
:101DB000C84700287FDB069B01351E4630227EE0A7
:101DC000384607F064FFC9E70E9B8DF820300026E7
:101DD00008AF0DF1210A0120C6E719075CBFC3F364
:101DE00000135E01DDE90E2348BF2B26002BBFF652
:101DF00062AF524263EB4303CDE90E232D265AE72F
:101E0000002658E700269DF840200DF13603DB1B25
:101E10006FF386129A458DF840207FF65AAFAAEBF1
:101E20000303119355E70E9890B30DF13603009319
:101E300010AA08AB002107F09CFCBDF8423003F06B
:101E4000EF0343F4F04343F01003BAF1000F0746E9
:101E5000ADF84230D6DA00283FF4DBAE0DF13603A0
:101E6000181A00269A467FE70E9B07293FF6D1AE47
:101E7000DFE801F00C04060C08080C0C1D70C8E625
:101E80001D80C6E6EA17C3E90052C2E61D60C0E63F
:101E90002E4F064607F1050A052065E71A0748BFD9
:101EA000013069E70793104606925946C847002853
:101EB000DDE9062304DA15B0BDE8F08F20224346A1
:101EC0001946002903F1FF33ECDC45446D1A9846AE
:101ED0002EB159463046C8470028ECDB01359DF845
:101EE0004230DA0601D41B0705D559463020C847D1
:101EF0000028E0DB0135059B33B19DF843005946CE
:101F0000C8470028D7DB0135049E2E4405E059461A
:101F10003020C8470028CEDB0135731B002BF6DCD0
:101F200053463A465946484607F069FC0028C2DB4A
:101F30000544A844A8EB0503002B7FF76AAE594679
:101F40002020C8470028B6DB0135F3E769B200005E
:101F500008B504464FF02002EFF3118382F3128894
:101F6000BFF36F8F03F06AFC204601F021FF0348A6
:101F700007F0EEF801F00AFBFCE700BF6FB20000CB
:101F800003F08EBC2DE9F84305464FF02003EFF334
:101F9000118683F31288BFF36F8F0E4B0E4F1C68B0
:101FA000DFF838804FF00C092CB986F31188BFF3A5
:101FB0006F8FBDE8F883D4E90123002D18BF1346C5
:101FC0002BB198F8102009FB02F2B85C98472468FE
:101FD000EAE700BFDC070020D0070020D41A002069
:101FE00070B5194B1C7CBFF35B8F04F01F030122FB
:101FF0009A40164B610903EB8103D04353E8001F5D
:1020000001EA000543E80056002EF7D1BFF35B8FCD
:102010000A4213D00E4B0F4D8BB10C236343EA18C9
:10202000E85C517807F072FE0020FFF7ABFF0C234D
:102030005C432A1900232B51C2E9013370BD83F39D
:102040001188BFF36F8FEFE7D41A0020E407002058
:102050000D9D0000D00700202DE9F041354B0746CB
:102060001D7C4FF02003EFF3118883F31288BFF338
:102070006F8F0C24304B314E6C431A19195D0029B7
:102080004CD007CA06EB040C8CE8070000221A5556
:1020900088F31188BFF36F8F0C236B43F218F05C49
:1020A000002839D07B1C10D0D2F808C0244C254A17
:1020B0004FF400400021ECFB004100232046FFF7D5
:1020C0001FF80121381A03F07DFB06F03DFB0120CB
:1020D000FFF758FFBFF35B8F1B4B6A0903EB8203CB
:1020E00005F01F0101228A4053E8000F104343E826
:1020F00000010029F8D1BFF35B8F144B3BB10C23D7
:1021000003FB05F03318305C597807F0F3FDFFF757
:1021100067FF06F02DFB0120BDE8F081014628464F
:1021200000F016F80028B3D007C8344484E807004C
:10213000AEE700BFD41A0020C4070020D00700205B
:102140003F420F0040420F00E4070020F59C0000D2
:102150002DE9F04F85B00E4603A900F043F81E4B61
:10216000039DD3F800A0DFF87480431E1BB203EB7D
:102170004303044605EB83054FF400474FF0000B83
:1021800024B9A146484605B0BDE8F08F6868144AF6
:10219000C4465946E0FB07C100236046FEF7B0FF86
:1021A0000190A8680E4AC4465946E0FB07C10023C7
:1021B0006046FEF7A5FFBAF1FF3FA94601D0824570
:1021C00005D9731CDED0019B1844B042DAD9013C1A
:1021D000A4B20C3DD4E700BFB40000203F420F0082
:1021E00040420F0008B9024B0B600020704700BF4F
:1021F000DCAE0000F0B40C4B0C4E5F6A0C4BB342EB
:1022000003D36FF08500F0BC70475D68BD4209D311
:102210001C693CB195F802C00579AC4502D1234652
:10222000F0BC18472433EAE7E80700201C0400202C
:10223000D40300202DE9F047134CDFF85080DFF87D
:10224000509005460E461746444503D36FF085006F
:10225000BDE8F0876268D9F824309A4212D3A369A6
:1022600083B190782979884205D13A46314628468B
:10227000BDE8F04718475279012A03D13A46314662
:10228000284698472434DFE7D40300201C040020AC
:10229000E80700202DE9F0410B4CDFF830800546BF
:1022A0000E461746444502D36FF0850009E0636986
:1022B0000BB92434F6E73A463146284698470028B9
:1022C000F7D1BDE8F08100BFD40300201C0400203A
:1022D00010B5044607F06DFD10F1780F00D050B92D
:1022E000054A204607F04BFBD2F8C43023EA00032E
:1022F000C2F8C430002010BDE807002002480822C0
:10230000002107F0EBBC00BFA308002070B50B4B09
:102310000B4CA34201D3002070BD196A1E7F00221E
:102320000439D5B2AE4201D82433F2E7013211F8B4
:1023300032508542F5D10120EEE700BFD4030020E2
:102340001C04002008B509480378C3F341130A337D
:1023500050F823303BB100F1080200F1100198471A
:10236000C043C00F08BD1846FCE700BFE8070020C7
:1023700004282DE9F14FDFF8989004460F4616D057
:1023800001282DD1DFF88C8098F8B93043B300F0E4
:10239000DFFD214D4D4520D2D5F820B04FF0000A89
:1023A0002B7F5FFA8AF6B34204D82435F2E7FFF7B1
:1023B000A5FFE7E70BEBC6060AF1010A307907F043
:1023C000F8FC0246307907F0DAFAD8F8C430002A6F
:1023D00023EA0003C8F8C430E2DA002388F8B930F1
:1023E0000D4D4D4508D30B4B1B6A6BB1394620464A
:1023F00001B0BDE8F04F1847EB681BB13A462146E3
:10240000284698472435ECE701B0BDE8F08F00BFBF
:102410001C040020E8070020D403002073B5C4B2D8
:1024200063060D468DF8074007D02046FFF76EFF84
:1024300078B10D4B93F8BA0058B10B4E204655B108
:1024400002F06AF9F3691BB10DF107010820984702
:10245000012002B070BD02F087F9F369002BF7D0BC
:102460000DF107010920F2E7E807002073B586782F
:102470008DF80060037942791C4C43EA0223ADF8E1
:102480000230C378304603F003038DF8043007F0C0
:1024900076FAD4F8C430184205460BD0304600F026
:1024A00039FD3046FFF714FF08F055F810B99620B3
:1024B00006F01EFA684602F00BF910F1780F03D00F
:1024C00010B1002002B070BD9DF8000002F088F944
:1024D00010F1780F01D00028F3D1D4F8C4300120D6
:1024E0002B4384F8B900C4F8C430EBE7E8070020B8
:1024F0002DE9F047A34EB36904460F461546FBB9D4
:10250000237803F01F03012B00F09D80022B00F0C5
:10251000048133BB94F900002A686178002834DA1A
:10252000062912D008292BD0D9B901231370517074
:1025300096F8C3305B0043F00103137002232AE1D5
:1025400098470028DCD100200DE06288100A011FA6
:102550000129844605D9072803D8716AD2B20C78BC
:102560001CB96FF01500BDE8F0874E78664503D1C1
:102570009A4200F00B8101332144F0E70B780AE125
:1025800096F8BA301370012305E101390829E8D81B
:1025900001A353F821F000BF31260000632500009D
:1025A0003F26000063250000BD25000063250000D4
:1025B0006325000063250000C9250000A07802F013
:1025C00075F80028BFD0CCE76388756A63BBFFF756
:1025D00095FE638886F8BA30F369002BB3D06A4958
:1025E00003209847AFE76B78042B10D0052B11D050
:1025F000022B04D16F796388BB4208BF01202B787E
:102600001D442B78002BEED10028AAD0DFE795F8E7
:102610000380F4E76388BB42F1D1B8F1000FEED13B
:102620002846FFF723FFEAE7FF270020B846E8E740
:102630006388012B95D1002386F8C33083E7638834
:10264000012B8ED1F8E796F8BA30D5F800C0002BF0
:1026500087D0756AA38894F804E02A461078002889
:102660003FF47FAF5178022904D192F80480F045FD
:1026700000F293800244F1E78CF800208CF80120EE
:10268000396060E7154494E00B2A7FF46AAF0027B5
:102690004FF0FF08C146BA4606E06B78042B0FD016
:1026A000052B21D02B781D442B78002BF5D1F36915
:1026B00013B1514607209847002F7FF444AF50E7ED
:1026C00095F80280A38895F803909845EAD163882D
:1026D0009945E7D1B8F1070F1CD806EB0803AA46C5
:1026E00083F8BB900127DDE7A3884345DAD1A378BF
:1026F0004B450AD0AF78384600F00CFC3846FFF75F
:10270000E7FDB0FA80F77F09CCE72846FFF7AEFE79
:102710000746C7E7AA460027C4E794F90020637874
:10272000002A18DA002B7FF41CAF24792D68630689
:102730000AD02046FFF7EAFD00283FF412AF96F8D2
:10274000BA30002B3FF40DAF2946204602F02CF89A
:1027500000236B70F2E6012B08D0032B7FF401AF4E
:102760006388002B7FF4FDAE012103E0618800291E
:102770007FF4F7AEA088FFF751FE00287FF4E3AEA8
:10278000EFE600BFE8070020A20800200228296029
:102790007FF4F4AE4B883B60D5E694F90000627894
:1027A0000028BFF671AF002A3FF466AF0A2A7FF413
:1027B000D8AE2A78002A3FF4D4AE697804297FF491
:1027C00061AFA9788B427FF45DAF072B96BF9B1951
:1027D000002393F8BB308CF80030D4E613B5134CCB
:1027E000237DCBB9E268A168019201AB802007F09C
:1027F000D4F8019AA3681344A360E3689B1AE360CA
:1028000043B93AB12369E2889A4203DD9B0601D1BC
:102810000123237502B010BD00231A4619468020FB
:10282000237502B0BDE8104002F004B8E8070020AC
:1028300030B585B0002302460D460193002858D1DB
:10284000002935D108220B460DEB020107F0CAFA28
:10285000002804DA802001F05FFF05B030BD2A4C6B
:10286000029A2260039A626004F13802A2609DF924
:102870000820BDF80E302575002AC4E903550ADB8F
:10288000802B04D9802001F047FF0020E3E713B13B
:10289000C4E90333E1E7FFF755FD0028DAD0E28809
:1028A00023699A42D4BFE260E360FFF797FFD4E761
:1028B000154CD4E90215002D01AB04DC07F092FAA7
:1028C0000028CADAC6E72A4607F08CFA0028D9DBC6
:1028D000019AA3681344A360E3689B1AE360002B8A
:1028E000BBD104F13803A360FFF72CFD0028DCD135
:1028F000B0E78028B1D1044BDA68002AD5D11B7D1E
:10290000002BD2D1A9E700BFE8070020054B064AFB
:102910009A62064ADA62064A1A63064A58629A615D
:1029200000207047E8070020F1240000F521000096
:10293000952200003522000010B5084B93F8B840EE
:1029400034B900F0D7F830B1FFF7E0FF204610BDF2
:102950006FF07700FBE74FF0FF30F8E7E807002063
:102960002DE9F34104463B4D3B484FF0FF324FF019
:10297000FF3305F057FA95F8B860002E67D1374855
:102980002C62E86102F070F801F05EFE041E42DB8A
:1029900000F002FB041E3EDB40236846ADF8023027
:1029A0008DF804608DF8006001F092FE041E32DBA9
:1029B000802768468DF8007001F08AFE041E2ADB2D
:1029C0002749304602F03CF8041E24DB24493846EF
:1029D00002F036F8041E1EDB224CDFF88C804445E2
:1029E00020D3002001F0FCFE041E14DBD5F8C43017
:1029F000802043F00103C5F8C43001F0F1FE041E4D
:102A000009DBD5F8C43043F48033C5F8C430012362
:102A100085F8B8300024104805F07EFA204602B050
:102A2000BDE8F081276A0026227FF3B29A4201D8DE
:102A30002434D4E707EBC30257F83310107901F0C0
:102A4000FFFF01360028EFD04FF0FF34E3E76FF0CF
:102A50007704E0E7E8070020C402002071230000AB
:102A600031280000D40300201C04002030B51F4B87
:102A70008BB005AA03F1100518685968144603C401
:102A80000833AB422246F7D11B7823701022002175
:102A900001A807F023F912220021154807F01EF9BA
:102AA000102101A807F093FA00281BDD0828B8BF01
:102AB0000820093801AB0E491A18002012F8013F0E
:102AC0000AAC04EB131403F00F0328336B440130FA
:102AD00014F8144C13F8143C0C7008284B7001F1D6
:102AE0000201EBD102480BB030BD00BFA6B200001E
:102AF000F21C00202DE9F04F644C85B000264FF009
:102B0000011BB1463546B24623782BB9604B0234DF
:102B10009C42F3D15D481CE06378052B05D8DFE8C3
:102B200003F07B04037B0725A24623781C44EBE7D4
:102B3000E378002BF9D1A37873B109F101095FFAA9
:102B400089F9F2E76A68944209D024359D42F9D3A5
:102B5000002005B0BDE8F08F4E4D4F4BF6E7AB6857
:102B6000002BEAD0494620469847E6E7002DEFD0F3
:102B7000002301212A7F9342EAD22A6AA77802EB36
:102B8000C3021079874201D00133F3E70127E078CF
:102B900000F003008DF80C00207994F805C040EA9D
:102BA0000C20ADF80A0094F9020000285FFA87F8BB
:102BB00027DA07F1100001FA00F010EA0B0F27D115
:102BC00048F080008DF8080002A8CDE9003207F037
:102BD000D8F8DDE900320121D0B99DF80830A370A2
:102BE00013F0800F18BF08F11008137118BF5FFAB7
:102BF00088F80B460CBFBB4001FA08F34BEA030B05
:102C000093E701FA07F010EA0B0F01D14046D9E72C
:102C10000137102FBBD1B7E7032E1DD1FFF726FFD9
:102C2000074668B107F033F8804648B11B4807F003
:102C30002EF8804504D142463946A01C07F043F8DF
:102C400023786FF00201E218091B04EB5303D14211
:102C500013D50136F6B268E7002EF1D1BAF1000FB4
:102C60003FF476AFA4EB0A038AF80230C3F30723DC
:102C70008AF803308AF80490EBE74FF0000002F87E
:102C8000010C13F8010902F8020DE0E70803002027
:102C9000D2030020D40300201C040020A6B20000B0
:102CA00010B5094B00211A461C78844204D15C6897
:102CB00014B102EB811010BD0131042903F140036E
:102CC000F2D10020F7E700BFB00800202DE9F34162
:102CD00050F8283C10F82C6C1033044610D10369CE
:102CE00050F8202C99073CD502BB13F0040304D103
:102CF0001A461946304606F050FE002344F8283C98
:102D000054F8283C10330ED054F8185C5DB154F8D8
:102D10001C7C54F8148C07F01EFC00284CD02C4866
:102D2000214607F00CFD02B0BDE8F08150F8241CEC
:102D300001AB304606F031FE10B16FF01503DDE750
:102D4000019A54F8243C134444F8243C54F8203CA1
:102D50009B1A44F8203C54F81C3C134444F81C3C97
:102D6000CEE750F8241C01AB304601F0DFFD00280F
:102D7000E3D1019D54F8243C2B4444F8243C54F8FE
:102D8000203C5B1B44F8203C54F81C3C2B4444F88A
:102D90001C3C002DB1D0304601F06CFEB5FBF0F3C9
:102DA00003FB1055002DA8D154F8203C002BA4D0D3
:102DB000304601F003FEA3E744F8180CA4F110001C
:102DC00005F01AF9424639463046A847ABE700BF3E
:102DD000A00400204B1E012B73B506460D460FD8EC
:102DE000FFF75EFF044668B9012D09D101AB01224E
:102DF0000DF10301304601F099FD019B002BF5D147
:102E000002B070BD07F0A7FB04F12C0108B1012D41
:102E100005D1084602B0BDE87040FFF757BF034830
:102E200002B0BDE8704007F08ABC00BFA0040020DB
:102E30002DE9F74F064601911546984606F0F5FD37
:102E4000044600285CD14FF02003EFF3118A83F38E
:102E50001288BFF36F8FDFF8B0B00022002358460E
:102E600005F0EAF870B9DFF8A490A70109EB841423
:102E7000636813F1100F14D10193584605F0BCF8A4
:102E8000019B06E00134042C0BF1400BE5D16FF0FF
:102E90000B038AF31188BFF36F8F184603B0BDE8A8
:102EA000F08F019B2061C4E902350C9B63610D9B8F
:102EB000A36130466FF00F0309F80760C4F83C8047
:102EC000636001F0D7FD58B1304601F0D3FDB5FB8A
:102ED000F0F303FB10551DB1E36B43F00403E36310
:102EE00018F0020F07D007F12C010948494407F0F8
:102EF00026FC0023CDE7304601F060FD0346C8E71D
:102F00006FF00F03C9E700BFCC080020B008002015
:102F1000A004002010B54FF02003EFF3118483F3D9
:102F20001288BFF36F8FFFF7BBFE50B143681033B9
:102F300007D16FF08B03436000F12C01034807F0C9
:102F4000FEFB84F31188BFF36F8F10BDA004002037
:102F500070B50F4C04254FF02003EFF3118683F377
:102F60001288BFF36F8F6368103307D16FF08B0344
:102F70000848636004F12C0107F0E1FB86F3118837
:102F8000BFF36F8F013D04F14004E4D170BD00BF79
:102F9000B0080020A004002070B50A4C0A4E00259D
:102FA0003146204607F0AEFB0122A4F11000114685
:102FB000013507F06AFB042D04F14004F0D1002034
:102FC00070BD00BFDC080020CD2C000070B50446A9
:102FD0000E4601791248154606F003FDE8B194F952
:102FE00000206378002A11DB202B04D0222B09D08B
:102FF0006FF0850005E029680722103806F063FEAF
:10300000002070BD638800F8093CF9E7212BEFD15F
:103010001038072328603360F2E76FF01200F0E702
:10302000B009002008B50146034806F0E8FC10B1DD
:10303000012300F8073C08BDB00900200169012305
:1030400081F84B300B6833B191F849301BB102481D
:10305000083107F074BB7047A00400200169012308
:1030600081F84A300B6833B191F848301BB10248FF
:10307000083107F064BB7047A00400200D4A0346E6
:103080000021A0F848101068C3F894009088927945
:10309000A3F8980083F89A2083F89C1083F89B107B
:1030A000A3F89E1083F8A010402203F14C0006F014
:1030B00015BE00BFB0AE000038B5056995F89E009A
:1030C00088B195F89F307BB985F84830D5F89000E5
:1030D00006F0E0FB002204460023044805F1180135
:1030E00005F000F9204638BD0020FCE7A0040020D0
:1030F00013B504698DF8071094F89E30A3B194F8C5
:103100009F308BB90DF10701D4F8900084F8483056
:10311000012206F0BFFB014640B10D4821220023E9
:1031200004F1180105F0DEF802B010BDD4F89000EB
:10313000012206F003FC0028F6D0D4F8900001220A
:103140000DF1070106F0A6FB0028E6D1ECE700BF71
:10315000A0040020F0B5D0F88C305B681B6A1F7D9E
:1031600085B00546384606F060FC0646E0B9A86F13
:103170004FF4806203A906F0ACFB0446A0B18306BD
:10318000A5F1180308BF00F1FF3485F83060019302
:10319000064B03990093224602233846FFF748FE68
:1031A000A86F214606F0B5FB05B0F0BDB1310000B7
:1031B00010B5012382F84830136814463BB192F8E9
:1031C0004A3023B10A4802F1080107F0B8FAD4F8EE
:1031D00090309A681B699A4208D004F1180104489B
:1031E000BDE810400022002305F07CB810BD00BFF0
:1031F000A004002010B504690023C4F8A8300C4BCB
:10320000C4F8A400596804F1A80269B9C3E900220E
:1032100004F10800074907F075FA04F1180006499F
:1032200007F09EFA002010BD0A605A60F0E700BF68
:10323000B0090020559A00005531000030B54FF418
:103240000033426805690D4C85B042F2A100CDE91A
:103250000103002385F89D30106AADF80C10007949
:103260000A2201A906F099FB95F89D3023B90120A7
:1032700007F099FB013CF7D105B030BDA1860100F4
:1032800073B5144602F14C060A1E05461FDDD4F83C
:103290008C00314606F0FEFA012384F84930236899
:1032A0003BB194F84B3023B10E4804F1080107F00C
:1032B00046FAD4F88C104B684A699A1ACB699B1A63
:1032C0003F2B04D8012384F8A03002B070BD064B18
:1032D000009301940123402231462846FFF7A8FDC0
:1032E000F3E700BFA00400208132000038B50D468E
:1032F00001461E4806F069FB044680B30246691E7B
:1033000052F8A4395B68052929D8DFE801F02028A4
:103310000320252914F8061C31B91B6A187BFFF716
:10332000AFFF012304F8063C14F85C3CBBB9012351
:1033300004F85C3C54F8A43C8BB114F85A3C73B1CB
:10334000A4F19C010A48BDE8384007F0F8B9BDE88F
:1033500038401046FFF792BE012304F8053C38BD03
:1033600014F8053C002BFAD00023F6E7B009002042
:10337000A004002037B5094D0949002400944FF0FE
:10338000FF334FF48062284604F074FF0549284655
:1033900007F0E7F8204603B030BD00BFA0040020CE
:1033A00080210020EDB20000014805F027BD00BFDC
:1033B00030AF000038B5044618B90F4B0F485B68B2
:1033C00098476168B1F5683F0FD0B1F5680F0CD030
:1033D0000B4DA94209D011F4686107D00948214674
:1033E00007F090F800232360656038BD2068142240
:1033F00006F074FCF8E700BFE8010020F6B2000018
:103400002C5F5CA9B80E002008B520B34368B3F563
:10341000683F10D101220368BFF35B8F53E8001FA0
:10342000002903D143E800200028F7D1BFF35B8FC8
:103430000DD1002008BD094A93420AD000684FF020
:10344000FF324FF0FF3304F0EDFC0028F1D00448C8
:10345000F0E70448EEE76FF4E040EBE72C5F5CA98F
:10346000E98FFFFFEA8FFFFF08B5D8B14368B3F5D6
:10347000683F10D100220368BFF35B8F53E8001F41
:10348000012903D143E800200028F7D1BFF35B8F67
:103490000BD1002008BD074A934208D0006804F011
:1034A0003BFDF6E76FF4E040F4E70348F2E703483A
:1034B000F0E700BF2C5F5CA9E98FFFFFEA8FFFFFF9
:1034C00010B5044618B91D4B1D485B6898476368E2
:1034D000B3F5683F2FD0B3F5680F2CD0194A93424B
:1034E00019D1236803BB18484FF0FF324FF0FF3368
:1034F000214604F093FB08B923681BB90F4B13480E
:103500005B68984720681422002106F0E7FB4FF41F
:103510006863636008E0B3F5683F0DD83A2B03D0C9
:1035200040F6BA629342DED1206807F02EF8636855
:1035300043F03A03636010BD054AF3E7E801002059
:10354000F6B200002C5F5CA9B80E00201CB300008E
:103550003A00003A08B5064906484023142206F00E
:10356000C3FFBDE808400449044805F0B9BC00BFEA
:10357000B8090020B80E002038AF00004CAF0000A2
:10358000014910220A60704710ED00E072B6404019
:1035900080F31188BFF36F8FBFF34F8F30BF62B6D8
:1035A000BFF36F8F704700BF72B6494081F3118837
:1035B000BFF34F8F20BF80F3118862B6704700BF02
:1035C00040B2002807DB044A4109012300F01F0034
:1035D000834042F82130704700E100E040B200280B
:1035E0000CDB4309064900F01F0020330122824012
:1035F00041F82320BFF34F8FBFF36F8F704700BF99
:1036000000E100E0054B420900F01F0053F82220C2
:10361000012303FA00F01040704700BF00E100E012
:1036200040B20028A8BF00F1604001F10101B8BF1D
:10363000064B4FEA4111ACBF00F5614000F00F00AE
:10364000C9B2B4BF195480F80013704714ED00E0FC
:1036500030BFFFF7FDBF00BF0B4A08B50B4B22F090
:103660007F029A60BFF34F8FBFF36F8FD3F888202C
:1036700022F47002C3F8882004F00CFA05F0CAF9AD
:1036800000F020FA04F04AFA0010000000ED00E01B
:10369000094A0A49936809689967094958674B6854
:1036A00043F080534B60002383F31188BFF36F8F87
:1036B0009368986F704700BFD41A0020F8B00000DC
:1036C00000ED00E012498A684FF030001044EFF33B
:1036D000098C80E8F01F202080F31288BFF36F8FE1
:1036E0000C4F4FF000668A698A603E60506F00237D
:1036F000536780F3118804B5104600F07FFABDE8E7
:10370000044002F1300090E8F01F8CF30988704704
:10371000D41A002004ED00E01EF0040F0CBFEFF3FC
:103720000880EFF30980816911F8021C0229FFD09B
:1037300001B506F09DFA01BD42F8203C009B42F81D
:103740001C3C0A49019B42F8183C029B42F8143C7D
:1037500021F001014FF0807342F8043C42F8081C4C
:103760000023203A02654367704700BF6B91000059
:10377000094A0346906870B113F1160F406E05D0E8
:10378000A0F140029A4205D8834203D2814228BF69
:103790000020704700207047D41A002008B5094B5C
:1037A0000D461446986000F029FA204685F30988F2
:1037B000002163B681F31188BFF36F8F00220023CD
:1037C00005F0D3FCD41A002001B572B60B4A50693B
:1037D00000281EBF0021516106F0C8FE62B6EFF35B
:1037E0000580A0F110004FEAC0000549014409C955
:1037F0009847BDE80140034908470000D41A00205B
:1038000050AC000009380000044B99689869884260
:1038100003D003494FF080520A607047D41A002049
:1038200004ED00E070B5264B15469A6A12F0100FB1
:103830009A6A14BF1124102412F0080F9A6A18BF54
:103840001224920706460AD5586B9A6A140634D594
:1038500019B19A6A22F080029A62132401E06FF093
:103860001500174B9A6A12F0010F9A6A18BF1424B8
:1038700012F0200F9A6A18BF1524D20602D49B6A50
:103880009B070AD50E4B5B68190506D53146FFF735
:103890006FFF10B180F309880224094B9A6A9206DF
:1038A00042BF5A6A22F400525A629A6A42F0FF02F8
:1038B0009A6200232B70204670BD6FF01500CCE794
:1038C00000ED00E0134B9A6A12F0007F9A6A14BF71
:1038D0001E201D2012F0807F9A6A18BF1F2012F44C
:1038E000002F9A6A18BF212012F4802F9A6A18BFFD
:1038F000222012F4003F9A6A18BF232012F4803F5E
:103900009A6A6FEA02426FEA12429A6218BF242052
:10391000704700BF00ED00E010B5194B0246986AF1
:103920009C6A10F4805F14BF1720162014F4006FF7
:103930009C6A18BF1820A40509D5986B986A0004E2
:1039400004D51AB19A6A22F400429A6219200C4BEB
:103950009A6A12F4806F9A6A18BF1A20D2050CD4A2
:103960009B6A13F4005F18BF1C20054A936A43F456
:103970007F43936200230B7010BD1B20F5E700BF4F
:1039800000ED00E070B5454B5B688AB00546C3F3B7
:103990000803002686F31188BFF36F8F02F07F4083
:1039A000B0F17F4F11D102F00C0008280DD01007A4
:1039B0004CBF0D4601260022033B8DF80720032B48
:1039C00005D8DFE803F01E5D615A3546F3E70024B1
:1039D0009DF807309BB92022294602A806F073F90A
:1039E000099B002E54D0C3F3080222B96FEA532377
:1039F0006FEA4323099302A9204606F037F90AB07B
:103A000070BD264BDA6A9107E1D4DA6A002ADEDB60
:103A1000DA6A5200DBD55A69A96942F480725A61A8
:103A2000BFF34F8FBFF36F8F5A6931F8021C22F436
:103A300080725A61BFF34F8FBFF36F8F4DF60272E2
:103A400091420AD09A6AD2B24AB10DF1070201211D
:103A50002846FFF7E7FE0446BAE72C68B8E79A6AFB
:103A600012F47F4F05D00DF107010120FFF754FF3D
:103A7000F1E79B6AB3F5803FA9D3FFF723FFEAE79D
:103A80000DF107020021E3E70DF107010020EDE74A
:103A900023F4FF7323F00103ACE700BF00ED00E067
:103AA000024A536943F010035361704700ED00E090
:103AB000EFF30880EFF3098101B57246FFF762FF6B
:103AC00001BD00BF044800232021C2180133302B60
:103AD00082F80013F9D1704700E100E0002080F384
:103AE0001488BFF36F8FFEF74BFA00200D49086072
:103AF000BFF34F8F0C4880F3088800F02BF820208C
:103B000080F3118809484FF40461401880F3098854
:103B1000EFF314800221084380F31488BFF36F8F02
:103B2000FFF79AFD94ED00E0C0370020002A002046
:103B30000749D1F890200023C2F307221846934288
:103B400000DB7047C1F89830C1F8A0000133F6E7F8
:103B500000ED00E008B572B6002383F31388FFF789
:103B6000E7FF144B4FF0FF32C3F88020C3F88420E6
:103B7000C3F88820C3F88C20C3F89020C3F89420A1
:103B8000C3F89820C3F89C20C3F88021C3F884218F
:103B9000C3F88821C3F88C21C3F89021C3F894217D
:103BA000C3F89821C3F89C2162B6BFF34F8FBFF3CF
:103BB0006F8F08BD00E100E0084B9B6883420BD18A
:103BC000EFF3058343B1064B5A6842F080525A60C6
:103BD0005A6A22F400425A6204F0AABED41A0020A3
:103BE00000ED00E0024B034A0348012100F070B8E9
:103BF00000000420000000205CAF0000426E054B76
:103C0000403A1A60044A4021C3E9011218460121D2
:103C100000F068B8D40E002000000B15F0B5204E5F
:103C200000258D4239DA446874B353B104F1FF3C86
:103C300014EA0C0F2FD11F2C2DD907681CEA070F8F
:103C400029D1202C0768D0F808C05FFA82FE1ED95F
:103C5000B4F1004F1DD8013CB4FA84F4C4F11F0440
:103C60006400BEF1070F4CEA040C14D827F01F04BF
:103C7000144344F01004C6F89820C6F89C404CF059
:103C80000104C6F8A040013201350C30C9E7082410
:103C9000E7E73E24E5E76FF015021046F0BD00BFF0
:103CA00000ED00E0044B0522C3F89420BFF34F8FD2
:103CB000BFF36F8F704700BF00ED00E0BFF35F8F71
:103CC000024B0022C3F89420704700BF00ED00E0D3
:103CD00010B5034C01232278FFF7A0FF207010BD20
:103CE000041D002008B5094A00231278FFF796FF4B
:103CF00010F1160F02D0064A072800DD08BDC2F8F1
:103D00009800C2F8A0300130F6E700BF041D002083
:103D100000ED00E014490868082810B521D8FFF725
:103D2000CDFF124C49680022904201F10C0105D1EF
:103D30000F4B1870FFF7B6FF002010BDC4F8982095
:103D400051F80C3C23F01F03134343F01003C4F855
:103D50009C3051F8043C43F00103C4F8A030013218
:103D6000E2E74FF0FF30E8E768AF000000ED00E069
:103D7000041D0020014B1860704700BF3001002077
:103D80004FF02003EFF3118283F31288BFF36F8F9C
:103D900006490123C1F840354FF08041C1F878351C
:103DA00082F31188BFF36F8F0020704700E001405D
:103DB0004FF08043C0B2C3F81C05BFF34F8F0549D5
:103DC000054BCA6802F4E0621343CB60BFF34F8F28
:103DD00000BFFDE700ED00E00400FA0520B1034B51
:103DE000800143F001031847704700BFC0AE0000D8
:103DF00010B50C460146084805F001FE50B1022CF2
:103E000008D150F8083C2BB11B691BB1BDE810402C
:103E10000068184710BD00BFF80E0020F8B590F9F3
:103E20000030002B04460D46174602DB6FF01500EC
:103E3000F8BD038823F0E0039BB240F20162934295
:103E4000F4D1468801791248360A05F0CAFD0028E7
:103E5000ECD0212E04D0222E0FD06FF08500E7E7A2
:103E60000368E1885B685B6813F8092F914294BF8F
:103E700029602A603B600020DAE7E38850F80C2CC8
:103E80009A4294BF2A602B6050F8103CF2E700BFC2
:103E9000F80E00202DE9F04104460E460179144841
:103EA000174605F09EFD0546D0B194F90020006844
:103EB0006378002A0DDA012B16D155F8083C9BB126
:103EC0001D688DB13B4632462146AC46BDE8F04107
:103ED0006047092B08D155F8083C2BB15D68F0E725
:103EE0006FF01200BDE8F0816FF08500FAE700BFC7
:103EF000F80E002010B50C4601460F4805F065FD90
:103F000050B1611E052907D8DFE801F00706030755
:103F10000D0F012300F8043C10BD002300F8043C01
:103F200000F8033CF8E70123FAE710F8033C002B04
:103F3000F2D00023F4E700BFF80E002010B50469AA
:103F4000C4E90012A36000236361064B2061596835
:103F500004F1140211B9C3E9002210BD0A605A60CD
:103F6000FBE700BFF80E0020020600F07F0312D529
:103F7000082B05D1010700F00F0306D50E48704746
:103F800010F0780F12D100F00F034C2000EB43101B
:103F90000A4B18447047082B05D1020700F00F03A5
:103FA00006D50748704710F0780FF6D0002070470C
:103FB000044800EB431070474C100020000F002015
:103FC0006C1100206C1000200149024806F0B7BBBC
:103FD000280F0020400500200146014806F04ABB9A
:103FE000F802002002480022002303F0D1BF00BFE6
:103FF000F802002010B5054CFFF7F4FF20B1011DB9
:10400000204606F07FFAF7E710BD00BF58020020F7
:1040100007B500230E48002201A903F0FFFD90B16F
:10402000FFF7E8FF0A480022002301A903F0F6FD8C
:1040300038B90198042340600374FFF7CDFFFFF700
:10404000C3FF002001E00198406003B05DF804FB6D
:1040500058020020022810B511D8094B1C5CFFF74C
:10406000D7FF60B1002202740472FFF7B5FF054B61
:1040700093F824301BB1BDE81040FFF7A5BF10BD79
:1040800073B30000000F0020F8B587780646384665
:10409000FFF76AFF3B06F578044612D5002D43D1A1
:1040A000FFF7B6FF034600283ED00122A577027431
:1040B000032202739C60FFF78FFFBDE8F840FFF713
:1040C00083BF4DB1012D2FD1FFF7A2FF034658B397
:1040D000657705740573EDE7FFF79AFF20B3B278B3
:1040E000124B12F0800F02F0080111D041B1D3F849
:1040F000A836E36001230374022303738460DAE7C4
:1041000002F00F02142101FB0233D3F80836F0E766
:1041100011B1D3F8A837ECE702F00F02142101FB2C
:104120000233D3F80837E4E7F8BD00BF007002405F
:1041300013B5124802F054FF114B98421AD111489E
:1041400002F0EEF80024104802F030F90F49104850
:1041500000944FF0FF334FF4806204F08BF80D4968
:104160000B4806F0FEF90C480C4906F0CBFA204645
:1041700002B010BD6FF00400FAE700BFE14100009B
:104180000000AD0B76B300008CAF0000C02500200E
:104190004005002068B30000280F002065430000A0
:1041A00010B50E49BFF35B8F002351E8002F012AA1
:1041B00003D141E800300028F7D1BFF35B8F0CD169
:1041C00051F8044C1439204605F099FA783004D19E
:1041D0002046BDE8104005F06DBA10BD200F00204C
:1041E000F0B5064689B01422002103A805F076FD3B
:1041F0003378013B052B21D8DFE803F07A03141450
:104200006A1603238DF814300024FFF701FF0346DC
:10421000A0B1047400F10802DDE9050182E80300A1
:1042200018461DE00423EDE7B7783846FFF79CFEFB
:10423000837A044623B1013B022B43D909B0F0BD78
:104240003B06F57813D5002DF8D1FFF7E1FE0346C4
:104250000028F3D00122A5770274032202739C6028
:10426000FFF7BAFE09B0BDE8F040FFF7ADBE55B1AB
:10427000012DE3D1FFF7CCFE03460028DED06577A1
:1042800005740573EBE7FFF7C3FE07460028D5D09A
:104290000123037402230373846004F10C01B078DA
:1042A00006F0A6F8134AE168B2F88C328B4206D9C0
:1042B0005B1AA2F88C3203F0CFF83846D0E7A2F8A8
:1042C0008C52FAE7304609B0BDE8F040FFF7DCBE9B
:1042D00001A803F09BF89DF80530052B04D19DF84B
:1042E000043013F0600FA9D0034B059301248CE731
:1042F00002248AE7000F00206C10002038B500244B
:1043000064F07F00C0B2FFF72FFE013405F022FDFC
:10431000082CF5D10E4D0024E0B2FFF725FE03690D
:1043200003B90561013405F015FD082C05F14005C0
:10433000F2D1084805F00EFD074BD3F87C2212B9E4
:10434000064AC3F87C22064805F004FD002038BD6B
:10435000901500204C100020000F0020901100202C
:104360006C1100202DE9F043A74CDFF8A08285B046
:104370000746FFF737FE10B905B0BDE8F08394F8A3
:104380002530027C00F104093BB9002A00F0888046
:104390009E48494606F0B6F8EBE7042A44D8DFE821
:1043A00012F07F000500020118014101037B8568BE
:1043B000032B39D8DFE803F0023F5C616E69082205
:1043C0000021304605F08AFC914B9248D3F88024B6
:1043D0003270D3F884247270D3F88824D3F88C1404
:1043E00042EA01227280D3F89024D3F8941442EA6E
:1043F0000122B280D3F89824D3F89C3442EA0323F4
:104400000822F3803146EA6005F05DFC2B68687A8B
:104410000021984796F90030002B08DBF38833B170
:10442000A4F88C3203F018F849464046B2E700235E
:10443000A4F88C32F8E76B7F002BF5D02B7F002B94
:10444000F2D000266E774FF0FF3273482E774FF090
:10445000FF3305F092FC6B6901936B68CDE902367E
:1044600001A9687A02F0FEFD6B4805F088FCDBE7E5
:104470002B680121687A9847D6E7AB7A6BB9EB7F56
:104480005BB965484FF0FF324FF0FF3305F075FC24
:1044900003F012F8604805F072FC2B680221E9E78E
:1044A000027A042AC0D8DFE802F0590323677300B8
:1044B00002F060FD05460028B6D102F097FCBFF37C
:1044C0005B8F5649012351E8002F002A03D141E8B0
:1044D00000300028F7D1BFF35B8FA5D141F8085C0D
:1044E00041F8105CE0696361143905F08BF89BE7D3
:1044F000002565F07F00C0B2FFF736FD037A13B1E7
:10450000407A03F089F90135082DF2D194F854313D
:104510001BB194F8550103F07FF90025E8B2FFF7CD
:1045200023FD037A13B1407A03F076F90135082DA3
:10453000F4D194F874321BB194F8750203F06CF95D
:10454000012002F0F9FC012384F825302368002BB8
:104550003FF46AAF00210220984765E7002584F800
:10456000255003F015F9FFF71BFE2368002B3FF4DD
:104570005BAF29460420EFE7002B3FF455AF02F074
:1045800003FD2368002B3FF44FAF00210520E3E734
:104590002268002A3FF448AF002B3FF445AF0021CA
:1045A0000620904740E707F110054FF0FF334FF02A
:1045B000FF32284605F0E1FBFFF7A0FE284605F094
:1045C000DEFB57F8283C002B3FF42EAF00210120E2
:1045D000C2E794F874327BB1012584F8895284F8DB
:1045E0008852FFF715FD38B10D4A057405738260D6
:1045F000FFF7F2FCFFF7E8FC57F8283C002B3FF4EC
:1046000013AF00210A20A7E7000F00205802002066
:1046100000700240040F0020380F0020200F0020FF
:104620006C11002005F02BFE03F0B2F802F0D4FB71
:10463000FFF7E0FCFFF762FE05F01AFE014802F00A
:10464000CFFCF1E6E141000038B5164D95F8244065
:104650002CBB05F1380005F098FF204600F010FB58
:1046600022460121E8612720FEF7DAFF05F000FE6F
:10467000FFF744FE044610B9012385F824300A4BA5
:104680001B680BB1FFF7A0FC4FF08043D3F8383420
:10469000DB0702D50020FFF7DDFC204638BD0024F3
:1046A000FBE700BF000F0020F8020020074B93F843
:1046B00024203AB193F82530002B14BF00206FF06E
:1046C000120070476FF01200704700BF000F00200B
:1046D00038B5104B93F824300446C3B1057828460A
:1046E000FFF742FC10B96FF0150038BD4572237911
:1046F0008372638843602078618810F0080F02D1CC
:104700004B1E0B42EFD105F06EFE0020EDE76FF07F
:104710001200EAE7000F002038B5124B93F824206E
:104720000546CAB193F82530B3B1FFF71DFC044626
:10473000A8B1837A012B12D007D9023B012B07D9EC
:104740006369A3610020E06038BD02F0BDFEF7E7B9
:10475000284602F02DFEF3E76FF01200F4E76FF049
:104760001500F1E7000F002038B50E4B93F8242018
:10477000054682B193F825306BB1FFF7F5FB68B1C0
:1047800015F008040AD1284602F034FE284603F04A
:1047900097F8204638BD6FF01200FBE76FF0150068
:1047A000F8E700BF000F002038B50C4B93F8242029
:1047B00005460C4662B193F825304BB1FFF7D4FBA8
:1047C00048B144B1284602F0FBFD2070002038BDFE
:1047D0006FF01200FBE76FF01500F8E7000F002004
:1047E00070B5134E96F824300446C3B1FFF7BCFBF6
:1047F0000546B8B1230705D4204602F0FBFD20464C
:1048000003F05EF82B7A83B901232B7296F82530DA
:104810000BB9002070BD204602F0FEFFF9E76FF0F3
:104820001200F7E76FF01500F4E76FF07700F1E79B
:10483000000F00202DE9F043DFF8E4801E4698F8D1
:10484000243085B0074689461546002B61D098F87C
:104850002530002B5DD003065ED5FFF785FB0446AF
:10486000002859D0037A002B56D04FF0FF334FF079
:10487000FF3208F1380005F080FAA37F4BB108F150
:10488000380005F07CFA6FF00A04204605B0BDE858
:10489000F083A37AC5B13BB30123A3774FF000089F
:1048A00001A93846CDE90195CDF80C8002F0DAFB7C
:1048B0001C4B984229D084F81E801EBB6FF0040464
:1048C000194805F05CFAE0E7E27F02B1E577002BDA
:1048D000E2D102F001FEB842DED002F0EDFD124856
:1048E00005F04DFA0024D0E7B8F80A30AB42F0D911
:1048F0006268B5FBF2F302FB1353002BE9D10123ED
:10490000E377E6E7C6F80080D8E706B13560002413
:10491000D6E76FF01204B8E76FF01504B5E700BFF3
:10492000000F00200000AD0B380F00202DE9F041F2
:104930001D46204B174693F824200E46002A33D0FC
:1049400093F8253083B3030631D401B97FBBFFF759
:104950000BFB044658B3037A4BB34FF0FF331648B2
:104960004FF0FF3205F009FAE3689F42B84628BFCE
:10497000984646B93FB905B12B600F4805F0FFF9DD
:104980000020BDE8F081A1694246304605F09BF960
:10499000A3694344A361E368A3EB0803E360002D2C
:1049A000EBD0C5F80080E8E76FF01200E9E76FF0A0
:1049B0001500E6E7000F0020380F002070B51E4DEF
:1049C00095F82420034682B395F825206AB31B0688
:1049D0002ED4FFF7C9FA044650B3037A43B34FF01D
:1049E000FF334FF0FF3205F1380005F0C6F9E368F8
:1049F000B3B9012663692677A361637F83B1FFF7AB
:104A000007FB30B905F1380005F0B9F96FF00B007C
:104A100070BD067484600673FFF7DEFAFFF7D4FA00
:104A2000064805F0ACF90020F2E76FF01200EFE75E
:104A30006FF01500ECE700BF000F0020380F0020DA
:104A400010B5084B93F824300C462BB1FFF78CFAC5
:104A500028B10460002010BD6FF01200FBE76FF07A
:104A60001500F8E7000F0020014B1860704700BFE9
:104A7000000F002008B5074B93F8243023B1FFF74F
:104A800073FA20B1406808BD6FF01200FBE76FF0C9
:104A90001500F8E7000F0020084B70B5C31A0D464B
:104AA00007499B10044659430648402205F0C5F9C2
:104AB0002B4601462046BDE870401847A417002049
:104AC000B76DDBB690AB000073B50C4C0C4A4023BD
:104AD000041B00930D460B460A49A4106143064689
:104AE000094805F0D7F9011E05DA30462B4602B019
:104AF000BDE87040184702B070BD00BFA417002089
:104B0000019F0000B76DDBB690AB0000002270B5CE
:104B1000012104461046FEF783FD0F4801F042F8DC
:104B20000E4B984215D101F04DF826690C493046DC
:104B300004F055FD00280BDB012535642469084984
:104B400004F11C0004F04BFD002801DBE5640020AB
:104B500070BD6FF00400FBE7994B00000000AD0B47
:104B600090AF000070B501460C2309484B43C418B0
:104B7000D4E90E56403300221844A26305F04AF9E6
:104B80002DB132462B460348BDE87040184770BD32
:104B9000A417002090AB000010B1012804D070478A
:104BA000034B1B6C5B0701D1FFF7DCBF704700BFF5
:104BB000A417002008B54FF02003EFF3118183F311
:104BC0001288BFF36F8F124A136843F0020010601F
:104BD000DA0708D481F31188BFF36F8F0120BDE895
:104BE000084005F0A3BA4FF08043D3F80C24D3F863
:104BF0000C34D307EED5074805F00CF981F3118882
:104C0000BFF36F8F0020BDE80840FFF7ABBF00BFC8
:104C1000F4170020E41700201FB500220123CDE97E
:104C20000223094ACDF800D06B46CDF804D005F038
:104C300060F9002805DB4FF480420023684603F04A
:104C4000FBF905B05DF804FB1F9F000010B54FF0A5
:104C50002003EFF3118483F31288BFF36F8F074AA9
:104C6000136823F00201DB07116002D4012005F074
:104C700099FA84F31188BFF36F8F10BDF4170020E9
:104C8000024AC3B21C2003FB00207047A417002077
:104C90002DE9F0413849BFF35B8F0746012251E807
:104CA000003F41E800200028F9D1BFF35B8F33B902
:104CB000324933484B60CB608A6004F0A3FC7B1E12
:104CC000012B2BD8012F07D14FF08043D3F81C3490
:104CD00003F00303012B21D005F03DFC0546F8B994
:104CE000284B1B78E3B14FF080430222C3F808231E
:104CF0000646DFF894804FF08044D4F81834D4F896
:104D00001824D20316D503F00303012B01D0012F81
:104D100010D15DB386F31188BFF36F8FBDE8F081CA
:104D20004FF02003EFF3118683F31288BFF36F8FE8
:104D30000125DEE7ADB13046FEF736FCD4F8183574
:104D4000002BDAD1D4F80421002AD6D0C4F80431DB
:104D5000D4F804310123C4F81835C8F88031A360B1
:104D6000CBE70021212003F0A9FDE7E74FF08043C6
:104D70000222C3F80423D1E7A017002090170020D7
:104D8000C01700201B1D002000E100E008B5074807
:104D900005F06AFB38B10648FEF7ECFF0448FCF763
:104DA00003FC002008BD6FF01200FBE7D8AB000049
:104DB000B54D00000A2838B5074D044604D1AB684C
:104DC0000D215B6828469847AB6803485B68E1B2F1
:104DD0009847204638BD00BFD8AB000030B54068CA
:104DE000057B01F01F04B2F5001F85B044EA4514AD
:104DF00005D1204601F06AF9002005B030BD00253C
:104E0000B2F5800FCDE9025514D1B3F1007F0CBF8C
:104E1000042305238DF808300023194602AA2046F2
:104E200000F092FF1F4B984239D10121204601F03A
:104E300005F9E1E7B3F1C06F26D0B3F1007F14BFED
:104E4000012302238DF808308368CB40D907E3D4CF
:104E5000B2F1A07FE0D16209012A04F01F03124AD7
:104E600003F5E07318BF4FF0A04252F82330DB0780
:104E7000D2D40DF107052946204601F08BF80B4BE3
:104E8000984203D00395C7E70323DBE7284601F0E8
:104E9000CFF8044B9842F5D06FF00B00ADE76FF000
:104EA0001500AAE70000AD0B000300500400AD0B95
:104EB00010B501F0ADF8044668B901F081F8084B6F
:104EC00098420AD10748214601F05EF822460521A2
:104ED0000620FEF7A5FB002010BD6FF00400FBE7E5
:104EE0000000AD0BE94E0000420970B5034602D048
:104EF000012A17D070BD0D4E326951680029F9D0D2
:104F000003F01F0301250C689D400029F2D08A6838
:104F10002A4002D04B68304698472CB1236821467E
:104F20001C46F2E7024EE7E72346F8E7C0AB000075
:104F3000A8AB00002DE9FF4147683B7B01F01F054E
:104F400045EA43150E4628460DF10301144601F0CB
:104F500021F814F4403F80460BD1284601F0DEF8DA
:104F60003D4B984503D19DF8030001F05BF800200C
:104F70000CE00023194602AA2846CDE9023300F0CE
:104F8000E3FE354B984204D06FF0150004B0BDE845
:104F9000F081804503D19DF8030001F043F8A3039D
:104FA0004BD540F206332340B3F5837F19D00CD89C
:104FB000062B17D004D8ABB1022BE5D1042311E0A6
:104FC000B3F5807FE0D101230CE040F2022293424E
:104FD00027D0B3F5407F26D0B3F5007FD4D102238C
:104FE00000E007238DF8043084F48033C3F30043DA
:104FF000E0068DF8053054BFC4F3401303232103AA
:105000008DF8063011D57A680123B340C2F808350F
:10501000002201A9284600F045FF0F4B9842A6D078
:10502000B2E70523DEE70323DCE7620341BF012388
:105030007A68B340C2F80C35EAE7E3064FF00003A4
:1050400054BFC4F3401403241A4601A928468DF81E
:10505000044000F079FEE0E70000AD0B38B544688D
:105060000569E3699847206A04F0E1FF00280DDB39
:105070002B46084A04F10801204601F0F1F9064BDD
:10508000984204D1204601F04DFA002038BD6FF05F
:105090000400FBE7D95000000000AD0B70B5446878
:1050A0002368D3F80855D3F80C65204601F04AFA76
:1050B0003146284602F022FC0546206A04F0B7FF7C
:1050C000204601F02FFA034B9D4214BF6FF00F00F2
:1050D000002070BD0000AD0B0378012B08D0022B1F
:1050E00008D04BB9054B0B6201F1100002F084BFF0
:1050F000034BF8E7034BF6E7034BF4E70000AD0B77
:105100000100AE0B0200AE0B0100AD0B2DE9F04F1C
:10511000D0F804A006698BB0934614221D46814640
:10512000BAF81830D6F8248002930C460DEB020032
:10513000002104F0D3FD8DF815504FF0FF324FF0F1
:10514000FF33304602F078FF06F11003019300228E
:10515000002306F1100002F06FFF00273D465F4577
:1051600001D3002468E0207A020700F18A80013729
:105170005F450AD2830708D4237D80EA030202F048
:10518000010203F004031A431AD0DDB10023626860
:10519000DDF808C0A918614576D8C10706D4216892
:1051A000039308EB050004F08EFD039B62682A441C
:1051B00095B2002B4FD14DB1CDF820802B4609E0A0
:1051C0000123E4E7C007D4E900121BD52368089344
:1051D00063680025227A069302F0010382F002023E
:1051E000C2F34002520105A950468DF8143001F077
:1051F000C7F9284B984213D00B3398421AD16FF05D
:105200000F0419E001F06043B3F1005FDED0BAF89B
:105210001A3093423BD3404604F055FDA588CAE7B7
:105220004FF480420198002302F006FF58B148462F
:10523000FFF734FF6FF00404304602F0DDFE204635
:105240000BB0BDE8F08F336A124A9342F2D1237A51
:10525000DB0702D400250C3481E7089B9845F9D17F
:10526000234608E0A91AD86803938DB218FA81F191
:1052700004F029FD039B5A689542A3F10C03F1D277
:10528000E8E76FF08504D7E76FF01B04D4E76FF011
:105290001504D1E70000AD0BF0B51C4E00EB810109
:1052A000814201D1002010E0036803F07F047F2CCD
:1052B000C3F343254FEA134308BF4FF0FF340B2BD2
:1052C00004D00C2B1FD06FF08500F0BDC2F808454C
:1052D00005B9062550F8043B04F01F07C3F3403E10
:1052E0006409C3F3C113012C4FEA83030CBFB44616
:1052F0004FF0A04C43EA4E0307F5E07443EA052360
:105300004CF82430CCE7C2F80C45E1E7000300502C
:10531000014B01221A60704700C000400C2903694C
:105320000BD15B6A064907484B4393FBF0F100FB46
:10533000113311605360002070476FF08500704793
:1053400090D0030040420F00044B00690022C3F8D4
:105350000021D3F8003102F04FBE00BF00C0004072
:105360007FB50569AB6A63B3392901D00C292BD10C
:1053700005F110064FF0FF324FF0FF33304602F0D8
:1053800051FD134B0193A86A03230024694603943B
:10539000029304F037F94FF0FF324FF0FF33284605
:1053A00002F04AFEA86A04F085F90A4BD3F80825F2
:1053B0006A6201225A60304602F0AEFD204604B017
:1053C00070BD6FF00A00FAE76FF08500F7E700BFE5
:1053D0001153000000C0004010B504690020FFF721
:1053E0004FFCA0624FF0FF320021204605F04DF93E
:1053F00004F1100005F0C9F8002201210C20FEF78D
:105400000FF90C20FEF7DCF8024B0122C3F804234D
:10541000002010BD00C0004070B5012383400E4A3B
:10542000BFF35B8FDC4352E8001F01EA040542E84A
:105430000056002EF7D1BFF35B8F4FF480328240CD
:105440000648C0F80823BFF35F8FBFF36F8F0B428E
:1054500014BF0120002070BD401800200010014042
:1054600070B40E49D1E90034D01AC31844F10004D5
:1054700022F07F46C1E90034A6F50013B3F5400FD2
:1054800009D2074B1B681A0A1B069C19054B42F1EF
:105490000005C3E9004570BC03F092BBF005002095
:1054A00044180020F805002011B3BFF35B8F0123DF
:1054B000104A834052E800CF4CEA030C42E800C196
:1054C0000029F7D1BFF35B8F0B4A4FF48033834041
:1054D000C2F80433094BBFF35B8F1B68BFF35B8FCC
:1054E000C340DB0742BF064B4FF40032C3F8002134
:1054F000704700BF40180020001001403C180020F9
:1055000000E100E00D4B1868010A0006BFF35F8F51
:105510000B4BD3F80435181841F10001B3F5801F87
:105520000AD2084BD3E90023904271EB030303D264
:1055300010F1807041F10001704700BF4418002055
:1055400000100140F80500202DE9F74F16461F46D0
:105550000446FFF761FF0090FFF7D4FFB04271EB04
:10556000070351D23A4B301A67EB0101984271F1AF
:1055700000016AD2374B03EB0413D3E902239F42A5
:1055800008BF96424ED034494FF4803904F150059B
:1055900009FA04F9AD00C1F848932046ADB204F011
:1055A000A7FD26F07F4B05F1804504F5A8732B4A33
:1055B000019305F58835DC464FF0030A019B2CF07A
:1055C0007F4041F82300C1F84493D1F804856FF07F
:1055D0000200A0EB0800604420F07F40904221D9F7
:1055E000286860B1D1F80485A8EB0B0020F07F405B
:1055F000B0F5000F16D9204604F07AFD174A0AEBE1
:10560000080C0AF1010AD9E70123154ABFF35B8FA1
:10561000A34052E8000F184342E800010029F8D1E6
:10562000BFF35B8F0B490C98230101EB0412C2E915
:105630000267C8500D9B5360002520460099FFF774
:1056400033FF284603B0BDE8F08F6FF01505F4E78F
:1056500001008000E005002000100140FDFF7F00F8
:105660003C18002073B51B4C1B4BC4F80833C4F81E
:1056700048331A4B00254FF0FF304FF0FF31C4F88C
:105680000855C3E902014FF48033C4F80433144BC6
:1056900002264FF400320121C4F804631120C3F83C
:1056A00080212A46FDF7BCFF1120FDF789FF0D4A36
:1056B0000123A360236013600B4B0C4A00930195F8
:1056C00000232846FFF740FF3046FFF7E1FA28465F
:1056D00002B070BD0010014003000F00E005002083
:1056E00000E100E04018002061540000FFFF7F004F
:1056F0002DE9F7432F4CD4F8043399070BD5D4F890
:10570000043143B12C4A0023C4F80431D4F80431E5
:10571000136801331360D4F80433DA032AD5BFF3D6
:105720005B8F264B53E8002F22F0010143E8001065
:105730000028F7D1BFF35B8FD30702D4D4F84031F0
:10574000C3B10025C4F84051D4F84031FFF7DAFE68
:105750004FF02003EFF3118283F31288BFF36F8FB2
:10576000174BD3E90267B042B94106D282F31188E0
:10577000BFF36F8F03B0BDE8F0834FF0FF384FF0F9
:10578000FF39C3E90289D3E900101D604FF480336B
:10579000C4F84833C4F84051D4F8403182F311883A
:1057A000BFF36F8F0029E5D0009032463B46284674
:1057B0008847DFE700100140441800203C18002013
:1057C000E0050020431C13B522D0012822DD124A37
:1057D000124B9042D4BF04461C46FFF793FE104B79
:1057E0000E49D3E90023801AB0F5000F28BF00242A
:1057F00004448C4228BF0C46A2180A4900914FF07D
:105800000000019043F10003FFF79EFE02B010BDBF
:10581000024CE2E70124E0E7FEFF7F00FFFF7F008C
:10582000F00500206154000008B5FFF76BFE024B45
:105830001B68C01A08BD00BFF005002010B5084C59
:10584000012363601120FDF7C9FE064BC4F808333D
:10585000C4F84833044B4FF40032C3F8802110BD24
:105860000010014003000F0000E100E04FF0805302
:10587000D3F83021082A06D1D3F83431052B02D8C9
:10588000024AD05C70470020704700BF17B4000088
:10589000024AD2F80034002BFBD0704700E00140F0
:1058A00010B54FF08053D3F83021082A4ED14FF075
:1058B00080420021C2F80C11C2F81011C2F838154C
:1058C00002F54042D3F80414C2F82015D3F80814A6
:1058D000C2F82415D3F80C14C2F82815D3F8101404
:1058E000C2F82C15D3F81414C2F83015D3F81814D4
:1058F000C2F83415D3F81C14C2F84015D3F820149C
:10590000C2F84415D3F82414C2F84815D3F8281463
:10591000C2F84C15D3F82C14C2F85015D3F8301433
:10592000C2F85415D3F83414C2F86015D3F83814FB
:10593000C2F86415D3F83C14C2F86815D3F84014C3
:10594000C2F86C15D3F84434C2F87035FFF78EFFF7
:1059500018B13A4B3A4AC3F88C26FFF787FF18B1C3
:10596000384BFB22C3F81825FFF780FF70B14FF0CA
:1059700080414FF08053D1F8E42ED3F8583222F012
:105980000F0203F00F031343C1F8E43EFFF76EFF6D
:1059900020B12D4B4FF40072C3F840264FF08053D6
:1059A000D3F83031082B1AD14FF08043D3F80024BC
:1059B000D20744BF6FF00102C3F800244FF08053B8
:1059C000D3F83431052B02D8204AD35C3BB14FF0D9
:1059D0001023D3F808224FF08043C3F858254FF026
:1059E0001023D3F80022002A03DBD3F80432002B63
:1059F00022DA174901234FF01020C1F80435122490
:105A0000FFF746FFC0F80042FFF742FFC0F804422C
:105A1000FFF73EFF0023C1F80435FFF739FFBFF35E
:105A20004F8F0C490C4BCA6802F4E0621343CB6001
:105A3000BFF34F8F00BFFDE710BD00BF0050004017
:105A40004881030000F000400090024011B40000C3
:105A500000E0014000ED00E00400FA0570B501250A
:105A60000268BFF35B8FB2FA82F3C3F11F03DBB2AC
:105A700005FA03F422EA040450E8006F964204D1C8
:105A800040E8004CBCF1000FF6D1BFF35B8FE7D1CB
:105A900001480B7070BD00BF0000AD0B10B503686E
:105AA000CB40DB0714D401238B400268BFF35B8F2C
:105AB00043EA020150E8004F944204D140E8001C40
:105AC000BCF1000FF6D1BFF35B8FEED1014810BDE2
:105AD0000148FCE70000AD0B0400AD0BF7B5044630
:105AE00018B1012822D003B0F0BD4FF0804302224C
:105AF000C3F80823C3F80401D3F804210122DA60B3
:105B0000074601238DF8073042F210754FF08046AA
:105B1000CCB1012CE7D1C7B3D6F80C3403F00103A4
:105B20003B70D6F80C34DA0321D516E04FF08043F1
:105B30000022C3F80803C3F80021D3F800215860FD
:105B40000DF10707DDE7B7B1D6F8183403F003030A
:105B50003B60D6F81834D803C5D59DF80700012856
:105B600003D104F0E1FA013DD2D1012CBBD10C4BA1
:105B700000225A71B7E7D6F81834D903B3D50120FB
:105B800004F0D2FA013DF6D1ADE7D6F80C34DB03D0
:105B9000EDD5012004F0C8FA013DF6D1E7E700BFDA
:105BA00048180020044B1A7922B9012218609A8003
:105BB0000248704702487047481800200000AD0BAB
:105BC0000C00AD0B08B50020FDF71CFD08B9FDF772
:105BD000F7FC4FF080430022C3F81825014B012247
:105BE0001A7008BD151D002010B54FF08043D3F882
:105BF00000216AB10022C3F80021D3F8002101225C
:105C0000C3F80823114B587910B95A711B6898478B
:105C10004FF08043D3F8042172B10022C3F804216D
:105C2000D3F80421D3F81824D3F81814920704D118
:105C30000122C3F818259A6010BD0222C3F8082378
:105C4000024BBDE810401B6801201847481800208F
:105C5000036803F01F025B09012B0260024818BFB2
:105C60004FF0A040704700BF00030050034B0830C6
:105C700033F81000C0F34010704700BF64010020EB
:105C800070B500F108030C4C34F81330DA05054602
:105C90000E4607D5C3F3432304EBC30254F8333055
:105CA00052689847A3682BB1E26831462846BDE8A0
:105CB0007040184770BD00BF6401002010B4124A44
:105CC000083032F81030D9051BD5C3F3432123F433
:105CD000F85322F8103002F10E04002034F8023F8D
:105CE00013F4807F03D0C3F34323994209D00130DA
:105CF0003028F3D1002342F83130044810BCFFF7BC
:105D0000CDBE10BC704700BF64010020D801002048
:105D100038B50246FFF7AAFF094C02F1080540B169
:105D200034F8153007495B0B03F5A273002041F8E6
:105D300023001046FFF7C2FF002324F8153038BDBA
:105D400064010020006000402DE9FF410446164632
:105D50001D4601B34E4F00F1080837F818309B0775
:105D600002D5FFF783FF10BB0023CDE900338DF888
:105D70000E308DF80F300DF10F020B4620460DF15D
:105D80000E0104F011FA37F8183023F0020343F043
:105D9000010327F8183046B33D4B96F800C07268EF
:105DA00004F1080733F81710880702D5AAB139485B
:105DB0001DE021F02001C904C90C23F8171062B1BD
:105DC000BCF1030FF3D872681678BCF1000F11D143
:105DD000314A06F5A27642F826C033F8172022F0A1
:105DE0001C0242EA8C0223F8172045BB2B4804B062
:105DF000BDE8F081B20002F1804202F5C04241EA02
:105E00004631D2F8100520F00300C2F81005D2F890
:105E1000100520F44F3020F44070C2F81005200225
:105E2000D2F810E500F47C5040EA0C4040EA0E0045
:105E300041F0200123F81710C2F81005CDE7D5E98D
:105E400000672046FFF73AFF002ECFD0104DD5E96E
:105E50000023964201D19F4218D011480DF10F0145
:105E6000FFF7FCFD0D4B9842C1D19DF80F2045F87E
:105E7000326005EBC20308345F6035F8143043EA42
:105E8000422343F4807325F81430AFE70022EEE795
:105E9000640100200400AD0B006000400000AD0B69
:105EA000D8010020F0B5044685B0154619B3334E2D
:105EB00000F1080736F81720930703D4FFF7D6FE42
:105EC000002858D112F01C0F02D04B78012B52D071
:105ED00001238DF80F300023CDE900134A1C8B1CE1
:105EE00020460DF10F0104F05FF936F8173043F04A
:105EF000030326F8173015B9214805B0F0BD1F4E31
:105F000004F1080736F81700830734D595F800C068
:105F10006146890020F0200001F18041C00401F5B4
:105F2000C041C00C26F817000023C1F810356A786C
:105F3000002AE1D0D1F81035AD7823F4991323F479
:105F4000F853C1F81035D1F810E5230203F47C535F
:105F5000120402F4403243EA0E0313432A0502F40A
:105F6000801240EA4C30134340F0200026F817001E
:105F7000C1F81035C0E70348BFE700BF6401002047
:105F80000000AD0B0400AD0B014BC3E902017047EB
:105F90006401002008B50246FFF768FE38B1054BE2
:105FA0000548083233F812305B0B0B7008BD03480C
:105FB000FCE700BF640100200000AD0B0400AD0B46
:105FC00038B50F4C94F87850BDB96022294604F1D9
:105FD000100003F083FE0620FDF7F2FA094B0A4891
:105FE000C3F87C51D3F87C214FF00042C3F804235E
:105FF000012384F87830636738BD0448FCE700BFAC
:1060000064010020006000400000AD0B0500AD0BF6
:10601000034B93F87800003818BF0120704700BF89
:106020006401002001460148FFF738BDD40100207B
:1060300001460148FFF712BDD401002037B50446E0
:10604000FFF714FE04F108021E4B33F81230E8B1DA
:1060500013F002051AD15B0B9A0002F1804000F5A3
:10606000C24002F1804202F5C04205600068D2F8E9
:10607000100540F00100C2F8100529B1012202FA12
:1060800003F3114AC2F8043303B030BDC3F38203F3
:10609000042B12D0052B12D001A80194FFF7D8FDD4
:1060A000019BD0F81015D94001F0010102312046C2
:1060B00003B0BDE8304004F0C0B80321F7E7022187
:1060C000F5E700BF640100200060004008B502460B
:1060D000FFF7CCFDC0B102F108010E4B33F81130CF
:1060E000990711D45B0B01229A409B000A4903F1E6
:1060F000804303F5C043C1F80823D3F8102522F0EC
:106100000302C3F8102508BDBDE808400021104671
:1061100004F093B8640100200060004013B50E4BFA
:1061200000F10802044633F81230DB0711D5FFF7FF
:10613000CDFF2046FFF7ECFD01A80194FFF788FD95
:10614000019B03F5E073022240F82320034802B0CC
:1061500010BD0348FBE700BF640100200000AD0B49
:106160000400AD0B2DE9F04F684B694869490026E2
:1061700087B0012234461D6835B1D0F8045315426A
:106180001EBF1C601D68164304338B424FEA420257
:10619000F1D1DFF87C91D9F87C31002B00F09980A7
:1061A0004FF0A043D3F820250492C3F82025D3F85C
:1061B00020280592C3F820284FF000080DF1100A9E
:1061C0004FEA481300934FF0010B49E0009B524AFD
:1061D00094FAA4F4B4FA84F41C44E00804F108032B
:1061E000039432F813701AF8003004F007020BFA27
:1061F00002F223EA02030AF8003003A8FFF728FDA1
:10620000039B03F5E073B90850F82330C7F3820508
:106210004A072F46C3F301432CD520463946DDB249
:10622000FFF72EFD03A80394FFF712FD039B03F570
:10623000E07350F82330C3F301439D4207D100219E
:10624000204603F0FAFF2946204603F0F6FF03A894
:106250000394FFF7FDFC039B0BFA03F3C0F8203512
:106260005AF82840002CB1D1B8F1000F1DD14FF0E1
:106270000108A5E7022B0CD10321204603F0DDFF26
:1062800005F00503012BE2D139462046FFF7F8FC63
:10629000DDE702212046019303F0CFFF032DF3D069
:1062A000019B032BD3D1022DEDE74FF0A042C9F89B
:1062B0007C41D9F87C311949D2F820350493C2F8D1
:1062C0002035D1F8202505921343C1F820257FF40D
:1062D00073AF012416B907B0BDE8F08F96FAA6F3A4
:1062E000B3FA83F304FA03F29B0003F1804303F54E
:1062F000C04326EA0206D3F81005D3F81015C0F300
:106300000520C1F30141FFF7BBFCE3E7006100405A
:106310000060004020610040640100200003005044
:1063200010B5184C237853BB0278C2F34003920790
:1063300012D54FF08053D3F83021082A0BD1D3F86F
:106340003431052B07D8104AD35C23B14FF080437A
:106350000122C3F8382601234FF08042C2F880356D
:10636000037803F00103C2F878350020FDF74AF9FD
:1063700008B9FDF725F901230448237010BD04482E
:10638000FCE700BF161D002034B400000000AD0B78
:106390000C00AD0B4FF080434FF46072C3F808233C
:1063A000014B00221A6070475018002008B5FFF713
:1063B000F1FF03680BB1014A136008BD50180020BB
:1063C00010B54FF08043D3F80443620707D54FF46C
:1063D000847003F041FF10B11E4B1B689847A30661
:1063E00008D54FF48A7003F037FF18B11A4B00201C
:1063F0001B689847600608D54FF48C7003F02CFF9B
:1064000018B1154B01201B689847210608D54FF499
:106410008E7003F021FF18B1104B00201B689847C5
:10642000E20508D54FF4907003F016FF18B10B4B3E
:1064300001201B689847A3050AD54FF4927003F01A
:106440000BFF28B1054BBDE810401B680220184720
:1064500010BD00BF5818002054180020501800200C
:106460002DE9F04106792B4D4FF0340E0EFB06FE60
:1064700005EB0E0494F82D70002F48D1D0F800C021
:1064800045F80E20A760636084F8307084F82F70A0
:106490004B7B84F832308B7B84F83330CBB1CB7BB1
:1064A0002BB9D1E90043CCF80845CCF80C358B6802
:1064B000CCF8243522B1006840F30730FDF780F8AE
:1064C000342303FB06551448012385F82D30BDE81D
:1064D000F0810C68114B04F01F076409012C08BF00
:1064E000984607F5E07418BF4FF0A04840F20C6ED4
:1064F00048F824E04C6804F01F076409012C18BF19
:106500004FF0A04307F5E07443F824E0C7E70448E0
:10651000DDE700BF5C1800200000AD0B0003005059
:106520000500AD0B036802790621C3F80015044B82
:10653000342101FB0233022283F82D20704700BF73
:106540005C18002001790C4B0268342000FB0133F9
:1065500000210A489960C2F80803D2F8000220F42A
:10656000BC50C2F80002C2F80015012283F82D20A9
:1065700083F82F10704700BF5C18002002029C01B6
:106580002DE9F047DFF8ECC290F804E0046834230A
:1065900003FB0EC31746002283F82E204B680D46DE
:1065A0004BB1CB6803F06043B3F1005F03D0B24E50
:1065B0003046BDE8F0873426B04BC4F8083306FBFC
:1065C0000EC696F82F3003F0FF0A23B1B368C4F863
:1065D0000433AB4EECE717F0140F0CBF012300237C
:1065E00086F82F30A946B9E80F0006F10C08A8E894
:1065F0000F00D9F80030C8F80030C7F3001386F850
:10660000303037626B78C4F88835C4F804A1D4F808
:106610000431C4F824A1D4F82431C4F860A1D4F81A
:106620006031C4F848A1D4F8483117F0010318BF0D
:106630000123C4F8503517F0020318BF0123C4F832
:1066400040352B78032B00F2B980DFE803F08BA4F0
:106650006D022B6903F06043B3F1005FA7D14FF4E3
:106660008073C4F800326B68EA68C4F84425C4F843
:1066700048350023C4F85031D4F850210122226259
:10668000A260D4F85021002AFBD0C4F85031D4F8CD
:1066900050312A69AB68C4F84425C4F8483534231E
:1066A00003FB0EC34FF480229A600823754E38070F
:1066B00007D42A78032A04D00122E2506B6803B978
:1066C0006261342303FB0EF30CEB03025CF803104E
:1066D000002976D10120D4F84831002B00F08980C0
:1066E000D4F80431002B40F08780D4F82431002BFB
:1066F00000F095800123C4F82411D4F82421D4F8A3
:106700006051D4F80022002D00F0818012F4007F47
:1067100002F480727ED120626061002ADBD0C4F86E
:106720004811D4F84831D6E76B68EA68C4F84425C4
:10673000C4F848352B6903F06042B2F1005F7FF482
:1067400036AFAA68C4F834354FF48453C4F83825FA
:10675000C4F80032342303FB0EC302229A600123E3
:106760002362A2E76B68EA68C4F8442517F0200F9B
:10677000C4F848354FF0340308D04FF48072C4F8A1
:10678000002203FB0EC34FF48022E7E74FF40072B0
:10679000C4F80022DFE76B68EA68C4F83425C4F85F
:1067A00038354FF48053C4F80032342303FB0EC352
:1067B00002229A6001232362002377E7324E0823E6
:1067C00075E7790744BF002393607A0606D4342323
:1067D00003FB0EC39A6842F002029A60342303FB63
:1067E0000EC39A6842F400729A609B68C4F804333E
:1067F000DEE6D4F8043123B1C4F80411D4F804312E
:1068000073E7D4F82421002A3FF465AF73E72062D0
:10681000606160E7002A82D1002B3FF45CAF342135
:10682000D4F8C434C4F8C43401FB0EC2002082F88A
:106830002F008BB1154A164E13F0010F18BF1646E4
:1068400013F0020F02F1010218BF164613F0040FF5
:10685000104B18BF1E46ABE67B063FF5A9AE0EFBFC
:1068600001C1204603F019FD094B002808BF1E4650
:106870009EE600BF5C1800200A00AD0B02029C01DE
:106880000B00AD0B0000AD0B0400AD0B0000AE0B18
:106890000100AD0B0200AE0BF0B5594D594CD5F8C7
:1068A000243187B0FBB10023C5F82431D5F8243159
:1068B000D5F80431BBB9A368C5F808330223A36037
:1068C000A368C5F80433D5F860311BB1D5F80032A0
:1068D0009E0503D44A4B01221A625A61012384F8AF
:1068E0002E3007B0F0BDD5F80431002B59D000236D
:1068F000C5F80431276AD5F804317D060AD494F826
:106900002E303BB93F493E4803F0C7FC80F0010000
:1069100084F82E0017F0040794F830C01FD13A4EC7
:106920000FCE01AD0FC533682B60354BC3F86071D6
:10693000D3F86021C3F85C71D3F85C21BCF1000F7F
:1069400002D094F82E2052B10022C3F80022A26097
:106950002E4AC3F808232E4B0822C3F88021284A68
:10696000D2F8C434C2F8C434980743D4590743D486
:10697000DA0743D494F82E309B00DBB28DF8003058
:1069800094F830300BB984F82F30236A5B0703D5B5
:1069900094F82E30002BA4D0D4E9003168469847F3
:1069A0009FE7C5F84831D5F84831237B83B9164FA6
:1069B0000FCF01AE0FC63B68336094F83030002B28
:1069C000CDD1C5F80032A360104BC5F80833C2E73B
:1069D0004FF40073C5F8003240F20223A36003F1C4
:1069E000CE73C5F80833A368C5F804330123AB6040
:1069F0002B6276E70123C1E70223BFE70323BDE74C
:106A0000003000405C1800206818002002029C0141
:106A100000E100E04FF08053D3F83021082A06D17E
:106A2000D3F83431052B04D8034AD05C70470020DA
:106A300070470120704700BF44B40000054B10F0C0
:106A4000800FA3F1900208BF134600F00F0003EB84
:106A500000107047381A002007B5074A002313704A
:106A6000064A137001230193054B01A81B68984740
:106A700003B05DF804FB00BF191D0020181D0020A5
:106A8000D01A002013B5194BD3F80044C3F80044C2
:106A9000E105D3F8003408D5154B01221A70022302
:106AA0000193144B01A81B689847A20508D5104B09
:106AB00000221A70032301930E4B01A81B6898470C
:106AC000630510D50A4B1A786AB100221A70074B79
:106AD0000122C3F808259A659B6D04230193054B99
